{
	"empireERC20Token_flat.sol": {
		"EmpireERC20Token": {
			"abi": [
				{
					"inputs": [
						{
							"internalType": "address payable",
							"name": "_myWallet",
							"type": "address"
						}
					],
					"stateMutability": "nonpayable",
					"type": "constructor"
				},
				{
					"anonymous": false,
					"inputs": [
						{
							"indexed": true,
							"internalType": "address",
							"name": "owner",
							"type": "address"
						},
						{
							"indexed": true,
							"internalType": "address",
							"name": "spender",
							"type": "address"
						},
						{
							"indexed": false,
							"internalType": "uint256",
							"name": "value",
							"type": "uint256"
						}
					],
					"name": "Approval",
					"type": "event"
				},
				{
					"anonymous": false,
					"inputs": [
						{
							"indexed": true,
							"internalType": "address",
							"name": "previousOwner",
							"type": "address"
						},
						{
							"indexed": true,
							"internalType": "address",
							"name": "newOwner",
							"type": "address"
						}
					],
					"name": "OwnershipTransferred",
					"type": "event"
				},
				{
					"anonymous": false,
					"inputs": [
						{
							"indexed": true,
							"internalType": "address",
							"name": "from",
							"type": "address"
						},
						{
							"indexed": true,
							"internalType": "address",
							"name": "to",
							"type": "address"
						},
						{
							"indexed": false,
							"internalType": "uint256",
							"name": "value",
							"type": "uint256"
						}
					],
					"name": "Transfer",
					"type": "event"
				},
				{
					"anonymous": false,
					"inputs": [
						{
							"indexed": false,
							"internalType": "address",
							"name": "buyer",
							"type": "address"
						},
						{
							"indexed": false,
							"internalType": "address",
							"name": "receiver",
							"type": "address"
						},
						{
							"indexed": false,
							"internalType": "uint256",
							"name": "tokenAmount",
							"type": "uint256"
						}
					],
					"name": "boughtToken",
					"type": "event"
				},
				{
					"inputs": [],
					"name": "OwnerEthBalance",
					"outputs": [
						{
							"internalType": "uint256",
							"name": "",
							"type": "uint256"
						}
					],
					"stateMutability": "view",
					"type": "function"
				},
				{
					"inputs": [
						{
							"internalType": "address",
							"name": "owner",
							"type": "address"
						},
						{
							"internalType": "address",
							"name": "spender",
							"type": "address"
						}
					],
					"name": "allowance",
					"outputs": [
						{
							"internalType": "uint256",
							"name": "",
							"type": "uint256"
						}
					],
					"stateMutability": "view",
					"type": "function"
				},
				{
					"inputs": [
						{
							"internalType": "address",
							"name": "spender",
							"type": "address"
						},
						{
							"internalType": "uint256",
							"name": "amount",
							"type": "uint256"
						}
					],
					"name": "approve",
					"outputs": [
						{
							"internalType": "bool",
							"name": "",
							"type": "bool"
						}
					],
					"stateMutability": "nonpayable",
					"type": "function"
				},
				{
					"inputs": [
						{
							"internalType": "address",
							"name": "account",
							"type": "address"
						}
					],
					"name": "balanceOf",
					"outputs": [
						{
							"internalType": "uint256",
							"name": "",
							"type": "uint256"
						}
					],
					"stateMutability": "view",
					"type": "function"
				},
				{
					"inputs": [
						{
							"internalType": "address",
							"name": "receiver",
							"type": "address"
						}
					],
					"name": "buyToken",
					"outputs": [],
					"stateMutability": "payable",
					"type": "function"
				},
				{
					"inputs": [],
					"name": "decimals",
					"outputs": [
						{
							"internalType": "uint8",
							"name": "",
							"type": "uint8"
						}
					],
					"stateMutability": "view",
					"type": "function"
				},
				{
					"inputs": [
						{
							"internalType": "address",
							"name": "spender",
							"type": "address"
						},
						{
							"internalType": "uint256",
							"name": "subtractedValue",
							"type": "uint256"
						}
					],
					"name": "decreaseAllowance",
					"outputs": [
						{
							"internalType": "bool",
							"name": "",
							"type": "bool"
						}
					],
					"stateMutability": "nonpayable",
					"type": "function"
				},
				{
					"inputs": [
						{
							"internalType": "address",
							"name": "spender",
							"type": "address"
						},
						{
							"internalType": "uint256",
							"name": "addedValue",
							"type": "uint256"
						}
					],
					"name": "increaseAllowance",
					"outputs": [
						{
							"internalType": "bool",
							"name": "",
							"type": "bool"
						}
					],
					"stateMutability": "nonpayable",
					"type": "function"
				},
				{
					"inputs": [
						{
							"internalType": "address",
							"name": "to",
							"type": "address"
						},
						{
							"internalType": "uint256",
							"name": "amount",
							"type": "uint256"
						}
					],
					"name": "mint",
					"outputs": [],
					"stateMutability": "nonpayable",
					"type": "function"
				},
				{
					"inputs": [],
					"name": "name",
					"outputs": [
						{
							"internalType": "string",
							"name": "",
							"type": "string"
						}
					],
					"stateMutability": "view",
					"type": "function"
				},
				{
					"inputs": [],
					"name": "owner",
					"outputs": [
						{
							"internalType": "address",
							"name": "",
							"type": "address"
						}
					],
					"stateMutability": "view",
					"type": "function"
				},
				{
					"inputs": [],
					"name": "rate",
					"outputs": [
						{
							"internalType": "uint256",
							"name": "",
							"type": "uint256"
						}
					],
					"stateMutability": "view",
					"type": "function"
				},
				{
					"inputs": [],
					"name": "renounceOwnership",
					"outputs": [],
					"stateMutability": "nonpayable",
					"type": "function"
				},
				{
					"inputs": [],
					"name": "symbol",
					"outputs": [
						{
							"internalType": "string",
							"name": "",
							"type": "string"
						}
					],
					"stateMutability": "view",
					"type": "function"
				},
				{
					"inputs": [],
					"name": "totalSupply",
					"outputs": [
						{
							"internalType": "uint256",
							"name": "",
							"type": "uint256"
						}
					],
					"stateMutability": "view",
					"type": "function"
				},
				{
					"inputs": [
						{
							"internalType": "address",
							"name": "to",
							"type": "address"
						},
						{
							"internalType": "uint256",
							"name": "amount",
							"type": "uint256"
						}
					],
					"name": "transfer",
					"outputs": [
						{
							"internalType": "bool",
							"name": "",
							"type": "bool"
						}
					],
					"stateMutability": "nonpayable",
					"type": "function"
				},
				{
					"inputs": [
						{
							"internalType": "address",
							"name": "from",
							"type": "address"
						},
						{
							"internalType": "address",
							"name": "to",
							"type": "address"
						},
						{
							"internalType": "uint256",
							"name": "amount",
							"type": "uint256"
						}
					],
					"name": "transferFrom",
					"outputs": [
						{
							"internalType": "bool",
							"name": "",
							"type": "bool"
						}
					],
					"stateMutability": "nonpayable",
					"type": "function"
				},
				{
					"inputs": [
						{
							"internalType": "address",
							"name": "newOwner",
							"type": "address"
						}
					],
					"name": "transferOwnership",
					"outputs": [],
					"stateMutability": "nonpayable",
					"type": "function"
				}
			],
			"devdoc": {
				"kind": "dev",
				"methods": {
					"allowance(address,address)": {
						"details": "See {IERC20-allowance}."
					},
					"approve(address,uint256)": {
						"details": "See {IERC20-approve}. NOTE: If `amount` is the maximum `uint256`, the allowance is not updated on `transferFrom`. This is semantically equivalent to an infinite approval. Requirements: - `spender` cannot be the zero address."
					},
					"balanceOf(address)": {
						"details": "See {IERC20-balanceOf}."
					},
					"decimals()": {
						"details": "Returns the number of decimals used to get its user representation. For example, if `decimals` equals `2`, a balance of `505` tokens should be displayed to a user as `5.05` (`505 / 10 ** 2`). Tokens usually opt for a value of 18, imitating the relationship between Ether and Wei. This is the value {ERC20} uses, unless this function is overridden; NOTE: This information is only used for _display_ purposes: it in no way affects any of the arithmetic of the contract, including {IERC20-balanceOf} and {IERC20-transfer}."
					},
					"decreaseAllowance(address,uint256)": {
						"details": "Atomically decreases the allowance granted to `spender` by the caller. This is an alternative to {approve} that can be used as a mitigation for problems described in {IERC20-approve}. Emits an {Approval} event indicating the updated allowance. Requirements: - `spender` cannot be the zero address. - `spender` must have allowance for the caller of at least `subtractedValue`."
					},
					"increaseAllowance(address,uint256)": {
						"details": "Atomically increases the allowance granted to `spender` by the caller. This is an alternative to {approve} that can be used as a mitigation for problems described in {IERC20-approve}. Emits an {Approval} event indicating the updated allowance. Requirements: - `spender` cannot be the zero address."
					},
					"name()": {
						"details": "Returns the name of the token."
					},
					"owner()": {
						"details": "Returns the address of the current owner."
					},
					"renounceOwnership()": {
						"details": "Leaves the contract without owner. It will not be possible to call `onlyOwner` functions anymore. Can only be called by the current owner. NOTE: Renouncing ownership will leave the contract without an owner, thereby removing any functionality that is only available to the owner."
					},
					"symbol()": {
						"details": "Returns the symbol of the token, usually a shorter version of the name."
					},
					"totalSupply()": {
						"details": "See {IERC20-totalSupply}."
					},
					"transfer(address,uint256)": {
						"details": "See {IERC20-transfer}. Requirements: - `to` cannot be the zero address. - the caller must have a balance of at least `amount`."
					},
					"transferFrom(address,address,uint256)": {
						"details": "See {IERC20-transferFrom}. Emits an {Approval} event indicating the updated allowance. This is not required by the EIP. See the note at the beginning of {ERC20}. NOTE: Does not update the allowance if the current allowance is the maximum `uint256`. Requirements: - `from` and `to` cannot be the zero address. - `from` must have a balance of at least `amount`. - the caller must have allowance for ``from``'s tokens of at least `amount`."
					},
					"transferOwnership(address)": {
						"details": "Transfers ownership of the contract to a new account (`newOwner`). Can only be called by the current owner."
					}
				},
				"version": 1
			},
			"evm": {
				"assembly": "    /* \"empireERC20Token_flat.sol\":19473:20517  contract EmpireERC20Token is ERC20, Ownable {... */\n  mstore(0x40, 0x80)\n    /* \"empireERC20Token_flat.sol\":19580:19587  1000000 */\n  0x0f4240\n    /* \"empireERC20Token_flat.sol\":19556:19587  uint256 initialSupply = 1000000 */\n  0x07\n  sstore\n    /* \"empireERC20Token_flat.sol\":19694:19698  1000 */\n  0x03e8\n    /* \"empireERC20Token_flat.sol\":19672:19698  uint256 public rate = 1000 */\n  0x08\n  sstore\n    /* \"empireERC20Token_flat.sol\":19705:19861  constructor(address payable _myWallet) ERC20(\"empireERC20Token\", \"EMPE\") {... */\n  callvalue\n  dup1\n  iszero\n  tag_1\n  jumpi\n  0x00\n  dup1\n  revert\ntag_1:\n  pop\n  mload(0x40)\n  sub(codesize, bytecodeSize)\n  dup1\n  bytecodeSize\n  dup4\n  codecopy\n  dup2\n  dup2\n  add\n  0x40\n  mstore\n  dup2\n  add\n  swap1\n  tag_2\n  swap2\n  swap1\n  tag_3\n  jump\t// in\ntag_2:\n    /* \"empireERC20Token_flat.sol\":8754:8867  constructor(string memory name_, string memory symbol_) {... */\n  mload(0x40)\n  dup1\n  0x40\n  add\n  0x40\n  mstore\n  dup1\n  0x10\n  dup2\n  mstore\n  0x20\n  add\n  0x656d706972654552433230546f6b656e00000000000000000000000000000000\n  dup2\n  mstore\n  pop\n  mload(0x40)\n  dup1\n  0x40\n  add\n  0x40\n  mstore\n  dup1\n  0x04\n  dup2\n  mstore\n  0x20\n  add\n  0x454d504500000000000000000000000000000000000000000000000000000000\n  dup2\n  mstore\n  pop\n    /* \"empireERC20Token_flat.sol\":8828:8833  name_ */\n  dup2\n    /* \"empireERC20Token_flat.sol\":8820:8825  _name */\n  0x03\n    /* \"empireERC20Token_flat.sol\":8820:8833  _name = name_ */\n  swap1\n  dup1\n  mload\n  swap1\n  0x20\n  add\n  swap1\n  tag_8\n  swap3\n  swap2\n  swap1\n  tag_9\n  jump\t// in\ntag_8:\n  pop\n    /* \"empireERC20Token_flat.sol\":8853:8860  symbol_ */\n  dup1\n    /* \"empireERC20Token_flat.sol\":8843:8850  _symbol */\n  0x04\n    /* \"empireERC20Token_flat.sol\":8843:8860  _symbol = symbol_ */\n  swap1\n  dup1\n  mload\n  swap1\n  0x20\n  add\n  swap1\n  tag_10\n  swap3\n  swap2\n  swap1\n  tag_9\n  jump\t// in\ntag_10:\n  pop\n    /* \"empireERC20Token_flat.sol\":8754:8867  constructor(string memory name_, string memory symbol_) {... */\n  pop\n  pop\n    /* \"empireERC20Token_flat.sol\":1809:1841  _transferOwnership(_msgSender()) */\n  tag_12\n    /* \"empireERC20Token_flat.sol\":1828:1840  _msgSender() */\n  tag_13\n    /* \"empireERC20Token_flat.sol\":1828:1838  _msgSender */\n  shl(0x20, tag_14)\n    /* \"empireERC20Token_flat.sol\":1828:1840  _msgSender() */\n  0x20\n  shr\n  jump\t// in\ntag_13:\n    /* \"empireERC20Token_flat.sol\":1809:1827  _transferOwnership */\n  shl(0x20, tag_15)\n    /* \"empireERC20Token_flat.sol\":1809:1841  _transferOwnership(_msgSender()) */\n  0x20\n  shr\n  jump\t// in\ntag_12:\n    /* \"empireERC20Token_flat.sol\":19802:19811  _myWallet */\n  dup1\n    /* \"empireERC20Token_flat.sol\":19788:19799  ownedWallet */\n  0x06\n  0x00\n    /* \"empireERC20Token_flat.sol\":19788:19811  ownedWallet = _myWallet */\n  0x0100\n  exp\n  dup2\n  sload\n  dup2\n  0xffffffffffffffffffffffffffffffffffffffff\n  mul\n  not\n  and\n  swap1\n  dup4\n  0xffffffffffffffffffffffffffffffffffffffff\n  and\n  mul\n  or\n  swap1\n  sstore\n  pop\n    /* \"empireERC20Token_flat.sol\":19821:19854  _mint(msg.sender, initialSupply ) */\n  tag_17\n    /* \"empireERC20Token_flat.sol\":19827:19837  msg.sender */\n  caller\n    /* \"empireERC20Token_flat.sol\":19839:19852  initialSupply */\n  sload(0x07)\n    /* \"empireERC20Token_flat.sol\":19821:19826  _mint */\n  shl(0x20, tag_18)\n    /* \"empireERC20Token_flat.sol\":19821:19854  _mint(msg.sender, initialSupply ) */\n  0x20\n  shr\n  jump\t// in\ntag_17:\n    /* \"empireERC20Token_flat.sol\":19705:19861  constructor(address payable _myWallet) ERC20(\"empireERC20Token\", \"EMPE\") {... */\n  pop\n    /* \"empireERC20Token_flat.sol\":19473:20517  contract EmpireERC20Token is ERC20, Ownable {... */\n  jump(tag_19)\n    /* \"empireERC20Token_flat.sol\":692:788  function _msgSender() internal view virtual returns (address) {... */\ntag_14:\n    /* \"empireERC20Token_flat.sol\":745:752  address */\n  0x00\n    /* \"empireERC20Token_flat.sol\":771:781  msg.sender */\n  caller\n    /* \"empireERC20Token_flat.sol\":764:781  return msg.sender */\n  swap1\n  pop\n    /* \"empireERC20Token_flat.sol\":692:788  function _msgSender() internal view virtual returns (address) {... */\n  swap1\n  jump\t// out\n    /* \"empireERC20Token_flat.sol\":3158:3345  function _transferOwnership(address newOwner) internal virtual {... */\ntag_15:\n    /* \"empireERC20Token_flat.sol\":3231:3247  address oldOwner */\n  0x00\n    /* \"empireERC20Token_flat.sol\":3250:3256  _owner */\n  0x05\n  0x00\n  swap1\n  sload\n  swap1\n  0x0100\n  exp\n  swap1\n  div\n  0xffffffffffffffffffffffffffffffffffffffff\n  and\n    /* \"empireERC20Token_flat.sol\":3231:3256  address oldOwner = _owner */\n  swap1\n  pop\n    /* \"empireERC20Token_flat.sol\":3275:3283  newOwner */\n  dup2\n    /* \"empireERC20Token_flat.sol\":3266:3272  _owner */\n  0x05\n  0x00\n    /* \"empireERC20Token_flat.sol\":3266:3283  _owner = newOwner */\n  0x0100\n  exp\n  dup2\n  sload\n  dup2\n  0xffffffffffffffffffffffffffffffffffffffff\n  mul\n  not\n  and\n  swap1\n  dup4\n  0xffffffffffffffffffffffffffffffffffffffff\n  and\n  mul\n  or\n  swap1\n  sstore\n  pop\n    /* \"empireERC20Token_flat.sol\":3329:3337  newOwner */\n  dup2\n    /* \"empireERC20Token_flat.sol\":3298:3338  OwnershipTransferred(oldOwner, newOwner) */\n  0xffffffffffffffffffffffffffffffffffffffff\n  and\n    /* \"empireERC20Token_flat.sol\":3319:3327  oldOwner */\n  dup2\n    /* \"empireERC20Token_flat.sol\":3298:3338  OwnershipTransferred(oldOwner, newOwner) */\n  0xffffffffffffffffffffffffffffffffffffffff\n  and\n  0x8be0079c531659141344cd1fd0a4f28419497f9722a3daafe3b4186f6b6457e0\n  mload(0x40)\n  mload(0x40)\n  dup1\n  swap2\n  sub\n  swap1\n  log3\n    /* \"empireERC20Token_flat.sol\":3221:3345  {... */\n  pop\n    /* \"empireERC20Token_flat.sol\":3158:3345  function _transferOwnership(address newOwner) internal virtual {... */\n  pop\n  jump\t// out\n    /* \"empireERC20Token_flat.sol\":15191:15580  function _mint(address account, uint256 amount) internal virtual {... */\ntag_18:\n    /* \"empireERC20Token_flat.sol\":15293:15294  0 */\n  0x00\n    /* \"empireERC20Token_flat.sol\":15274:15295  account != address(0) */\n  0xffffffffffffffffffffffffffffffffffffffff\n  and\n    /* \"empireERC20Token_flat.sol\":15274:15281  account */\n  dup3\n    /* \"empireERC20Token_flat.sol\":15274:15295  account != address(0) */\n  0xffffffffffffffffffffffffffffffffffffffff\n  and\n  eq\n  iszero\n    /* \"empireERC20Token_flat.sol\":15266:15331  require(account != address(0), \"ERC20: mint to the zero address\") */\n  tag_23\n  jumpi\n  mload(0x40)\n  0x08c379a000000000000000000000000000000000000000000000000000000000\n  dup2\n  mstore\n  0x04\n  add\n  tag_24\n  swap1\n  tag_25\n  jump\t// in\ntag_24:\n  mload(0x40)\n  dup1\n  swap2\n  sub\n  swap1\n  revert\ntag_23:\n    /* \"empireERC20Token_flat.sol\":15342:15391  _beforeTokenTransfer(address(0), account, amount) */\n  tag_26\n    /* \"empireERC20Token_flat.sol\":15371:15372  0 */\n  0x00\n    /* \"empireERC20Token_flat.sol\":15375:15382  account */\n  dup4\n    /* \"empireERC20Token_flat.sol\":15384:15390  amount */\n  dup4\n    /* \"empireERC20Token_flat.sol\":15342:15362  _beforeTokenTransfer */\n  shl(0x20, tag_27)\n    /* \"empireERC20Token_flat.sol\":15342:15391  _beforeTokenTransfer(address(0), account, amount) */\n  0x20\n  shr\n  jump\t// in\ntag_26:\n    /* \"empireERC20Token_flat.sol\":15418:15424  amount */\n  dup1\n    /* \"empireERC20Token_flat.sol\":15402:15414  _totalSupply */\n  0x02\n  0x00\n    /* \"empireERC20Token_flat.sol\":15402:15424  _totalSupply += amount */\n  dup3\n  dup3\n  sload\n  tag_28\n  swap2\n  swap1\n  tag_29\n  jump\t// in\ntag_28:\n  swap3\n  pop\n  pop\n  dup2\n  swap1\n  sstore\n  pop\n    /* \"empireERC20Token_flat.sol\":15456:15462  amount */\n  dup1\n    /* \"empireERC20Token_flat.sol\":15434:15443  _balances */\n  0x00\n    /* \"empireERC20Token_flat.sol\":15434:15452  _balances[account] */\n  dup1\n    /* \"empireERC20Token_flat.sol\":15444:15451  account */\n  dup5\n    /* \"empireERC20Token_flat.sol\":15434:15452  _balances[account] */\n  0xffffffffffffffffffffffffffffffffffffffff\n  and\n  0xffffffffffffffffffffffffffffffffffffffff\n  and\n  dup2\n  mstore\n  0x20\n  add\n  swap1\n  dup2\n  mstore\n  0x20\n  add\n  0x00\n  keccak256\n  0x00\n    /* \"empireERC20Token_flat.sol\":15434:15462  _balances[account] += amount */\n  dup3\n  dup3\n  sload\n  tag_30\n  swap2\n  swap1\n  tag_29\n  jump\t// in\ntag_30:\n  swap3\n  pop\n  pop\n  dup2\n  swap1\n  sstore\n  pop\n    /* \"empireERC20Token_flat.sol\":15498:15505  account */\n  dup2\n    /* \"empireERC20Token_flat.sol\":15477:15514  Transfer(address(0), account, amount) */\n  0xffffffffffffffffffffffffffffffffffffffff\n  and\n    /* \"empireERC20Token_flat.sol\":15494:15495  0 */\n  0x00\n    /* \"empireERC20Token_flat.sol\":15477:15514  Transfer(address(0), account, amount) */\n  0xffffffffffffffffffffffffffffffffffffffff\n  and\n  0xddf252ad1be2c89b69c2b068fc378daa952ba7f163c4a11628f55a4df523b3ef\n    /* \"empireERC20Token_flat.sol\":15507:15513  amount */\n  dup4\n    /* \"empireERC20Token_flat.sol\":15477:15514  Transfer(address(0), account, amount) */\n  mload(0x40)\n  tag_31\n  swap2\n  swap1\n  tag_32\n  jump\t// in\ntag_31:\n  mload(0x40)\n  dup1\n  swap2\n  sub\n  swap1\n  log3\n    /* \"empireERC20Token_flat.sol\":15525:15573  _afterTokenTransfer(address(0), account, amount) */\n  tag_33\n    /* \"empireERC20Token_flat.sol\":15553:15554  0 */\n  0x00\n    /* \"empireERC20Token_flat.sol\":15557:15564  account */\n  dup4\n    /* \"empireERC20Token_flat.sol\":15566:15572  amount */\n  dup4\n    /* \"empireERC20Token_flat.sol\":15525:15544  _afterTokenTransfer */\n  shl(0x20, tag_34)\n    /* \"empireERC20Token_flat.sol\":15525:15573  _afterTokenTransfer(address(0), account, amount) */\n  0x20\n  shr\n  jump\t// in\ntag_33:\n    /* \"empireERC20Token_flat.sol\":15191:15580  function _mint(address account, uint256 amount) internal virtual {... */\n  pop\n  pop\n  jump\t// out\n    /* \"empireERC20Token_flat.sol\":18571:18692  function _beforeTokenTransfer(... */\ntag_27:\n  pop\n  pop\n  pop\n  jump\t// out\n    /* \"empireERC20Token_flat.sol\":19280:19400  function _afterTokenTransfer(... */\ntag_34:\n  pop\n  pop\n  pop\n  jump\t// out\n    /* \"empireERC20Token_flat.sol\":19473:20517  contract EmpireERC20Token is ERC20, Ownable {... */\ntag_9:\n  dup3\n  dup1\n  sload\n  tag_37\n  swap1\n  tag_38\n  jump\t// in\ntag_37:\n  swap1\n  0x00\n  mstore\n  keccak256(0x00, 0x20)\n  swap1\n  0x1f\n  add\n  0x20\n  swap1\n  div\n  dup2\n  add\n  swap3\n  dup3\n  tag_40\n  jumpi\n  0x00\n  dup6\n  sstore\n  jump(tag_39)\ntag_40:\n  dup3\n  0x1f\n  lt\n  tag_41\n  jumpi\n  dup1\n  mload\n  not(0xff)\n  and\n  dup4\n  dup1\n  add\n  or\n  dup6\n  sstore\n  jump(tag_39)\ntag_41:\n  dup3\n  dup1\n  add\n  0x01\n  add\n  dup6\n  sstore\n  dup3\n  iszero\n  tag_39\n  jumpi\n  swap2\n  dup3\n  add\ntag_42:\n  dup3\n  dup2\n  gt\n  iszero\n  tag_43\n  jumpi\n  dup3\n  mload\n  dup3\n  sstore\n  swap2\n  0x20\n  add\n  swap2\n  swap1\n  0x01\n  add\n  swap1\n  jump(tag_42)\ntag_43:\ntag_39:\n  pop\n  swap1\n  pop\n  tag_44\n  swap2\n  swap1\n  tag_45\n  jump\t// in\ntag_44:\n  pop\n  swap1\n  jump\t// out\ntag_45:\ntag_46:\n  dup1\n  dup3\n  gt\n  iszero\n  tag_47\n  jumpi\n  0x00\n  dup2\n  0x00\n  swap1\n  sstore\n  pop\n  0x01\n  add\n  jump(tag_46)\ntag_47:\n  pop\n  swap1\n  jump\t// out\n    /* \"#utility.yul\":7:166   */\ntag_49:\n    /* \"#utility.yul\":72:77   */\n  0x00\n    /* \"#utility.yul\":103:109   */\n  dup2\n    /* \"#utility.yul\":97:110   */\n  mload\n    /* \"#utility.yul\":88:110   */\n  swap1\n  pop\n    /* \"#utility.yul\":119:160   */\n  tag_51\n    /* \"#utility.yul\":154:159   */\n  dup2\n    /* \"#utility.yul\":119:160   */\n  tag_52\n  jump\t// in\ntag_51:\n    /* \"#utility.yul\":7:166   */\n  swap3\n  swap2\n  pop\n  pop\n  jump\t// out\n    /* \"#utility.yul\":172:539   */\ntag_3:\n    /* \"#utility.yul\":250:256   */\n  0x00\n    /* \"#utility.yul\":299:301   */\n  0x20\n    /* \"#utility.yul\":287:296   */\n  dup3\n    /* \"#utility.yul\":278:285   */\n  dup5\n    /* \"#utility.yul\":274:297   */\n  sub\n    /* \"#utility.yul\":270:302   */\n  slt\n    /* \"#utility.yul\":267:386   */\n  iszero\n  tag_54\n  jumpi\n    /* \"#utility.yul\":305:384   */\n  tag_55\n  tag_56\n  jump\t// in\ntag_55:\n    /* \"#utility.yul\":267:386   */\ntag_54:\n    /* \"#utility.yul\":425:426   */\n  0x00\n    /* \"#utility.yul\":450:522   */\n  tag_57\n    /* \"#utility.yul\":514:521   */\n  dup5\n    /* \"#utility.yul\":505:511   */\n  dup3\n    /* \"#utility.yul\":494:503   */\n  dup6\n    /* \"#utility.yul\":490:512   */\n  add\n    /* \"#utility.yul\":450:522   */\n  tag_49\n  jump\t// in\ntag_57:\n    /* \"#utility.yul\":440:522   */\n  swap2\n  pop\n    /* \"#utility.yul\":396:532   */\n  pop\n    /* \"#utility.yul\":172:539   */\n  swap3\n  swap2\n  pop\n  pop\n  jump\t// out\n    /* \"#utility.yul\":545:911   */\ntag_58:\n    /* \"#utility.yul\":687:690   */\n  0x00\n    /* \"#utility.yul\":708:775   */\n  tag_60\n    /* \"#utility.yul\":772:774   */\n  0x1f\n    /* \"#utility.yul\":767:770   */\n  dup4\n    /* \"#utility.yul\":708:775   */\n  tag_61\n  jump\t// in\ntag_60:\n    /* \"#utility.yul\":701:775   */\n  swap2\n  pop\n    /* \"#utility.yul\":784:877   */\n  tag_62\n    /* \"#utility.yul\":873:876   */\n  dup3\n    /* \"#utility.yul\":784:877   */\n  tag_63\n  jump\t// in\ntag_62:\n    /* \"#utility.yul\":902:904   */\n  0x20\n    /* \"#utility.yul\":897:900   */\n  dup3\n    /* \"#utility.yul\":893:905   */\n  add\n    /* \"#utility.yul\":886:905   */\n  swap1\n  pop\n    /* \"#utility.yul\":545:911   */\n  swap2\n  swap1\n  pop\n  jump\t// out\n    /* \"#utility.yul\":917:1035   */\ntag_64:\n    /* \"#utility.yul\":1004:1028   */\n  tag_66\n    /* \"#utility.yul\":1022:1027   */\n  dup2\n    /* \"#utility.yul\":1004:1028   */\n  tag_67\n  jump\t// in\ntag_66:\n    /* \"#utility.yul\":999:1002   */\n  dup3\n    /* \"#utility.yul\":992:1029   */\n  mstore\n    /* \"#utility.yul\":917:1035   */\n  pop\n  pop\n  jump\t// out\n    /* \"#utility.yul\":1041:1460   */\ntag_25:\n    /* \"#utility.yul\":1207:1211   */\n  0x00\n    /* \"#utility.yul\":1245:1247   */\n  0x20\n    /* \"#utility.yul\":1234:1243   */\n  dup3\n    /* \"#utility.yul\":1230:1248   */\n  add\n    /* \"#utility.yul\":1222:1248   */\n  swap1\n  pop\n    /* \"#utility.yul\":1294:1303   */\n  dup2\n    /* \"#utility.yul\":1288:1292   */\n  dup2\n    /* \"#utility.yul\":1284:1304   */\n  sub\n    /* \"#utility.yul\":1280:1281   */\n  0x00\n    /* \"#utility.yul\":1269:1278   */\n  dup4\n    /* \"#utility.yul\":1265:1282   */\n  add\n    /* \"#utility.yul\":1258:1305   */\n  mstore\n    /* \"#utility.yul\":1322:1453   */\n  tag_69\n    /* \"#utility.yul\":1448:1452   */\n  dup2\n    /* \"#utility.yul\":1322:1453   */\n  tag_58\n  jump\t// in\ntag_69:\n    /* \"#utility.yul\":1314:1453   */\n  swap1\n  pop\n    /* \"#utility.yul\":1041:1460   */\n  swap2\n  swap1\n  pop\n  jump\t// out\n    /* \"#utility.yul\":1466:1688   */\ntag_32:\n    /* \"#utility.yul\":1559:1563   */\n  0x00\n    /* \"#utility.yul\":1597:1599   */\n  0x20\n    /* \"#utility.yul\":1586:1595   */\n  dup3\n    /* \"#utility.yul\":1582:1600   */\n  add\n    /* \"#utility.yul\":1574:1600   */\n  swap1\n  pop\n    /* \"#utility.yul\":1610:1681   */\n  tag_71\n    /* \"#utility.yul\":1678:1679   */\n  0x00\n    /* \"#utility.yul\":1667:1676   */\n  dup4\n    /* \"#utility.yul\":1663:1680   */\n  add\n    /* \"#utility.yul\":1654:1660   */\n  dup5\n    /* \"#utility.yul\":1610:1681   */\n  tag_64\n  jump\t// in\ntag_71:\n    /* \"#utility.yul\":1466:1688   */\n  swap3\n  swap2\n  pop\n  pop\n  jump\t// out\n    /* \"#utility.yul\":1775:1944   */\ntag_61:\n    /* \"#utility.yul\":1859:1870   */\n  0x00\n    /* \"#utility.yul\":1893:1899   */\n  dup3\n    /* \"#utility.yul\":1888:1891   */\n  dup3\n    /* \"#utility.yul\":1881:1900   */\n  mstore\n    /* \"#utility.yul\":1933:1937   */\n  0x20\n    /* \"#utility.yul\":1928:1931   */\n  dup3\n    /* \"#utility.yul\":1924:1938   */\n  add\n    /* \"#utility.yul\":1909:1938   */\n  swap1\n  pop\n    /* \"#utility.yul\":1775:1944   */\n  swap3\n  swap2\n  pop\n  pop\n  jump\t// out\n    /* \"#utility.yul\":1950:2255   */\ntag_29:\n    /* \"#utility.yul\":1990:1993   */\n  0x00\n    /* \"#utility.yul\":2009:2029   */\n  tag_76\n    /* \"#utility.yul\":2027:2028   */\n  dup3\n    /* \"#utility.yul\":2009:2029   */\n  tag_67\n  jump\t// in\ntag_76:\n    /* \"#utility.yul\":2004:2029   */\n  swap2\n  pop\n    /* \"#utility.yul\":2043:2063   */\n  tag_77\n    /* \"#utility.yul\":2061:2062   */\n  dup4\n    /* \"#utility.yul\":2043:2063   */\n  tag_67\n  jump\t// in\ntag_77:\n    /* \"#utility.yul\":2038:2063   */\n  swap3\n  pop\n    /* \"#utility.yul\":2197:2198   */\n  dup3\n    /* \"#utility.yul\":2129:2195   */\n  0xffffffffffffffffffffffffffffffffffffffffffffffffffffffffffffffff\n    /* \"#utility.yul\":2125:2199   */\n  sub\n    /* \"#utility.yul\":2122:2123   */\n  dup3\n    /* \"#utility.yul\":2119:2200   */\n  gt\n    /* \"#utility.yul\":2116:2223   */\n  iszero\n  tag_78\n  jumpi\n    /* \"#utility.yul\":2203:2221   */\n  tag_79\n  tag_80\n  jump\t// in\ntag_79:\n    /* \"#utility.yul\":2116:2223   */\ntag_78:\n    /* \"#utility.yul\":2247:2248   */\n  dup3\n    /* \"#utility.yul\":2244:2245   */\n  dup3\n    /* \"#utility.yul\":2240:2249   */\n  add\n    /* \"#utility.yul\":2233:2249   */\n  swap1\n  pop\n    /* \"#utility.yul\":1950:2255   */\n  swap3\n  swap2\n  pop\n  pop\n  jump\t// out\n    /* \"#utility.yul\":2261:2365   */\ntag_81:\n    /* \"#utility.yul\":2306:2313   */\n  0x00\n    /* \"#utility.yul\":2335:2359   */\n  tag_83\n    /* \"#utility.yul\":2353:2358   */\n  dup3\n    /* \"#utility.yul\":2335:2359   */\n  tag_84\n  jump\t// in\ntag_83:\n    /* \"#utility.yul\":2324:2359   */\n  swap1\n  pop\n    /* \"#utility.yul\":2261:2365   */\n  swap2\n  swap1\n  pop\n  jump\t// out\n    /* \"#utility.yul\":2371:2497   */\ntag_84:\n    /* \"#utility.yul\":2408:2415   */\n  0x00\n    /* \"#utility.yul\":2448:2490   */\n  0xffffffffffffffffffffffffffffffffffffffff\n    /* \"#utility.yul\":2441:2446   */\n  dup3\n    /* \"#utility.yul\":2437:2491   */\n  and\n    /* \"#utility.yul\":2426:2491   */\n  swap1\n  pop\n    /* \"#utility.yul\":2371:2497   */\n  swap2\n  swap1\n  pop\n  jump\t// out\n    /* \"#utility.yul\":2503:2580   */\ntag_67:\n    /* \"#utility.yul\":2540:2547   */\n  0x00\n    /* \"#utility.yul\":2569:2574   */\n  dup2\n    /* \"#utility.yul\":2558:2574   */\n  swap1\n  pop\n    /* \"#utility.yul\":2503:2580   */\n  swap2\n  swap1\n  pop\n  jump\t// out\n    /* \"#utility.yul\":2586:2906   */\ntag_38:\n    /* \"#utility.yul\":2630:2636   */\n  0x00\n    /* \"#utility.yul\":2667:2668   */\n  0x02\n    /* \"#utility.yul\":2661:2665   */\n  dup3\n    /* \"#utility.yul\":2657:2669   */\n  div\n    /* \"#utility.yul\":2647:2669   */\n  swap1\n  pop\n    /* \"#utility.yul\":2714:2715   */\n  0x01\n    /* \"#utility.yul\":2708:2712   */\n  dup3\n    /* \"#utility.yul\":2704:2716   */\n  and\n    /* \"#utility.yul\":2735:2753   */\n  dup1\n    /* \"#utility.yul\":2725:2806   */\n  tag_88\n  jumpi\n    /* \"#utility.yul\":2791:2795   */\n  0x7f\n    /* \"#utility.yul\":2783:2789   */\n  dup3\n    /* \"#utility.yul\":2779:2796   */\n  and\n    /* \"#utility.yul\":2769:2796   */\n  swap2\n  pop\n    /* \"#utility.yul\":2725:2806   */\ntag_88:\n    /* \"#utility.yul\":2853:2855   */\n  0x20\n    /* \"#utility.yul\":2845:2851   */\n  dup3\n    /* \"#utility.yul\":2842:2856   */\n  lt\n    /* \"#utility.yul\":2822:2840   */\n  dup2\n    /* \"#utility.yul\":2819:2857   */\n  eq\n    /* \"#utility.yul\":2816:2900   */\n  iszero\n  tag_89\n  jumpi\n    /* \"#utility.yul\":2872:2890   */\n  tag_90\n  tag_91\n  jump\t// in\ntag_90:\n    /* \"#utility.yul\":2816:2900   */\ntag_89:\n    /* \"#utility.yul\":2637:2906   */\n  pop\n    /* \"#utility.yul\":2586:2906   */\n  swap2\n  swap1\n  pop\n  jump\t// out\n    /* \"#utility.yul\":2912:3092   */\ntag_80:\n    /* \"#utility.yul\":2960:3037   */\n  0x4e487b7100000000000000000000000000000000000000000000000000000000\n    /* \"#utility.yul\":2957:2958   */\n  0x00\n    /* \"#utility.yul\":2950:3038   */\n  mstore\n    /* \"#utility.yul\":3057:3061   */\n  0x11\n    /* \"#utility.yul\":3054:3055   */\n  0x04\n    /* \"#utility.yul\":3047:3062   */\n  mstore\n    /* \"#utility.yul\":3081:3085   */\n  0x24\n    /* \"#utility.yul\":3078:3079   */\n  0x00\n    /* \"#utility.yul\":3071:3086   */\n  revert\n    /* \"#utility.yul\":3098:3278   */\ntag_91:\n    /* \"#utility.yul\":3146:3223   */\n  0x4e487b7100000000000000000000000000000000000000000000000000000000\n    /* \"#utility.yul\":3143:3144   */\n  0x00\n    /* \"#utility.yul\":3136:3224   */\n  mstore\n    /* \"#utility.yul\":3243:3247   */\n  0x22\n    /* \"#utility.yul\":3240:3241   */\n  0x04\n    /* \"#utility.yul\":3233:3248   */\n  mstore\n    /* \"#utility.yul\":3267:3271   */\n  0x24\n    /* \"#utility.yul\":3264:3265   */\n  0x00\n    /* \"#utility.yul\":3257:3272   */\n  revert\n    /* \"#utility.yul\":3407:3524   */\ntag_56:\n    /* \"#utility.yul\":3516:3517   */\n  0x00\n    /* \"#utility.yul\":3513:3514   */\n  dup1\n    /* \"#utility.yul\":3506:3518   */\n  revert\n    /* \"#utility.yul\":3530:3711   */\ntag_63:\n    /* \"#utility.yul\":3670:3703   */\n  0x45524332303a206d696e7420746f20746865207a65726f206164647265737300\n    /* \"#utility.yul\":3666:3667   */\n  0x00\n    /* \"#utility.yul\":3658:3664   */\n  dup3\n    /* \"#utility.yul\":3654:3668   */\n  add\n    /* \"#utility.yul\":3647:3704   */\n  mstore\n    /* \"#utility.yul\":3530:3711   */\n  pop\n  jump\t// out\n    /* \"#utility.yul\":3717:3855   */\ntag_52:\n    /* \"#utility.yul\":3798:3830   */\n  tag_99\n    /* \"#utility.yul\":3824:3829   */\n  dup2\n    /* \"#utility.yul\":3798:3830   */\n  tag_81\n  jump\t// in\ntag_99:\n    /* \"#utility.yul\":3791:3796   */\n  dup2\n    /* \"#utility.yul\":3788:3831   */\n  eq\n    /* \"#utility.yul\":3778:3849   */\n  tag_100\n  jumpi\n    /* \"#utility.yul\":3845:3846   */\n  0x00\n    /* \"#utility.yul\":3842:3843   */\n  dup1\n    /* \"#utility.yul\":3835:3847   */\n  revert\n    /* \"#utility.yul\":3778:3849   */\ntag_100:\n    /* \"#utility.yul\":3717:3855   */\n  pop\n  jump\t// out\n    /* \"empireERC20Token_flat.sol\":19473:20517  contract EmpireERC20Token is ERC20, Ownable {... */\ntag_19:\n  dataSize(sub_0)\n  dup1\n  dataOffset(sub_0)\n  0x00\n  codecopy\n  0x00\n  return\nstop\n\nsub_0: assembly {\n        /* \"empireERC20Token_flat.sol\":19473:20517  contract EmpireERC20Token is ERC20, Ownable {... */\n      mstore(0x40, 0x80)\n      jumpi(tag_1, lt(calldatasize, 0x04))\n      shr(0xe0, calldataload(0x00))\n      dup1\n      0x715018a6\n      gt\n      tag_20\n      jumpi\n      dup1\n      0xa457c2d7\n      gt\n      tag_21\n      jumpi\n      dup1\n      0xa457c2d7\n      eq\n      tag_15\n      jumpi\n      dup1\n      0xa9059cbb\n      eq\n      tag_16\n      jumpi\n      dup1\n      0xafb41183\n      eq\n      tag_17\n      jumpi\n      dup1\n      0xdd62ed3e\n      eq\n      tag_18\n      jumpi\n      dup1\n      0xf2fde38b\n      eq\n      tag_19\n      jumpi\n      jump(tag_1)\n    tag_21:\n      dup1\n      0x715018a6\n      eq\n      tag_11\n      jumpi\n      dup1\n      0x7e72fb52\n      eq\n      tag_12\n      jumpi\n      dup1\n      0x8da5cb5b\n      eq\n      tag_13\n      jumpi\n      dup1\n      0x95d89b41\n      eq\n      tag_14\n      jumpi\n      jump(tag_1)\n    tag_20:\n      dup1\n      0x2c4e722e\n      gt\n      tag_22\n      jumpi\n      dup1\n      0x2c4e722e\n      eq\n      tag_6\n      jumpi\n      dup1\n      0x313ce567\n      eq\n      tag_7\n      jumpi\n      dup1\n      0x39509351\n      eq\n      tag_8\n      jumpi\n      dup1\n      0x40c10f19\n      eq\n      tag_9\n      jumpi\n      dup1\n      0x70a08231\n      eq\n      tag_10\n      jumpi\n      jump(tag_1)\n    tag_22:\n      dup1\n      0x06fdde03\n      eq\n      tag_2\n      jumpi\n      dup1\n      0x095ea7b3\n      eq\n      tag_3\n      jumpi\n      dup1\n      0x18160ddd\n      eq\n      tag_4\n      jumpi\n      dup1\n      0x23b872dd\n      eq\n      tag_5\n      jumpi\n    tag_1:\n      0x00\n      dup1\n      revert\n        /* \"empireERC20Token_flat.sol\":8932:9030  function name() public view virtual override returns (string memory) {... */\n    tag_2:\n      callvalue\n      dup1\n      iszero\n      tag_23\n      jumpi\n      0x00\n      dup1\n      revert\n    tag_23:\n      pop\n      tag_24\n      tag_25\n      jump\t// in\n    tag_24:\n      mload(0x40)\n      tag_26\n      swap2\n      swap1\n      tag_27\n      jump\t// in\n    tag_26:\n      mload(0x40)\n      dup1\n      swap2\n      sub\n      swap1\n      return\n        /* \"empireERC20Token_flat.sol\":11209:11406  function approve(address spender, uint256 amount) public virtual override returns (bool) {... */\n    tag_3:\n      callvalue\n      dup1\n      iszero\n      tag_28\n      jumpi\n      0x00\n      dup1\n      revert\n    tag_28:\n      pop\n      tag_29\n      0x04\n      dup1\n      calldatasize\n      sub\n      dup2\n      add\n      swap1\n      tag_30\n      swap2\n      swap1\n      tag_31\n      jump\t// in\n    tag_30:\n      tag_32\n      jump\t// in\n    tag_29:\n      mload(0x40)\n      tag_33\n      swap2\n      swap1\n      tag_34\n      jump\t// in\n    tag_33:\n      mload(0x40)\n      dup1\n      swap2\n      sub\n      swap1\n      return\n        /* \"empireERC20Token_flat.sol\":10020:10126  function totalSupply() public view virtual override returns (uint256) {... */\n    tag_4:\n      callvalue\n      dup1\n      iszero\n      tag_35\n      jumpi\n      0x00\n      dup1\n      revert\n    tag_35:\n      pop\n      tag_36\n      tag_37\n      jump\t// in\n    tag_36:\n      mload(0x40)\n      tag_38\n      swap2\n      swap1\n      tag_39\n      jump\t// in\n    tag_38:\n      mload(0x40)\n      dup1\n      swap2\n      sub\n      swap1\n      return\n        /* \"empireERC20Token_flat.sol\":11968:12254  function transferFrom(... */\n    tag_5:\n      callvalue\n      dup1\n      iszero\n      tag_40\n      jumpi\n      0x00\n      dup1\n      revert\n    tag_40:\n      pop\n      tag_41\n      0x04\n      dup1\n      calldatasize\n      sub\n      dup2\n      add\n      swap1\n      tag_42\n      swap2\n      swap1\n      tag_43\n      jump\t// in\n    tag_42:\n      tag_44\n      jump\t// in\n    tag_41:\n      mload(0x40)\n      tag_45\n      swap2\n      swap1\n      tag_34\n      jump\t// in\n    tag_45:\n      mload(0x40)\n      dup1\n      swap2\n      sub\n      swap1\n      return\n        /* \"empireERC20Token_flat.sol\":19672:19698  uint256 public rate = 1000 */\n    tag_6:\n      callvalue\n      dup1\n      iszero\n      tag_46\n      jumpi\n      0x00\n      dup1\n      revert\n    tag_46:\n      pop\n      tag_47\n      tag_48\n      jump\t// in\n    tag_47:\n      mload(0x40)\n      tag_49\n      swap2\n      swap1\n      tag_39\n      jump\t// in\n    tag_49:\n      mload(0x40)\n      dup1\n      swap2\n      sub\n      swap1\n      return\n        /* \"empireERC20Token_flat.sol\":9869:9960  function decimals() public view virtual override returns (uint8) {... */\n    tag_7:\n      callvalue\n      dup1\n      iszero\n      tag_50\n      jumpi\n      0x00\n      dup1\n      revert\n    tag_50:\n      pop\n      tag_51\n      tag_52\n      jump\t// in\n    tag_51:\n      mload(0x40)\n      tag_53\n      swap2\n      swap1\n      tag_54\n      jump\t// in\n    tag_53:\n      mload(0x40)\n      dup1\n      swap2\n      sub\n      swap1\n      return\n        /* \"empireERC20Token_flat.sol\":12649:12885  function increaseAllowance(address spender, uint256 addedValue) public virtual returns (bool) {... */\n    tag_8:\n      callvalue\n      dup1\n      iszero\n      tag_55\n      jumpi\n      0x00\n      dup1\n      revert\n    tag_55:\n      pop\n      tag_56\n      0x04\n      dup1\n      calldatasize\n      sub\n      dup2\n      add\n      swap1\n      tag_57\n      swap2\n      swap1\n      tag_31\n      jump\t// in\n    tag_57:\n      tag_58\n      jump\t// in\n    tag_56:\n      mload(0x40)\n      tag_59\n      swap2\n      swap1\n      tag_34\n      jump\t// in\n    tag_59:\n      mload(0x40)\n      dup1\n      swap2\n      sub\n      swap1\n      return\n        /* \"empireERC20Token_flat.sol\":19867:19960  function mint(address to, uint256 amount) public onlyOwner {... */\n    tag_9:\n      callvalue\n      dup1\n      iszero\n      tag_60\n      jumpi\n      0x00\n      dup1\n      revert\n    tag_60:\n      pop\n      tag_61\n      0x04\n      dup1\n      calldatasize\n      sub\n      dup2\n      add\n      swap1\n      tag_62\n      swap2\n      swap1\n      tag_31\n      jump\t// in\n    tag_62:\n      tag_63\n      jump\t// in\n    tag_61:\n      stop\n        /* \"empireERC20Token_flat.sol\":10184:10309  function balanceOf(address account) public view virtual override returns (uint256) {... */\n    tag_10:\n      callvalue\n      dup1\n      iszero\n      tag_64\n      jumpi\n      0x00\n      dup1\n      revert\n    tag_64:\n      pop\n      tag_65\n      0x04\n      dup1\n      calldatasize\n      sub\n      dup2\n      add\n      swap1\n      tag_66\n      swap2\n      swap1\n      tag_67\n      jump\t// in\n    tag_66:\n      tag_68\n      jump\t// in\n    tag_65:\n      mload(0x40)\n      tag_69\n      swap2\n      swap1\n      tag_39\n      jump\t// in\n    tag_69:\n      mload(0x40)\n      dup1\n      swap2\n      sub\n      swap1\n      return\n        /* \"empireERC20Token_flat.sol\":2556:2657  function renounceOwnership() public virtual onlyOwner {... */\n    tag_11:\n      callvalue\n      dup1\n      iszero\n      tag_70\n      jumpi\n      0x00\n      dup1\n      revert\n    tag_70:\n      pop\n      tag_71\n      tag_72\n      jump\t// in\n    tag_71:\n      stop\n        /* \"empireERC20Token_flat.sol\":19966:20343  function buyToken(address receiver) public payable {... */\n    tag_12:\n      tag_73\n      0x04\n      dup1\n      calldatasize\n      sub\n      dup2\n      add\n      swap1\n      tag_74\n      swap2\n      swap1\n      tag_67\n      jump\t// in\n    tag_74:\n      tag_75\n      jump\t// in\n    tag_73:\n      stop\n        /* \"empireERC20Token_flat.sol\":1924:2009  function owner() public view virtual returns (address) {... */\n    tag_13:\n      callvalue\n      dup1\n      iszero\n      tag_76\n      jumpi\n      0x00\n      dup1\n      revert\n    tag_76:\n      pop\n      tag_77\n      tag_78\n      jump\t// in\n    tag_77:\n      mload(0x40)\n      tag_79\n      swap2\n      swap1\n      tag_80\n      jump\t// in\n    tag_79:\n      mload(0x40)\n      dup1\n      swap2\n      sub\n      swap1\n      return\n        /* \"empireERC20Token_flat.sol\":9143:9245  function symbol() public view virtual override returns (string memory) {... */\n    tag_14:\n      callvalue\n      dup1\n      iszero\n      tag_81\n      jumpi\n      0x00\n      dup1\n      revert\n    tag_81:\n      pop\n      tag_82\n      tag_83\n      jump\t// in\n    tag_82:\n      mload(0x40)\n      tag_84\n      swap2\n      swap1\n      tag_27\n      jump\t// in\n    tag_84:\n      mload(0x40)\n      dup1\n      swap2\n      sub\n      swap1\n      return\n        /* \"empireERC20Token_flat.sol\":13372:13801  function decreaseAllowance(address spender, uint256 subtractedValue) public virtual returns (bool) {... */\n    tag_15:\n      callvalue\n      dup1\n      iszero\n      tag_85\n      jumpi\n      0x00\n      dup1\n      revert\n    tag_85:\n      pop\n      tag_86\n      0x04\n      dup1\n      calldatasize\n      sub\n      dup2\n      add\n      swap1\n      tag_87\n      swap2\n      swap1\n      tag_31\n      jump\t// in\n    tag_87:\n      tag_88\n      jump\t// in\n    tag_86:\n      mload(0x40)\n      tag_89\n      swap2\n      swap1\n      tag_34\n      jump\t// in\n    tag_89:\n      mload(0x40)\n      dup1\n      swap2\n      sub\n      swap1\n      return\n        /* \"empireERC20Token_flat.sol\":10505:10694  function transfer(address to, uint256 amount) public virtual override returns (bool) {... */\n    tag_16:\n      callvalue\n      dup1\n      iszero\n      tag_90\n      jumpi\n      0x00\n      dup1\n      revert\n    tag_90:\n      pop\n      tag_91\n      0x04\n      dup1\n      calldatasize\n      sub\n      dup2\n      add\n      swap1\n      tag_92\n      swap2\n      swap1\n      tag_31\n      jump\t// in\n    tag_92:\n      tag_93\n      jump\t// in\n    tag_91:\n      mload(0x40)\n      tag_94\n      swap2\n      swap1\n      tag_34\n      jump\t// in\n    tag_94:\n      mload(0x40)\n      dup1\n      swap2\n      sub\n      swap1\n      return\n        /* \"empireERC20Token_flat.sol\":20397:20514  function OwnerEthBalance() public view onlyOwner returns(uint256){... */\n    tag_17:\n      callvalue\n      dup1\n      iszero\n      tag_95\n      jumpi\n      0x00\n      dup1\n      revert\n    tag_95:\n      pop\n      tag_96\n      tag_97\n      jump\t// in\n    tag_96:\n      mload(0x40)\n      tag_98\n      swap2\n      swap1\n      tag_39\n      jump\t// in\n    tag_98:\n      mload(0x40)\n      dup1\n      swap2\n      sub\n      swap1\n      return\n        /* \"empireERC20Token_flat.sol\":10752:10901  function allowance(address owner, address spender) public view virtual override returns (uint256) {... */\n    tag_18:\n      callvalue\n      dup1\n      iszero\n      tag_99\n      jumpi\n      0x00\n      dup1\n      revert\n    tag_99:\n      pop\n      tag_100\n      0x04\n      dup1\n      calldatasize\n      sub\n      dup2\n      add\n      swap1\n      tag_101\n      swap2\n      swap1\n      tag_102\n      jump\t// in\n    tag_101:\n      tag_103\n      jump\t// in\n    tag_100:\n      mload(0x40)\n      tag_104\n      swap2\n      swap1\n      tag_39\n      jump\t// in\n    tag_104:\n      mload(0x40)\n      dup1\n      swap2\n      sub\n      swap1\n      return\n        /* \"empireERC20Token_flat.sol\":2806:3004  function transferOwnership(address newOwner) public virtual onlyOwner {... */\n    tag_19:\n      callvalue\n      dup1\n      iszero\n      tag_105\n      jumpi\n      0x00\n      dup1\n      revert\n    tag_105:\n      pop\n      tag_106\n      0x04\n      dup1\n      calldatasize\n      sub\n      dup2\n      add\n      swap1\n      tag_107\n      swap2\n      swap1\n      tag_67\n      jump\t// in\n    tag_107:\n      tag_108\n      jump\t// in\n    tag_106:\n      stop\n        /* \"empireERC20Token_flat.sol\":8932:9030  function name() public view virtual override returns (string memory) {... */\n    tag_25:\n        /* \"empireERC20Token_flat.sol\":8986:8999  string memory */\n      0x60\n        /* \"empireERC20Token_flat.sol\":9018:9023  _name */\n      0x03\n        /* \"empireERC20Token_flat.sol\":9011:9023  return _name */\n      dup1\n      sload\n      tag_110\n      swap1\n      tag_111\n      jump\t// in\n    tag_110:\n      dup1\n      0x1f\n      add\n      0x20\n      dup1\n      swap2\n      div\n      mul\n      0x20\n      add\n      mload(0x40)\n      swap1\n      dup2\n      add\n      0x40\n      mstore\n      dup1\n      swap3\n      swap2\n      swap1\n      dup2\n      dup2\n      mstore\n      0x20\n      add\n      dup3\n      dup1\n      sload\n      tag_112\n      swap1\n      tag_111\n      jump\t// in\n    tag_112:\n      dup1\n      iszero\n      tag_113\n      jumpi\n      dup1\n      0x1f\n      lt\n      tag_114\n      jumpi\n      0x0100\n      dup1\n      dup4\n      sload\n      div\n      mul\n      dup4\n      mstore\n      swap2\n      0x20\n      add\n      swap2\n      jump(tag_113)\n    tag_114:\n      dup3\n      add\n      swap2\n      swap1\n      0x00\n      mstore\n      keccak256(0x00, 0x20)\n      swap1\n    tag_115:\n      dup2\n      sload\n      dup2\n      mstore\n      swap1\n      0x01\n      add\n      swap1\n      0x20\n      add\n      dup1\n      dup4\n      gt\n      tag_115\n      jumpi\n      dup3\n      swap1\n      sub\n      0x1f\n      and\n      dup3\n      add\n      swap2\n    tag_113:\n      pop\n      pop\n      pop\n      pop\n      pop\n      swap1\n      pop\n        /* \"empireERC20Token_flat.sol\":8932:9030  function name() public view virtual override returns (string memory) {... */\n      swap1\n      jump\t// out\n        /* \"empireERC20Token_flat.sol\":11209:11406  function approve(address spender, uint256 amount) public virtual override returns (bool) {... */\n    tag_32:\n        /* \"empireERC20Token_flat.sol\":11292:11296  bool */\n      0x00\n        /* \"empireERC20Token_flat.sol\":11308:11321  address owner */\n      dup1\n        /* \"empireERC20Token_flat.sol\":11324:11336  _msgSender() */\n      tag_117\n        /* \"empireERC20Token_flat.sol\":11324:11334  _msgSender */\n      tag_118\n        /* \"empireERC20Token_flat.sol\":11324:11336  _msgSender() */\n      jump\t// in\n    tag_117:\n        /* \"empireERC20Token_flat.sol\":11308:11336  address owner = _msgSender() */\n      swap1\n      pop\n        /* \"empireERC20Token_flat.sol\":11346:11378  _approve(owner, spender, amount) */\n      tag_119\n        /* \"empireERC20Token_flat.sol\":11355:11360  owner */\n      dup2\n        /* \"empireERC20Token_flat.sol\":11362:11369  spender */\n      dup6\n        /* \"empireERC20Token_flat.sol\":11371:11377  amount */\n      dup6\n        /* \"empireERC20Token_flat.sol\":11346:11354  _approve */\n      tag_120\n        /* \"empireERC20Token_flat.sol\":11346:11378  _approve(owner, spender, amount) */\n      jump\t// in\n    tag_119:\n        /* \"empireERC20Token_flat.sol\":11395:11399  true */\n      0x01\n        /* \"empireERC20Token_flat.sol\":11388:11399  return true */\n      swap2\n      pop\n      pop\n        /* \"empireERC20Token_flat.sol\":11209:11406  function approve(address spender, uint256 amount) public virtual override returns (bool) {... */\n      swap3\n      swap2\n      pop\n      pop\n      jump\t// out\n        /* \"empireERC20Token_flat.sol\":10020:10126  function totalSupply() public view virtual override returns (uint256) {... */\n    tag_37:\n        /* \"empireERC20Token_flat.sol\":10081:10088  uint256 */\n      0x00\n        /* \"empireERC20Token_flat.sol\":10107:10119  _totalSupply */\n      sload(0x02)\n        /* \"empireERC20Token_flat.sol\":10100:10119  return _totalSupply */\n      swap1\n      pop\n        /* \"empireERC20Token_flat.sol\":10020:10126  function totalSupply() public view virtual override returns (uint256) {... */\n      swap1\n      jump\t// out\n        /* \"empireERC20Token_flat.sol\":11968:12254  function transferFrom(... */\n    tag_44:\n        /* \"empireERC20Token_flat.sol\":12095:12099  bool */\n      0x00\n        /* \"empireERC20Token_flat.sol\":12111:12126  address spender */\n      dup1\n        /* \"empireERC20Token_flat.sol\":12129:12141  _msgSender() */\n      tag_123\n        /* \"empireERC20Token_flat.sol\":12129:12139  _msgSender */\n      tag_118\n        /* \"empireERC20Token_flat.sol\":12129:12141  _msgSender() */\n      jump\t// in\n    tag_123:\n        /* \"empireERC20Token_flat.sol\":12111:12141  address spender = _msgSender() */\n      swap1\n      pop\n        /* \"empireERC20Token_flat.sol\":12151:12189  _spendAllowance(from, spender, amount) */\n      tag_124\n        /* \"empireERC20Token_flat.sol\":12167:12171  from */\n      dup6\n        /* \"empireERC20Token_flat.sol\":12173:12180  spender */\n      dup3\n        /* \"empireERC20Token_flat.sol\":12182:12188  amount */\n      dup6\n        /* \"empireERC20Token_flat.sol\":12151:12166  _spendAllowance */\n      tag_125\n        /* \"empireERC20Token_flat.sol\":12151:12189  _spendAllowance(from, spender, amount) */\n      jump\t// in\n    tag_124:\n        /* \"empireERC20Token_flat.sol\":12199:12226  _transfer(from, to, amount) */\n      tag_126\n        /* \"empireERC20Token_flat.sol\":12209:12213  from */\n      dup6\n        /* \"empireERC20Token_flat.sol\":12215:12217  to */\n      dup6\n        /* \"empireERC20Token_flat.sol\":12219:12225  amount */\n      dup6\n        /* \"empireERC20Token_flat.sol\":12199:12208  _transfer */\n      tag_127\n        /* \"empireERC20Token_flat.sol\":12199:12226  _transfer(from, to, amount) */\n      jump\t// in\n    tag_126:\n        /* \"empireERC20Token_flat.sol\":12243:12247  true */\n      0x01\n        /* \"empireERC20Token_flat.sol\":12236:12247  return true */\n      swap2\n      pop\n      pop\n        /* \"empireERC20Token_flat.sol\":11968:12254  function transferFrom(... */\n      swap4\n      swap3\n      pop\n      pop\n      pop\n      jump\t// out\n        /* \"empireERC20Token_flat.sol\":19672:19698  uint256 public rate = 1000 */\n    tag_48:\n      sload(0x08)\n      dup2\n      jump\t// out\n        /* \"empireERC20Token_flat.sol\":9869:9960  function decimals() public view virtual override returns (uint8) {... */\n    tag_52:\n        /* \"empireERC20Token_flat.sol\":9927:9932  uint8 */\n      0x00\n        /* \"empireERC20Token_flat.sol\":9951:9953  18 */\n      0x12\n        /* \"empireERC20Token_flat.sol\":9944:9953  return 18 */\n      swap1\n      pop\n        /* \"empireERC20Token_flat.sol\":9869:9960  function decimals() public view virtual override returns (uint8) {... */\n      swap1\n      jump\t// out\n        /* \"empireERC20Token_flat.sol\":12649:12885  function increaseAllowance(address spender, uint256 addedValue) public virtual returns (bool) {... */\n    tag_58:\n        /* \"empireERC20Token_flat.sol\":12737:12741  bool */\n      0x00\n        /* \"empireERC20Token_flat.sol\":12753:12766  address owner */\n      dup1\n        /* \"empireERC20Token_flat.sol\":12769:12781  _msgSender() */\n      tag_130\n        /* \"empireERC20Token_flat.sol\":12769:12779  _msgSender */\n      tag_118\n        /* \"empireERC20Token_flat.sol\":12769:12781  _msgSender() */\n      jump\t// in\n    tag_130:\n        /* \"empireERC20Token_flat.sol\":12753:12781  address owner = _msgSender() */\n      swap1\n      pop\n        /* \"empireERC20Token_flat.sol\":12791:12857  _approve(owner, spender, _allowances[owner][spender] + addedValue) */\n      tag_131\n        /* \"empireERC20Token_flat.sol\":12800:12805  owner */\n      dup2\n        /* \"empireERC20Token_flat.sol\":12807:12814  spender */\n      dup6\n        /* \"empireERC20Token_flat.sol\":12846:12856  addedValue */\n      dup6\n        /* \"empireERC20Token_flat.sol\":12816:12827  _allowances */\n      0x01\n        /* \"empireERC20Token_flat.sol\":12816:12834  _allowances[owner] */\n      0x00\n        /* \"empireERC20Token_flat.sol\":12828:12833  owner */\n      dup7\n        /* \"empireERC20Token_flat.sol\":12816:12834  _allowances[owner] */\n      0xffffffffffffffffffffffffffffffffffffffff\n      and\n      0xffffffffffffffffffffffffffffffffffffffff\n      and\n      dup2\n      mstore\n      0x20\n      add\n      swap1\n      dup2\n      mstore\n      0x20\n      add\n      0x00\n      keccak256\n        /* \"empireERC20Token_flat.sol\":12816:12843  _allowances[owner][spender] */\n      0x00\n        /* \"empireERC20Token_flat.sol\":12835:12842  spender */\n      dup10\n        /* \"empireERC20Token_flat.sol\":12816:12843  _allowances[owner][spender] */\n      0xffffffffffffffffffffffffffffffffffffffff\n      and\n      0xffffffffffffffffffffffffffffffffffffffff\n      and\n      dup2\n      mstore\n      0x20\n      add\n      swap1\n      dup2\n      mstore\n      0x20\n      add\n      0x00\n      keccak256\n      sload\n        /* \"empireERC20Token_flat.sol\":12816:12856  _allowances[owner][spender] + addedValue */\n      tag_132\n      swap2\n      swap1\n      tag_133\n      jump\t// in\n    tag_132:\n        /* \"empireERC20Token_flat.sol\":12791:12799  _approve */\n      tag_120\n        /* \"empireERC20Token_flat.sol\":12791:12857  _approve(owner, spender, _allowances[owner][spender] + addedValue) */\n      jump\t// in\n    tag_131:\n        /* \"empireERC20Token_flat.sol\":12874:12878  true */\n      0x01\n        /* \"empireERC20Token_flat.sol\":12867:12878  return true */\n      swap2\n      pop\n      pop\n        /* \"empireERC20Token_flat.sol\":12649:12885  function increaseAllowance(address spender, uint256 addedValue) public virtual returns (bool) {... */\n      swap3\n      swap2\n      pop\n      pop\n      jump\t// out\n        /* \"empireERC20Token_flat.sol\":19867:19960  function mint(address to, uint256 amount) public onlyOwner {... */\n    tag_63:\n        /* \"empireERC20Token_flat.sol\":2147:2159  _msgSender() */\n      tag_135\n        /* \"empireERC20Token_flat.sol\":2147:2157  _msgSender */\n      tag_118\n        /* \"empireERC20Token_flat.sol\":2147:2159  _msgSender() */\n      jump\t// in\n    tag_135:\n        /* \"empireERC20Token_flat.sol\":2136:2159  owner() == _msgSender() */\n      0xffffffffffffffffffffffffffffffffffffffff\n      and\n        /* \"empireERC20Token_flat.sol\":2136:2143  owner() */\n      tag_136\n        /* \"empireERC20Token_flat.sol\":2136:2141  owner */\n      tag_78\n        /* \"empireERC20Token_flat.sol\":2136:2143  owner() */\n      jump\t// in\n    tag_136:\n        /* \"empireERC20Token_flat.sol\":2136:2159  owner() == _msgSender() */\n      0xffffffffffffffffffffffffffffffffffffffff\n      and\n      eq\n        /* \"empireERC20Token_flat.sol\":2128:2196  require(owner() == _msgSender(), \"Ownable: caller is not the owner\") */\n      tag_137\n      jumpi\n      mload(0x40)\n      0x08c379a000000000000000000000000000000000000000000000000000000000\n      dup2\n      mstore\n      0x04\n      add\n      tag_138\n      swap1\n      tag_139\n      jump\t// in\n    tag_138:\n      mload(0x40)\n      dup1\n      swap2\n      sub\n      swap1\n      revert\n    tag_137:\n        /* \"empireERC20Token_flat.sol\":19936:19953  _mint(to, amount) */\n      tag_141\n        /* \"empireERC20Token_flat.sol\":19942:19944  to */\n      dup3\n        /* \"empireERC20Token_flat.sol\":19946:19952  amount */\n      dup3\n        /* \"empireERC20Token_flat.sol\":19936:19941  _mint */\n      tag_142\n        /* \"empireERC20Token_flat.sol\":19936:19953  _mint(to, amount) */\n      jump\t// in\n    tag_141:\n        /* \"empireERC20Token_flat.sol\":19867:19960  function mint(address to, uint256 amount) public onlyOwner {... */\n      pop\n      pop\n      jump\t// out\n        /* \"empireERC20Token_flat.sol\":10184:10309  function balanceOf(address account) public view virtual override returns (uint256) {... */\n    tag_68:\n        /* \"empireERC20Token_flat.sol\":10258:10265  uint256 */\n      0x00\n        /* \"empireERC20Token_flat.sol\":10284:10293  _balances */\n      dup1\n        /* \"empireERC20Token_flat.sol\":10284:10302  _balances[account] */\n      0x00\n        /* \"empireERC20Token_flat.sol\":10294:10301  account */\n      dup4\n        /* \"empireERC20Token_flat.sol\":10284:10302  _balances[account] */\n      0xffffffffffffffffffffffffffffffffffffffff\n      and\n      0xffffffffffffffffffffffffffffffffffffffff\n      and\n      dup2\n      mstore\n      0x20\n      add\n      swap1\n      dup2\n      mstore\n      0x20\n      add\n      0x00\n      keccak256\n      sload\n        /* \"empireERC20Token_flat.sol\":10277:10302  return _balances[account] */\n      swap1\n      pop\n        /* \"empireERC20Token_flat.sol\":10184:10309  function balanceOf(address account) public view virtual override returns (uint256) {... */\n      swap2\n      swap1\n      pop\n      jump\t// out\n        /* \"empireERC20Token_flat.sol\":2556:2657  function renounceOwnership() public virtual onlyOwner {... */\n    tag_72:\n        /* \"empireERC20Token_flat.sol\":2147:2159  _msgSender() */\n      tag_145\n        /* \"empireERC20Token_flat.sol\":2147:2157  _msgSender */\n      tag_118\n        /* \"empireERC20Token_flat.sol\":2147:2159  _msgSender() */\n      jump\t// in\n    tag_145:\n        /* \"empireERC20Token_flat.sol\":2136:2159  owner() == _msgSender() */\n      0xffffffffffffffffffffffffffffffffffffffff\n      and\n        /* \"empireERC20Token_flat.sol\":2136:2143  owner() */\n      tag_146\n        /* \"empireERC20Token_flat.sol\":2136:2141  owner */\n      tag_78\n        /* \"empireERC20Token_flat.sol\":2136:2143  owner() */\n      jump\t// in\n    tag_146:\n        /* \"empireERC20Token_flat.sol\":2136:2159  owner() == _msgSender() */\n      0xffffffffffffffffffffffffffffffffffffffff\n      and\n      eq\n        /* \"empireERC20Token_flat.sol\":2128:2196  require(owner() == _msgSender(), \"Ownable: caller is not the owner\") */\n      tag_147\n      jumpi\n      mload(0x40)\n      0x08c379a000000000000000000000000000000000000000000000000000000000\n      dup2\n      mstore\n      0x04\n      add\n      tag_148\n      swap1\n      tag_139\n      jump\t// in\n    tag_148:\n      mload(0x40)\n      dup1\n      swap2\n      sub\n      swap1\n      revert\n    tag_147:\n        /* \"empireERC20Token_flat.sol\":2620:2650  _transferOwnership(address(0)) */\n      tag_150\n        /* \"empireERC20Token_flat.sol\":2647:2648  0 */\n      0x00\n        /* \"empireERC20Token_flat.sol\":2620:2638  _transferOwnership */\n      tag_151\n        /* \"empireERC20Token_flat.sol\":2620:2650  _transferOwnership(address(0)) */\n      jump\t// in\n    tag_150:\n        /* \"empireERC20Token_flat.sol\":2556:2657  function renounceOwnership() public virtual onlyOwner {... */\n      jump\t// out\n        /* \"empireERC20Token_flat.sol\":19966:20343  function buyToken(address receiver) public payable {... */\n    tag_75:\n        /* \"empireERC20Token_flat.sol\":20048:20058  1 * 10**18 */\n      0x0de0b6b3a7640000\n        /* \"empireERC20Token_flat.sol\":20035:20044  msg.value */\n      callvalue\n        /* \"empireERC20Token_flat.sol\":20035:20058  msg.value >= 1 * 10**18 */\n      lt\n      iszero\n        /* \"empireERC20Token_flat.sol\":20027:20090  require(msg.value >= 1 * 10**18, \"You need to send more ether\") */\n      tag_153\n      jumpi\n      mload(0x40)\n      0x08c379a000000000000000000000000000000000000000000000000000000000\n      dup2\n      mstore\n      0x04\n      add\n      tag_154\n      swap1\n      tag_155\n      jump\t// in\n    tag_154:\n      mload(0x40)\n      dup1\n      swap2\n      sub\n      swap1\n      revert\n    tag_153:\n        /* \"empireERC20Token_flat.sol\":20100:20111  ownedWallet */\n      0x06\n      0x00\n      swap1\n      sload\n      swap1\n      0x0100\n      exp\n      swap1\n      div\n      0xffffffffffffffffffffffffffffffffffffffff\n      and\n        /* \"empireERC20Token_flat.sol\":20100:20120  ownedWallet.transfer */\n      0xffffffffffffffffffffffffffffffffffffffff\n      and\n        /* \"empireERC20Token_flat.sol\":20100:20131  ownedWallet.transfer(msg.value) */\n      0x08fc\n        /* \"empireERC20Token_flat.sol\":20121:20130  msg.value */\n      callvalue\n        /* \"empireERC20Token_flat.sol\":20100:20131  ownedWallet.transfer(msg.value) */\n      swap1\n      dup2\n      iszero\n      mul\n      swap1\n      mload(0x40)\n      0x00\n      mload(0x40)\n      dup1\n      dup4\n      sub\n      dup2\n      dup6\n      dup9\n      dup9\n      call\n      swap4\n      pop\n      pop\n      pop\n      pop\n      iszero\n      dup1\n      iszero\n      tag_157\n      jumpi\n      returndatasize\n      0x00\n      dup1\n      returndatacopy\n      revert(0x00, returndatasize)\n    tag_157:\n      pop\n        /* \"empireERC20Token_flat.sol\":20142:20165  uint256 totalTokenToBuy */\n      0x00\n        /* \"empireERC20Token_flat.sol\":20180:20186  10**15 */\n      0x038d7ea4c68000\n        /* \"empireERC20Token_flat.sol\":20168:20177  msg.value */\n      callvalue\n        /* \"empireERC20Token_flat.sol\":20168:20186  msg.value / 10**15 */\n      tag_158\n      swap2\n      swap1\n      tag_159\n      jump\t// in\n    tag_158:\n        /* \"empireERC20Token_flat.sol\":20142:20186  uint256 totalTokenToBuy = msg.value / 10**15 */\n      swap1\n      pop\n        /* \"empireERC20Token_flat.sol\":20239:20271  _mint(receiver, totalTokenToBuy) */\n      tag_160\n        /* \"empireERC20Token_flat.sol\":20245:20253  receiver */\n      dup3\n        /* \"empireERC20Token_flat.sol\":20255:20270  totalTokenToBuy */\n      dup3\n        /* \"empireERC20Token_flat.sol\":20239:20244  _mint */\n      tag_142\n        /* \"empireERC20Token_flat.sol\":20239:20271  _mint(receiver, totalTokenToBuy) */\n      jump\t// in\n    tag_160:\n        /* \"empireERC20Token_flat.sol\":20286:20336  boughtToken(msg.sender, receiver, totalTokenToBuy) */\n      0xf7684c931f3f1274ffa9e57bfdf5d3d86bf171875cea6a11b5fa6c1c889a1d12\n        /* \"empireERC20Token_flat.sol\":20298:20308  msg.sender */\n      caller\n        /* \"empireERC20Token_flat.sol\":20310:20318  receiver */\n      dup4\n        /* \"empireERC20Token_flat.sol\":20320:20335  totalTokenToBuy */\n      dup4\n        /* \"empireERC20Token_flat.sol\":20286:20336  boughtToken(msg.sender, receiver, totalTokenToBuy) */\n      mload(0x40)\n      tag_161\n      swap4\n      swap3\n      swap2\n      swap1\n      tag_162\n      jump\t// in\n    tag_161:\n      mload(0x40)\n      dup1\n      swap2\n      sub\n      swap1\n      log1\n        /* \"empireERC20Token_flat.sol\":20017:20343  {... */\n      pop\n        /* \"empireERC20Token_flat.sol\":19966:20343  function buyToken(address receiver) public payable {... */\n      pop\n      jump\t// out\n        /* \"empireERC20Token_flat.sol\":1924:2009  function owner() public view virtual returns (address) {... */\n    tag_78:\n        /* \"empireERC20Token_flat.sol\":1970:1977  address */\n      0x00\n        /* \"empireERC20Token_flat.sol\":1996:2002  _owner */\n      0x05\n      0x00\n      swap1\n      sload\n      swap1\n      0x0100\n      exp\n      swap1\n      div\n      0xffffffffffffffffffffffffffffffffffffffff\n      and\n        /* \"empireERC20Token_flat.sol\":1989:2002  return _owner */\n      swap1\n      pop\n        /* \"empireERC20Token_flat.sol\":1924:2009  function owner() public view virtual returns (address) {... */\n      swap1\n      jump\t// out\n        /* \"empireERC20Token_flat.sol\":9143:9245  function symbol() public view virtual override returns (string memory) {... */\n    tag_83:\n        /* \"empireERC20Token_flat.sol\":9199:9212  string memory */\n      0x60\n        /* \"empireERC20Token_flat.sol\":9231:9238  _symbol */\n      0x04\n        /* \"empireERC20Token_flat.sol\":9224:9238  return _symbol */\n      dup1\n      sload\n      tag_165\n      swap1\n      tag_111\n      jump\t// in\n    tag_165:\n      dup1\n      0x1f\n      add\n      0x20\n      dup1\n      swap2\n      div\n      mul\n      0x20\n      add\n      mload(0x40)\n      swap1\n      dup2\n      add\n      0x40\n      mstore\n      dup1\n      swap3\n      swap2\n      swap1\n      dup2\n      dup2\n      mstore\n      0x20\n      add\n      dup3\n      dup1\n      sload\n      tag_166\n      swap1\n      tag_111\n      jump\t// in\n    tag_166:\n      dup1\n      iszero\n      tag_167\n      jumpi\n      dup1\n      0x1f\n      lt\n      tag_168\n      jumpi\n      0x0100\n      dup1\n      dup4\n      sload\n      div\n      mul\n      dup4\n      mstore\n      swap2\n      0x20\n      add\n      swap2\n      jump(tag_167)\n    tag_168:\n      dup3\n      add\n      swap2\n      swap1\n      0x00\n      mstore\n      keccak256(0x00, 0x20)\n      swap1\n    tag_169:\n      dup2\n      sload\n      dup2\n      mstore\n      swap1\n      0x01\n      add\n      swap1\n      0x20\n      add\n      dup1\n      dup4\n      gt\n      tag_169\n      jumpi\n      dup3\n      swap1\n      sub\n      0x1f\n      and\n      dup3\n      add\n      swap2\n    tag_167:\n      pop\n      pop\n      pop\n      pop\n      pop\n      swap1\n      pop\n        /* \"empireERC20Token_flat.sol\":9143:9245  function symbol() public view virtual override returns (string memory) {... */\n      swap1\n      jump\t// out\n        /* \"empireERC20Token_flat.sol\":13372:13801  function decreaseAllowance(address spender, uint256 subtractedValue) public virtual returns (bool) {... */\n    tag_88:\n        /* \"empireERC20Token_flat.sol\":13465:13469  bool */\n      0x00\n        /* \"empireERC20Token_flat.sol\":13481:13494  address owner */\n      dup1\n        /* \"empireERC20Token_flat.sol\":13497:13509  _msgSender() */\n      tag_171\n        /* \"empireERC20Token_flat.sol\":13497:13507  _msgSender */\n      tag_118\n        /* \"empireERC20Token_flat.sol\":13497:13509  _msgSender() */\n      jump\t// in\n    tag_171:\n        /* \"empireERC20Token_flat.sol\":13481:13509  address owner = _msgSender() */\n      swap1\n      pop\n        /* \"empireERC20Token_flat.sol\":13519:13543  uint256 currentAllowance */\n      0x00\n        /* \"empireERC20Token_flat.sol\":13546:13557  _allowances */\n      0x01\n        /* \"empireERC20Token_flat.sol\":13546:13564  _allowances[owner] */\n      0x00\n        /* \"empireERC20Token_flat.sol\":13558:13563  owner */\n      dup4\n        /* \"empireERC20Token_flat.sol\":13546:13564  _allowances[owner] */\n      0xffffffffffffffffffffffffffffffffffffffff\n      and\n      0xffffffffffffffffffffffffffffffffffffffff\n      and\n      dup2\n      mstore\n      0x20\n      add\n      swap1\n      dup2\n      mstore\n      0x20\n      add\n      0x00\n      keccak256\n        /* \"empireERC20Token_flat.sol\":13546:13573  _allowances[owner][spender] */\n      0x00\n        /* \"empireERC20Token_flat.sol\":13565:13572  spender */\n      dup7\n        /* \"empireERC20Token_flat.sol\":13546:13573  _allowances[owner][spender] */\n      0xffffffffffffffffffffffffffffffffffffffff\n      and\n      0xffffffffffffffffffffffffffffffffffffffff\n      and\n      dup2\n      mstore\n      0x20\n      add\n      swap1\n      dup2\n      mstore\n      0x20\n      add\n      0x00\n      keccak256\n      sload\n        /* \"empireERC20Token_flat.sol\":13519:13573  uint256 currentAllowance = _allowances[owner][spender] */\n      swap1\n      pop\n        /* \"empireERC20Token_flat.sol\":13611:13626  subtractedValue */\n      dup4\n        /* \"empireERC20Token_flat.sol\":13591:13607  currentAllowance */\n      dup2\n        /* \"empireERC20Token_flat.sol\":13591:13626  currentAllowance >= subtractedValue */\n      lt\n      iszero\n        /* \"empireERC20Token_flat.sol\":13583:13668  require(currentAllowance >= subtractedValue, \"ERC20: decreased allowance below zero\") */\n      tag_172\n      jumpi\n      mload(0x40)\n      0x08c379a000000000000000000000000000000000000000000000000000000000\n      dup2\n      mstore\n      0x04\n      add\n      tag_173\n      swap1\n      tag_174\n      jump\t// in\n    tag_173:\n      mload(0x40)\n      dup1\n      swap2\n      sub\n      swap1\n      revert\n    tag_172:\n        /* \"empireERC20Token_flat.sol\":13702:13762  _approve(owner, spender, currentAllowance - subtractedValue) */\n      tag_175\n        /* \"empireERC20Token_flat.sol\":13711:13716  owner */\n      dup3\n        /* \"empireERC20Token_flat.sol\":13718:13725  spender */\n      dup7\n        /* \"empireERC20Token_flat.sol\":13746:13761  subtractedValue */\n      dup7\n        /* \"empireERC20Token_flat.sol\":13727:13743  currentAllowance */\n      dup5\n        /* \"empireERC20Token_flat.sol\":13727:13761  currentAllowance - subtractedValue */\n      sub\n        /* \"empireERC20Token_flat.sol\":13702:13710  _approve */\n      tag_120\n        /* \"empireERC20Token_flat.sol\":13702:13762  _approve(owner, spender, currentAllowance - subtractedValue) */\n      jump\t// in\n    tag_175:\n        /* \"empireERC20Token_flat.sol\":13790:13794  true */\n      0x01\n        /* \"empireERC20Token_flat.sol\":13783:13794  return true */\n      swap3\n      pop\n      pop\n      pop\n        /* \"empireERC20Token_flat.sol\":13372:13801  function decreaseAllowance(address spender, uint256 subtractedValue) public virtual returns (bool) {... */\n      swap3\n      swap2\n      pop\n      pop\n      jump\t// out\n        /* \"empireERC20Token_flat.sol\":10505:10694  function transfer(address to, uint256 amount) public virtual override returns (bool) {... */\n    tag_93:\n        /* \"empireERC20Token_flat.sol\":10584:10588  bool */\n      0x00\n        /* \"empireERC20Token_flat.sol\":10600:10613  address owner */\n      dup1\n        /* \"empireERC20Token_flat.sol\":10616:10628  _msgSender() */\n      tag_177\n        /* \"empireERC20Token_flat.sol\":10616:10626  _msgSender */\n      tag_118\n        /* \"empireERC20Token_flat.sol\":10616:10628  _msgSender() */\n      jump\t// in\n    tag_177:\n        /* \"empireERC20Token_flat.sol\":10600:10628  address owner = _msgSender() */\n      swap1\n      pop\n        /* \"empireERC20Token_flat.sol\":10638:10666  _transfer(owner, to, amount) */\n      tag_178\n        /* \"empireERC20Token_flat.sol\":10648:10653  owner */\n      dup2\n        /* \"empireERC20Token_flat.sol\":10655:10657  to */\n      dup6\n        /* \"empireERC20Token_flat.sol\":10659:10665  amount */\n      dup6\n        /* \"empireERC20Token_flat.sol\":10638:10647  _transfer */\n      tag_127\n        /* \"empireERC20Token_flat.sol\":10638:10666  _transfer(owner, to, amount) */\n      jump\t// in\n    tag_178:\n        /* \"empireERC20Token_flat.sol\":10683:10687  true */\n      0x01\n        /* \"empireERC20Token_flat.sol\":10676:10687  return true */\n      swap2\n      pop\n      pop\n        /* \"empireERC20Token_flat.sol\":10505:10694  function transfer(address to, uint256 amount) public virtual override returns (bool) {... */\n      swap3\n      swap2\n      pop\n      pop\n      jump\t// out\n        /* \"empireERC20Token_flat.sol\":20397:20514  function OwnerEthBalance() public view onlyOwner returns(uint256){... */\n    tag_97:\n        /* \"empireERC20Token_flat.sol\":20454:20461  uint256 */\n      0x00\n        /* \"empireERC20Token_flat.sol\":2147:2159  _msgSender() */\n      tag_180\n        /* \"empireERC20Token_flat.sol\":2147:2157  _msgSender */\n      tag_118\n        /* \"empireERC20Token_flat.sol\":2147:2159  _msgSender() */\n      jump\t// in\n    tag_180:\n        /* \"empireERC20Token_flat.sol\":2136:2159  owner() == _msgSender() */\n      0xffffffffffffffffffffffffffffffffffffffff\n      and\n        /* \"empireERC20Token_flat.sol\":2136:2143  owner() */\n      tag_181\n        /* \"empireERC20Token_flat.sol\":2136:2141  owner */\n      tag_78\n        /* \"empireERC20Token_flat.sol\":2136:2143  owner() */\n      jump\t// in\n    tag_181:\n        /* \"empireERC20Token_flat.sol\":2136:2159  owner() == _msgSender() */\n      0xffffffffffffffffffffffffffffffffffffffff\n      and\n      eq\n        /* \"empireERC20Token_flat.sol\":2128:2196  require(owner() == _msgSender(), \"Ownable: caller is not the owner\") */\n      tag_182\n      jumpi\n      mload(0x40)\n      0x08c379a000000000000000000000000000000000000000000000000000000000\n      dup2\n      mstore\n      0x04\n      add\n      tag_183\n      swap1\n      tag_139\n      jump\t// in\n    tag_183:\n      mload(0x40)\n      dup1\n      swap2\n      sub\n      swap1\n      revert\n    tag_182:\n        /* \"empireERC20Token_flat.sol\":20487:20498  ownedWallet */\n      0x06\n      0x00\n      swap1\n      sload\n      swap1\n      0x0100\n      exp\n      swap1\n      div\n      0xffffffffffffffffffffffffffffffffffffffff\n      and\n        /* \"empireERC20Token_flat.sol\":20479:20507  address(ownedWallet).balance */\n      0xffffffffffffffffffffffffffffffffffffffff\n      and\n      balance\n        /* \"empireERC20Token_flat.sol\":20472:20507  return address(ownedWallet).balance */\n      swap1\n      pop\n        /* \"empireERC20Token_flat.sol\":20397:20514  function OwnerEthBalance() public view onlyOwner returns(uint256){... */\n      swap1\n      jump\t// out\n        /* \"empireERC20Token_flat.sol\":10752:10901  function allowance(address owner, address spender) public view virtual override returns (uint256) {... */\n    tag_103:\n        /* \"empireERC20Token_flat.sol\":10841:10848  uint256 */\n      0x00\n        /* \"empireERC20Token_flat.sol\":10867:10878  _allowances */\n      0x01\n        /* \"empireERC20Token_flat.sol\":10867:10885  _allowances[owner] */\n      0x00\n        /* \"empireERC20Token_flat.sol\":10879:10884  owner */\n      dup5\n        /* \"empireERC20Token_flat.sol\":10867:10885  _allowances[owner] */\n      0xffffffffffffffffffffffffffffffffffffffff\n      and\n      0xffffffffffffffffffffffffffffffffffffffff\n      and\n      dup2\n      mstore\n      0x20\n      add\n      swap1\n      dup2\n      mstore\n      0x20\n      add\n      0x00\n      keccak256\n        /* \"empireERC20Token_flat.sol\":10867:10894  _allowances[owner][spender] */\n      0x00\n        /* \"empireERC20Token_flat.sol\":10886:10893  spender */\n      dup4\n        /* \"empireERC20Token_flat.sol\":10867:10894  _allowances[owner][spender] */\n      0xffffffffffffffffffffffffffffffffffffffff\n      and\n      0xffffffffffffffffffffffffffffffffffffffff\n      and\n      dup2\n      mstore\n      0x20\n      add\n      swap1\n      dup2\n      mstore\n      0x20\n      add\n      0x00\n      keccak256\n      sload\n        /* \"empireERC20Token_flat.sol\":10860:10894  return _allowances[owner][spender] */\n      swap1\n      pop\n        /* \"empireERC20Token_flat.sol\":10752:10901  function allowance(address owner, address spender) public view virtual override returns (uint256) {... */\n      swap3\n      swap2\n      pop\n      pop\n      jump\t// out\n        /* \"empireERC20Token_flat.sol\":2806:3004  function transferOwnership(address newOwner) public virtual onlyOwner {... */\n    tag_108:\n        /* \"empireERC20Token_flat.sol\":2147:2159  _msgSender() */\n      tag_187\n        /* \"empireERC20Token_flat.sol\":2147:2157  _msgSender */\n      tag_118\n        /* \"empireERC20Token_flat.sol\":2147:2159  _msgSender() */\n      jump\t// in\n    tag_187:\n        /* \"empireERC20Token_flat.sol\":2136:2159  owner() == _msgSender() */\n      0xffffffffffffffffffffffffffffffffffffffff\n      and\n        /* \"empireERC20Token_flat.sol\":2136:2143  owner() */\n      tag_188\n        /* \"empireERC20Token_flat.sol\":2136:2141  owner */\n      tag_78\n        /* \"empireERC20Token_flat.sol\":2136:2143  owner() */\n      jump\t// in\n    tag_188:\n        /* \"empireERC20Token_flat.sol\":2136:2159  owner() == _msgSender() */\n      0xffffffffffffffffffffffffffffffffffffffff\n      and\n      eq\n        /* \"empireERC20Token_flat.sol\":2128:2196  require(owner() == _msgSender(), \"Ownable: caller is not the owner\") */\n      tag_189\n      jumpi\n      mload(0x40)\n      0x08c379a000000000000000000000000000000000000000000000000000000000\n      dup2\n      mstore\n      0x04\n      add\n      tag_190\n      swap1\n      tag_139\n      jump\t// in\n    tag_190:\n      mload(0x40)\n      dup1\n      swap2\n      sub\n      swap1\n      revert\n    tag_189:\n        /* \"empireERC20Token_flat.sol\":2914:2915  0 */\n      0x00\n        /* \"empireERC20Token_flat.sol\":2894:2916  newOwner != address(0) */\n      0xffffffffffffffffffffffffffffffffffffffff\n      and\n        /* \"empireERC20Token_flat.sol\":2894:2902  newOwner */\n      dup2\n        /* \"empireERC20Token_flat.sol\":2894:2916  newOwner != address(0) */\n      0xffffffffffffffffffffffffffffffffffffffff\n      and\n      eq\n      iszero\n        /* \"empireERC20Token_flat.sol\":2886:2959  require(newOwner != address(0), \"Ownable: new owner is the zero address\") */\n      tag_192\n      jumpi\n      mload(0x40)\n      0x08c379a000000000000000000000000000000000000000000000000000000000\n      dup2\n      mstore\n      0x04\n      add\n      tag_193\n      swap1\n      tag_194\n      jump\t// in\n    tag_193:\n      mload(0x40)\n      dup1\n      swap2\n      sub\n      swap1\n      revert\n    tag_192:\n        /* \"empireERC20Token_flat.sol\":2969:2997  _transferOwnership(newOwner) */\n      tag_195\n        /* \"empireERC20Token_flat.sol\":2988:2996  newOwner */\n      dup2\n        /* \"empireERC20Token_flat.sol\":2969:2987  _transferOwnership */\n      tag_151\n        /* \"empireERC20Token_flat.sol\":2969:2997  _transferOwnership(newOwner) */\n      jump\t// in\n    tag_195:\n        /* \"empireERC20Token_flat.sol\":2806:3004  function transferOwnership(address newOwner) public virtual onlyOwner {... */\n      pop\n      jump\t// out\n        /* \"empireERC20Token_flat.sol\":692:788  function _msgSender() internal view virtual returns (address) {... */\n    tag_118:\n        /* \"empireERC20Token_flat.sol\":745:752  address */\n      0x00\n        /* \"empireERC20Token_flat.sol\":771:781  msg.sender */\n      caller\n        /* \"empireERC20Token_flat.sol\":764:781  return msg.sender */\n      swap1\n      pop\n        /* \"empireERC20Token_flat.sol\":692:788  function _msgSender() internal view virtual returns (address) {... */\n      swap1\n      jump\t// out\n        /* \"empireERC20Token_flat.sol\":16899:17269  function _approve(... */\n    tag_120:\n        /* \"empireERC20Token_flat.sol\":17047:17048  0 */\n      0x00\n        /* \"empireERC20Token_flat.sol\":17030:17049  owner != address(0) */\n      0xffffffffffffffffffffffffffffffffffffffff\n      and\n        /* \"empireERC20Token_flat.sol\":17030:17035  owner */\n      dup4\n        /* \"empireERC20Token_flat.sol\":17030:17049  owner != address(0) */\n      0xffffffffffffffffffffffffffffffffffffffff\n      and\n      eq\n      iszero\n        /* \"empireERC20Token_flat.sol\":17022:17090  require(owner != address(0), \"ERC20: approve from the zero address\") */\n      tag_198\n      jumpi\n      mload(0x40)\n      0x08c379a000000000000000000000000000000000000000000000000000000000\n      dup2\n      mstore\n      0x04\n      add\n      tag_199\n      swap1\n      tag_200\n      jump\t// in\n    tag_199:\n      mload(0x40)\n      dup1\n      swap2\n      sub\n      swap1\n      revert\n    tag_198:\n        /* \"empireERC20Token_flat.sol\":17127:17128  0 */\n      0x00\n        /* \"empireERC20Token_flat.sol\":17108:17129  spender != address(0) */\n      0xffffffffffffffffffffffffffffffffffffffff\n      and\n        /* \"empireERC20Token_flat.sol\":17108:17115  spender */\n      dup3\n        /* \"empireERC20Token_flat.sol\":17108:17129  spender != address(0) */\n      0xffffffffffffffffffffffffffffffffffffffff\n      and\n      eq\n      iszero\n        /* \"empireERC20Token_flat.sol\":17100:17168  require(spender != address(0), \"ERC20: approve to the zero address\") */\n      tag_201\n      jumpi\n      mload(0x40)\n      0x08c379a000000000000000000000000000000000000000000000000000000000\n      dup2\n      mstore\n      0x04\n      add\n      tag_202\n      swap1\n      tag_203\n      jump\t// in\n    tag_202:\n      mload(0x40)\n      dup1\n      swap2\n      sub\n      swap1\n      revert\n    tag_201:\n        /* \"empireERC20Token_flat.sol\":17209:17215  amount */\n      dup1\n        /* \"empireERC20Token_flat.sol\":17179:17190  _allowances */\n      0x01\n        /* \"empireERC20Token_flat.sol\":17179:17197  _allowances[owner] */\n      0x00\n        /* \"empireERC20Token_flat.sol\":17191:17196  owner */\n      dup6\n        /* \"empireERC20Token_flat.sol\":17179:17197  _allowances[owner] */\n      0xffffffffffffffffffffffffffffffffffffffff\n      and\n      0xffffffffffffffffffffffffffffffffffffffff\n      and\n      dup2\n      mstore\n      0x20\n      add\n      swap1\n      dup2\n      mstore\n      0x20\n      add\n      0x00\n      keccak256\n        /* \"empireERC20Token_flat.sol\":17179:17206  _allowances[owner][spender] */\n      0x00\n        /* \"empireERC20Token_flat.sol\":17198:17205  spender */\n      dup5\n        /* \"empireERC20Token_flat.sol\":17179:17206  _allowances[owner][spender] */\n      0xffffffffffffffffffffffffffffffffffffffff\n      and\n      0xffffffffffffffffffffffffffffffffffffffff\n      and\n      dup2\n      mstore\n      0x20\n      add\n      swap1\n      dup2\n      mstore\n      0x20\n      add\n      0x00\n      keccak256\n        /* \"empireERC20Token_flat.sol\":17179:17215  _allowances[owner][spender] = amount */\n      dup2\n      swap1\n      sstore\n      pop\n        /* \"empireERC20Token_flat.sol\":17246:17253  spender */\n      dup2\n        /* \"empireERC20Token_flat.sol\":17230:17262  Approval(owner, spender, amount) */\n      0xffffffffffffffffffffffffffffffffffffffff\n      and\n        /* \"empireERC20Token_flat.sol\":17239:17244  owner */\n      dup4\n        /* \"empireERC20Token_flat.sol\":17230:17262  Approval(owner, spender, amount) */\n      0xffffffffffffffffffffffffffffffffffffffff\n      and\n      0x8c5be1e5ebec7d5bd14f71427d1e84f3dd0314c0f7b2291e5b200ac8c7c3b925\n        /* \"empireERC20Token_flat.sol\":17255:17261  amount */\n      dup4\n        /* \"empireERC20Token_flat.sol\":17230:17262  Approval(owner, spender, amount) */\n      mload(0x40)\n      tag_204\n      swap2\n      swap1\n      tag_39\n      jump\t// in\n    tag_204:\n      mload(0x40)\n      dup1\n      swap2\n      sub\n      swap1\n      log3\n        /* \"empireERC20Token_flat.sol\":16899:17269  function _approve(... */\n      pop\n      pop\n      pop\n      jump\t// out\n        /* \"empireERC20Token_flat.sol\":17546:17987  function _spendAllowance(... */\n    tag_125:\n        /* \"empireERC20Token_flat.sol\":17676:17700  uint256 currentAllowance */\n      0x00\n        /* \"empireERC20Token_flat.sol\":17703:17728  allowance(owner, spender) */\n      tag_206\n        /* \"empireERC20Token_flat.sol\":17713:17718  owner */\n      dup5\n        /* \"empireERC20Token_flat.sol\":17720:17727  spender */\n      dup5\n        /* \"empireERC20Token_flat.sol\":17703:17712  allowance */\n      tag_103\n        /* \"empireERC20Token_flat.sol\":17703:17728  allowance(owner, spender) */\n      jump\t// in\n    tag_206:\n        /* \"empireERC20Token_flat.sol\":17676:17728  uint256 currentAllowance = allowance(owner, spender) */\n      swap1\n      pop\n        /* \"empireERC20Token_flat.sol\":17762:17779  type(uint256).max */\n      0xffffffffffffffffffffffffffffffffffffffffffffffffffffffffffffffff\n        /* \"empireERC20Token_flat.sol\":17742:17758  currentAllowance */\n      dup2\n        /* \"empireERC20Token_flat.sol\":17742:17779  currentAllowance != type(uint256).max */\n      eq\n        /* \"empireERC20Token_flat.sol\":17738:17981  if (currentAllowance != type(uint256).max) {... */\n      tag_207\n      jumpi\n        /* \"empireERC20Token_flat.sol\":17823:17829  amount */\n      dup2\n        /* \"empireERC20Token_flat.sol\":17803:17819  currentAllowance */\n      dup2\n        /* \"empireERC20Token_flat.sol\":17803:17829  currentAllowance >= amount */\n      lt\n      iszero\n        /* \"empireERC20Token_flat.sol\":17795:17863  require(currentAllowance >= amount, \"ERC20: insufficient allowance\") */\n      tag_208\n      jumpi\n      mload(0x40)\n      0x08c379a000000000000000000000000000000000000000000000000000000000\n      dup2\n      mstore\n      0x04\n      add\n      tag_209\n      swap1\n      tag_210\n      jump\t// in\n    tag_209:\n      mload(0x40)\n      dup1\n      swap2\n      sub\n      swap1\n      revert\n    tag_208:\n        /* \"empireERC20Token_flat.sol\":17905:17956  _approve(owner, spender, currentAllowance - amount) */\n      tag_211\n        /* \"empireERC20Token_flat.sol\":17914:17919  owner */\n      dup5\n        /* \"empireERC20Token_flat.sol\":17921:17928  spender */\n      dup5\n        /* \"empireERC20Token_flat.sol\":17949:17955  amount */\n      dup5\n        /* \"empireERC20Token_flat.sol\":17930:17946  currentAllowance */\n      dup5\n        /* \"empireERC20Token_flat.sol\":17930:17955  currentAllowance - amount */\n      sub\n        /* \"empireERC20Token_flat.sol\":17905:17913  _approve */\n      tag_120\n        /* \"empireERC20Token_flat.sol\":17905:17956  _approve(owner, spender, currentAllowance - amount) */\n      jump\t// in\n    tag_211:\n        /* \"empireERC20Token_flat.sol\":17738:17981  if (currentAllowance != type(uint256).max) {... */\n    tag_207:\n        /* \"empireERC20Token_flat.sol\":17666:17987  {... */\n      pop\n        /* \"empireERC20Token_flat.sol\":17546:17987  function _spendAllowance(... */\n      pop\n      pop\n      pop\n      jump\t// out\n        /* \"empireERC20Token_flat.sol\":14264:14915  function _transfer(... */\n    tag_127:\n        /* \"empireERC20Token_flat.sol\":14406:14407  0 */\n      0x00\n        /* \"empireERC20Token_flat.sol\":14390:14408  from != address(0) */\n      0xffffffffffffffffffffffffffffffffffffffff\n      and\n        /* \"empireERC20Token_flat.sol\":14390:14394  from */\n      dup4\n        /* \"empireERC20Token_flat.sol\":14390:14408  from != address(0) */\n      0xffffffffffffffffffffffffffffffffffffffff\n      and\n      eq\n      iszero\n        /* \"empireERC20Token_flat.sol\":14382:14450  require(from != address(0), \"ERC20: transfer from the zero address\") */\n      tag_213\n      jumpi\n      mload(0x40)\n      0x08c379a000000000000000000000000000000000000000000000000000000000\n      dup2\n      mstore\n      0x04\n      add\n      tag_214\n      swap1\n      tag_215\n      jump\t// in\n    tag_214:\n      mload(0x40)\n      dup1\n      swap2\n      sub\n      swap1\n      revert\n    tag_213:\n        /* \"empireERC20Token_flat.sol\":14482:14483  0 */\n      0x00\n        /* \"empireERC20Token_flat.sol\":14468:14484  to != address(0) */\n      0xffffffffffffffffffffffffffffffffffffffff\n      and\n        /* \"empireERC20Token_flat.sol\":14468:14470  to */\n      dup3\n        /* \"empireERC20Token_flat.sol\":14468:14484  to != address(0) */\n      0xffffffffffffffffffffffffffffffffffffffff\n      and\n      eq\n      iszero\n        /* \"empireERC20Token_flat.sol\":14460:14524  require(to != address(0), \"ERC20: transfer to the zero address\") */\n      tag_216\n      jumpi\n      mload(0x40)\n      0x08c379a000000000000000000000000000000000000000000000000000000000\n      dup2\n      mstore\n      0x04\n      add\n      tag_217\n      swap1\n      tag_218\n      jump\t// in\n    tag_217:\n      mload(0x40)\n      dup1\n      swap2\n      sub\n      swap1\n      revert\n    tag_216:\n        /* \"empireERC20Token_flat.sol\":14535:14573  _beforeTokenTransfer(from, to, amount) */\n      tag_219\n        /* \"empireERC20Token_flat.sol\":14556:14560  from */\n      dup4\n        /* \"empireERC20Token_flat.sol\":14562:14564  to */\n      dup4\n        /* \"empireERC20Token_flat.sol\":14566:14572  amount */\n      dup4\n        /* \"empireERC20Token_flat.sol\":14535:14555  _beforeTokenTransfer */\n      tag_220\n        /* \"empireERC20Token_flat.sol\":14535:14573  _beforeTokenTransfer(from, to, amount) */\n      jump\t// in\n    tag_219:\n        /* \"empireERC20Token_flat.sol\":14584:14603  uint256 fromBalance */\n      0x00\n        /* \"empireERC20Token_flat.sol\":14606:14615  _balances */\n      dup1\n        /* \"empireERC20Token_flat.sol\":14606:14621  _balances[from] */\n      0x00\n        /* \"empireERC20Token_flat.sol\":14616:14620  from */\n      dup6\n        /* \"empireERC20Token_flat.sol\":14606:14621  _balances[from] */\n      0xffffffffffffffffffffffffffffffffffffffff\n      and\n      0xffffffffffffffffffffffffffffffffffffffff\n      and\n      dup2\n      mstore\n      0x20\n      add\n      swap1\n      dup2\n      mstore\n      0x20\n      add\n      0x00\n      keccak256\n      sload\n        /* \"empireERC20Token_flat.sol\":14584:14621  uint256 fromBalance = _balances[from] */\n      swap1\n      pop\n        /* \"empireERC20Token_flat.sol\":14654:14660  amount */\n      dup2\n        /* \"empireERC20Token_flat.sol\":14639:14650  fromBalance */\n      dup2\n        /* \"empireERC20Token_flat.sol\":14639:14660  fromBalance >= amount */\n      lt\n      iszero\n        /* \"empireERC20Token_flat.sol\":14631:14703  require(fromBalance >= amount, \"ERC20: transfer amount exceeds balance\") */\n      tag_221\n      jumpi\n      mload(0x40)\n      0x08c379a000000000000000000000000000000000000000000000000000000000\n      dup2\n      mstore\n      0x04\n      add\n      tag_222\n      swap1\n      tag_223\n      jump\t// in\n    tag_222:\n      mload(0x40)\n      dup1\n      swap2\n      sub\n      swap1\n      revert\n    tag_221:\n        /* \"empireERC20Token_flat.sol\":14769:14775  amount */\n      dup2\n        /* \"empireERC20Token_flat.sol\":14755:14766  fromBalance */\n      dup2\n        /* \"empireERC20Token_flat.sol\":14755:14775  fromBalance - amount */\n      sub\n        /* \"empireERC20Token_flat.sol\":14737:14746  _balances */\n      0x00\n        /* \"empireERC20Token_flat.sol\":14737:14752  _balances[from] */\n      dup1\n        /* \"empireERC20Token_flat.sol\":14747:14751  from */\n      dup7\n        /* \"empireERC20Token_flat.sol\":14737:14752  _balances[from] */\n      0xffffffffffffffffffffffffffffffffffffffff\n      and\n      0xffffffffffffffffffffffffffffffffffffffff\n      and\n      dup2\n      mstore\n      0x20\n      add\n      swap1\n      dup2\n      mstore\n      0x20\n      add\n      0x00\n      keccak256\n        /* \"empireERC20Token_flat.sol\":14737:14775  _balances[from] = fromBalance - amount */\n      dup2\n      swap1\n      sstore\n      pop\n        /* \"empireERC20Token_flat.sol\":14812:14818  amount */\n      dup2\n        /* \"empireERC20Token_flat.sol\":14795:14804  _balances */\n      0x00\n        /* \"empireERC20Token_flat.sol\":14795:14808  _balances[to] */\n      dup1\n        /* \"empireERC20Token_flat.sol\":14805:14807  to */\n      dup6\n        /* \"empireERC20Token_flat.sol\":14795:14808  _balances[to] */\n      0xffffffffffffffffffffffffffffffffffffffff\n      and\n      0xffffffffffffffffffffffffffffffffffffffff\n      and\n      dup2\n      mstore\n      0x20\n      add\n      swap1\n      dup2\n      mstore\n      0x20\n      add\n      0x00\n      keccak256\n      0x00\n        /* \"empireERC20Token_flat.sol\":14795:14818  _balances[to] += amount */\n      dup3\n      dup3\n      sload\n      tag_224\n      swap2\n      swap1\n      tag_133\n      jump\t// in\n    tag_224:\n      swap3\n      pop\n      pop\n      dup2\n      swap1\n      sstore\n      pop\n        /* \"empireERC20Token_flat.sol\":14849:14851  to */\n      dup3\n        /* \"empireERC20Token_flat.sol\":14834:14860  Transfer(from, to, amount) */\n      0xffffffffffffffffffffffffffffffffffffffff\n      and\n        /* \"empireERC20Token_flat.sol\":14843:14847  from */\n      dup5\n        /* \"empireERC20Token_flat.sol\":14834:14860  Transfer(from, to, amount) */\n      0xffffffffffffffffffffffffffffffffffffffff\n      and\n      0xddf252ad1be2c89b69c2b068fc378daa952ba7f163c4a11628f55a4df523b3ef\n        /* \"empireERC20Token_flat.sol\":14853:14859  amount */\n      dup5\n        /* \"empireERC20Token_flat.sol\":14834:14860  Transfer(from, to, amount) */\n      mload(0x40)\n      tag_225\n      swap2\n      swap1\n      tag_39\n      jump\t// in\n    tag_225:\n      mload(0x40)\n      dup1\n      swap2\n      sub\n      swap1\n      log3\n        /* \"empireERC20Token_flat.sol\":14871:14908  _afterTokenTransfer(from, to, amount) */\n      tag_226\n        /* \"empireERC20Token_flat.sol\":14891:14895  from */\n      dup5\n        /* \"empireERC20Token_flat.sol\":14897:14899  to */\n      dup5\n        /* \"empireERC20Token_flat.sol\":14901:14907  amount */\n      dup5\n        /* \"empireERC20Token_flat.sol\":14871:14890  _afterTokenTransfer */\n      tag_227\n        /* \"empireERC20Token_flat.sol\":14871:14908  _afterTokenTransfer(from, to, amount) */\n      jump\t// in\n    tag_226:\n        /* \"empireERC20Token_flat.sol\":14372:14915  {... */\n      pop\n        /* \"empireERC20Token_flat.sol\":14264:14915  function _transfer(... */\n      pop\n      pop\n      pop\n      jump\t// out\n        /* \"empireERC20Token_flat.sol\":15191:15580  function _mint(address account, uint256 amount) internal virtual {... */\n    tag_142:\n        /* \"empireERC20Token_flat.sol\":15293:15294  0 */\n      0x00\n        /* \"empireERC20Token_flat.sol\":15274:15295  account != address(0) */\n      0xffffffffffffffffffffffffffffffffffffffff\n      and\n        /* \"empireERC20Token_flat.sol\":15274:15281  account */\n      dup3\n        /* \"empireERC20Token_flat.sol\":15274:15295  account != address(0) */\n      0xffffffffffffffffffffffffffffffffffffffff\n      and\n      eq\n      iszero\n        /* \"empireERC20Token_flat.sol\":15266:15331  require(account != address(0), \"ERC20: mint to the zero address\") */\n      tag_229\n      jumpi\n      mload(0x40)\n      0x08c379a000000000000000000000000000000000000000000000000000000000\n      dup2\n      mstore\n      0x04\n      add\n      tag_230\n      swap1\n      tag_231\n      jump\t// in\n    tag_230:\n      mload(0x40)\n      dup1\n      swap2\n      sub\n      swap1\n      revert\n    tag_229:\n        /* \"empireERC20Token_flat.sol\":15342:15391  _beforeTokenTransfer(address(0), account, amount) */\n      tag_232\n        /* \"empireERC20Token_flat.sol\":15371:15372  0 */\n      0x00\n        /* \"empireERC20Token_flat.sol\":15375:15382  account */\n      dup4\n        /* \"empireERC20Token_flat.sol\":15384:15390  amount */\n      dup4\n        /* \"empireERC20Token_flat.sol\":15342:15362  _beforeTokenTransfer */\n      tag_220\n        /* \"empireERC20Token_flat.sol\":15342:15391  _beforeTokenTransfer(address(0), account, amount) */\n      jump\t// in\n    tag_232:\n        /* \"empireERC20Token_flat.sol\":15418:15424  amount */\n      dup1\n        /* \"empireERC20Token_flat.sol\":15402:15414  _totalSupply */\n      0x02\n      0x00\n        /* \"empireERC20Token_flat.sol\":15402:15424  _totalSupply += amount */\n      dup3\n      dup3\n      sload\n      tag_233\n      swap2\n      swap1\n      tag_133\n      jump\t// in\n    tag_233:\n      swap3\n      pop\n      pop\n      dup2\n      swap1\n      sstore\n      pop\n        /* \"empireERC20Token_flat.sol\":15456:15462  amount */\n      dup1\n        /* \"empireERC20Token_flat.sol\":15434:15443  _balances */\n      0x00\n        /* \"empireERC20Token_flat.sol\":15434:15452  _balances[account] */\n      dup1\n        /* \"empireERC20Token_flat.sol\":15444:15451  account */\n      dup5\n        /* \"empireERC20Token_flat.sol\":15434:15452  _balances[account] */\n      0xffffffffffffffffffffffffffffffffffffffff\n      and\n      0xffffffffffffffffffffffffffffffffffffffff\n      and\n      dup2\n      mstore\n      0x20\n      add\n      swap1\n      dup2\n      mstore\n      0x20\n      add\n      0x00\n      keccak256\n      0x00\n        /* \"empireERC20Token_flat.sol\":15434:15462  _balances[account] += amount */\n      dup3\n      dup3\n      sload\n      tag_234\n      swap2\n      swap1\n      tag_133\n      jump\t// in\n    tag_234:\n      swap3\n      pop\n      pop\n      dup2\n      swap1\n      sstore\n      pop\n        /* \"empireERC20Token_flat.sol\":15498:15505  account */\n      dup2\n        /* \"empireERC20Token_flat.sol\":15477:15514  Transfer(address(0), account, amount) */\n      0xffffffffffffffffffffffffffffffffffffffff\n      and\n        /* \"empireERC20Token_flat.sol\":15494:15495  0 */\n      0x00\n        /* \"empireERC20Token_flat.sol\":15477:15514  Transfer(address(0), account, amount) */\n      0xffffffffffffffffffffffffffffffffffffffff\n      and\n      0xddf252ad1be2c89b69c2b068fc378daa952ba7f163c4a11628f55a4df523b3ef\n        /* \"empireERC20Token_flat.sol\":15507:15513  amount */\n      dup4\n        /* \"empireERC20Token_flat.sol\":15477:15514  Transfer(address(0), account, amount) */\n      mload(0x40)\n      tag_235\n      swap2\n      swap1\n      tag_39\n      jump\t// in\n    tag_235:\n      mload(0x40)\n      dup1\n      swap2\n      sub\n      swap1\n      log3\n        /* \"empireERC20Token_flat.sol\":15525:15573  _afterTokenTransfer(address(0), account, amount) */\n      tag_236\n        /* \"empireERC20Token_flat.sol\":15553:15554  0 */\n      0x00\n        /* \"empireERC20Token_flat.sol\":15557:15564  account */\n      dup4\n        /* \"empireERC20Token_flat.sol\":15566:15572  amount */\n      dup4\n        /* \"empireERC20Token_flat.sol\":15525:15544  _afterTokenTransfer */\n      tag_227\n        /* \"empireERC20Token_flat.sol\":15525:15573  _afterTokenTransfer(address(0), account, amount) */\n      jump\t// in\n    tag_236:\n        /* \"empireERC20Token_flat.sol\":15191:15580  function _mint(address account, uint256 amount) internal virtual {... */\n      pop\n      pop\n      jump\t// out\n        /* \"empireERC20Token_flat.sol\":3158:3345  function _transferOwnership(address newOwner) internal virtual {... */\n    tag_151:\n        /* \"empireERC20Token_flat.sol\":3231:3247  address oldOwner */\n      0x00\n        /* \"empireERC20Token_flat.sol\":3250:3256  _owner */\n      0x05\n      0x00\n      swap1\n      sload\n      swap1\n      0x0100\n      exp\n      swap1\n      div\n      0xffffffffffffffffffffffffffffffffffffffff\n      and\n        /* \"empireERC20Token_flat.sol\":3231:3256  address oldOwner = _owner */\n      swap1\n      pop\n        /* \"empireERC20Token_flat.sol\":3275:3283  newOwner */\n      dup2\n        /* \"empireERC20Token_flat.sol\":3266:3272  _owner */\n      0x05\n      0x00\n        /* \"empireERC20Token_flat.sol\":3266:3283  _owner = newOwner */\n      0x0100\n      exp\n      dup2\n      sload\n      dup2\n      0xffffffffffffffffffffffffffffffffffffffff\n      mul\n      not\n      and\n      swap1\n      dup4\n      0xffffffffffffffffffffffffffffffffffffffff\n      and\n      mul\n      or\n      swap1\n      sstore\n      pop\n        /* \"empireERC20Token_flat.sol\":3329:3337  newOwner */\n      dup2\n        /* \"empireERC20Token_flat.sol\":3298:3338  OwnershipTransferred(oldOwner, newOwner) */\n      0xffffffffffffffffffffffffffffffffffffffff\n      and\n        /* \"empireERC20Token_flat.sol\":3319:3327  oldOwner */\n      dup2\n        /* \"empireERC20Token_flat.sol\":3298:3338  OwnershipTransferred(oldOwner, newOwner) */\n      0xffffffffffffffffffffffffffffffffffffffff\n      and\n      0x8be0079c531659141344cd1fd0a4f28419497f9722a3daafe3b4186f6b6457e0\n      mload(0x40)\n      mload(0x40)\n      dup1\n      swap2\n      sub\n      swap1\n      log3\n        /* \"empireERC20Token_flat.sol\":3221:3345  {... */\n      pop\n        /* \"empireERC20Token_flat.sol\":3158:3345  function _transferOwnership(address newOwner) internal virtual {... */\n      pop\n      jump\t// out\n        /* \"empireERC20Token_flat.sol\":18571:18692  function _beforeTokenTransfer(... */\n    tag_220:\n      pop\n      pop\n      pop\n      jump\t// out\n        /* \"empireERC20Token_flat.sol\":19280:19400  function _afterTokenTransfer(... */\n    tag_227:\n      pop\n      pop\n      pop\n      jump\t// out\n        /* \"#utility.yul\":7:146   */\n    tag_241:\n        /* \"#utility.yul\":53:58   */\n      0x00\n        /* \"#utility.yul\":91:97   */\n      dup2\n        /* \"#utility.yul\":78:98   */\n      calldataload\n        /* \"#utility.yul\":69:98   */\n      swap1\n      pop\n        /* \"#utility.yul\":107:140   */\n      tag_243\n        /* \"#utility.yul\":134:139   */\n      dup2\n        /* \"#utility.yul\":107:140   */\n      tag_244\n      jump\t// in\n    tag_243:\n        /* \"#utility.yul\":7:146   */\n      swap3\n      swap2\n      pop\n      pop\n      jump\t// out\n        /* \"#utility.yul\":152:291   */\n    tag_245:\n        /* \"#utility.yul\":198:203   */\n      0x00\n        /* \"#utility.yul\":236:242   */\n      dup2\n        /* \"#utility.yul\":223:243   */\n      calldataload\n        /* \"#utility.yul\":214:243   */\n      swap1\n      pop\n        /* \"#utility.yul\":252:285   */\n      tag_247\n        /* \"#utility.yul\":279:284   */\n      dup2\n        /* \"#utility.yul\":252:285   */\n      tag_248\n      jump\t// in\n    tag_247:\n        /* \"#utility.yul\":152:291   */\n      swap3\n      swap2\n      pop\n      pop\n      jump\t// out\n        /* \"#utility.yul\":297:626   */\n    tag_67:\n        /* \"#utility.yul\":356:362   */\n      0x00\n        /* \"#utility.yul\":405:407   */\n      0x20\n        /* \"#utility.yul\":393:402   */\n      dup3\n        /* \"#utility.yul\":384:391   */\n      dup5\n        /* \"#utility.yul\":380:403   */\n      sub\n        /* \"#utility.yul\":376:408   */\n      slt\n        /* \"#utility.yul\":373:492   */\n      iszero\n      tag_250\n      jumpi\n        /* \"#utility.yul\":411:490   */\n      tag_251\n      tag_252\n      jump\t// in\n    tag_251:\n        /* \"#utility.yul\":373:492   */\n    tag_250:\n        /* \"#utility.yul\":531:532   */\n      0x00\n        /* \"#utility.yul\":556:609   */\n      tag_253\n        /* \"#utility.yul\":601:608   */\n      dup5\n        /* \"#utility.yul\":592:598   */\n      dup3\n        /* \"#utility.yul\":581:590   */\n      dup6\n        /* \"#utility.yul\":577:599   */\n      add\n        /* \"#utility.yul\":556:609   */\n      tag_241\n      jump\t// in\n    tag_253:\n        /* \"#utility.yul\":546:609   */\n      swap2\n      pop\n        /* \"#utility.yul\":502:619   */\n      pop\n        /* \"#utility.yul\":297:626   */\n      swap3\n      swap2\n      pop\n      pop\n      jump\t// out\n        /* \"#utility.yul\":632:1106   */\n    tag_102:\n        /* \"#utility.yul\":700:706   */\n      0x00\n        /* \"#utility.yul\":708:714   */\n      dup1\n        /* \"#utility.yul\":757:759   */\n      0x40\n        /* \"#utility.yul\":745:754   */\n      dup4\n        /* \"#utility.yul\":736:743   */\n      dup6\n        /* \"#utility.yul\":732:755   */\n      sub\n        /* \"#utility.yul\":728:760   */\n      slt\n        /* \"#utility.yul\":725:844   */\n      iszero\n      tag_255\n      jumpi\n        /* \"#utility.yul\":763:842   */\n      tag_256\n      tag_252\n      jump\t// in\n    tag_256:\n        /* \"#utility.yul\":725:844   */\n    tag_255:\n        /* \"#utility.yul\":883:884   */\n      0x00\n        /* \"#utility.yul\":908:961   */\n      tag_257\n        /* \"#utility.yul\":953:960   */\n      dup6\n        /* \"#utility.yul\":944:950   */\n      dup3\n        /* \"#utility.yul\":933:942   */\n      dup7\n        /* \"#utility.yul\":929:951   */\n      add\n        /* \"#utility.yul\":908:961   */\n      tag_241\n      jump\t// in\n    tag_257:\n        /* \"#utility.yul\":898:961   */\n      swap3\n      pop\n        /* \"#utility.yul\":854:971   */\n      pop\n        /* \"#utility.yul\":1010:1012   */\n      0x20\n        /* \"#utility.yul\":1036:1089   */\n      tag_258\n        /* \"#utility.yul\":1081:1088   */\n      dup6\n        /* \"#utility.yul\":1072:1078   */\n      dup3\n        /* \"#utility.yul\":1061:1070   */\n      dup7\n        /* \"#utility.yul\":1057:1079   */\n      add\n        /* \"#utility.yul\":1036:1089   */\n      tag_241\n      jump\t// in\n    tag_258:\n        /* \"#utility.yul\":1026:1089   */\n      swap2\n      pop\n        /* \"#utility.yul\":981:1099   */\n      pop\n        /* \"#utility.yul\":632:1106   */\n      swap3\n      pop\n      swap3\n      swap1\n      pop\n      jump\t// out\n        /* \"#utility.yul\":1112:1731   */\n    tag_43:\n        /* \"#utility.yul\":1189:1195   */\n      0x00\n        /* \"#utility.yul\":1197:1203   */\n      dup1\n        /* \"#utility.yul\":1205:1211   */\n      0x00\n        /* \"#utility.yul\":1254:1256   */\n      0x60\n        /* \"#utility.yul\":1242:1251   */\n      dup5\n        /* \"#utility.yul\":1233:1240   */\n      dup7\n        /* \"#utility.yul\":1229:1252   */\n      sub\n        /* \"#utility.yul\":1225:1257   */\n      slt\n        /* \"#utility.yul\":1222:1341   */\n      iszero\n      tag_260\n      jumpi\n        /* \"#utility.yul\":1260:1339   */\n      tag_261\n      tag_252\n      jump\t// in\n    tag_261:\n        /* \"#utility.yul\":1222:1341   */\n    tag_260:\n        /* \"#utility.yul\":1380:1381   */\n      0x00\n        /* \"#utility.yul\":1405:1458   */\n      tag_262\n        /* \"#utility.yul\":1450:1457   */\n      dup7\n        /* \"#utility.yul\":1441:1447   */\n      dup3\n        /* \"#utility.yul\":1430:1439   */\n      dup8\n        /* \"#utility.yul\":1426:1448   */\n      add\n        /* \"#utility.yul\":1405:1458   */\n      tag_241\n      jump\t// in\n    tag_262:\n        /* \"#utility.yul\":1395:1458   */\n      swap4\n      pop\n        /* \"#utility.yul\":1351:1468   */\n      pop\n        /* \"#utility.yul\":1507:1509   */\n      0x20\n        /* \"#utility.yul\":1533:1586   */\n      tag_263\n        /* \"#utility.yul\":1578:1585   */\n      dup7\n        /* \"#utility.yul\":1569:1575   */\n      dup3\n        /* \"#utility.yul\":1558:1567   */\n      dup8\n        /* \"#utility.yul\":1554:1576   */\n      add\n        /* \"#utility.yul\":1533:1586   */\n      tag_241\n      jump\t// in\n    tag_263:\n        /* \"#utility.yul\":1523:1586   */\n      swap3\n      pop\n        /* \"#utility.yul\":1478:1596   */\n      pop\n        /* \"#utility.yul\":1635:1637   */\n      0x40\n        /* \"#utility.yul\":1661:1714   */\n      tag_264\n        /* \"#utility.yul\":1706:1713   */\n      dup7\n        /* \"#utility.yul\":1697:1703   */\n      dup3\n        /* \"#utility.yul\":1686:1695   */\n      dup8\n        /* \"#utility.yul\":1682:1704   */\n      add\n        /* \"#utility.yul\":1661:1714   */\n      tag_245\n      jump\t// in\n    tag_264:\n        /* \"#utility.yul\":1651:1714   */\n      swap2\n      pop\n        /* \"#utility.yul\":1606:1724   */\n      pop\n        /* \"#utility.yul\":1112:1731   */\n      swap3\n      pop\n      swap3\n      pop\n      swap3\n      jump\t// out\n        /* \"#utility.yul\":1737:2211   */\n    tag_31:\n        /* \"#utility.yul\":1805:1811   */\n      0x00\n        /* \"#utility.yul\":1813:1819   */\n      dup1\n        /* \"#utility.yul\":1862:1864   */\n      0x40\n        /* \"#utility.yul\":1850:1859   */\n      dup4\n        /* \"#utility.yul\":1841:1848   */\n      dup6\n        /* \"#utility.yul\":1837:1860   */\n      sub\n        /* \"#utility.yul\":1833:1865   */\n      slt\n        /* \"#utility.yul\":1830:1949   */\n      iszero\n      tag_266\n      jumpi\n        /* \"#utility.yul\":1868:1947   */\n      tag_267\n      tag_252\n      jump\t// in\n    tag_267:\n        /* \"#utility.yul\":1830:1949   */\n    tag_266:\n        /* \"#utility.yul\":1988:1989   */\n      0x00\n        /* \"#utility.yul\":2013:2066   */\n      tag_268\n        /* \"#utility.yul\":2058:2065   */\n      dup6\n        /* \"#utility.yul\":2049:2055   */\n      dup3\n        /* \"#utility.yul\":2038:2047   */\n      dup7\n        /* \"#utility.yul\":2034:2056   */\n      add\n        /* \"#utility.yul\":2013:2066   */\n      tag_241\n      jump\t// in\n    tag_268:\n        /* \"#utility.yul\":2003:2066   */\n      swap3\n      pop\n        /* \"#utility.yul\":1959:2076   */\n      pop\n        /* \"#utility.yul\":2115:2117   */\n      0x20\n        /* \"#utility.yul\":2141:2194   */\n      tag_269\n        /* \"#utility.yul\":2186:2193   */\n      dup6\n        /* \"#utility.yul\":2177:2183   */\n      dup3\n        /* \"#utility.yul\":2166:2175   */\n      dup7\n        /* \"#utility.yul\":2162:2184   */\n      add\n        /* \"#utility.yul\":2141:2194   */\n      tag_245\n      jump\t// in\n    tag_269:\n        /* \"#utility.yul\":2131:2194   */\n      swap2\n      pop\n        /* \"#utility.yul\":2086:2204   */\n      pop\n        /* \"#utility.yul\":1737:2211   */\n      swap3\n      pop\n      swap3\n      swap1\n      pop\n      jump\t// out\n        /* \"#utility.yul\":2217:2335   */\n    tag_270:\n        /* \"#utility.yul\":2304:2328   */\n      tag_272\n        /* \"#utility.yul\":2322:2327   */\n      dup2\n        /* \"#utility.yul\":2304:2328   */\n      tag_273\n      jump\t// in\n    tag_272:\n        /* \"#utility.yul\":2299:2302   */\n      dup3\n        /* \"#utility.yul\":2292:2329   */\n      mstore\n        /* \"#utility.yul\":2217:2335   */\n      pop\n      pop\n      jump\t// out\n        /* \"#utility.yul\":2341:2450   */\n    tag_274:\n        /* \"#utility.yul\":2422:2443   */\n      tag_276\n        /* \"#utility.yul\":2437:2442   */\n      dup2\n        /* \"#utility.yul\":2422:2443   */\n      tag_277\n      jump\t// in\n    tag_276:\n        /* \"#utility.yul\":2417:2420   */\n      dup3\n        /* \"#utility.yul\":2410:2444   */\n      mstore\n        /* \"#utility.yul\":2341:2450   */\n      pop\n      pop\n      jump\t// out\n        /* \"#utility.yul\":2456:2820   */\n    tag_278:\n        /* \"#utility.yul\":2544:2547   */\n      0x00\n        /* \"#utility.yul\":2572:2611   */\n      tag_280\n        /* \"#utility.yul\":2605:2610   */\n      dup3\n        /* \"#utility.yul\":2572:2611   */\n      tag_281\n      jump\t// in\n    tag_280:\n        /* \"#utility.yul\":2627:2698   */\n      tag_282\n        /* \"#utility.yul\":2691:2697   */\n      dup2\n        /* \"#utility.yul\":2686:2689   */\n      dup6\n        /* \"#utility.yul\":2627:2698   */\n      tag_283\n      jump\t// in\n    tag_282:\n        /* \"#utility.yul\":2620:2698   */\n      swap4\n      pop\n        /* \"#utility.yul\":2707:2759   */\n      tag_284\n        /* \"#utility.yul\":2752:2758   */\n      dup2\n        /* \"#utility.yul\":2747:2750   */\n      dup6\n        /* \"#utility.yul\":2740:2744   */\n      0x20\n        /* \"#utility.yul\":2733:2738   */\n      dup7\n        /* \"#utility.yul\":2729:2745   */\n      add\n        /* \"#utility.yul\":2707:2759   */\n      tag_285\n      jump\t// in\n    tag_284:\n        /* \"#utility.yul\":2784:2813   */\n      tag_286\n        /* \"#utility.yul\":2806:2812   */\n      dup2\n        /* \"#utility.yul\":2784:2813   */\n      tag_287\n      jump\t// in\n    tag_286:\n        /* \"#utility.yul\":2779:2782   */\n      dup5\n        /* \"#utility.yul\":2775:2814   */\n      add\n        /* \"#utility.yul\":2768:2814   */\n      swap2\n      pop\n        /* \"#utility.yul\":2548:2820   */\n      pop\n        /* \"#utility.yul\":2456:2820   */\n      swap3\n      swap2\n      pop\n      pop\n      jump\t// out\n        /* \"#utility.yul\":2826:3192   */\n    tag_288:\n        /* \"#utility.yul\":2968:2971   */\n      0x00\n        /* \"#utility.yul\":2989:3056   */\n      tag_290\n        /* \"#utility.yul\":3053:3055   */\n      0x23\n        /* \"#utility.yul\":3048:3051   */\n      dup4\n        /* \"#utility.yul\":2989:3056   */\n      tag_283\n      jump\t// in\n    tag_290:\n        /* \"#utility.yul\":2982:3056   */\n      swap2\n      pop\n        /* \"#utility.yul\":3065:3158   */\n      tag_291\n        /* \"#utility.yul\":3154:3157   */\n      dup3\n        /* \"#utility.yul\":3065:3158   */\n      tag_292\n      jump\t// in\n    tag_291:\n        /* \"#utility.yul\":3183:3185   */\n      0x40\n        /* \"#utility.yul\":3178:3181   */\n      dup3\n        /* \"#utility.yul\":3174:3186   */\n      add\n        /* \"#utility.yul\":3167:3186   */\n      swap1\n      pop\n        /* \"#utility.yul\":2826:3192   */\n      swap2\n      swap1\n      pop\n      jump\t// out\n        /* \"#utility.yul\":3198:3564   */\n    tag_293:\n        /* \"#utility.yul\":3340:3343   */\n      0x00\n        /* \"#utility.yul\":3361:3428   */\n      tag_295\n        /* \"#utility.yul\":3425:3427   */\n      0x26\n        /* \"#utility.yul\":3420:3423   */\n      dup4\n        /* \"#utility.yul\":3361:3428   */\n      tag_283\n      jump\t// in\n    tag_295:\n        /* \"#utility.yul\":3354:3428   */\n      swap2\n      pop\n        /* \"#utility.yul\":3437:3530   */\n      tag_296\n        /* \"#utility.yul\":3526:3529   */\n      dup3\n        /* \"#utility.yul\":3437:3530   */\n      tag_297\n      jump\t// in\n    tag_296:\n        /* \"#utility.yul\":3555:3557   */\n      0x40\n        /* \"#utility.yul\":3550:3553   */\n      dup3\n        /* \"#utility.yul\":3546:3558   */\n      add\n        /* \"#utility.yul\":3539:3558   */\n      swap1\n      pop\n        /* \"#utility.yul\":3198:3564   */\n      swap2\n      swap1\n      pop\n      jump\t// out\n        /* \"#utility.yul\":3570:3936   */\n    tag_298:\n        /* \"#utility.yul\":3712:3715   */\n      0x00\n        /* \"#utility.yul\":3733:3800   */\n      tag_300\n        /* \"#utility.yul\":3797:3799   */\n      0x22\n        /* \"#utility.yul\":3792:3795   */\n      dup4\n        /* \"#utility.yul\":3733:3800   */\n      tag_283\n      jump\t// in\n    tag_300:\n        /* \"#utility.yul\":3726:3800   */\n      swap2\n      pop\n        /* \"#utility.yul\":3809:3902   */\n      tag_301\n        /* \"#utility.yul\":3898:3901   */\n      dup3\n        /* \"#utility.yul\":3809:3902   */\n      tag_302\n      jump\t// in\n    tag_301:\n        /* \"#utility.yul\":3927:3929   */\n      0x40\n        /* \"#utility.yul\":3922:3925   */\n      dup3\n        /* \"#utility.yul\":3918:3930   */\n      add\n        /* \"#utility.yul\":3911:3930   */\n      swap1\n      pop\n        /* \"#utility.yul\":3570:3936   */\n      swap2\n      swap1\n      pop\n      jump\t// out\n        /* \"#utility.yul\":3942:4308   */\n    tag_303:\n        /* \"#utility.yul\":4084:4087   */\n      0x00\n        /* \"#utility.yul\":4105:4172   */\n      tag_305\n        /* \"#utility.yul\":4169:4171   */\n      0x1b\n        /* \"#utility.yul\":4164:4167   */\n      dup4\n        /* \"#utility.yul\":4105:4172   */\n      tag_283\n      jump\t// in\n    tag_305:\n        /* \"#utility.yul\":4098:4172   */\n      swap2\n      pop\n        /* \"#utility.yul\":4181:4274   */\n      tag_306\n        /* \"#utility.yul\":4270:4273   */\n      dup3\n        /* \"#utility.yul\":4181:4274   */\n      tag_307\n      jump\t// in\n    tag_306:\n        /* \"#utility.yul\":4299:4301   */\n      0x20\n        /* \"#utility.yul\":4294:4297   */\n      dup3\n        /* \"#utility.yul\":4290:4302   */\n      add\n        /* \"#utility.yul\":4283:4302   */\n      swap1\n      pop\n        /* \"#utility.yul\":3942:4308   */\n      swap2\n      swap1\n      pop\n      jump\t// out\n        /* \"#utility.yul\":4314:4680   */\n    tag_308:\n        /* \"#utility.yul\":4456:4459   */\n      0x00\n        /* \"#utility.yul\":4477:4544   */\n      tag_310\n        /* \"#utility.yul\":4541:4543   */\n      0x1d\n        /* \"#utility.yul\":4536:4539   */\n      dup4\n        /* \"#utility.yul\":4477:4544   */\n      tag_283\n      jump\t// in\n    tag_310:\n        /* \"#utility.yul\":4470:4544   */\n      swap2\n      pop\n        /* \"#utility.yul\":4553:4646   */\n      tag_311\n        /* \"#utility.yul\":4642:4645   */\n      dup3\n        /* \"#utility.yul\":4553:4646   */\n      tag_312\n      jump\t// in\n    tag_311:\n        /* \"#utility.yul\":4671:4673   */\n      0x20\n        /* \"#utility.yul\":4666:4669   */\n      dup3\n        /* \"#utility.yul\":4662:4674   */\n      add\n        /* \"#utility.yul\":4655:4674   */\n      swap1\n      pop\n        /* \"#utility.yul\":4314:4680   */\n      swap2\n      swap1\n      pop\n      jump\t// out\n        /* \"#utility.yul\":4686:5052   */\n    tag_313:\n        /* \"#utility.yul\":4828:4831   */\n      0x00\n        /* \"#utility.yul\":4849:4916   */\n      tag_315\n        /* \"#utility.yul\":4913:4915   */\n      0x26\n        /* \"#utility.yul\":4908:4911   */\n      dup4\n        /* \"#utility.yul\":4849:4916   */\n      tag_283\n      jump\t// in\n    tag_315:\n        /* \"#utility.yul\":4842:4916   */\n      swap2\n      pop\n        /* \"#utility.yul\":4925:5018   */\n      tag_316\n        /* \"#utility.yul\":5014:5017   */\n      dup3\n        /* \"#utility.yul\":4925:5018   */\n      tag_317\n      jump\t// in\n    tag_316:\n        /* \"#utility.yul\":5043:5045   */\n      0x40\n        /* \"#utility.yul\":5038:5041   */\n      dup3\n        /* \"#utility.yul\":5034:5046   */\n      add\n        /* \"#utility.yul\":5027:5046   */\n      swap1\n      pop\n        /* \"#utility.yul\":4686:5052   */\n      swap2\n      swap1\n      pop\n      jump\t// out\n        /* \"#utility.yul\":5058:5424   */\n    tag_318:\n        /* \"#utility.yul\":5200:5203   */\n      0x00\n        /* \"#utility.yul\":5221:5288   */\n      tag_320\n        /* \"#utility.yul\":5285:5287   */\n      0x20\n        /* \"#utility.yul\":5280:5283   */\n      dup4\n        /* \"#utility.yul\":5221:5288   */\n      tag_283\n      jump\t// in\n    tag_320:\n        /* \"#utility.yul\":5214:5288   */\n      swap2\n      pop\n        /* \"#utility.yul\":5297:5390   */\n      tag_321\n        /* \"#utility.yul\":5386:5389   */\n      dup3\n        /* \"#utility.yul\":5297:5390   */\n      tag_322\n      jump\t// in\n    tag_321:\n        /* \"#utility.yul\":5415:5417   */\n      0x20\n        /* \"#utility.yul\":5410:5413   */\n      dup3\n        /* \"#utility.yul\":5406:5418   */\n      add\n        /* \"#utility.yul\":5399:5418   */\n      swap1\n      pop\n        /* \"#utility.yul\":5058:5424   */\n      swap2\n      swap1\n      pop\n      jump\t// out\n        /* \"#utility.yul\":5430:5796   */\n    tag_323:\n        /* \"#utility.yul\":5572:5575   */\n      0x00\n        /* \"#utility.yul\":5593:5660   */\n      tag_325\n        /* \"#utility.yul\":5657:5659   */\n      0x25\n        /* \"#utility.yul\":5652:5655   */\n      dup4\n        /* \"#utility.yul\":5593:5660   */\n      tag_283\n      jump\t// in\n    tag_325:\n        /* \"#utility.yul\":5586:5660   */\n      swap2\n      pop\n        /* \"#utility.yul\":5669:5762   */\n      tag_326\n        /* \"#utility.yul\":5758:5761   */\n      dup3\n        /* \"#utility.yul\":5669:5762   */\n      tag_327\n      jump\t// in\n    tag_326:\n        /* \"#utility.yul\":5787:5789   */\n      0x40\n        /* \"#utility.yul\":5782:5785   */\n      dup3\n        /* \"#utility.yul\":5778:5790   */\n      add\n        /* \"#utility.yul\":5771:5790   */\n      swap1\n      pop\n        /* \"#utility.yul\":5430:5796   */\n      swap2\n      swap1\n      pop\n      jump\t// out\n        /* \"#utility.yul\":5802:6168   */\n    tag_328:\n        /* \"#utility.yul\":5944:5947   */\n      0x00\n        /* \"#utility.yul\":5965:6032   */\n      tag_330\n        /* \"#utility.yul\":6029:6031   */\n      0x24\n        /* \"#utility.yul\":6024:6027   */\n      dup4\n        /* \"#utility.yul\":5965:6032   */\n      tag_283\n      jump\t// in\n    tag_330:\n        /* \"#utility.yul\":5958:6032   */\n      swap2\n      pop\n        /* \"#utility.yul\":6041:6134   */\n      tag_331\n        /* \"#utility.yul\":6130:6133   */\n      dup3\n        /* \"#utility.yul\":6041:6134   */\n      tag_332\n      jump\t// in\n    tag_331:\n        /* \"#utility.yul\":6159:6161   */\n      0x40\n        /* \"#utility.yul\":6154:6157   */\n      dup3\n        /* \"#utility.yul\":6150:6162   */\n      add\n        /* \"#utility.yul\":6143:6162   */\n      swap1\n      pop\n        /* \"#utility.yul\":5802:6168   */\n      swap2\n      swap1\n      pop\n      jump\t// out\n        /* \"#utility.yul\":6174:6540   */\n    tag_333:\n        /* \"#utility.yul\":6316:6319   */\n      0x00\n        /* \"#utility.yul\":6337:6404   */\n      tag_335\n        /* \"#utility.yul\":6401:6403   */\n      0x25\n        /* \"#utility.yul\":6396:6399   */\n      dup4\n        /* \"#utility.yul\":6337:6404   */\n      tag_283\n      jump\t// in\n    tag_335:\n        /* \"#utility.yul\":6330:6404   */\n      swap2\n      pop\n        /* \"#utility.yul\":6413:6506   */\n      tag_336\n        /* \"#utility.yul\":6502:6505   */\n      dup3\n        /* \"#utility.yul\":6413:6506   */\n      tag_337\n      jump\t// in\n    tag_336:\n        /* \"#utility.yul\":6531:6533   */\n      0x40\n        /* \"#utility.yul\":6526:6529   */\n      dup3\n        /* \"#utility.yul\":6522:6534   */\n      add\n        /* \"#utility.yul\":6515:6534   */\n      swap1\n      pop\n        /* \"#utility.yul\":6174:6540   */\n      swap2\n      swap1\n      pop\n      jump\t// out\n        /* \"#utility.yul\":6546:6912   */\n    tag_338:\n        /* \"#utility.yul\":6688:6691   */\n      0x00\n        /* \"#utility.yul\":6709:6776   */\n      tag_340\n        /* \"#utility.yul\":6773:6775   */\n      0x1f\n        /* \"#utility.yul\":6768:6771   */\n      dup4\n        /* \"#utility.yul\":6709:6776   */\n      tag_283\n      jump\t// in\n    tag_340:\n        /* \"#utility.yul\":6702:6776   */\n      swap2\n      pop\n        /* \"#utility.yul\":6785:6878   */\n      tag_341\n        /* \"#utility.yul\":6874:6877   */\n      dup3\n        /* \"#utility.yul\":6785:6878   */\n      tag_342\n      jump\t// in\n    tag_341:\n        /* \"#utility.yul\":6903:6905   */\n      0x20\n        /* \"#utility.yul\":6898:6901   */\n      dup3\n        /* \"#utility.yul\":6894:6906   */\n      add\n        /* \"#utility.yul\":6887:6906   */\n      swap1\n      pop\n        /* \"#utility.yul\":6546:6912   */\n      swap2\n      swap1\n      pop\n      jump\t// out\n        /* \"#utility.yul\":6918:7036   */\n    tag_343:\n        /* \"#utility.yul\":7005:7029   */\n      tag_345\n        /* \"#utility.yul\":7023:7028   */\n      dup2\n        /* \"#utility.yul\":7005:7029   */\n      tag_346\n      jump\t// in\n    tag_345:\n        /* \"#utility.yul\":7000:7003   */\n      dup3\n        /* \"#utility.yul\":6993:7030   */\n      mstore\n        /* \"#utility.yul\":6918:7036   */\n      pop\n      pop\n      jump\t// out\n        /* \"#utility.yul\":7042:7154   */\n    tag_347:\n        /* \"#utility.yul\":7125:7147   */\n      tag_349\n        /* \"#utility.yul\":7141:7146   */\n      dup2\n        /* \"#utility.yul\":7125:7147   */\n      tag_350\n      jump\t// in\n    tag_349:\n        /* \"#utility.yul\":7120:7123   */\n      dup3\n        /* \"#utility.yul\":7113:7148   */\n      mstore\n        /* \"#utility.yul\":7042:7154   */\n      pop\n      pop\n      jump\t// out\n        /* \"#utility.yul\":7160:7382   */\n    tag_80:\n        /* \"#utility.yul\":7253:7257   */\n      0x00\n        /* \"#utility.yul\":7291:7293   */\n      0x20\n        /* \"#utility.yul\":7280:7289   */\n      dup3\n        /* \"#utility.yul\":7276:7294   */\n      add\n        /* \"#utility.yul\":7268:7294   */\n      swap1\n      pop\n        /* \"#utility.yul\":7304:7375   */\n      tag_352\n        /* \"#utility.yul\":7372:7373   */\n      0x00\n        /* \"#utility.yul\":7361:7370   */\n      dup4\n        /* \"#utility.yul\":7357:7374   */\n      add\n        /* \"#utility.yul\":7348:7354   */\n      dup5\n        /* \"#utility.yul\":7304:7375   */\n      tag_270\n      jump\t// in\n    tag_352:\n        /* \"#utility.yul\":7160:7382   */\n      swap3\n      swap2\n      pop\n      pop\n      jump\t// out\n        /* \"#utility.yul\":7388:7830   */\n    tag_162:\n        /* \"#utility.yul\":7537:7541   */\n      0x00\n        /* \"#utility.yul\":7575:7577   */\n      0x60\n        /* \"#utility.yul\":7564:7573   */\n      dup3\n        /* \"#utility.yul\":7560:7578   */\n      add\n        /* \"#utility.yul\":7552:7578   */\n      swap1\n      pop\n        /* \"#utility.yul\":7588:7659   */\n      tag_354\n        /* \"#utility.yul\":7656:7657   */\n      0x00\n        /* \"#utility.yul\":7645:7654   */\n      dup4\n        /* \"#utility.yul\":7641:7658   */\n      add\n        /* \"#utility.yul\":7632:7638   */\n      dup7\n        /* \"#utility.yul\":7588:7659   */\n      tag_270\n      jump\t// in\n    tag_354:\n        /* \"#utility.yul\":7669:7741   */\n      tag_355\n        /* \"#utility.yul\":7737:7739   */\n      0x20\n        /* \"#utility.yul\":7726:7735   */\n      dup4\n        /* \"#utility.yul\":7722:7740   */\n      add\n        /* \"#utility.yul\":7713:7719   */\n      dup6\n        /* \"#utility.yul\":7669:7741   */\n      tag_270\n      jump\t// in\n    tag_355:\n        /* \"#utility.yul\":7751:7823   */\n      tag_356\n        /* \"#utility.yul\":7819:7821   */\n      0x40\n        /* \"#utility.yul\":7808:7817   */\n      dup4\n        /* \"#utility.yul\":7804:7822   */\n      add\n        /* \"#utility.yul\":7795:7801   */\n      dup5\n        /* \"#utility.yul\":7751:7823   */\n      tag_343\n      jump\t// in\n    tag_356:\n        /* \"#utility.yul\":7388:7830   */\n      swap5\n      swap4\n      pop\n      pop\n      pop\n      pop\n      jump\t// out\n        /* \"#utility.yul\":7836:8046   */\n    tag_34:\n        /* \"#utility.yul\":7923:7927   */\n      0x00\n        /* \"#utility.yul\":7961:7963   */\n      0x20\n        /* \"#utility.yul\":7950:7959   */\n      dup3\n        /* \"#utility.yul\":7946:7964   */\n      add\n        /* \"#utility.yul\":7938:7964   */\n      swap1\n      pop\n        /* \"#utility.yul\":7974:8039   */\n      tag_358\n        /* \"#utility.yul\":8036:8037   */\n      0x00\n        /* \"#utility.yul\":8025:8034   */\n      dup4\n        /* \"#utility.yul\":8021:8038   */\n      add\n        /* \"#utility.yul\":8012:8018   */\n      dup5\n        /* \"#utility.yul\":7974:8039   */\n      tag_274\n      jump\t// in\n    tag_358:\n        /* \"#utility.yul\":7836:8046   */\n      swap3\n      swap2\n      pop\n      pop\n      jump\t// out\n        /* \"#utility.yul\":8052:8365   */\n    tag_27:\n        /* \"#utility.yul\":8165:8169   */\n      0x00\n        /* \"#utility.yul\":8203:8205   */\n      0x20\n        /* \"#utility.yul\":8192:8201   */\n      dup3\n        /* \"#utility.yul\":8188:8206   */\n      add\n        /* \"#utility.yul\":8180:8206   */\n      swap1\n      pop\n        /* \"#utility.yul\":8252:8261   */\n      dup2\n        /* \"#utility.yul\":8246:8250   */\n      dup2\n        /* \"#utility.yul\":8242:8262   */\n      sub\n        /* \"#utility.yul\":8238:8239   */\n      0x00\n        /* \"#utility.yul\":8227:8236   */\n      dup4\n        /* \"#utility.yul\":8223:8240   */\n      add\n        /* \"#utility.yul\":8216:8263   */\n      mstore\n        /* \"#utility.yul\":8280:8358   */\n      tag_360\n        /* \"#utility.yul\":8353:8357   */\n      dup2\n        /* \"#utility.yul\":8344:8350   */\n      dup5\n        /* \"#utility.yul\":8280:8358   */\n      tag_278\n      jump\t// in\n    tag_360:\n        /* \"#utility.yul\":8272:8358   */\n      swap1\n      pop\n        /* \"#utility.yul\":8052:8365   */\n      swap3\n      swap2\n      pop\n      pop\n      jump\t// out\n        /* \"#utility.yul\":8371:8790   */\n    tag_218:\n        /* \"#utility.yul\":8537:8541   */\n      0x00\n        /* \"#utility.yul\":8575:8577   */\n      0x20\n        /* \"#utility.yul\":8564:8573   */\n      dup3\n        /* \"#utility.yul\":8560:8578   */\n      add\n        /* \"#utility.yul\":8552:8578   */\n      swap1\n      pop\n        /* \"#utility.yul\":8624:8633   */\n      dup2\n        /* \"#utility.yul\":8618:8622   */\n      dup2\n        /* \"#utility.yul\":8614:8634   */\n      sub\n        /* \"#utility.yul\":8610:8611   */\n      0x00\n        /* \"#utility.yul\":8599:8608   */\n      dup4\n        /* \"#utility.yul\":8595:8612   */\n      add\n        /* \"#utility.yul\":8588:8635   */\n      mstore\n        /* \"#utility.yul\":8652:8783   */\n      tag_362\n        /* \"#utility.yul\":8778:8782   */\n      dup2\n        /* \"#utility.yul\":8652:8783   */\n      tag_288\n      jump\t// in\n    tag_362:\n        /* \"#utility.yul\":8644:8783   */\n      swap1\n      pop\n        /* \"#utility.yul\":8371:8790   */\n      swap2\n      swap1\n      pop\n      jump\t// out\n        /* \"#utility.yul\":8796:9215   */\n    tag_194:\n        /* \"#utility.yul\":8962:8966   */\n      0x00\n        /* \"#utility.yul\":9000:9002   */\n      0x20\n        /* \"#utility.yul\":8989:8998   */\n      dup3\n        /* \"#utility.yul\":8985:9003   */\n      add\n        /* \"#utility.yul\":8977:9003   */\n      swap1\n      pop\n        /* \"#utility.yul\":9049:9058   */\n      dup2\n        /* \"#utility.yul\":9043:9047   */\n      dup2\n        /* \"#utility.yul\":9039:9059   */\n      sub\n        /* \"#utility.yul\":9035:9036   */\n      0x00\n        /* \"#utility.yul\":9024:9033   */\n      dup4\n        /* \"#utility.yul\":9020:9037   */\n      add\n        /* \"#utility.yul\":9013:9060   */\n      mstore\n        /* \"#utility.yul\":9077:9208   */\n      tag_364\n        /* \"#utility.yul\":9203:9207   */\n      dup2\n        /* \"#utility.yul\":9077:9208   */\n      tag_293\n      jump\t// in\n    tag_364:\n        /* \"#utility.yul\":9069:9208   */\n      swap1\n      pop\n        /* \"#utility.yul\":8796:9215   */\n      swap2\n      swap1\n      pop\n      jump\t// out\n        /* \"#utility.yul\":9221:9640   */\n    tag_203:\n        /* \"#utility.yul\":9387:9391   */\n      0x00\n        /* \"#utility.yul\":9425:9427   */\n      0x20\n        /* \"#utility.yul\":9414:9423   */\n      dup3\n        /* \"#utility.yul\":9410:9428   */\n      add\n        /* \"#utility.yul\":9402:9428   */\n      swap1\n      pop\n        /* \"#utility.yul\":9474:9483   */\n      dup2\n        /* \"#utility.yul\":9468:9472   */\n      dup2\n        /* \"#utility.yul\":9464:9484   */\n      sub\n        /* \"#utility.yul\":9460:9461   */\n      0x00\n        /* \"#utility.yul\":9449:9458   */\n      dup4\n        /* \"#utility.yul\":9445:9462   */\n      add\n        /* \"#utility.yul\":9438:9485   */\n      mstore\n        /* \"#utility.yul\":9502:9633   */\n      tag_366\n        /* \"#utility.yul\":9628:9632   */\n      dup2\n        /* \"#utility.yul\":9502:9633   */\n      tag_298\n      jump\t// in\n    tag_366:\n        /* \"#utility.yul\":9494:9633   */\n      swap1\n      pop\n        /* \"#utility.yul\":9221:9640   */\n      swap2\n      swap1\n      pop\n      jump\t// out\n        /* \"#utility.yul\":9646:10065   */\n    tag_155:\n        /* \"#utility.yul\":9812:9816   */\n      0x00\n        /* \"#utility.yul\":9850:9852   */\n      0x20\n        /* \"#utility.yul\":9839:9848   */\n      dup3\n        /* \"#utility.yul\":9835:9853   */\n      add\n        /* \"#utility.yul\":9827:9853   */\n      swap1\n      pop\n        /* \"#utility.yul\":9899:9908   */\n      dup2\n        /* \"#utility.yul\":9893:9897   */\n      dup2\n        /* \"#utility.yul\":9889:9909   */\n      sub\n        /* \"#utility.yul\":9885:9886   */\n      0x00\n        /* \"#utility.yul\":9874:9883   */\n      dup4\n        /* \"#utility.yul\":9870:9887   */\n      add\n        /* \"#utility.yul\":9863:9910   */\n      mstore\n        /* \"#utility.yul\":9927:10058   */\n      tag_368\n        /* \"#utility.yul\":10053:10057   */\n      dup2\n        /* \"#utility.yul\":9927:10058   */\n      tag_303\n      jump\t// in\n    tag_368:\n        /* \"#utility.yul\":9919:10058   */\n      swap1\n      pop\n        /* \"#utility.yul\":9646:10065   */\n      swap2\n      swap1\n      pop\n      jump\t// out\n        /* \"#utility.yul\":10071:10490   */\n    tag_210:\n        /* \"#utility.yul\":10237:10241   */\n      0x00\n        /* \"#utility.yul\":10275:10277   */\n      0x20\n        /* \"#utility.yul\":10264:10273   */\n      dup3\n        /* \"#utility.yul\":10260:10278   */\n      add\n        /* \"#utility.yul\":10252:10278   */\n      swap1\n      pop\n        /* \"#utility.yul\":10324:10333   */\n      dup2\n        /* \"#utility.yul\":10318:10322   */\n      dup2\n        /* \"#utility.yul\":10314:10334   */\n      sub\n        /* \"#utility.yul\":10310:10311   */\n      0x00\n        /* \"#utility.yul\":10299:10308   */\n      dup4\n        /* \"#utility.yul\":10295:10312   */\n      add\n        /* \"#utility.yul\":10288:10335   */\n      mstore\n        /* \"#utility.yul\":10352:10483   */\n      tag_370\n        /* \"#utility.yul\":10478:10482   */\n      dup2\n        /* \"#utility.yul\":10352:10483   */\n      tag_308\n      jump\t// in\n    tag_370:\n        /* \"#utility.yul\":10344:10483   */\n      swap1\n      pop\n        /* \"#utility.yul\":10071:10490   */\n      swap2\n      swap1\n      pop\n      jump\t// out\n        /* \"#utility.yul\":10496:10915   */\n    tag_223:\n        /* \"#utility.yul\":10662:10666   */\n      0x00\n        /* \"#utility.yul\":10700:10702   */\n      0x20\n        /* \"#utility.yul\":10689:10698   */\n      dup3\n        /* \"#utility.yul\":10685:10703   */\n      add\n        /* \"#utility.yul\":10677:10703   */\n      swap1\n      pop\n        /* \"#utility.yul\":10749:10758   */\n      dup2\n        /* \"#utility.yul\":10743:10747   */\n      dup2\n        /* \"#utility.yul\":10739:10759   */\n      sub\n        /* \"#utility.yul\":10735:10736   */\n      0x00\n        /* \"#utility.yul\":10724:10733   */\n      dup4\n        /* \"#utility.yul\":10720:10737   */\n      add\n        /* \"#utility.yul\":10713:10760   */\n      mstore\n        /* \"#utility.yul\":10777:10908   */\n      tag_372\n        /* \"#utility.yul\":10903:10907   */\n      dup2\n        /* \"#utility.yul\":10777:10908   */\n      tag_313\n      jump\t// in\n    tag_372:\n        /* \"#utility.yul\":10769:10908   */\n      swap1\n      pop\n        /* \"#utility.yul\":10496:10915   */\n      swap2\n      swap1\n      pop\n      jump\t// out\n        /* \"#utility.yul\":10921:11340   */\n    tag_139:\n        /* \"#utility.yul\":11087:11091   */\n      0x00\n        /* \"#utility.yul\":11125:11127   */\n      0x20\n        /* \"#utility.yul\":11114:11123   */\n      dup3\n        /* \"#utility.yul\":11110:11128   */\n      add\n        /* \"#utility.yul\":11102:11128   */\n      swap1\n      pop\n        /* \"#utility.yul\":11174:11183   */\n      dup2\n        /* \"#utility.yul\":11168:11172   */\n      dup2\n        /* \"#utility.yul\":11164:11184   */\n      sub\n        /* \"#utility.yul\":11160:11161   */\n      0x00\n        /* \"#utility.yul\":11149:11158   */\n      dup4\n        /* \"#utility.yul\":11145:11162   */\n      add\n        /* \"#utility.yul\":11138:11185   */\n      mstore\n        /* \"#utility.yul\":11202:11333   */\n      tag_374\n        /* \"#utility.yul\":11328:11332   */\n      dup2\n        /* \"#utility.yul\":11202:11333   */\n      tag_318\n      jump\t// in\n    tag_374:\n        /* \"#utility.yul\":11194:11333   */\n      swap1\n      pop\n        /* \"#utility.yul\":10921:11340   */\n      swap2\n      swap1\n      pop\n      jump\t// out\n        /* \"#utility.yul\":11346:11765   */\n    tag_215:\n        /* \"#utility.yul\":11512:11516   */\n      0x00\n        /* \"#utility.yul\":11550:11552   */\n      0x20\n        /* \"#utility.yul\":11539:11548   */\n      dup3\n        /* \"#utility.yul\":11535:11553   */\n      add\n        /* \"#utility.yul\":11527:11553   */\n      swap1\n      pop\n        /* \"#utility.yul\":11599:11608   */\n      dup2\n        /* \"#utility.yul\":11593:11597   */\n      dup2\n        /* \"#utility.yul\":11589:11609   */\n      sub\n        /* \"#utility.yul\":11585:11586   */\n      0x00\n        /* \"#utility.yul\":11574:11583   */\n      dup4\n        /* \"#utility.yul\":11570:11587   */\n      add\n        /* \"#utility.yul\":11563:11610   */\n      mstore\n        /* \"#utility.yul\":11627:11758   */\n      tag_376\n        /* \"#utility.yul\":11753:11757   */\n      dup2\n        /* \"#utility.yul\":11627:11758   */\n      tag_323\n      jump\t// in\n    tag_376:\n        /* \"#utility.yul\":11619:11758   */\n      swap1\n      pop\n        /* \"#utility.yul\":11346:11765   */\n      swap2\n      swap1\n      pop\n      jump\t// out\n        /* \"#utility.yul\":11771:12190   */\n    tag_200:\n        /* \"#utility.yul\":11937:11941   */\n      0x00\n        /* \"#utility.yul\":11975:11977   */\n      0x20\n        /* \"#utility.yul\":11964:11973   */\n      dup3\n        /* \"#utility.yul\":11960:11978   */\n      add\n        /* \"#utility.yul\":11952:11978   */\n      swap1\n      pop\n        /* \"#utility.yul\":12024:12033   */\n      dup2\n        /* \"#utility.yul\":12018:12022   */\n      dup2\n        /* \"#utility.yul\":12014:12034   */\n      sub\n        /* \"#utility.yul\":12010:12011   */\n      0x00\n        /* \"#utility.yul\":11999:12008   */\n      dup4\n        /* \"#utility.yul\":11995:12012   */\n      add\n        /* \"#utility.yul\":11988:12035   */\n      mstore\n        /* \"#utility.yul\":12052:12183   */\n      tag_378\n        /* \"#utility.yul\":12178:12182   */\n      dup2\n        /* \"#utility.yul\":12052:12183   */\n      tag_328\n      jump\t// in\n    tag_378:\n        /* \"#utility.yul\":12044:12183   */\n      swap1\n      pop\n        /* \"#utility.yul\":11771:12190   */\n      swap2\n      swap1\n      pop\n      jump\t// out\n        /* \"#utility.yul\":12196:12615   */\n    tag_174:\n        /* \"#utility.yul\":12362:12366   */\n      0x00\n        /* \"#utility.yul\":12400:12402   */\n      0x20\n        /* \"#utility.yul\":12389:12398   */\n      dup3\n        /* \"#utility.yul\":12385:12403   */\n      add\n        /* \"#utility.yul\":12377:12403   */\n      swap1\n      pop\n        /* \"#utility.yul\":12449:12458   */\n      dup2\n        /* \"#utility.yul\":12443:12447   */\n      dup2\n        /* \"#utility.yul\":12439:12459   */\n      sub\n        /* \"#utility.yul\":12435:12436   */\n      0x00\n        /* \"#utility.yul\":12424:12433   */\n      dup4\n        /* \"#utility.yul\":12420:12437   */\n      add\n        /* \"#utility.yul\":12413:12460   */\n      mstore\n        /* \"#utility.yul\":12477:12608   */\n      tag_380\n        /* \"#utility.yul\":12603:12607   */\n      dup2\n        /* \"#utility.yul\":12477:12608   */\n      tag_333\n      jump\t// in\n    tag_380:\n        /* \"#utility.yul\":12469:12608   */\n      swap1\n      pop\n        /* \"#utility.yul\":12196:12615   */\n      swap2\n      swap1\n      pop\n      jump\t// out\n        /* \"#utility.yul\":12621:13040   */\n    tag_231:\n        /* \"#utility.yul\":12787:12791   */\n      0x00\n        /* \"#utility.yul\":12825:12827   */\n      0x20\n        /* \"#utility.yul\":12814:12823   */\n      dup3\n        /* \"#utility.yul\":12810:12828   */\n      add\n        /* \"#utility.yul\":12802:12828   */\n      swap1\n      pop\n        /* \"#utility.yul\":12874:12883   */\n      dup2\n        /* \"#utility.yul\":12868:12872   */\n      dup2\n        /* \"#utility.yul\":12864:12884   */\n      sub\n        /* \"#utility.yul\":12860:12861   */\n      0x00\n        /* \"#utility.yul\":12849:12858   */\n      dup4\n        /* \"#utility.yul\":12845:12862   */\n      add\n        /* \"#utility.yul\":12838:12885   */\n      mstore\n        /* \"#utility.yul\":12902:13033   */\n      tag_382\n        /* \"#utility.yul\":13028:13032   */\n      dup2\n        /* \"#utility.yul\":12902:13033   */\n      tag_338\n      jump\t// in\n    tag_382:\n        /* \"#utility.yul\":12894:13033   */\n      swap1\n      pop\n        /* \"#utility.yul\":12621:13040   */\n      swap2\n      swap1\n      pop\n      jump\t// out\n        /* \"#utility.yul\":13046:13268   */\n    tag_39:\n        /* \"#utility.yul\":13139:13143   */\n      0x00\n        /* \"#utility.yul\":13177:13179   */\n      0x20\n        /* \"#utility.yul\":13166:13175   */\n      dup3\n        /* \"#utility.yul\":13162:13180   */\n      add\n        /* \"#utility.yul\":13154:13180   */\n      swap1\n      pop\n        /* \"#utility.yul\":13190:13261   */\n      tag_384\n        /* \"#utility.yul\":13258:13259   */\n      0x00\n        /* \"#utility.yul\":13247:13256   */\n      dup4\n        /* \"#utility.yul\":13243:13260   */\n      add\n        /* \"#utility.yul\":13234:13240   */\n      dup5\n        /* \"#utility.yul\":13190:13261   */\n      tag_343\n      jump\t// in\n    tag_384:\n        /* \"#utility.yul\":13046:13268   */\n      swap3\n      swap2\n      pop\n      pop\n      jump\t// out\n        /* \"#utility.yul\":13274:13488   */\n    tag_54:\n        /* \"#utility.yul\":13363:13367   */\n      0x00\n        /* \"#utility.yul\":13401:13403   */\n      0x20\n        /* \"#utility.yul\":13390:13399   */\n      dup3\n        /* \"#utility.yul\":13386:13404   */\n      add\n        /* \"#utility.yul\":13378:13404   */\n      swap1\n      pop\n        /* \"#utility.yul\":13414:13481   */\n      tag_386\n        /* \"#utility.yul\":13478:13479   */\n      0x00\n        /* \"#utility.yul\":13467:13476   */\n      dup4\n        /* \"#utility.yul\":13463:13480   */\n      add\n        /* \"#utility.yul\":13454:13460   */\n      dup5\n        /* \"#utility.yul\":13414:13481   */\n      tag_347\n      jump\t// in\n    tag_386:\n        /* \"#utility.yul\":13274:13488   */\n      swap3\n      swap2\n      pop\n      pop\n      jump\t// out\n        /* \"#utility.yul\":13575:13674   */\n    tag_281:\n        /* \"#utility.yul\":13627:13633   */\n      0x00\n        /* \"#utility.yul\":13661:13666   */\n      dup2\n        /* \"#utility.yul\":13655:13667   */\n      mload\n        /* \"#utility.yul\":13645:13667   */\n      swap1\n      pop\n        /* \"#utility.yul\":13575:13674   */\n      swap2\n      swap1\n      pop\n      jump\t// out\n        /* \"#utility.yul\":13680:13849   */\n    tag_283:\n        /* \"#utility.yul\":13764:13775   */\n      0x00\n        /* \"#utility.yul\":13798:13804   */\n      dup3\n        /* \"#utility.yul\":13793:13796   */\n      dup3\n        /* \"#utility.yul\":13786:13805   */\n      mstore\n        /* \"#utility.yul\":13838:13842   */\n      0x20\n        /* \"#utility.yul\":13833:13836   */\n      dup3\n        /* \"#utility.yul\":13829:13843   */\n      add\n        /* \"#utility.yul\":13814:13843   */\n      swap1\n      pop\n        /* \"#utility.yul\":13680:13849   */\n      swap3\n      swap2\n      pop\n      pop\n      jump\t// out\n        /* \"#utility.yul\":13855:14160   */\n    tag_133:\n        /* \"#utility.yul\":13895:13898   */\n      0x00\n        /* \"#utility.yul\":13914:13934   */\n      tag_392\n        /* \"#utility.yul\":13932:13933   */\n      dup3\n        /* \"#utility.yul\":13914:13934   */\n      tag_346\n      jump\t// in\n    tag_392:\n        /* \"#utility.yul\":13909:13934   */\n      swap2\n      pop\n        /* \"#utility.yul\":13948:13968   */\n      tag_393\n        /* \"#utility.yul\":13966:13967   */\n      dup4\n        /* \"#utility.yul\":13948:13968   */\n      tag_346\n      jump\t// in\n    tag_393:\n        /* \"#utility.yul\":13943:13968   */\n      swap3\n      pop\n        /* \"#utility.yul\":14102:14103   */\n      dup3\n        /* \"#utility.yul\":14034:14100   */\n      0xffffffffffffffffffffffffffffffffffffffffffffffffffffffffffffffff\n        /* \"#utility.yul\":14030:14104   */\n      sub\n        /* \"#utility.yul\":14027:14028   */\n      dup3\n        /* \"#utility.yul\":14024:14105   */\n      gt\n        /* \"#utility.yul\":14021:14128   */\n      iszero\n      tag_394\n      jumpi\n        /* \"#utility.yul\":14108:14126   */\n      tag_395\n      tag_396\n      jump\t// in\n    tag_395:\n        /* \"#utility.yul\":14021:14128   */\n    tag_394:\n        /* \"#utility.yul\":14152:14153   */\n      dup3\n        /* \"#utility.yul\":14149:14150   */\n      dup3\n        /* \"#utility.yul\":14145:14154   */\n      add\n        /* \"#utility.yul\":14138:14154   */\n      swap1\n      pop\n        /* \"#utility.yul\":13855:14160   */\n      swap3\n      swap2\n      pop\n      pop\n      jump\t// out\n        /* \"#utility.yul\":14166:14351   */\n    tag_159:\n        /* \"#utility.yul\":14206:14207   */\n      0x00\n        /* \"#utility.yul\":14223:14243   */\n      tag_398\n        /* \"#utility.yul\":14241:14242   */\n      dup3\n        /* \"#utility.yul\":14223:14243   */\n      tag_346\n      jump\t// in\n    tag_398:\n        /* \"#utility.yul\":14218:14243   */\n      swap2\n      pop\n        /* \"#utility.yul\":14257:14277   */\n      tag_399\n        /* \"#utility.yul\":14275:14276   */\n      dup4\n        /* \"#utility.yul\":14257:14277   */\n      tag_346\n      jump\t// in\n    tag_399:\n        /* \"#utility.yul\":14252:14277   */\n      swap3\n      pop\n        /* \"#utility.yul\":14296:14297   */\n      dup3\n        /* \"#utility.yul\":14286:14321   */\n      tag_400\n      jumpi\n        /* \"#utility.yul\":14301:14319   */\n      tag_401\n      tag_402\n      jump\t// in\n    tag_401:\n        /* \"#utility.yul\":14286:14321   */\n    tag_400:\n        /* \"#utility.yul\":14343:14344   */\n      dup3\n        /* \"#utility.yul\":14340:14341   */\n      dup3\n        /* \"#utility.yul\":14336:14345   */\n      div\n        /* \"#utility.yul\":14331:14345   */\n      swap1\n      pop\n        /* \"#utility.yul\":14166:14351   */\n      swap3\n      swap2\n      pop\n      pop\n      jump\t// out\n        /* \"#utility.yul\":14357:14453   */\n    tag_273:\n        /* \"#utility.yul\":14394:14401   */\n      0x00\n        /* \"#utility.yul\":14423:14447   */\n      tag_404\n        /* \"#utility.yul\":14441:14446   */\n      dup3\n        /* \"#utility.yul\":14423:14447   */\n      tag_405\n      jump\t// in\n    tag_404:\n        /* \"#utility.yul\":14412:14447   */\n      swap1\n      pop\n        /* \"#utility.yul\":14357:14453   */\n      swap2\n      swap1\n      pop\n      jump\t// out\n        /* \"#utility.yul\":14459:14549   */\n    tag_277:\n        /* \"#utility.yul\":14493:14500   */\n      0x00\n        /* \"#utility.yul\":14536:14541   */\n      dup2\n        /* \"#utility.yul\":14529:14542   */\n      iszero\n        /* \"#utility.yul\":14522:14543   */\n      iszero\n        /* \"#utility.yul\":14511:14543   */\n      swap1\n      pop\n        /* \"#utility.yul\":14459:14549   */\n      swap2\n      swap1\n      pop\n      jump\t// out\n        /* \"#utility.yul\":14555:14681   */\n    tag_405:\n        /* \"#utility.yul\":14592:14599   */\n      0x00\n        /* \"#utility.yul\":14632:14674   */\n      0xffffffffffffffffffffffffffffffffffffffff\n        /* \"#utility.yul\":14625:14630   */\n      dup3\n        /* \"#utility.yul\":14621:14675   */\n      and\n        /* \"#utility.yul\":14610:14675   */\n      swap1\n      pop\n        /* \"#utility.yul\":14555:14681   */\n      swap2\n      swap1\n      pop\n      jump\t// out\n        /* \"#utility.yul\":14687:14764   */\n    tag_346:\n        /* \"#utility.yul\":14724:14731   */\n      0x00\n        /* \"#utility.yul\":14753:14758   */\n      dup2\n        /* \"#utility.yul\":14742:14758   */\n      swap1\n      pop\n        /* \"#utility.yul\":14687:14764   */\n      swap2\n      swap1\n      pop\n      jump\t// out\n        /* \"#utility.yul\":14770:14856   */\n    tag_350:\n        /* \"#utility.yul\":14805:14812   */\n      0x00\n        /* \"#utility.yul\":14845:14849   */\n      0xff\n        /* \"#utility.yul\":14838:14843   */\n      dup3\n        /* \"#utility.yul\":14834:14850   */\n      and\n        /* \"#utility.yul\":14823:14850   */\n      swap1\n      pop\n        /* \"#utility.yul\":14770:14856   */\n      swap2\n      swap1\n      pop\n      jump\t// out\n        /* \"#utility.yul\":14862:15169   */\n    tag_285:\n        /* \"#utility.yul\":14930:14931   */\n      0x00\n        /* \"#utility.yul\":14940:15053   */\n    tag_411:\n        /* \"#utility.yul\":14954:14960   */\n      dup4\n        /* \"#utility.yul\":14951:14952   */\n      dup2\n        /* \"#utility.yul\":14948:14961   */\n      lt\n        /* \"#utility.yul\":14940:15053   */\n      iszero\n      tag_413\n      jumpi\n        /* \"#utility.yul\":15039:15040   */\n      dup1\n        /* \"#utility.yul\":15034:15037   */\n      dup3\n        /* \"#utility.yul\":15030:15041   */\n      add\n        /* \"#utility.yul\":15024:15042   */\n      mload\n        /* \"#utility.yul\":15020:15021   */\n      dup2\n        /* \"#utility.yul\":15015:15018   */\n      dup5\n        /* \"#utility.yul\":15011:15022   */\n      add\n        /* \"#utility.yul\":15004:15043   */\n      mstore\n        /* \"#utility.yul\":14976:14978   */\n      0x20\n        /* \"#utility.yul\":14973:14974   */\n      dup2\n        /* \"#utility.yul\":14969:14979   */\n      add\n        /* \"#utility.yul\":14964:14979   */\n      swap1\n      pop\n        /* \"#utility.yul\":14940:15053   */\n      jump(tag_411)\n    tag_413:\n        /* \"#utility.yul\":15071:15077   */\n      dup4\n        /* \"#utility.yul\":15068:15069   */\n      dup2\n        /* \"#utility.yul\":15065:15078   */\n      gt\n        /* \"#utility.yul\":15062:15163   */\n      iszero\n      tag_414\n      jumpi\n        /* \"#utility.yul\":15151:15152   */\n      0x00\n        /* \"#utility.yul\":15142:15148   */\n      dup5\n        /* \"#utility.yul\":15137:15140   */\n      dup5\n        /* \"#utility.yul\":15133:15149   */\n      add\n        /* \"#utility.yul\":15126:15153   */\n      mstore\n        /* \"#utility.yul\":15062:15163   */\n    tag_414:\n        /* \"#utility.yul\":14911:15169   */\n      pop\n        /* \"#utility.yul\":14862:15169   */\n      pop\n      pop\n      pop\n      jump\t// out\n        /* \"#utility.yul\":15175:15495   */\n    tag_111:\n        /* \"#utility.yul\":15219:15225   */\n      0x00\n        /* \"#utility.yul\":15256:15257   */\n      0x02\n        /* \"#utility.yul\":15250:15254   */\n      dup3\n        /* \"#utility.yul\":15246:15258   */\n      div\n        /* \"#utility.yul\":15236:15258   */\n      swap1\n      pop\n        /* \"#utility.yul\":15303:15304   */\n      0x01\n        /* \"#utility.yul\":15297:15301   */\n      dup3\n        /* \"#utility.yul\":15293:15305   */\n      and\n        /* \"#utility.yul\":15324:15342   */\n      dup1\n        /* \"#utility.yul\":15314:15395   */\n      tag_416\n      jumpi\n        /* \"#utility.yul\":15380:15384   */\n      0x7f\n        /* \"#utility.yul\":15372:15378   */\n      dup3\n        /* \"#utility.yul\":15368:15385   */\n      and\n        /* \"#utility.yul\":15358:15385   */\n      swap2\n      pop\n        /* \"#utility.yul\":15314:15395   */\n    tag_416:\n        /* \"#utility.yul\":15442:15444   */\n      0x20\n        /* \"#utility.yul\":15434:15440   */\n      dup3\n        /* \"#utility.yul\":15431:15445   */\n      lt\n        /* \"#utility.yul\":15411:15429   */\n      dup2\n        /* \"#utility.yul\":15408:15446   */\n      eq\n        /* \"#utility.yul\":15405:15489   */\n      iszero\n      tag_417\n      jumpi\n        /* \"#utility.yul\":15461:15479   */\n      tag_418\n      tag_419\n      jump\t// in\n    tag_418:\n        /* \"#utility.yul\":15405:15489   */\n    tag_417:\n        /* \"#utility.yul\":15226:15495   */\n      pop\n        /* \"#utility.yul\":15175:15495   */\n      swap2\n      swap1\n      pop\n      jump\t// out\n        /* \"#utility.yul\":15501:15681   */\n    tag_396:\n        /* \"#utility.yul\":15549:15626   */\n      0x4e487b7100000000000000000000000000000000000000000000000000000000\n        /* \"#utility.yul\":15546:15547   */\n      0x00\n        /* \"#utility.yul\":15539:15627   */\n      mstore\n        /* \"#utility.yul\":15646:15650   */\n      0x11\n        /* \"#utility.yul\":15643:15644   */\n      0x04\n        /* \"#utility.yul\":15636:15651   */\n      mstore\n        /* \"#utility.yul\":15670:15674   */\n      0x24\n        /* \"#utility.yul\":15667:15668   */\n      0x00\n        /* \"#utility.yul\":15660:15675   */\n      revert\n        /* \"#utility.yul\":15687:15867   */\n    tag_402:\n        /* \"#utility.yul\":15735:15812   */\n      0x4e487b7100000000000000000000000000000000000000000000000000000000\n        /* \"#utility.yul\":15732:15733   */\n      0x00\n        /* \"#utility.yul\":15725:15813   */\n      mstore\n        /* \"#utility.yul\":15832:15836   */\n      0x12\n        /* \"#utility.yul\":15829:15830   */\n      0x04\n        /* \"#utility.yul\":15822:15837   */\n      mstore\n        /* \"#utility.yul\":15856:15860   */\n      0x24\n        /* \"#utility.yul\":15853:15854   */\n      0x00\n        /* \"#utility.yul\":15846:15861   */\n      revert\n        /* \"#utility.yul\":15873:16053   */\n    tag_419:\n        /* \"#utility.yul\":15921:15998   */\n      0x4e487b7100000000000000000000000000000000000000000000000000000000\n        /* \"#utility.yul\":15918:15919   */\n      0x00\n        /* \"#utility.yul\":15911:15999   */\n      mstore\n        /* \"#utility.yul\":16018:16022   */\n      0x22\n        /* \"#utility.yul\":16015:16016   */\n      0x04\n        /* \"#utility.yul\":16008:16023   */\n      mstore\n        /* \"#utility.yul\":16042:16046   */\n      0x24\n        /* \"#utility.yul\":16039:16040   */\n      0x00\n        /* \"#utility.yul\":16032:16047   */\n      revert\n        /* \"#utility.yul\":16182:16299   */\n    tag_252:\n        /* \"#utility.yul\":16291:16292   */\n      0x00\n        /* \"#utility.yul\":16288:16289   */\n      dup1\n        /* \"#utility.yul\":16281:16293   */\n      revert\n        /* \"#utility.yul\":16305:16407   */\n    tag_287:\n        /* \"#utility.yul\":16346:16352   */\n      0x00\n        /* \"#utility.yul\":16397:16399   */\n      0x1f\n        /* \"#utility.yul\":16393:16400   */\n      not\n        /* \"#utility.yul\":16388:16390   */\n      0x1f\n        /* \"#utility.yul\":16381:16386   */\n      dup4\n        /* \"#utility.yul\":16377:16391   */\n      add\n        /* \"#utility.yul\":16373:16401   */\n      and\n        /* \"#utility.yul\":16363:16401   */\n      swap1\n      pop\n        /* \"#utility.yul\":16305:16407   */\n      swap2\n      swap1\n      pop\n      jump\t// out\n        /* \"#utility.yul\":16413:16635   */\n    tag_292:\n        /* \"#utility.yul\":16553:16587   */\n      0x45524332303a207472616e7366657220746f20746865207a65726f2061646472\n        /* \"#utility.yul\":16549:16550   */\n      0x00\n        /* \"#utility.yul\":16541:16547   */\n      dup3\n        /* \"#utility.yul\":16537:16551   */\n      add\n        /* \"#utility.yul\":16530:16588   */\n      mstore\n        /* \"#utility.yul\":16622:16627   */\n      0x6573730000000000000000000000000000000000000000000000000000000000\n        /* \"#utility.yul\":16617:16619   */\n      0x20\n        /* \"#utility.yul\":16609:16615   */\n      dup3\n        /* \"#utility.yul\":16605:16620   */\n      add\n        /* \"#utility.yul\":16598:16628   */\n      mstore\n        /* \"#utility.yul\":16413:16635   */\n      pop\n      jump\t// out\n        /* \"#utility.yul\":16641:16866   */\n    tag_297:\n        /* \"#utility.yul\":16781:16815   */\n      0x4f776e61626c653a206e6577206f776e657220697320746865207a65726f2061\n        /* \"#utility.yul\":16777:16778   */\n      0x00\n        /* \"#utility.yul\":16769:16775   */\n      dup3\n        /* \"#utility.yul\":16765:16779   */\n      add\n        /* \"#utility.yul\":16758:16816   */\n      mstore\n        /* \"#utility.yul\":16850:16858   */\n      0x6464726573730000000000000000000000000000000000000000000000000000\n        /* \"#utility.yul\":16845:16847   */\n      0x20\n        /* \"#utility.yul\":16837:16843   */\n      dup3\n        /* \"#utility.yul\":16833:16848   */\n      add\n        /* \"#utility.yul\":16826:16859   */\n      mstore\n        /* \"#utility.yul\":16641:16866   */\n      pop\n      jump\t// out\n        /* \"#utility.yul\":16872:17093   */\n    tag_302:\n        /* \"#utility.yul\":17012:17046   */\n      0x45524332303a20617070726f766520746f20746865207a65726f206164647265\n        /* \"#utility.yul\":17008:17009   */\n      0x00\n        /* \"#utility.yul\":17000:17006   */\n      dup3\n        /* \"#utility.yul\":16996:17010   */\n      add\n        /* \"#utility.yul\":16989:17047   */\n      mstore\n        /* \"#utility.yul\":17081:17085   */\n      0x7373000000000000000000000000000000000000000000000000000000000000\n        /* \"#utility.yul\":17076:17078   */\n      0x20\n        /* \"#utility.yul\":17068:17074   */\n      dup3\n        /* \"#utility.yul\":17064:17079   */\n      add\n        /* \"#utility.yul\":17057:17086   */\n      mstore\n        /* \"#utility.yul\":16872:17093   */\n      pop\n      jump\t// out\n        /* \"#utility.yul\":17099:17276   */\n    tag_307:\n        /* \"#utility.yul\":17239:17268   */\n      0x596f75206e65656420746f2073656e64206d6f72652065746865720000000000\n        /* \"#utility.yul\":17235:17236   */\n      0x00\n        /* \"#utility.yul\":17227:17233   */\n      dup3\n        /* \"#utility.yul\":17223:17237   */\n      add\n        /* \"#utility.yul\":17216:17269   */\n      mstore\n        /* \"#utility.yul\":17099:17276   */\n      pop\n      jump\t// out\n        /* \"#utility.yul\":17282:17461   */\n    tag_312:\n        /* \"#utility.yul\":17422:17453   */\n      0x45524332303a20696e73756666696369656e7420616c6c6f77616e6365000000\n        /* \"#utility.yul\":17418:17419   */\n      0x00\n        /* \"#utility.yul\":17410:17416   */\n      dup3\n        /* \"#utility.yul\":17406:17420   */\n      add\n        /* \"#utility.yul\":17399:17454   */\n      mstore\n        /* \"#utility.yul\":17282:17461   */\n      pop\n      jump\t// out\n        /* \"#utility.yul\":17467:17692   */\n    tag_317:\n        /* \"#utility.yul\":17607:17641   */\n      0x45524332303a207472616e7366657220616d6f756e7420657863656564732062\n        /* \"#utility.yul\":17603:17604   */\n      0x00\n        /* \"#utility.yul\":17595:17601   */\n      dup3\n        /* \"#utility.yul\":17591:17605   */\n      add\n        /* \"#utility.yul\":17584:17642   */\n      mstore\n        /* \"#utility.yul\":17676:17684   */\n      0x616c616e63650000000000000000000000000000000000000000000000000000\n        /* \"#utility.yul\":17671:17673   */\n      0x20\n        /* \"#utility.yul\":17663:17669   */\n      dup3\n        /* \"#utility.yul\":17659:17674   */\n      add\n        /* \"#utility.yul\":17652:17685   */\n      mstore\n        /* \"#utility.yul\":17467:17692   */\n      pop\n      jump\t// out\n        /* \"#utility.yul\":17698:17880   */\n    tag_322:\n        /* \"#utility.yul\":17838:17872   */\n      0x4f776e61626c653a2063616c6c6572206973206e6f7420746865206f776e6572\n        /* \"#utility.yul\":17834:17835   */\n      0x00\n        /* \"#utility.yul\":17826:17832   */\n      dup3\n        /* \"#utility.yul\":17822:17836   */\n      add\n        /* \"#utility.yul\":17815:17873   */\n      mstore\n        /* \"#utility.yul\":17698:17880   */\n      pop\n      jump\t// out\n        /* \"#utility.yul\":17886:18110   */\n    tag_327:\n        /* \"#utility.yul\":18026:18060   */\n      0x45524332303a207472616e736665722066726f6d20746865207a65726f206164\n        /* \"#utility.yul\":18022:18023   */\n      0x00\n        /* \"#utility.yul\":18014:18020   */\n      dup3\n        /* \"#utility.yul\":18010:18024   */\n      add\n        /* \"#utility.yul\":18003:18061   */\n      mstore\n        /* \"#utility.yul\":18095:18102   */\n      0x6472657373000000000000000000000000000000000000000000000000000000\n        /* \"#utility.yul\":18090:18092   */\n      0x20\n        /* \"#utility.yul\":18082:18088   */\n      dup3\n        /* \"#utility.yul\":18078:18093   */\n      add\n        /* \"#utility.yul\":18071:18103   */\n      mstore\n        /* \"#utility.yul\":17886:18110   */\n      pop\n      jump\t// out\n        /* \"#utility.yul\":18116:18339   */\n    tag_332:\n        /* \"#utility.yul\":18256:18290   */\n      0x45524332303a20617070726f76652066726f6d20746865207a65726f20616464\n        /* \"#utility.yul\":18252:18253   */\n      0x00\n        /* \"#utility.yul\":18244:18250   */\n      dup3\n        /* \"#utility.yul\":18240:18254   */\n      add\n        /* \"#utility.yul\":18233:18291   */\n      mstore\n        /* \"#utility.yul\":18325:18331   */\n      0x7265737300000000000000000000000000000000000000000000000000000000\n        /* \"#utility.yul\":18320:18322   */\n      0x20\n        /* \"#utility.yul\":18312:18318   */\n      dup3\n        /* \"#utility.yul\":18308:18323   */\n      add\n        /* \"#utility.yul\":18301:18332   */\n      mstore\n        /* \"#utility.yul\":18116:18339   */\n      pop\n      jump\t// out\n        /* \"#utility.yul\":18345:18569   */\n    tag_337:\n        /* \"#utility.yul\":18485:18519   */\n      0x45524332303a2064656372656173656420616c6c6f77616e63652062656c6f77\n        /* \"#utility.yul\":18481:18482   */\n      0x00\n        /* \"#utility.yul\":18473:18479   */\n      dup3\n        /* \"#utility.yul\":18469:18483   */\n      add\n        /* \"#utility.yul\":18462:18520   */\n      mstore\n        /* \"#utility.yul\":18554:18561   */\n      0x207a65726f000000000000000000000000000000000000000000000000000000\n        /* \"#utility.yul\":18549:18551   */\n      0x20\n        /* \"#utility.yul\":18541:18547   */\n      dup3\n        /* \"#utility.yul\":18537:18552   */\n      add\n        /* \"#utility.yul\":18530:18562   */\n      mstore\n        /* \"#utility.yul\":18345:18569   */\n      pop\n      jump\t// out\n        /* \"#utility.yul\":18575:18756   */\n    tag_342:\n        /* \"#utility.yul\":18715:18748   */\n      0x45524332303a206d696e7420746f20746865207a65726f206164647265737300\n        /* \"#utility.yul\":18711:18712   */\n      0x00\n        /* \"#utility.yul\":18703:18709   */\n      dup3\n        /* \"#utility.yul\":18699:18713   */\n      add\n        /* \"#utility.yul\":18692:18749   */\n      mstore\n        /* \"#utility.yul\":18575:18756   */\n      pop\n      jump\t// out\n        /* \"#utility.yul\":18762:18884   */\n    tag_244:\n        /* \"#utility.yul\":18835:18859   */\n      tag_439\n        /* \"#utility.yul\":18853:18858   */\n      dup2\n        /* \"#utility.yul\":18835:18859   */\n      tag_273\n      jump\t// in\n    tag_439:\n        /* \"#utility.yul\":18828:18833   */\n      dup2\n        /* \"#utility.yul\":18825:18860   */\n      eq\n        /* \"#utility.yul\":18815:18878   */\n      tag_440\n      jumpi\n        /* \"#utility.yul\":18874:18875   */\n      0x00\n        /* \"#utility.yul\":18871:18872   */\n      dup1\n        /* \"#utility.yul\":18864:18876   */\n      revert\n        /* \"#utility.yul\":18815:18878   */\n    tag_440:\n        /* \"#utility.yul\":18762:18884   */\n      pop\n      jump\t// out\n        /* \"#utility.yul\":18890:19012   */\n    tag_248:\n        /* \"#utility.yul\":18963:18987   */\n      tag_442\n        /* \"#utility.yul\":18981:18986   */\n      dup2\n        /* \"#utility.yul\":18963:18987   */\n      tag_346\n      jump\t// in\n    tag_442:\n        /* \"#utility.yul\":18956:18961   */\n      dup2\n        /* \"#utility.yul\":18953:18988   */\n      eq\n        /* \"#utility.yul\":18943:19006   */\n      tag_443\n      jumpi\n        /* \"#utility.yul\":19002:19003   */\n      0x00\n        /* \"#utility.yul\":18999:19000   */\n      dup1\n        /* \"#utility.yul\":18992:19004   */\n      revert\n        /* \"#utility.yul\":18943:19006   */\n    tag_443:\n        /* \"#utility.yul\":18890:19012   */\n      pop\n      jump\t// out\n\n    auxdata: 0xa2646970667358221220bf313e5d6e708f96f1ac73394ef151c567d6489d6c6b3541cb2816fb581ee9ce64736f6c63430008070033\n}\n",
				"bytecode": {
					"linkReferences": {},
					"object": "6080604052620f42406007556103e86008553480156200001e57600080fd5b50604051620024c4380380620024c4833981810160405281019062000044919062000478565b6040518060400160405280601081526020017f656d706972654552433230546f6b656e000000000000000000000000000000008152506040518060400160405280600481526020017f454d5045000000000000000000000000000000000000000000000000000000008152508160039080519060200190620000c8929190620003b1565b508060049080519060200190620000e1929190620003b1565b50505062000104620000f86200016060201b60201c565b6200016860201b60201c565b80600660006101000a81548173ffffffffffffffffffffffffffffffffffffffff021916908373ffffffffffffffffffffffffffffffffffffffff16021790555062000159336007546200022e60201b60201c565b50620006a9565b600033905090565b6000600560009054906101000a900473ffffffffffffffffffffffffffffffffffffffff16905081600560006101000a81548173ffffffffffffffffffffffffffffffffffffffff021916908373ffffffffffffffffffffffffffffffffffffffff1602179055508173ffffffffffffffffffffffffffffffffffffffff168173ffffffffffffffffffffffffffffffffffffffff167f8be0079c531659141344cd1fd0a4f28419497f9722a3daafe3b4186f6b6457e060405160405180910390a35050565b600073ffffffffffffffffffffffffffffffffffffffff168273ffffffffffffffffffffffffffffffffffffffff161415620002a1576040517f08c379a00000000000000000000000000000000000000000000000000000000081526004016200029890620004e2565b60405180910390fd5b620002b560008383620003a760201b60201c565b8060026000828254620002c9919062000532565b92505081905550806000808473ffffffffffffffffffffffffffffffffffffffff1673ffffffffffffffffffffffffffffffffffffffff168152602001908152602001600020600082825462000320919062000532565b925050819055508173ffffffffffffffffffffffffffffffffffffffff16600073ffffffffffffffffffffffffffffffffffffffff167fddf252ad1be2c89b69c2b068fc378daa952ba7f163c4a11628f55a4df523b3ef8360405162000387919062000504565b60405180910390a3620003a360008383620003ac60201b60201c565b5050565b505050565b505050565b828054620003bf90620005cd565b90600052602060002090601f016020900481019282620003e357600085556200042f565b82601f10620003fe57805160ff19168380011785556200042f565b828001600101855582156200042f579182015b828111156200042e57825182559160200191906001019062000411565b5b5090506200043e919062000442565b5090565b5b808211156200045d57600081600090555060010162000443565b5090565b60008151905062000472816200068f565b92915050565b60006020828403121562000491576200049062000661565b5b6000620004a18482850162000461565b91505092915050565b6000620004b9601f8362000521565b9150620004c68262000666565b602082019050919050565b620004dc81620005c3565b82525050565b60006020820190508181036000830152620004fd81620004aa565b9050919050565b60006020820190506200051b6000830184620004d1565b92915050565b600082825260208201905092915050565b60006200053f82620005c3565b91506200054c83620005c3565b9250827fffffffffffffffffffffffffffffffffffffffffffffffffffffffffffffffff0382111562000584576200058362000603565b5b828201905092915050565b60006200059c82620005a3565b9050919050565b600073ffffffffffffffffffffffffffffffffffffffff82169050919050565b6000819050919050565b60006002820490506001821680620005e657607f821691505b60208210811415620005fd57620005fc62000632565b5b50919050565b7f4e487b7100000000000000000000000000000000000000000000000000000000600052601160045260246000fd5b7f4e487b7100000000000000000000000000000000000000000000000000000000600052602260045260246000fd5b600080fd5b7f45524332303a206d696e7420746f20746865207a65726f206164647265737300600082015250565b6200069a816200058f565b8114620006a657600080fd5b50565b611e0b80620006b96000396000f3fe6080604052600436106101095760003560e01c8063715018a611610095578063a457c2d711610064578063a457c2d714610360578063a9059cbb1461039d578063afb41183146103da578063dd62ed3e14610405578063f2fde38b1461044257610109565b8063715018a6146102d75780637e72fb52146102ee5780638da5cb5b1461030a57806395d89b411461033557610109565b80632c4e722e116100dc5780632c4e722e146101de578063313ce56714610209578063395093511461023457806340c10f191461027157806370a082311461029a57610109565b806306fdde031461010e578063095ea7b31461013957806318160ddd1461017657806323b872dd146101a1575b600080fd5b34801561011a57600080fd5b5061012361046b565b6040516101309190611722565b60405180910390f35b34801561014557600080fd5b50610160600480360381019061015b919061147f565b6104fd565b60405161016d9190611707565b60405180910390f35b34801561018257600080fd5b5061018b610520565b60405161019891906118a4565b60405180910390f35b3480156101ad57600080fd5b506101c860048036038101906101c3919061142c565b61052a565b6040516101d59190611707565b60405180910390f35b3480156101ea57600080fd5b506101f3610559565b60405161020091906118a4565b60405180910390f35b34801561021557600080fd5b5061021e61055f565b60405161022b91906118bf565b60405180910390f35b34801561024057600080fd5b5061025b6004803603810190610256919061147f565b610568565b6040516102689190611707565b60405180910390f35b34801561027d57600080fd5b506102986004803603810190610293919061147f565b610612565b005b3480156102a657600080fd5b506102c160048036038101906102bc91906113bf565b61069c565b6040516102ce91906118a4565b60405180910390f35b3480156102e357600080fd5b506102ec6106e4565b005b610308600480360381019061030391906113bf565b61076c565b005b34801561031657600080fd5b5061031f610880565b60405161032c91906116b5565b60405180910390f35b34801561034157600080fd5b5061034a6108aa565b6040516103579190611722565b60405180910390f35b34801561036c57600080fd5b506103876004803603810190610382919061147f565b61093c565b6040516103949190611707565b60405180910390f35b3480156103a957600080fd5b506103c460048036038101906103bf919061147f565b610a26565b6040516103d19190611707565b60405180910390f35b3480156103e657600080fd5b506103ef610a49565b6040516103fc91906118a4565b60405180910390f35b34801561041157600080fd5b5061042c600480360381019061042791906113ec565b610b06565b60405161043991906118a4565b60405180910390f35b34801561044e57600080fd5b50610469600480360381019061046491906113bf565b610b8d565b005b60606003805461047a90611a05565b80601f01602080910402602001604051908101604052809291908181526020018280546104a690611a05565b80156104f35780601f106104c8576101008083540402835291602001916104f3565b820191906000526020600020905b8154815290600101906020018083116104d657829003601f168201915b5050505050905090565b600080610508610c85565b9050610515818585610c8d565b600191505092915050565b6000600254905090565b600080610535610c85565b9050610542858285610e58565b61054d858585610ee4565b60019150509392505050565b60085481565b60006012905090565b600080610573610c85565b9050610607818585600160008673ffffffffffffffffffffffffffffffffffffffff1673ffffffffffffffffffffffffffffffffffffffff16815260200190815260200160002060008973ffffffffffffffffffffffffffffffffffffffff1673ffffffffffffffffffffffffffffffffffffffff1681526020019081526020016000205461060291906118f6565b610c8d565b600191505092915050565b61061a610c85565b73ffffffffffffffffffffffffffffffffffffffff16610638610880565b73ffffffffffffffffffffffffffffffffffffffff161461068e576040517f08c379a000000000000000000000000000000000000000000000000000000000815260040161068590611804565b60405180910390fd5b6106988282611165565b5050565b60008060008373ffffffffffffffffffffffffffffffffffffffff1673ffffffffffffffffffffffffffffffffffffffff168152602001908152602001600020549050919050565b6106ec610c85565b73ffffffffffffffffffffffffffffffffffffffff1661070a610880565b73ffffffffffffffffffffffffffffffffffffffff1614610760576040517f08c379a000000000000000000000000000000000000000000000000000000000815260040161075790611804565b60405180910390fd5b61076a60006112c5565b565b670de0b6b3a76400003410156107b7576040517f08c379a00000000000000000000000000000000000000000000000000000000081526004016107ae906117a4565b60405180910390fd5b600660009054906101000a900473ffffffffffffffffffffffffffffffffffffffff1673ffffffffffffffffffffffffffffffffffffffff166108fc349081150290604051600060405180830381858888f1935050505015801561081f573d6000803e3d6000fd5b50600066038d7ea4c6800034610835919061194c565b90506108418282611165565b7ff7684c931f3f1274ffa9e57bfdf5d3d86bf171875cea6a11b5fa6c1c889a1d12338383604051610874939291906116d0565b60405180910390a15050565b6000600560009054906101000a900473ffffffffffffffffffffffffffffffffffffffff16905090565b6060600480546108b990611a05565b80601f01602080910402602001604051908101604052809291908181526020018280546108e590611a05565b80156109325780601f1061090757610100808354040283529160200191610932565b820191906000526020600020905b81548152906001019060200180831161091557829003601f168201915b5050505050905090565b600080610947610c85565b90506000600160008373ffffffffffffffffffffffffffffffffffffffff1673ffffffffffffffffffffffffffffffffffffffff16815260200190815260200160002060008673ffffffffffffffffffffffffffffffffffffffff1673ffffffffffffffffffffffffffffffffffffffff16815260200190815260200160002054905083811015610a0d576040517f08c379a0000000000000000000000000000000000000000000000000000000008152600401610a0490611864565b60405180910390fd5b610a1a8286868403610c8d565b60019250505092915050565b600080610a31610c85565b9050610a3e818585610ee4565b600191505092915050565b6000610a53610c85565b73ffffffffffffffffffffffffffffffffffffffff16610a71610880565b73ffffffffffffffffffffffffffffffffffffffff1614610ac7576040517f08c379a0000000000000000000000000000000000000000000000000000000008152600401610abe90611804565b60405180910390fd5b600660009054906101000a900473ffffffffffffffffffffffffffffffffffffffff1673ffffffffffffffffffffffffffffffffffffffff1631905090565b6000600160008473ffffffffffffffffffffffffffffffffffffffff1673ffffffffffffffffffffffffffffffffffffffff16815260200190815260200160002060008373ffffffffffffffffffffffffffffffffffffffff1673ffffffffffffffffffffffffffffffffffffffff16815260200190815260200160002054905092915050565b610b95610c85565b73ffffffffffffffffffffffffffffffffffffffff16610bb3610880565b73ffffffffffffffffffffffffffffffffffffffff1614610c09576040517f08c379a0000000000000000000000000000000000000000000000000000000008152600401610c0090611804565b60405180910390fd5b600073ffffffffffffffffffffffffffffffffffffffff168173ffffffffffffffffffffffffffffffffffffffff161415610c79576040517f08c379a0000000000000000000000000000000000000000000000000000000008152600401610c7090611764565b60405180910390fd5b610c82816112c5565b50565b600033905090565b600073ffffffffffffffffffffffffffffffffffffffff168373ffffffffffffffffffffffffffffffffffffffff161415610cfd576040517f08c379a0000000000000000000000000000000000000000000000000000000008152600401610cf490611844565b60405180910390fd5b600073ffffffffffffffffffffffffffffffffffffffff168273ffffffffffffffffffffffffffffffffffffffff161415610d6d576040517f08c379a0000000000000000000000000000000000000000000000000000000008152600401610d6490611784565b60405180910390fd5b80600160008573ffffffffffffffffffffffffffffffffffffffff1673ffffffffffffffffffffffffffffffffffffffff16815260200190815260200160002060008473ffffffffffffffffffffffffffffffffffffffff1673ffffffffffffffffffffffffffffffffffffffff168152602001908152602001600020819055508173ffffffffffffffffffffffffffffffffffffffff168373ffffffffffffffffffffffffffffffffffffffff167f8c5be1e5ebec7d5bd14f71427d1e84f3dd0314c0f7b2291e5b200ac8c7c3b92583604051610e4b91906118a4565b60405180910390a3505050565b6000610e648484610b06565b90507fffffffffffffffffffffffffffffffffffffffffffffffffffffffffffffffff8114610ede5781811015610ed0576040517f08c379a0000000000000000000000000000000000000000000000000000000008152600401610ec7906117c4565b60405180910390fd5b610edd8484848403610c8d565b5b50505050565b600073ffffffffffffffffffffffffffffffffffffffff168373ffffffffffffffffffffffffffffffffffffffff161415610f54576040517f08c379a0000000000000000000000000000000000000000000000000000000008152600401610f4b90611824565b60405180910390fd5b600073ffffffffffffffffffffffffffffffffffffffff168273ffffffffffffffffffffffffffffffffffffffff161415610fc4576040517f08c379a0000000000000000000000000000000000000000000000000000000008152600401610fbb90611744565b60405180910390fd5b610fcf83838361138b565b60008060008573ffffffffffffffffffffffffffffffffffffffff1673ffffffffffffffffffffffffffffffffffffffff16815260200190815260200160002054905081811015611055576040517f08c379a000000000000000000000000000000000000000000000000000000000815260040161104c906117e4565b60405180910390fd5b8181036000808673ffffffffffffffffffffffffffffffffffffffff1673ffffffffffffffffffffffffffffffffffffffff16815260200190815260200160002081905550816000808573ffffffffffffffffffffffffffffffffffffffff1673ffffffffffffffffffffffffffffffffffffffff16815260200190815260200160002060008282546110e891906118f6565b925050819055508273ffffffffffffffffffffffffffffffffffffffff168473ffffffffffffffffffffffffffffffffffffffff167fddf252ad1be2c89b69c2b068fc378daa952ba7f163c4a11628f55a4df523b3ef8460405161114c91906118a4565b60405180910390a361115f848484611390565b50505050565b600073ffffffffffffffffffffffffffffffffffffffff168273ffffffffffffffffffffffffffffffffffffffff1614156111d5576040517f08c379a00000000000000000000000000000000000000000000000000000000081526004016111cc90611884565b60405180910390fd5b6111e16000838361138b565b80600260008282546111f391906118f6565b92505081905550806000808473ffffffffffffffffffffffffffffffffffffffff1673ffffffffffffffffffffffffffffffffffffffff168152602001908152602001600020600082825461124891906118f6565b925050819055508173ffffffffffffffffffffffffffffffffffffffff16600073ffffffffffffffffffffffffffffffffffffffff167fddf252ad1be2c89b69c2b068fc378daa952ba7f163c4a11628f55a4df523b3ef836040516112ad91906118a4565b60405180910390a36112c160008383611390565b5050565b6000600560009054906101000a900473ffffffffffffffffffffffffffffffffffffffff16905081600560006101000a81548173ffffffffffffffffffffffffffffffffffffffff021916908373ffffffffffffffffffffffffffffffffffffffff1602179055508173ffffffffffffffffffffffffffffffffffffffff168173ffffffffffffffffffffffffffffffffffffffff167f8be0079c531659141344cd1fd0a4f28419497f9722a3daafe3b4186f6b6457e060405160405180910390a35050565b505050565b505050565b6000813590506113a481611da7565b92915050565b6000813590506113b981611dbe565b92915050565b6000602082840312156113d5576113d4611ac4565b5b60006113e384828501611395565b91505092915050565b6000806040838503121561140357611402611ac4565b5b600061141185828601611395565b925050602061142285828601611395565b9150509250929050565b60008060006060848603121561144557611444611ac4565b5b600061145386828701611395565b935050602061146486828701611395565b9250506040611475868287016113aa565b9150509250925092565b6000806040838503121561149657611495611ac4565b5b60006114a485828601611395565b92505060206114b5858286016113aa565b9150509250929050565b6114c88161197d565b82525050565b6114d78161198f565b82525050565b60006114e8826118da565b6114f281856118e5565b93506115028185602086016119d2565b61150b81611ac9565b840191505092915050565b60006115236023836118e5565b915061152e82611ada565b604082019050919050565b60006115466026836118e5565b915061155182611b29565b604082019050919050565b60006115696022836118e5565b915061157482611b78565b604082019050919050565b600061158c601b836118e5565b915061159782611bc7565b602082019050919050565b60006115af601d836118e5565b91506115ba82611bf0565b602082019050919050565b60006115d26026836118e5565b91506115dd82611c19565b604082019050919050565b60006115f56020836118e5565b915061160082611c68565b602082019050919050565b60006116186025836118e5565b915061162382611c91565b604082019050919050565b600061163b6024836118e5565b915061164682611ce0565b604082019050919050565b600061165e6025836118e5565b915061166982611d2f565b604082019050919050565b6000611681601f836118e5565b915061168c82611d7e565b602082019050919050565b6116a0816119bb565b82525050565b6116af816119c5565b82525050565b60006020820190506116ca60008301846114bf565b92915050565b60006060820190506116e560008301866114bf565b6116f260208301856114bf565b6116ff6040830184611697565b949350505050565b600060208201905061171c60008301846114ce565b92915050565b6000602082019050818103600083015261173c81846114dd565b905092915050565b6000602082019050818103600083015261175d81611516565b9050919050565b6000602082019050818103600083015261177d81611539565b9050919050565b6000602082019050818103600083015261179d8161155c565b9050919050565b600060208201905081810360008301526117bd8161157f565b9050919050565b600060208201905081810360008301526117dd816115a2565b9050919050565b600060208201905081810360008301526117fd816115c5565b9050919050565b6000602082019050818103600083015261181d816115e8565b9050919050565b6000602082019050818103600083015261183d8161160b565b9050919050565b6000602082019050818103600083015261185d8161162e565b9050919050565b6000602082019050818103600083015261187d81611651565b9050919050565b6000602082019050818103600083015261189d81611674565b9050919050565b60006020820190506118b96000830184611697565b92915050565b60006020820190506118d460008301846116a6565b92915050565b600081519050919050565b600082825260208201905092915050565b6000611901826119bb565b915061190c836119bb565b9250827fffffffffffffffffffffffffffffffffffffffffffffffffffffffffffffffff0382111561194157611940611a37565b5b828201905092915050565b6000611957826119bb565b9150611962836119bb565b92508261197257611971611a66565b5b828204905092915050565b60006119888261199b565b9050919050565b60008115159050919050565b600073ffffffffffffffffffffffffffffffffffffffff82169050919050565b6000819050919050565b600060ff82169050919050565b60005b838110156119f05780820151818401526020810190506119d5565b838111156119ff576000848401525b50505050565b60006002820490506001821680611a1d57607f821691505b60208210811415611a3157611a30611a95565b5b50919050565b7f4e487b7100000000000000000000000000000000000000000000000000000000600052601160045260246000fd5b7f4e487b7100000000000000000000000000000000000000000000000000000000600052601260045260246000fd5b7f4e487b7100000000000000000000000000000000000000000000000000000000600052602260045260246000fd5b600080fd5b6000601f19601f8301169050919050565b7f45524332303a207472616e7366657220746f20746865207a65726f206164647260008201527f6573730000000000000000000000000000000000000000000000000000000000602082015250565b7f4f776e61626c653a206e6577206f776e657220697320746865207a65726f206160008201527f6464726573730000000000000000000000000000000000000000000000000000602082015250565b7f45524332303a20617070726f766520746f20746865207a65726f20616464726560008201527f7373000000000000000000000000000000000000000000000000000000000000602082015250565b7f596f75206e65656420746f2073656e64206d6f72652065746865720000000000600082015250565b7f45524332303a20696e73756666696369656e7420616c6c6f77616e6365000000600082015250565b7f45524332303a207472616e7366657220616d6f756e742065786365656473206260008201527f616c616e63650000000000000000000000000000000000000000000000000000602082015250565b7f4f776e61626c653a2063616c6c6572206973206e6f7420746865206f776e6572600082015250565b7f45524332303a207472616e736665722066726f6d20746865207a65726f20616460008201527f6472657373000000000000000000000000000000000000000000000000000000602082015250565b7f45524332303a20617070726f76652066726f6d20746865207a65726f2061646460008201527f7265737300000000000000000000000000000000000000000000000000000000602082015250565b7f45524332303a2064656372656173656420616c6c6f77616e63652062656c6f7760008201527f207a65726f000000000000000000000000000000000000000000000000000000602082015250565b7f45524332303a206d696e7420746f20746865207a65726f206164647265737300600082015250565b611db08161197d565b8114611dbb57600080fd5b50565b611dc7816119bb565b8114611dd257600080fd5b5056fea2646970667358221220bf313e5d6e708f96f1ac73394ef151c567d6489d6c6b3541cb2816fb581ee9ce64736f6c63430008070033",
					"opcodes": "PUSH1 0x80 PUSH1 0x40 MSTORE PUSH3 0xF4240 PUSH1 0x7 SSTORE PUSH2 0x3E8 PUSH1 0x8 SSTORE CALLVALUE DUP1 ISZERO PUSH3 0x1E JUMPI PUSH1 0x0 DUP1 REVERT JUMPDEST POP PUSH1 0x40 MLOAD PUSH3 0x24C4 CODESIZE SUB DUP1 PUSH3 0x24C4 DUP4 CODECOPY DUP2 DUP2 ADD PUSH1 0x40 MSTORE DUP2 ADD SWAP1 PUSH3 0x44 SWAP2 SWAP1 PUSH3 0x478 JUMP JUMPDEST PUSH1 0x40 MLOAD DUP1 PUSH1 0x40 ADD PUSH1 0x40 MSTORE DUP1 PUSH1 0x10 DUP2 MSTORE PUSH1 0x20 ADD PUSH32 0x656D706972654552433230546F6B656E00000000000000000000000000000000 DUP2 MSTORE POP PUSH1 0x40 MLOAD DUP1 PUSH1 0x40 ADD PUSH1 0x40 MSTORE DUP1 PUSH1 0x4 DUP2 MSTORE PUSH1 0x20 ADD PUSH32 0x454D504500000000000000000000000000000000000000000000000000000000 DUP2 MSTORE POP DUP2 PUSH1 0x3 SWAP1 DUP1 MLOAD SWAP1 PUSH1 0x20 ADD SWAP1 PUSH3 0xC8 SWAP3 SWAP2 SWAP1 PUSH3 0x3B1 JUMP JUMPDEST POP DUP1 PUSH1 0x4 SWAP1 DUP1 MLOAD SWAP1 PUSH1 0x20 ADD SWAP1 PUSH3 0xE1 SWAP3 SWAP2 SWAP1 PUSH3 0x3B1 JUMP JUMPDEST POP POP POP PUSH3 0x104 PUSH3 0xF8 PUSH3 0x160 PUSH1 0x20 SHL PUSH1 0x20 SHR JUMP JUMPDEST PUSH3 0x168 PUSH1 0x20 SHL PUSH1 0x20 SHR JUMP JUMPDEST DUP1 PUSH1 0x6 PUSH1 0x0 PUSH2 0x100 EXP DUP2 SLOAD DUP2 PUSH20 0xFFFFFFFFFFFFFFFFFFFFFFFFFFFFFFFFFFFFFFFF MUL NOT AND SWAP1 DUP4 PUSH20 0xFFFFFFFFFFFFFFFFFFFFFFFFFFFFFFFFFFFFFFFF AND MUL OR SWAP1 SSTORE POP PUSH3 0x159 CALLER PUSH1 0x7 SLOAD PUSH3 0x22E PUSH1 0x20 SHL PUSH1 0x20 SHR JUMP JUMPDEST POP PUSH3 0x6A9 JUMP JUMPDEST PUSH1 0x0 CALLER SWAP1 POP SWAP1 JUMP JUMPDEST PUSH1 0x0 PUSH1 0x5 PUSH1 0x0 SWAP1 SLOAD SWAP1 PUSH2 0x100 EXP SWAP1 DIV PUSH20 0xFFFFFFFFFFFFFFFFFFFFFFFFFFFFFFFFFFFFFFFF AND SWAP1 POP DUP2 PUSH1 0x5 PUSH1 0x0 PUSH2 0x100 EXP DUP2 SLOAD DUP2 PUSH20 0xFFFFFFFFFFFFFFFFFFFFFFFFFFFFFFFFFFFFFFFF MUL NOT AND SWAP1 DUP4 PUSH20 0xFFFFFFFFFFFFFFFFFFFFFFFFFFFFFFFFFFFFFFFF AND MUL OR SWAP1 SSTORE POP DUP2 PUSH20 0xFFFFFFFFFFFFFFFFFFFFFFFFFFFFFFFFFFFFFFFF AND DUP2 PUSH20 0xFFFFFFFFFFFFFFFFFFFFFFFFFFFFFFFFFFFFFFFF AND PUSH32 0x8BE0079C531659141344CD1FD0A4F28419497F9722A3DAAFE3B4186F6B6457E0 PUSH1 0x40 MLOAD PUSH1 0x40 MLOAD DUP1 SWAP2 SUB SWAP1 LOG3 POP POP JUMP JUMPDEST PUSH1 0x0 PUSH20 0xFFFFFFFFFFFFFFFFFFFFFFFFFFFFFFFFFFFFFFFF AND DUP3 PUSH20 0xFFFFFFFFFFFFFFFFFFFFFFFFFFFFFFFFFFFFFFFF AND EQ ISZERO PUSH3 0x2A1 JUMPI PUSH1 0x40 MLOAD PUSH32 0x8C379A000000000000000000000000000000000000000000000000000000000 DUP2 MSTORE PUSH1 0x4 ADD PUSH3 0x298 SWAP1 PUSH3 0x4E2 JUMP JUMPDEST PUSH1 0x40 MLOAD DUP1 SWAP2 SUB SWAP1 REVERT JUMPDEST PUSH3 0x2B5 PUSH1 0x0 DUP4 DUP4 PUSH3 0x3A7 PUSH1 0x20 SHL PUSH1 0x20 SHR JUMP JUMPDEST DUP1 PUSH1 0x2 PUSH1 0x0 DUP3 DUP3 SLOAD PUSH3 0x2C9 SWAP2 SWAP1 PUSH3 0x532 JUMP JUMPDEST SWAP3 POP POP DUP2 SWAP1 SSTORE POP DUP1 PUSH1 0x0 DUP1 DUP5 PUSH20 0xFFFFFFFFFFFFFFFFFFFFFFFFFFFFFFFFFFFFFFFF AND PUSH20 0xFFFFFFFFFFFFFFFFFFFFFFFFFFFFFFFFFFFFFFFF AND DUP2 MSTORE PUSH1 0x20 ADD SWAP1 DUP2 MSTORE PUSH1 0x20 ADD PUSH1 0x0 KECCAK256 PUSH1 0x0 DUP3 DUP3 SLOAD PUSH3 0x320 SWAP2 SWAP1 PUSH3 0x532 JUMP JUMPDEST SWAP3 POP POP DUP2 SWAP1 SSTORE POP DUP2 PUSH20 0xFFFFFFFFFFFFFFFFFFFFFFFFFFFFFFFFFFFFFFFF AND PUSH1 0x0 PUSH20 0xFFFFFFFFFFFFFFFFFFFFFFFFFFFFFFFFFFFFFFFF AND PUSH32 0xDDF252AD1BE2C89B69C2B068FC378DAA952BA7F163C4A11628F55A4DF523B3EF DUP4 PUSH1 0x40 MLOAD PUSH3 0x387 SWAP2 SWAP1 PUSH3 0x504 JUMP JUMPDEST PUSH1 0x40 MLOAD DUP1 SWAP2 SUB SWAP1 LOG3 PUSH3 0x3A3 PUSH1 0x0 DUP4 DUP4 PUSH3 0x3AC PUSH1 0x20 SHL PUSH1 0x20 SHR JUMP JUMPDEST POP POP JUMP JUMPDEST POP POP POP JUMP JUMPDEST POP POP POP JUMP JUMPDEST DUP3 DUP1 SLOAD PUSH3 0x3BF SWAP1 PUSH3 0x5CD JUMP JUMPDEST SWAP1 PUSH1 0x0 MSTORE PUSH1 0x20 PUSH1 0x0 KECCAK256 SWAP1 PUSH1 0x1F ADD PUSH1 0x20 SWAP1 DIV DUP2 ADD SWAP3 DUP3 PUSH3 0x3E3 JUMPI PUSH1 0x0 DUP6 SSTORE PUSH3 0x42F JUMP JUMPDEST DUP3 PUSH1 0x1F LT PUSH3 0x3FE JUMPI DUP1 MLOAD PUSH1 0xFF NOT AND DUP4 DUP1 ADD OR DUP6 SSTORE PUSH3 0x42F JUMP JUMPDEST DUP3 DUP1 ADD PUSH1 0x1 ADD DUP6 SSTORE DUP3 ISZERO PUSH3 0x42F JUMPI SWAP2 DUP3 ADD JUMPDEST DUP3 DUP2 GT ISZERO PUSH3 0x42E JUMPI DUP3 MLOAD DUP3 SSTORE SWAP2 PUSH1 0x20 ADD SWAP2 SWAP1 PUSH1 0x1 ADD SWAP1 PUSH3 0x411 JUMP JUMPDEST JUMPDEST POP SWAP1 POP PUSH3 0x43E SWAP2 SWAP1 PUSH3 0x442 JUMP JUMPDEST POP SWAP1 JUMP JUMPDEST JUMPDEST DUP1 DUP3 GT ISZERO PUSH3 0x45D JUMPI PUSH1 0x0 DUP2 PUSH1 0x0 SWAP1 SSTORE POP PUSH1 0x1 ADD PUSH3 0x443 JUMP JUMPDEST POP SWAP1 JUMP JUMPDEST PUSH1 0x0 DUP2 MLOAD SWAP1 POP PUSH3 0x472 DUP2 PUSH3 0x68F JUMP JUMPDEST SWAP3 SWAP2 POP POP JUMP JUMPDEST PUSH1 0x0 PUSH1 0x20 DUP3 DUP5 SUB SLT ISZERO PUSH3 0x491 JUMPI PUSH3 0x490 PUSH3 0x661 JUMP JUMPDEST JUMPDEST PUSH1 0x0 PUSH3 0x4A1 DUP5 DUP3 DUP6 ADD PUSH3 0x461 JUMP JUMPDEST SWAP2 POP POP SWAP3 SWAP2 POP POP JUMP JUMPDEST PUSH1 0x0 PUSH3 0x4B9 PUSH1 0x1F DUP4 PUSH3 0x521 JUMP JUMPDEST SWAP2 POP PUSH3 0x4C6 DUP3 PUSH3 0x666 JUMP JUMPDEST PUSH1 0x20 DUP3 ADD SWAP1 POP SWAP2 SWAP1 POP JUMP JUMPDEST PUSH3 0x4DC DUP2 PUSH3 0x5C3 JUMP JUMPDEST DUP3 MSTORE POP POP JUMP JUMPDEST PUSH1 0x0 PUSH1 0x20 DUP3 ADD SWAP1 POP DUP2 DUP2 SUB PUSH1 0x0 DUP4 ADD MSTORE PUSH3 0x4FD DUP2 PUSH3 0x4AA JUMP JUMPDEST SWAP1 POP SWAP2 SWAP1 POP JUMP JUMPDEST PUSH1 0x0 PUSH1 0x20 DUP3 ADD SWAP1 POP PUSH3 0x51B PUSH1 0x0 DUP4 ADD DUP5 PUSH3 0x4D1 JUMP JUMPDEST SWAP3 SWAP2 POP POP JUMP JUMPDEST PUSH1 0x0 DUP3 DUP3 MSTORE PUSH1 0x20 DUP3 ADD SWAP1 POP SWAP3 SWAP2 POP POP JUMP JUMPDEST PUSH1 0x0 PUSH3 0x53F DUP3 PUSH3 0x5C3 JUMP JUMPDEST SWAP2 POP PUSH3 0x54C DUP4 PUSH3 0x5C3 JUMP JUMPDEST SWAP3 POP DUP3 PUSH32 0xFFFFFFFFFFFFFFFFFFFFFFFFFFFFFFFFFFFFFFFFFFFFFFFFFFFFFFFFFFFFFFFF SUB DUP3 GT ISZERO PUSH3 0x584 JUMPI PUSH3 0x583 PUSH3 0x603 JUMP JUMPDEST JUMPDEST DUP3 DUP3 ADD SWAP1 POP SWAP3 SWAP2 POP POP JUMP JUMPDEST PUSH1 0x0 PUSH3 0x59C DUP3 PUSH3 0x5A3 JUMP JUMPDEST SWAP1 POP SWAP2 SWAP1 POP JUMP JUMPDEST PUSH1 0x0 PUSH20 0xFFFFFFFFFFFFFFFFFFFFFFFFFFFFFFFFFFFFFFFF DUP3 AND SWAP1 POP SWAP2 SWAP1 POP JUMP JUMPDEST PUSH1 0x0 DUP2 SWAP1 POP SWAP2 SWAP1 POP JUMP JUMPDEST PUSH1 0x0 PUSH1 0x2 DUP3 DIV SWAP1 POP PUSH1 0x1 DUP3 AND DUP1 PUSH3 0x5E6 JUMPI PUSH1 0x7F DUP3 AND SWAP2 POP JUMPDEST PUSH1 0x20 DUP3 LT DUP2 EQ ISZERO PUSH3 0x5FD JUMPI PUSH3 0x5FC PUSH3 0x632 JUMP JUMPDEST JUMPDEST POP SWAP2 SWAP1 POP JUMP JUMPDEST PUSH32 0x4E487B7100000000000000000000000000000000000000000000000000000000 PUSH1 0x0 MSTORE PUSH1 0x11 PUSH1 0x4 MSTORE PUSH1 0x24 PUSH1 0x0 REVERT JUMPDEST PUSH32 0x4E487B7100000000000000000000000000000000000000000000000000000000 PUSH1 0x0 MSTORE PUSH1 0x22 PUSH1 0x4 MSTORE PUSH1 0x24 PUSH1 0x0 REVERT JUMPDEST PUSH1 0x0 DUP1 REVERT JUMPDEST PUSH32 0x45524332303A206D696E7420746F20746865207A65726F206164647265737300 PUSH1 0x0 DUP3 ADD MSTORE POP JUMP JUMPDEST PUSH3 0x69A DUP2 PUSH3 0x58F JUMP JUMPDEST DUP2 EQ PUSH3 0x6A6 JUMPI PUSH1 0x0 DUP1 REVERT JUMPDEST POP JUMP JUMPDEST PUSH2 0x1E0B DUP1 PUSH3 0x6B9 PUSH1 0x0 CODECOPY PUSH1 0x0 RETURN INVALID PUSH1 0x80 PUSH1 0x40 MSTORE PUSH1 0x4 CALLDATASIZE LT PUSH2 0x109 JUMPI PUSH1 0x0 CALLDATALOAD PUSH1 0xE0 SHR DUP1 PUSH4 0x715018A6 GT PUSH2 0x95 JUMPI DUP1 PUSH4 0xA457C2D7 GT PUSH2 0x64 JUMPI DUP1 PUSH4 0xA457C2D7 EQ PUSH2 0x360 JUMPI DUP1 PUSH4 0xA9059CBB EQ PUSH2 0x39D JUMPI DUP1 PUSH4 0xAFB41183 EQ PUSH2 0x3DA JUMPI DUP1 PUSH4 0xDD62ED3E EQ PUSH2 0x405 JUMPI DUP1 PUSH4 0xF2FDE38B EQ PUSH2 0x442 JUMPI PUSH2 0x109 JUMP JUMPDEST DUP1 PUSH4 0x715018A6 EQ PUSH2 0x2D7 JUMPI DUP1 PUSH4 0x7E72FB52 EQ PUSH2 0x2EE JUMPI DUP1 PUSH4 0x8DA5CB5B EQ PUSH2 0x30A JUMPI DUP1 PUSH4 0x95D89B41 EQ PUSH2 0x335 JUMPI PUSH2 0x109 JUMP JUMPDEST DUP1 PUSH4 0x2C4E722E GT PUSH2 0xDC JUMPI DUP1 PUSH4 0x2C4E722E EQ PUSH2 0x1DE JUMPI DUP1 PUSH4 0x313CE567 EQ PUSH2 0x209 JUMPI DUP1 PUSH4 0x39509351 EQ PUSH2 0x234 JUMPI DUP1 PUSH4 0x40C10F19 EQ PUSH2 0x271 JUMPI DUP1 PUSH4 0x70A08231 EQ PUSH2 0x29A JUMPI PUSH2 0x109 JUMP JUMPDEST DUP1 PUSH4 0x6FDDE03 EQ PUSH2 0x10E JUMPI DUP1 PUSH4 0x95EA7B3 EQ PUSH2 0x139 JUMPI DUP1 PUSH4 0x18160DDD EQ PUSH2 0x176 JUMPI DUP1 PUSH4 0x23B872DD EQ PUSH2 0x1A1 JUMPI JUMPDEST PUSH1 0x0 DUP1 REVERT JUMPDEST CALLVALUE DUP1 ISZERO PUSH2 0x11A JUMPI PUSH1 0x0 DUP1 REVERT JUMPDEST POP PUSH2 0x123 PUSH2 0x46B JUMP JUMPDEST PUSH1 0x40 MLOAD PUSH2 0x130 SWAP2 SWAP1 PUSH2 0x1722 JUMP JUMPDEST PUSH1 0x40 MLOAD DUP1 SWAP2 SUB SWAP1 RETURN JUMPDEST CALLVALUE DUP1 ISZERO PUSH2 0x145 JUMPI PUSH1 0x0 DUP1 REVERT JUMPDEST POP PUSH2 0x160 PUSH1 0x4 DUP1 CALLDATASIZE SUB DUP2 ADD SWAP1 PUSH2 0x15B SWAP2 SWAP1 PUSH2 0x147F JUMP JUMPDEST PUSH2 0x4FD JUMP JUMPDEST PUSH1 0x40 MLOAD PUSH2 0x16D SWAP2 SWAP1 PUSH2 0x1707 JUMP JUMPDEST PUSH1 0x40 MLOAD DUP1 SWAP2 SUB SWAP1 RETURN JUMPDEST CALLVALUE DUP1 ISZERO PUSH2 0x182 JUMPI PUSH1 0x0 DUP1 REVERT JUMPDEST POP PUSH2 0x18B PUSH2 0x520 JUMP JUMPDEST PUSH1 0x40 MLOAD PUSH2 0x198 SWAP2 SWAP1 PUSH2 0x18A4 JUMP JUMPDEST PUSH1 0x40 MLOAD DUP1 SWAP2 SUB SWAP1 RETURN JUMPDEST CALLVALUE DUP1 ISZERO PUSH2 0x1AD JUMPI PUSH1 0x0 DUP1 REVERT JUMPDEST POP PUSH2 0x1C8 PUSH1 0x4 DUP1 CALLDATASIZE SUB DUP2 ADD SWAP1 PUSH2 0x1C3 SWAP2 SWAP1 PUSH2 0x142C JUMP JUMPDEST PUSH2 0x52A JUMP JUMPDEST PUSH1 0x40 MLOAD PUSH2 0x1D5 SWAP2 SWAP1 PUSH2 0x1707 JUMP JUMPDEST PUSH1 0x40 MLOAD DUP1 SWAP2 SUB SWAP1 RETURN JUMPDEST CALLVALUE DUP1 ISZERO PUSH2 0x1EA JUMPI PUSH1 0x0 DUP1 REVERT JUMPDEST POP PUSH2 0x1F3 PUSH2 0x559 JUMP JUMPDEST PUSH1 0x40 MLOAD PUSH2 0x200 SWAP2 SWAP1 PUSH2 0x18A4 JUMP JUMPDEST PUSH1 0x40 MLOAD DUP1 SWAP2 SUB SWAP1 RETURN JUMPDEST CALLVALUE DUP1 ISZERO PUSH2 0x215 JUMPI PUSH1 0x0 DUP1 REVERT JUMPDEST POP PUSH2 0x21E PUSH2 0x55F JUMP JUMPDEST PUSH1 0x40 MLOAD PUSH2 0x22B SWAP2 SWAP1 PUSH2 0x18BF JUMP JUMPDEST PUSH1 0x40 MLOAD DUP1 SWAP2 SUB SWAP1 RETURN JUMPDEST CALLVALUE DUP1 ISZERO PUSH2 0x240 JUMPI PUSH1 0x0 DUP1 REVERT JUMPDEST POP PUSH2 0x25B PUSH1 0x4 DUP1 CALLDATASIZE SUB DUP2 ADD SWAP1 PUSH2 0x256 SWAP2 SWAP1 PUSH2 0x147F JUMP JUMPDEST PUSH2 0x568 JUMP JUMPDEST PUSH1 0x40 MLOAD PUSH2 0x268 SWAP2 SWAP1 PUSH2 0x1707 JUMP JUMPDEST PUSH1 0x40 MLOAD DUP1 SWAP2 SUB SWAP1 RETURN JUMPDEST CALLVALUE DUP1 ISZERO PUSH2 0x27D JUMPI PUSH1 0x0 DUP1 REVERT JUMPDEST POP PUSH2 0x298 PUSH1 0x4 DUP1 CALLDATASIZE SUB DUP2 ADD SWAP1 PUSH2 0x293 SWAP2 SWAP1 PUSH2 0x147F JUMP JUMPDEST PUSH2 0x612 JUMP JUMPDEST STOP JUMPDEST CALLVALUE DUP1 ISZERO PUSH2 0x2A6 JUMPI PUSH1 0x0 DUP1 REVERT JUMPDEST POP PUSH2 0x2C1 PUSH1 0x4 DUP1 CALLDATASIZE SUB DUP2 ADD SWAP1 PUSH2 0x2BC SWAP2 SWAP1 PUSH2 0x13BF JUMP JUMPDEST PUSH2 0x69C JUMP JUMPDEST PUSH1 0x40 MLOAD PUSH2 0x2CE SWAP2 SWAP1 PUSH2 0x18A4 JUMP JUMPDEST PUSH1 0x40 MLOAD DUP1 SWAP2 SUB SWAP1 RETURN JUMPDEST CALLVALUE DUP1 ISZERO PUSH2 0x2E3 JUMPI PUSH1 0x0 DUP1 REVERT JUMPDEST POP PUSH2 0x2EC PUSH2 0x6E4 JUMP JUMPDEST STOP JUMPDEST PUSH2 0x308 PUSH1 0x4 DUP1 CALLDATASIZE SUB DUP2 ADD SWAP1 PUSH2 0x303 SWAP2 SWAP1 PUSH2 0x13BF JUMP JUMPDEST PUSH2 0x76C JUMP JUMPDEST STOP JUMPDEST CALLVALUE DUP1 ISZERO PUSH2 0x316 JUMPI PUSH1 0x0 DUP1 REVERT JUMPDEST POP PUSH2 0x31F PUSH2 0x880 JUMP JUMPDEST PUSH1 0x40 MLOAD PUSH2 0x32C SWAP2 SWAP1 PUSH2 0x16B5 JUMP JUMPDEST PUSH1 0x40 MLOAD DUP1 SWAP2 SUB SWAP1 RETURN JUMPDEST CALLVALUE DUP1 ISZERO PUSH2 0x341 JUMPI PUSH1 0x0 DUP1 REVERT JUMPDEST POP PUSH2 0x34A PUSH2 0x8AA JUMP JUMPDEST PUSH1 0x40 MLOAD PUSH2 0x357 SWAP2 SWAP1 PUSH2 0x1722 JUMP JUMPDEST PUSH1 0x40 MLOAD DUP1 SWAP2 SUB SWAP1 RETURN JUMPDEST CALLVALUE DUP1 ISZERO PUSH2 0x36C JUMPI PUSH1 0x0 DUP1 REVERT JUMPDEST POP PUSH2 0x387 PUSH1 0x4 DUP1 CALLDATASIZE SUB DUP2 ADD SWAP1 PUSH2 0x382 SWAP2 SWAP1 PUSH2 0x147F JUMP JUMPDEST PUSH2 0x93C JUMP JUMPDEST PUSH1 0x40 MLOAD PUSH2 0x394 SWAP2 SWAP1 PUSH2 0x1707 JUMP JUMPDEST PUSH1 0x40 MLOAD DUP1 SWAP2 SUB SWAP1 RETURN JUMPDEST CALLVALUE DUP1 ISZERO PUSH2 0x3A9 JUMPI PUSH1 0x0 DUP1 REVERT JUMPDEST POP PUSH2 0x3C4 PUSH1 0x4 DUP1 CALLDATASIZE SUB DUP2 ADD SWAP1 PUSH2 0x3BF SWAP2 SWAP1 PUSH2 0x147F JUMP JUMPDEST PUSH2 0xA26 JUMP JUMPDEST PUSH1 0x40 MLOAD PUSH2 0x3D1 SWAP2 SWAP1 PUSH2 0x1707 JUMP JUMPDEST PUSH1 0x40 MLOAD DUP1 SWAP2 SUB SWAP1 RETURN JUMPDEST CALLVALUE DUP1 ISZERO PUSH2 0x3E6 JUMPI PUSH1 0x0 DUP1 REVERT JUMPDEST POP PUSH2 0x3EF PUSH2 0xA49 JUMP JUMPDEST PUSH1 0x40 MLOAD PUSH2 0x3FC SWAP2 SWAP1 PUSH2 0x18A4 JUMP JUMPDEST PUSH1 0x40 MLOAD DUP1 SWAP2 SUB SWAP1 RETURN JUMPDEST CALLVALUE DUP1 ISZERO PUSH2 0x411 JUMPI PUSH1 0x0 DUP1 REVERT JUMPDEST POP PUSH2 0x42C PUSH1 0x4 DUP1 CALLDATASIZE SUB DUP2 ADD SWAP1 PUSH2 0x427 SWAP2 SWAP1 PUSH2 0x13EC JUMP JUMPDEST PUSH2 0xB06 JUMP JUMPDEST PUSH1 0x40 MLOAD PUSH2 0x439 SWAP2 SWAP1 PUSH2 0x18A4 JUMP JUMPDEST PUSH1 0x40 MLOAD DUP1 SWAP2 SUB SWAP1 RETURN JUMPDEST CALLVALUE DUP1 ISZERO PUSH2 0x44E JUMPI PUSH1 0x0 DUP1 REVERT JUMPDEST POP PUSH2 0x469 PUSH1 0x4 DUP1 CALLDATASIZE SUB DUP2 ADD SWAP1 PUSH2 0x464 SWAP2 SWAP1 PUSH2 0x13BF JUMP JUMPDEST PUSH2 0xB8D JUMP JUMPDEST STOP JUMPDEST PUSH1 0x60 PUSH1 0x3 DUP1 SLOAD PUSH2 0x47A SWAP1 PUSH2 0x1A05 JUMP JUMPDEST DUP1 PUSH1 0x1F ADD PUSH1 0x20 DUP1 SWAP2 DIV MUL PUSH1 0x20 ADD PUSH1 0x40 MLOAD SWAP1 DUP2 ADD PUSH1 0x40 MSTORE DUP1 SWAP3 SWAP2 SWAP1 DUP2 DUP2 MSTORE PUSH1 0x20 ADD DUP3 DUP1 SLOAD PUSH2 0x4A6 SWAP1 PUSH2 0x1A05 JUMP JUMPDEST DUP1 ISZERO PUSH2 0x4F3 JUMPI DUP1 PUSH1 0x1F LT PUSH2 0x4C8 JUMPI PUSH2 0x100 DUP1 DUP4 SLOAD DIV MUL DUP4 MSTORE SWAP2 PUSH1 0x20 ADD SWAP2 PUSH2 0x4F3 JUMP JUMPDEST DUP3 ADD SWAP2 SWAP1 PUSH1 0x0 MSTORE PUSH1 0x20 PUSH1 0x0 KECCAK256 SWAP1 JUMPDEST DUP2 SLOAD DUP2 MSTORE SWAP1 PUSH1 0x1 ADD SWAP1 PUSH1 0x20 ADD DUP1 DUP4 GT PUSH2 0x4D6 JUMPI DUP3 SWAP1 SUB PUSH1 0x1F AND DUP3 ADD SWAP2 JUMPDEST POP POP POP POP POP SWAP1 POP SWAP1 JUMP JUMPDEST PUSH1 0x0 DUP1 PUSH2 0x508 PUSH2 0xC85 JUMP JUMPDEST SWAP1 POP PUSH2 0x515 DUP2 DUP6 DUP6 PUSH2 0xC8D JUMP JUMPDEST PUSH1 0x1 SWAP2 POP POP SWAP3 SWAP2 POP POP JUMP JUMPDEST PUSH1 0x0 PUSH1 0x2 SLOAD SWAP1 POP SWAP1 JUMP JUMPDEST PUSH1 0x0 DUP1 PUSH2 0x535 PUSH2 0xC85 JUMP JUMPDEST SWAP1 POP PUSH2 0x542 DUP6 DUP3 DUP6 PUSH2 0xE58 JUMP JUMPDEST PUSH2 0x54D DUP6 DUP6 DUP6 PUSH2 0xEE4 JUMP JUMPDEST PUSH1 0x1 SWAP2 POP POP SWAP4 SWAP3 POP POP POP JUMP JUMPDEST PUSH1 0x8 SLOAD DUP2 JUMP JUMPDEST PUSH1 0x0 PUSH1 0x12 SWAP1 POP SWAP1 JUMP JUMPDEST PUSH1 0x0 DUP1 PUSH2 0x573 PUSH2 0xC85 JUMP JUMPDEST SWAP1 POP PUSH2 0x607 DUP2 DUP6 DUP6 PUSH1 0x1 PUSH1 0x0 DUP7 PUSH20 0xFFFFFFFFFFFFFFFFFFFFFFFFFFFFFFFFFFFFFFFF AND PUSH20 0xFFFFFFFFFFFFFFFFFFFFFFFFFFFFFFFFFFFFFFFF AND DUP2 MSTORE PUSH1 0x20 ADD SWAP1 DUP2 MSTORE PUSH1 0x20 ADD PUSH1 0x0 KECCAK256 PUSH1 0x0 DUP10 PUSH20 0xFFFFFFFFFFFFFFFFFFFFFFFFFFFFFFFFFFFFFFFF AND PUSH20 0xFFFFFFFFFFFFFFFFFFFFFFFFFFFFFFFFFFFFFFFF AND DUP2 MSTORE PUSH1 0x20 ADD SWAP1 DUP2 MSTORE PUSH1 0x20 ADD PUSH1 0x0 KECCAK256 SLOAD PUSH2 0x602 SWAP2 SWAP1 PUSH2 0x18F6 JUMP JUMPDEST PUSH2 0xC8D JUMP JUMPDEST PUSH1 0x1 SWAP2 POP POP SWAP3 SWAP2 POP POP JUMP JUMPDEST PUSH2 0x61A PUSH2 0xC85 JUMP JUMPDEST PUSH20 0xFFFFFFFFFFFFFFFFFFFFFFFFFFFFFFFFFFFFFFFF AND PUSH2 0x638 PUSH2 0x880 JUMP JUMPDEST PUSH20 0xFFFFFFFFFFFFFFFFFFFFFFFFFFFFFFFFFFFFFFFF AND EQ PUSH2 0x68E JUMPI PUSH1 0x40 MLOAD PUSH32 0x8C379A000000000000000000000000000000000000000000000000000000000 DUP2 MSTORE PUSH1 0x4 ADD PUSH2 0x685 SWAP1 PUSH2 0x1804 JUMP JUMPDEST PUSH1 0x40 MLOAD DUP1 SWAP2 SUB SWAP1 REVERT JUMPDEST PUSH2 0x698 DUP3 DUP3 PUSH2 0x1165 JUMP JUMPDEST POP POP JUMP JUMPDEST PUSH1 0x0 DUP1 PUSH1 0x0 DUP4 PUSH20 0xFFFFFFFFFFFFFFFFFFFFFFFFFFFFFFFFFFFFFFFF AND PUSH20 0xFFFFFFFFFFFFFFFFFFFFFFFFFFFFFFFFFFFFFFFF AND DUP2 MSTORE PUSH1 0x20 ADD SWAP1 DUP2 MSTORE PUSH1 0x20 ADD PUSH1 0x0 KECCAK256 SLOAD SWAP1 POP SWAP2 SWAP1 POP JUMP JUMPDEST PUSH2 0x6EC PUSH2 0xC85 JUMP JUMPDEST PUSH20 0xFFFFFFFFFFFFFFFFFFFFFFFFFFFFFFFFFFFFFFFF AND PUSH2 0x70A PUSH2 0x880 JUMP JUMPDEST PUSH20 0xFFFFFFFFFFFFFFFFFFFFFFFFFFFFFFFFFFFFFFFF AND EQ PUSH2 0x760 JUMPI PUSH1 0x40 MLOAD PUSH32 0x8C379A000000000000000000000000000000000000000000000000000000000 DUP2 MSTORE PUSH1 0x4 ADD PUSH2 0x757 SWAP1 PUSH2 0x1804 JUMP JUMPDEST PUSH1 0x40 MLOAD DUP1 SWAP2 SUB SWAP1 REVERT JUMPDEST PUSH2 0x76A PUSH1 0x0 PUSH2 0x12C5 JUMP JUMPDEST JUMP JUMPDEST PUSH8 0xDE0B6B3A7640000 CALLVALUE LT ISZERO PUSH2 0x7B7 JUMPI PUSH1 0x40 MLOAD PUSH32 0x8C379A000000000000000000000000000000000000000000000000000000000 DUP2 MSTORE PUSH1 0x4 ADD PUSH2 0x7AE SWAP1 PUSH2 0x17A4 JUMP JUMPDEST PUSH1 0x40 MLOAD DUP1 SWAP2 SUB SWAP1 REVERT JUMPDEST PUSH1 0x6 PUSH1 0x0 SWAP1 SLOAD SWAP1 PUSH2 0x100 EXP SWAP1 DIV PUSH20 0xFFFFFFFFFFFFFFFFFFFFFFFFFFFFFFFFFFFFFFFF AND PUSH20 0xFFFFFFFFFFFFFFFFFFFFFFFFFFFFFFFFFFFFFFFF AND PUSH2 0x8FC CALLVALUE SWAP1 DUP2 ISZERO MUL SWAP1 PUSH1 0x40 MLOAD PUSH1 0x0 PUSH1 0x40 MLOAD DUP1 DUP4 SUB DUP2 DUP6 DUP9 DUP9 CALL SWAP4 POP POP POP POP ISZERO DUP1 ISZERO PUSH2 0x81F JUMPI RETURNDATASIZE PUSH1 0x0 DUP1 RETURNDATACOPY RETURNDATASIZE PUSH1 0x0 REVERT JUMPDEST POP PUSH1 0x0 PUSH7 0x38D7EA4C68000 CALLVALUE PUSH2 0x835 SWAP2 SWAP1 PUSH2 0x194C JUMP JUMPDEST SWAP1 POP PUSH2 0x841 DUP3 DUP3 PUSH2 0x1165 JUMP JUMPDEST PUSH32 0xF7684C931F3F1274FFA9E57BFDF5D3D86BF171875CEA6A11B5FA6C1C889A1D12 CALLER DUP4 DUP4 PUSH1 0x40 MLOAD PUSH2 0x874 SWAP4 SWAP3 SWAP2 SWAP1 PUSH2 0x16D0 JUMP JUMPDEST PUSH1 0x40 MLOAD DUP1 SWAP2 SUB SWAP1 LOG1 POP POP JUMP JUMPDEST PUSH1 0x0 PUSH1 0x5 PUSH1 0x0 SWAP1 SLOAD SWAP1 PUSH2 0x100 EXP SWAP1 DIV PUSH20 0xFFFFFFFFFFFFFFFFFFFFFFFFFFFFFFFFFFFFFFFF AND SWAP1 POP SWAP1 JUMP JUMPDEST PUSH1 0x60 PUSH1 0x4 DUP1 SLOAD PUSH2 0x8B9 SWAP1 PUSH2 0x1A05 JUMP JUMPDEST DUP1 PUSH1 0x1F ADD PUSH1 0x20 DUP1 SWAP2 DIV MUL PUSH1 0x20 ADD PUSH1 0x40 MLOAD SWAP1 DUP2 ADD PUSH1 0x40 MSTORE DUP1 SWAP3 SWAP2 SWAP1 DUP2 DUP2 MSTORE PUSH1 0x20 ADD DUP3 DUP1 SLOAD PUSH2 0x8E5 SWAP1 PUSH2 0x1A05 JUMP JUMPDEST DUP1 ISZERO PUSH2 0x932 JUMPI DUP1 PUSH1 0x1F LT PUSH2 0x907 JUMPI PUSH2 0x100 DUP1 DUP4 SLOAD DIV MUL DUP4 MSTORE SWAP2 PUSH1 0x20 ADD SWAP2 PUSH2 0x932 JUMP JUMPDEST DUP3 ADD SWAP2 SWAP1 PUSH1 0x0 MSTORE PUSH1 0x20 PUSH1 0x0 KECCAK256 SWAP1 JUMPDEST DUP2 SLOAD DUP2 MSTORE SWAP1 PUSH1 0x1 ADD SWAP1 PUSH1 0x20 ADD DUP1 DUP4 GT PUSH2 0x915 JUMPI DUP3 SWAP1 SUB PUSH1 0x1F AND DUP3 ADD SWAP2 JUMPDEST POP POP POP POP POP SWAP1 POP SWAP1 JUMP JUMPDEST PUSH1 0x0 DUP1 PUSH2 0x947 PUSH2 0xC85 JUMP JUMPDEST SWAP1 POP PUSH1 0x0 PUSH1 0x1 PUSH1 0x0 DUP4 PUSH20 0xFFFFFFFFFFFFFFFFFFFFFFFFFFFFFFFFFFFFFFFF AND PUSH20 0xFFFFFFFFFFFFFFFFFFFFFFFFFFFFFFFFFFFFFFFF AND DUP2 MSTORE PUSH1 0x20 ADD SWAP1 DUP2 MSTORE PUSH1 0x20 ADD PUSH1 0x0 KECCAK256 PUSH1 0x0 DUP7 PUSH20 0xFFFFFFFFFFFFFFFFFFFFFFFFFFFFFFFFFFFFFFFF AND PUSH20 0xFFFFFFFFFFFFFFFFFFFFFFFFFFFFFFFFFFFFFFFF AND DUP2 MSTORE PUSH1 0x20 ADD SWAP1 DUP2 MSTORE PUSH1 0x20 ADD PUSH1 0x0 KECCAK256 SLOAD SWAP1 POP DUP4 DUP2 LT ISZERO PUSH2 0xA0D JUMPI PUSH1 0x40 MLOAD PUSH32 0x8C379A000000000000000000000000000000000000000000000000000000000 DUP2 MSTORE PUSH1 0x4 ADD PUSH2 0xA04 SWAP1 PUSH2 0x1864 JUMP JUMPDEST PUSH1 0x40 MLOAD DUP1 SWAP2 SUB SWAP1 REVERT JUMPDEST PUSH2 0xA1A DUP3 DUP7 DUP7 DUP5 SUB PUSH2 0xC8D JUMP JUMPDEST PUSH1 0x1 SWAP3 POP POP POP SWAP3 SWAP2 POP POP JUMP JUMPDEST PUSH1 0x0 DUP1 PUSH2 0xA31 PUSH2 0xC85 JUMP JUMPDEST SWAP1 POP PUSH2 0xA3E DUP2 DUP6 DUP6 PUSH2 0xEE4 JUMP JUMPDEST PUSH1 0x1 SWAP2 POP POP SWAP3 SWAP2 POP POP JUMP JUMPDEST PUSH1 0x0 PUSH2 0xA53 PUSH2 0xC85 JUMP JUMPDEST PUSH20 0xFFFFFFFFFFFFFFFFFFFFFFFFFFFFFFFFFFFFFFFF AND PUSH2 0xA71 PUSH2 0x880 JUMP JUMPDEST PUSH20 0xFFFFFFFFFFFFFFFFFFFFFFFFFFFFFFFFFFFFFFFF AND EQ PUSH2 0xAC7 JUMPI PUSH1 0x40 MLOAD PUSH32 0x8C379A000000000000000000000000000000000000000000000000000000000 DUP2 MSTORE PUSH1 0x4 ADD PUSH2 0xABE SWAP1 PUSH2 0x1804 JUMP JUMPDEST PUSH1 0x40 MLOAD DUP1 SWAP2 SUB SWAP1 REVERT JUMPDEST PUSH1 0x6 PUSH1 0x0 SWAP1 SLOAD SWAP1 PUSH2 0x100 EXP SWAP1 DIV PUSH20 0xFFFFFFFFFFFFFFFFFFFFFFFFFFFFFFFFFFFFFFFF AND PUSH20 0xFFFFFFFFFFFFFFFFFFFFFFFFFFFFFFFFFFFFFFFF AND BALANCE SWAP1 POP SWAP1 JUMP JUMPDEST PUSH1 0x0 PUSH1 0x1 PUSH1 0x0 DUP5 PUSH20 0xFFFFFFFFFFFFFFFFFFFFFFFFFFFFFFFFFFFFFFFF AND PUSH20 0xFFFFFFFFFFFFFFFFFFFFFFFFFFFFFFFFFFFFFFFF AND DUP2 MSTORE PUSH1 0x20 ADD SWAP1 DUP2 MSTORE PUSH1 0x20 ADD PUSH1 0x0 KECCAK256 PUSH1 0x0 DUP4 PUSH20 0xFFFFFFFFFFFFFFFFFFFFFFFFFFFFFFFFFFFFFFFF AND PUSH20 0xFFFFFFFFFFFFFFFFFFFFFFFFFFFFFFFFFFFFFFFF AND DUP2 MSTORE PUSH1 0x20 ADD SWAP1 DUP2 MSTORE PUSH1 0x20 ADD PUSH1 0x0 KECCAK256 SLOAD SWAP1 POP SWAP3 SWAP2 POP POP JUMP JUMPDEST PUSH2 0xB95 PUSH2 0xC85 JUMP JUMPDEST PUSH20 0xFFFFFFFFFFFFFFFFFFFFFFFFFFFFFFFFFFFFFFFF AND PUSH2 0xBB3 PUSH2 0x880 JUMP JUMPDEST PUSH20 0xFFFFFFFFFFFFFFFFFFFFFFFFFFFFFFFFFFFFFFFF AND EQ PUSH2 0xC09 JUMPI PUSH1 0x40 MLOAD PUSH32 0x8C379A000000000000000000000000000000000000000000000000000000000 DUP2 MSTORE PUSH1 0x4 ADD PUSH2 0xC00 SWAP1 PUSH2 0x1804 JUMP JUMPDEST PUSH1 0x40 MLOAD DUP1 SWAP2 SUB SWAP1 REVERT JUMPDEST PUSH1 0x0 PUSH20 0xFFFFFFFFFFFFFFFFFFFFFFFFFFFFFFFFFFFFFFFF AND DUP2 PUSH20 0xFFFFFFFFFFFFFFFFFFFFFFFFFFFFFFFFFFFFFFFF AND EQ ISZERO PUSH2 0xC79 JUMPI PUSH1 0x40 MLOAD PUSH32 0x8C379A000000000000000000000000000000000000000000000000000000000 DUP2 MSTORE PUSH1 0x4 ADD PUSH2 0xC70 SWAP1 PUSH2 0x1764 JUMP JUMPDEST PUSH1 0x40 MLOAD DUP1 SWAP2 SUB SWAP1 REVERT JUMPDEST PUSH2 0xC82 DUP2 PUSH2 0x12C5 JUMP JUMPDEST POP JUMP JUMPDEST PUSH1 0x0 CALLER SWAP1 POP SWAP1 JUMP JUMPDEST PUSH1 0x0 PUSH20 0xFFFFFFFFFFFFFFFFFFFFFFFFFFFFFFFFFFFFFFFF AND DUP4 PUSH20 0xFFFFFFFFFFFFFFFFFFFFFFFFFFFFFFFFFFFFFFFF AND EQ ISZERO PUSH2 0xCFD JUMPI PUSH1 0x40 MLOAD PUSH32 0x8C379A000000000000000000000000000000000000000000000000000000000 DUP2 MSTORE PUSH1 0x4 ADD PUSH2 0xCF4 SWAP1 PUSH2 0x1844 JUMP JUMPDEST PUSH1 0x40 MLOAD DUP1 SWAP2 SUB SWAP1 REVERT JUMPDEST PUSH1 0x0 PUSH20 0xFFFFFFFFFFFFFFFFFFFFFFFFFFFFFFFFFFFFFFFF AND DUP3 PUSH20 0xFFFFFFFFFFFFFFFFFFFFFFFFFFFFFFFFFFFFFFFF AND EQ ISZERO PUSH2 0xD6D JUMPI PUSH1 0x40 MLOAD PUSH32 0x8C379A000000000000000000000000000000000000000000000000000000000 DUP2 MSTORE PUSH1 0x4 ADD PUSH2 0xD64 SWAP1 PUSH2 0x1784 JUMP JUMPDEST PUSH1 0x40 MLOAD DUP1 SWAP2 SUB SWAP1 REVERT JUMPDEST DUP1 PUSH1 0x1 PUSH1 0x0 DUP6 PUSH20 0xFFFFFFFFFFFFFFFFFFFFFFFFFFFFFFFFFFFFFFFF AND PUSH20 0xFFFFFFFFFFFFFFFFFFFFFFFFFFFFFFFFFFFFFFFF AND DUP2 MSTORE PUSH1 0x20 ADD SWAP1 DUP2 MSTORE PUSH1 0x20 ADD PUSH1 0x0 KECCAK256 PUSH1 0x0 DUP5 PUSH20 0xFFFFFFFFFFFFFFFFFFFFFFFFFFFFFFFFFFFFFFFF AND PUSH20 0xFFFFFFFFFFFFFFFFFFFFFFFFFFFFFFFFFFFFFFFF AND DUP2 MSTORE PUSH1 0x20 ADD SWAP1 DUP2 MSTORE PUSH1 0x20 ADD PUSH1 0x0 KECCAK256 DUP2 SWAP1 SSTORE POP DUP2 PUSH20 0xFFFFFFFFFFFFFFFFFFFFFFFFFFFFFFFFFFFFFFFF AND DUP4 PUSH20 0xFFFFFFFFFFFFFFFFFFFFFFFFFFFFFFFFFFFFFFFF AND PUSH32 0x8C5BE1E5EBEC7D5BD14F71427D1E84F3DD0314C0F7B2291E5B200AC8C7C3B925 DUP4 PUSH1 0x40 MLOAD PUSH2 0xE4B SWAP2 SWAP1 PUSH2 0x18A4 JUMP JUMPDEST PUSH1 0x40 MLOAD DUP1 SWAP2 SUB SWAP1 LOG3 POP POP POP JUMP JUMPDEST PUSH1 0x0 PUSH2 0xE64 DUP5 DUP5 PUSH2 0xB06 JUMP JUMPDEST SWAP1 POP PUSH32 0xFFFFFFFFFFFFFFFFFFFFFFFFFFFFFFFFFFFFFFFFFFFFFFFFFFFFFFFFFFFFFFFF DUP2 EQ PUSH2 0xEDE JUMPI DUP2 DUP2 LT ISZERO PUSH2 0xED0 JUMPI PUSH1 0x40 MLOAD PUSH32 0x8C379A000000000000000000000000000000000000000000000000000000000 DUP2 MSTORE PUSH1 0x4 ADD PUSH2 0xEC7 SWAP1 PUSH2 0x17C4 JUMP JUMPDEST PUSH1 0x40 MLOAD DUP1 SWAP2 SUB SWAP1 REVERT JUMPDEST PUSH2 0xEDD DUP5 DUP5 DUP5 DUP5 SUB PUSH2 0xC8D JUMP JUMPDEST JUMPDEST POP POP POP POP JUMP JUMPDEST PUSH1 0x0 PUSH20 0xFFFFFFFFFFFFFFFFFFFFFFFFFFFFFFFFFFFFFFFF AND DUP4 PUSH20 0xFFFFFFFFFFFFFFFFFFFFFFFFFFFFFFFFFFFFFFFF AND EQ ISZERO PUSH2 0xF54 JUMPI PUSH1 0x40 MLOAD PUSH32 0x8C379A000000000000000000000000000000000000000000000000000000000 DUP2 MSTORE PUSH1 0x4 ADD PUSH2 0xF4B SWAP1 PUSH2 0x1824 JUMP JUMPDEST PUSH1 0x40 MLOAD DUP1 SWAP2 SUB SWAP1 REVERT JUMPDEST PUSH1 0x0 PUSH20 0xFFFFFFFFFFFFFFFFFFFFFFFFFFFFFFFFFFFFFFFF AND DUP3 PUSH20 0xFFFFFFFFFFFFFFFFFFFFFFFFFFFFFFFFFFFFFFFF AND EQ ISZERO PUSH2 0xFC4 JUMPI PUSH1 0x40 MLOAD PUSH32 0x8C379A000000000000000000000000000000000000000000000000000000000 DUP2 MSTORE PUSH1 0x4 ADD PUSH2 0xFBB SWAP1 PUSH2 0x1744 JUMP JUMPDEST PUSH1 0x40 MLOAD DUP1 SWAP2 SUB SWAP1 REVERT JUMPDEST PUSH2 0xFCF DUP4 DUP4 DUP4 PUSH2 0x138B JUMP JUMPDEST PUSH1 0x0 DUP1 PUSH1 0x0 DUP6 PUSH20 0xFFFFFFFFFFFFFFFFFFFFFFFFFFFFFFFFFFFFFFFF AND PUSH20 0xFFFFFFFFFFFFFFFFFFFFFFFFFFFFFFFFFFFFFFFF AND DUP2 MSTORE PUSH1 0x20 ADD SWAP1 DUP2 MSTORE PUSH1 0x20 ADD PUSH1 0x0 KECCAK256 SLOAD SWAP1 POP DUP2 DUP2 LT ISZERO PUSH2 0x1055 JUMPI PUSH1 0x40 MLOAD PUSH32 0x8C379A000000000000000000000000000000000000000000000000000000000 DUP2 MSTORE PUSH1 0x4 ADD PUSH2 0x104C SWAP1 PUSH2 0x17E4 JUMP JUMPDEST PUSH1 0x40 MLOAD DUP1 SWAP2 SUB SWAP1 REVERT JUMPDEST DUP2 DUP2 SUB PUSH1 0x0 DUP1 DUP7 PUSH20 0xFFFFFFFFFFFFFFFFFFFFFFFFFFFFFFFFFFFFFFFF AND PUSH20 0xFFFFFFFFFFFFFFFFFFFFFFFFFFFFFFFFFFFFFFFF AND DUP2 MSTORE PUSH1 0x20 ADD SWAP1 DUP2 MSTORE PUSH1 0x20 ADD PUSH1 0x0 KECCAK256 DUP2 SWAP1 SSTORE POP DUP2 PUSH1 0x0 DUP1 DUP6 PUSH20 0xFFFFFFFFFFFFFFFFFFFFFFFFFFFFFFFFFFFFFFFF AND PUSH20 0xFFFFFFFFFFFFFFFFFFFFFFFFFFFFFFFFFFFFFFFF AND DUP2 MSTORE PUSH1 0x20 ADD SWAP1 DUP2 MSTORE PUSH1 0x20 ADD PUSH1 0x0 KECCAK256 PUSH1 0x0 DUP3 DUP3 SLOAD PUSH2 0x10E8 SWAP2 SWAP1 PUSH2 0x18F6 JUMP JUMPDEST SWAP3 POP POP DUP2 SWAP1 SSTORE POP DUP3 PUSH20 0xFFFFFFFFFFFFFFFFFFFFFFFFFFFFFFFFFFFFFFFF AND DUP5 PUSH20 0xFFFFFFFFFFFFFFFFFFFFFFFFFFFFFFFFFFFFFFFF AND PUSH32 0xDDF252AD1BE2C89B69C2B068FC378DAA952BA7F163C4A11628F55A4DF523B3EF DUP5 PUSH1 0x40 MLOAD PUSH2 0x114C SWAP2 SWAP1 PUSH2 0x18A4 JUMP JUMPDEST PUSH1 0x40 MLOAD DUP1 SWAP2 SUB SWAP1 LOG3 PUSH2 0x115F DUP5 DUP5 DUP5 PUSH2 0x1390 JUMP JUMPDEST POP POP POP POP JUMP JUMPDEST PUSH1 0x0 PUSH20 0xFFFFFFFFFFFFFFFFFFFFFFFFFFFFFFFFFFFFFFFF AND DUP3 PUSH20 0xFFFFFFFFFFFFFFFFFFFFFFFFFFFFFFFFFFFFFFFF AND EQ ISZERO PUSH2 0x11D5 JUMPI PUSH1 0x40 MLOAD PUSH32 0x8C379A000000000000000000000000000000000000000000000000000000000 DUP2 MSTORE PUSH1 0x4 ADD PUSH2 0x11CC SWAP1 PUSH2 0x1884 JUMP JUMPDEST PUSH1 0x40 MLOAD DUP1 SWAP2 SUB SWAP1 REVERT JUMPDEST PUSH2 0x11E1 PUSH1 0x0 DUP4 DUP4 PUSH2 0x138B JUMP JUMPDEST DUP1 PUSH1 0x2 PUSH1 0x0 DUP3 DUP3 SLOAD PUSH2 0x11F3 SWAP2 SWAP1 PUSH2 0x18F6 JUMP JUMPDEST SWAP3 POP POP DUP2 SWAP1 SSTORE POP DUP1 PUSH1 0x0 DUP1 DUP5 PUSH20 0xFFFFFFFFFFFFFFFFFFFFFFFFFFFFFFFFFFFFFFFF AND PUSH20 0xFFFFFFFFFFFFFFFFFFFFFFFFFFFFFFFFFFFFFFFF AND DUP2 MSTORE PUSH1 0x20 ADD SWAP1 DUP2 MSTORE PUSH1 0x20 ADD PUSH1 0x0 KECCAK256 PUSH1 0x0 DUP3 DUP3 SLOAD PUSH2 0x1248 SWAP2 SWAP1 PUSH2 0x18F6 JUMP JUMPDEST SWAP3 POP POP DUP2 SWAP1 SSTORE POP DUP2 PUSH20 0xFFFFFFFFFFFFFFFFFFFFFFFFFFFFFFFFFFFFFFFF AND PUSH1 0x0 PUSH20 0xFFFFFFFFFFFFFFFFFFFFFFFFFFFFFFFFFFFFFFFF AND PUSH32 0xDDF252AD1BE2C89B69C2B068FC378DAA952BA7F163C4A11628F55A4DF523B3EF DUP4 PUSH1 0x40 MLOAD PUSH2 0x12AD SWAP2 SWAP1 PUSH2 0x18A4 JUMP JUMPDEST PUSH1 0x40 MLOAD DUP1 SWAP2 SUB SWAP1 LOG3 PUSH2 0x12C1 PUSH1 0x0 DUP4 DUP4 PUSH2 0x1390 JUMP JUMPDEST POP POP JUMP JUMPDEST PUSH1 0x0 PUSH1 0x5 PUSH1 0x0 SWAP1 SLOAD SWAP1 PUSH2 0x100 EXP SWAP1 DIV PUSH20 0xFFFFFFFFFFFFFFFFFFFFFFFFFFFFFFFFFFFFFFFF AND SWAP1 POP DUP2 PUSH1 0x5 PUSH1 0x0 PUSH2 0x100 EXP DUP2 SLOAD DUP2 PUSH20 0xFFFFFFFFFFFFFFFFFFFFFFFFFFFFFFFFFFFFFFFF MUL NOT AND SWAP1 DUP4 PUSH20 0xFFFFFFFFFFFFFFFFFFFFFFFFFFFFFFFFFFFFFFFF AND MUL OR SWAP1 SSTORE POP DUP2 PUSH20 0xFFFFFFFFFFFFFFFFFFFFFFFFFFFFFFFFFFFFFFFF AND DUP2 PUSH20 0xFFFFFFFFFFFFFFFFFFFFFFFFFFFFFFFFFFFFFFFF AND PUSH32 0x8BE0079C531659141344CD1FD0A4F28419497F9722A3DAAFE3B4186F6B6457E0 PUSH1 0x40 MLOAD PUSH1 0x40 MLOAD DUP1 SWAP2 SUB SWAP1 LOG3 POP POP JUMP JUMPDEST POP POP POP JUMP JUMPDEST POP POP POP JUMP JUMPDEST PUSH1 0x0 DUP2 CALLDATALOAD SWAP1 POP PUSH2 0x13A4 DUP2 PUSH2 0x1DA7 JUMP JUMPDEST SWAP3 SWAP2 POP POP JUMP JUMPDEST PUSH1 0x0 DUP2 CALLDATALOAD SWAP1 POP PUSH2 0x13B9 DUP2 PUSH2 0x1DBE JUMP JUMPDEST SWAP3 SWAP2 POP POP JUMP JUMPDEST PUSH1 0x0 PUSH1 0x20 DUP3 DUP5 SUB SLT ISZERO PUSH2 0x13D5 JUMPI PUSH2 0x13D4 PUSH2 0x1AC4 JUMP JUMPDEST JUMPDEST PUSH1 0x0 PUSH2 0x13E3 DUP5 DUP3 DUP6 ADD PUSH2 0x1395 JUMP JUMPDEST SWAP2 POP POP SWAP3 SWAP2 POP POP JUMP JUMPDEST PUSH1 0x0 DUP1 PUSH1 0x40 DUP4 DUP6 SUB SLT ISZERO PUSH2 0x1403 JUMPI PUSH2 0x1402 PUSH2 0x1AC4 JUMP JUMPDEST JUMPDEST PUSH1 0x0 PUSH2 0x1411 DUP6 DUP3 DUP7 ADD PUSH2 0x1395 JUMP JUMPDEST SWAP3 POP POP PUSH1 0x20 PUSH2 0x1422 DUP6 DUP3 DUP7 ADD PUSH2 0x1395 JUMP JUMPDEST SWAP2 POP POP SWAP3 POP SWAP3 SWAP1 POP JUMP JUMPDEST PUSH1 0x0 DUP1 PUSH1 0x0 PUSH1 0x60 DUP5 DUP7 SUB SLT ISZERO PUSH2 0x1445 JUMPI PUSH2 0x1444 PUSH2 0x1AC4 JUMP JUMPDEST JUMPDEST PUSH1 0x0 PUSH2 0x1453 DUP7 DUP3 DUP8 ADD PUSH2 0x1395 JUMP JUMPDEST SWAP4 POP POP PUSH1 0x20 PUSH2 0x1464 DUP7 DUP3 DUP8 ADD PUSH2 0x1395 JUMP JUMPDEST SWAP3 POP POP PUSH1 0x40 PUSH2 0x1475 DUP7 DUP3 DUP8 ADD PUSH2 0x13AA JUMP JUMPDEST SWAP2 POP POP SWAP3 POP SWAP3 POP SWAP3 JUMP JUMPDEST PUSH1 0x0 DUP1 PUSH1 0x40 DUP4 DUP6 SUB SLT ISZERO PUSH2 0x1496 JUMPI PUSH2 0x1495 PUSH2 0x1AC4 JUMP JUMPDEST JUMPDEST PUSH1 0x0 PUSH2 0x14A4 DUP6 DUP3 DUP7 ADD PUSH2 0x1395 JUMP JUMPDEST SWAP3 POP POP PUSH1 0x20 PUSH2 0x14B5 DUP6 DUP3 DUP7 ADD PUSH2 0x13AA JUMP JUMPDEST SWAP2 POP POP SWAP3 POP SWAP3 SWAP1 POP JUMP JUMPDEST PUSH2 0x14C8 DUP2 PUSH2 0x197D JUMP JUMPDEST DUP3 MSTORE POP POP JUMP JUMPDEST PUSH2 0x14D7 DUP2 PUSH2 0x198F JUMP JUMPDEST DUP3 MSTORE POP POP JUMP JUMPDEST PUSH1 0x0 PUSH2 0x14E8 DUP3 PUSH2 0x18DA JUMP JUMPDEST PUSH2 0x14F2 DUP2 DUP6 PUSH2 0x18E5 JUMP JUMPDEST SWAP4 POP PUSH2 0x1502 DUP2 DUP6 PUSH1 0x20 DUP7 ADD PUSH2 0x19D2 JUMP JUMPDEST PUSH2 0x150B DUP2 PUSH2 0x1AC9 JUMP JUMPDEST DUP5 ADD SWAP2 POP POP SWAP3 SWAP2 POP POP JUMP JUMPDEST PUSH1 0x0 PUSH2 0x1523 PUSH1 0x23 DUP4 PUSH2 0x18E5 JUMP JUMPDEST SWAP2 POP PUSH2 0x152E DUP3 PUSH2 0x1ADA JUMP JUMPDEST PUSH1 0x40 DUP3 ADD SWAP1 POP SWAP2 SWAP1 POP JUMP JUMPDEST PUSH1 0x0 PUSH2 0x1546 PUSH1 0x26 DUP4 PUSH2 0x18E5 JUMP JUMPDEST SWAP2 POP PUSH2 0x1551 DUP3 PUSH2 0x1B29 JUMP JUMPDEST PUSH1 0x40 DUP3 ADD SWAP1 POP SWAP2 SWAP1 POP JUMP JUMPDEST PUSH1 0x0 PUSH2 0x1569 PUSH1 0x22 DUP4 PUSH2 0x18E5 JUMP JUMPDEST SWAP2 POP PUSH2 0x1574 DUP3 PUSH2 0x1B78 JUMP JUMPDEST PUSH1 0x40 DUP3 ADD SWAP1 POP SWAP2 SWAP1 POP JUMP JUMPDEST PUSH1 0x0 PUSH2 0x158C PUSH1 0x1B DUP4 PUSH2 0x18E5 JUMP JUMPDEST SWAP2 POP PUSH2 0x1597 DUP3 PUSH2 0x1BC7 JUMP JUMPDEST PUSH1 0x20 DUP3 ADD SWAP1 POP SWAP2 SWAP1 POP JUMP JUMPDEST PUSH1 0x0 PUSH2 0x15AF PUSH1 0x1D DUP4 PUSH2 0x18E5 JUMP JUMPDEST SWAP2 POP PUSH2 0x15BA DUP3 PUSH2 0x1BF0 JUMP JUMPDEST PUSH1 0x20 DUP3 ADD SWAP1 POP SWAP2 SWAP1 POP JUMP JUMPDEST PUSH1 0x0 PUSH2 0x15D2 PUSH1 0x26 DUP4 PUSH2 0x18E5 JUMP JUMPDEST SWAP2 POP PUSH2 0x15DD DUP3 PUSH2 0x1C19 JUMP JUMPDEST PUSH1 0x40 DUP3 ADD SWAP1 POP SWAP2 SWAP1 POP JUMP JUMPDEST PUSH1 0x0 PUSH2 0x15F5 PUSH1 0x20 DUP4 PUSH2 0x18E5 JUMP JUMPDEST SWAP2 POP PUSH2 0x1600 DUP3 PUSH2 0x1C68 JUMP JUMPDEST PUSH1 0x20 DUP3 ADD SWAP1 POP SWAP2 SWAP1 POP JUMP JUMPDEST PUSH1 0x0 PUSH2 0x1618 PUSH1 0x25 DUP4 PUSH2 0x18E5 JUMP JUMPDEST SWAP2 POP PUSH2 0x1623 DUP3 PUSH2 0x1C91 JUMP JUMPDEST PUSH1 0x40 DUP3 ADD SWAP1 POP SWAP2 SWAP1 POP JUMP JUMPDEST PUSH1 0x0 PUSH2 0x163B PUSH1 0x24 DUP4 PUSH2 0x18E5 JUMP JUMPDEST SWAP2 POP PUSH2 0x1646 DUP3 PUSH2 0x1CE0 JUMP JUMPDEST PUSH1 0x40 DUP3 ADD SWAP1 POP SWAP2 SWAP1 POP JUMP JUMPDEST PUSH1 0x0 PUSH2 0x165E PUSH1 0x25 DUP4 PUSH2 0x18E5 JUMP JUMPDEST SWAP2 POP PUSH2 0x1669 DUP3 PUSH2 0x1D2F JUMP JUMPDEST PUSH1 0x40 DUP3 ADD SWAP1 POP SWAP2 SWAP1 POP JUMP JUMPDEST PUSH1 0x0 PUSH2 0x1681 PUSH1 0x1F DUP4 PUSH2 0x18E5 JUMP JUMPDEST SWAP2 POP PUSH2 0x168C DUP3 PUSH2 0x1D7E JUMP JUMPDEST PUSH1 0x20 DUP3 ADD SWAP1 POP SWAP2 SWAP1 POP JUMP JUMPDEST PUSH2 0x16A0 DUP2 PUSH2 0x19BB JUMP JUMPDEST DUP3 MSTORE POP POP JUMP JUMPDEST PUSH2 0x16AF DUP2 PUSH2 0x19C5 JUMP JUMPDEST DUP3 MSTORE POP POP JUMP JUMPDEST PUSH1 0x0 PUSH1 0x20 DUP3 ADD SWAP1 POP PUSH2 0x16CA PUSH1 0x0 DUP4 ADD DUP5 PUSH2 0x14BF JUMP JUMPDEST SWAP3 SWAP2 POP POP JUMP JUMPDEST PUSH1 0x0 PUSH1 0x60 DUP3 ADD SWAP1 POP PUSH2 0x16E5 PUSH1 0x0 DUP4 ADD DUP7 PUSH2 0x14BF JUMP JUMPDEST PUSH2 0x16F2 PUSH1 0x20 DUP4 ADD DUP6 PUSH2 0x14BF JUMP JUMPDEST PUSH2 0x16FF PUSH1 0x40 DUP4 ADD DUP5 PUSH2 0x1697 JUMP JUMPDEST SWAP5 SWAP4 POP POP POP POP JUMP JUMPDEST PUSH1 0x0 PUSH1 0x20 DUP3 ADD SWAP1 POP PUSH2 0x171C PUSH1 0x0 DUP4 ADD DUP5 PUSH2 0x14CE JUMP JUMPDEST SWAP3 SWAP2 POP POP JUMP JUMPDEST PUSH1 0x0 PUSH1 0x20 DUP3 ADD SWAP1 POP DUP2 DUP2 SUB PUSH1 0x0 DUP4 ADD MSTORE PUSH2 0x173C DUP2 DUP5 PUSH2 0x14DD JUMP JUMPDEST SWAP1 POP SWAP3 SWAP2 POP POP JUMP JUMPDEST PUSH1 0x0 PUSH1 0x20 DUP3 ADD SWAP1 POP DUP2 DUP2 SUB PUSH1 0x0 DUP4 ADD MSTORE PUSH2 0x175D DUP2 PUSH2 0x1516 JUMP JUMPDEST SWAP1 POP SWAP2 SWAP1 POP JUMP JUMPDEST PUSH1 0x0 PUSH1 0x20 DUP3 ADD SWAP1 POP DUP2 DUP2 SUB PUSH1 0x0 DUP4 ADD MSTORE PUSH2 0x177D DUP2 PUSH2 0x1539 JUMP JUMPDEST SWAP1 POP SWAP2 SWAP1 POP JUMP JUMPDEST PUSH1 0x0 PUSH1 0x20 DUP3 ADD SWAP1 POP DUP2 DUP2 SUB PUSH1 0x0 DUP4 ADD MSTORE PUSH2 0x179D DUP2 PUSH2 0x155C JUMP JUMPDEST SWAP1 POP SWAP2 SWAP1 POP JUMP JUMPDEST PUSH1 0x0 PUSH1 0x20 DUP3 ADD SWAP1 POP DUP2 DUP2 SUB PUSH1 0x0 DUP4 ADD MSTORE PUSH2 0x17BD DUP2 PUSH2 0x157F JUMP JUMPDEST SWAP1 POP SWAP2 SWAP1 POP JUMP JUMPDEST PUSH1 0x0 PUSH1 0x20 DUP3 ADD SWAP1 POP DUP2 DUP2 SUB PUSH1 0x0 DUP4 ADD MSTORE PUSH2 0x17DD DUP2 PUSH2 0x15A2 JUMP JUMPDEST SWAP1 POP SWAP2 SWAP1 POP JUMP JUMPDEST PUSH1 0x0 PUSH1 0x20 DUP3 ADD SWAP1 POP DUP2 DUP2 SUB PUSH1 0x0 DUP4 ADD MSTORE PUSH2 0x17FD DUP2 PUSH2 0x15C5 JUMP JUMPDEST SWAP1 POP SWAP2 SWAP1 POP JUMP JUMPDEST PUSH1 0x0 PUSH1 0x20 DUP3 ADD SWAP1 POP DUP2 DUP2 SUB PUSH1 0x0 DUP4 ADD MSTORE PUSH2 0x181D DUP2 PUSH2 0x15E8 JUMP JUMPDEST SWAP1 POP SWAP2 SWAP1 POP JUMP JUMPDEST PUSH1 0x0 PUSH1 0x20 DUP3 ADD SWAP1 POP DUP2 DUP2 SUB PUSH1 0x0 DUP4 ADD MSTORE PUSH2 0x183D DUP2 PUSH2 0x160B JUMP JUMPDEST SWAP1 POP SWAP2 SWAP1 POP JUMP JUMPDEST PUSH1 0x0 PUSH1 0x20 DUP3 ADD SWAP1 POP DUP2 DUP2 SUB PUSH1 0x0 DUP4 ADD MSTORE PUSH2 0x185D DUP2 PUSH2 0x162E JUMP JUMPDEST SWAP1 POP SWAP2 SWAP1 POP JUMP JUMPDEST PUSH1 0x0 PUSH1 0x20 DUP3 ADD SWAP1 POP DUP2 DUP2 SUB PUSH1 0x0 DUP4 ADD MSTORE PUSH2 0x187D DUP2 PUSH2 0x1651 JUMP JUMPDEST SWAP1 POP SWAP2 SWAP1 POP JUMP JUMPDEST PUSH1 0x0 PUSH1 0x20 DUP3 ADD SWAP1 POP DUP2 DUP2 SUB PUSH1 0x0 DUP4 ADD MSTORE PUSH2 0x189D DUP2 PUSH2 0x1674 JUMP JUMPDEST SWAP1 POP SWAP2 SWAP1 POP JUMP JUMPDEST PUSH1 0x0 PUSH1 0x20 DUP3 ADD SWAP1 POP PUSH2 0x18B9 PUSH1 0x0 DUP4 ADD DUP5 PUSH2 0x1697 JUMP JUMPDEST SWAP3 SWAP2 POP POP JUMP JUMPDEST PUSH1 0x0 PUSH1 0x20 DUP3 ADD SWAP1 POP PUSH2 0x18D4 PUSH1 0x0 DUP4 ADD DUP5 PUSH2 0x16A6 JUMP JUMPDEST SWAP3 SWAP2 POP POP JUMP JUMPDEST PUSH1 0x0 DUP2 MLOAD SWAP1 POP SWAP2 SWAP1 POP JUMP JUMPDEST PUSH1 0x0 DUP3 DUP3 MSTORE PUSH1 0x20 DUP3 ADD SWAP1 POP SWAP3 SWAP2 POP POP JUMP JUMPDEST PUSH1 0x0 PUSH2 0x1901 DUP3 PUSH2 0x19BB JUMP JUMPDEST SWAP2 POP PUSH2 0x190C DUP4 PUSH2 0x19BB JUMP JUMPDEST SWAP3 POP DUP3 PUSH32 0xFFFFFFFFFFFFFFFFFFFFFFFFFFFFFFFFFFFFFFFFFFFFFFFFFFFFFFFFFFFFFFFF SUB DUP3 GT ISZERO PUSH2 0x1941 JUMPI PUSH2 0x1940 PUSH2 0x1A37 JUMP JUMPDEST JUMPDEST DUP3 DUP3 ADD SWAP1 POP SWAP3 SWAP2 POP POP JUMP JUMPDEST PUSH1 0x0 PUSH2 0x1957 DUP3 PUSH2 0x19BB JUMP JUMPDEST SWAP2 POP PUSH2 0x1962 DUP4 PUSH2 0x19BB JUMP JUMPDEST SWAP3 POP DUP3 PUSH2 0x1972 JUMPI PUSH2 0x1971 PUSH2 0x1A66 JUMP JUMPDEST JUMPDEST DUP3 DUP3 DIV SWAP1 POP SWAP3 SWAP2 POP POP JUMP JUMPDEST PUSH1 0x0 PUSH2 0x1988 DUP3 PUSH2 0x199B JUMP JUMPDEST SWAP1 POP SWAP2 SWAP1 POP JUMP JUMPDEST PUSH1 0x0 DUP2 ISZERO ISZERO SWAP1 POP SWAP2 SWAP1 POP JUMP JUMPDEST PUSH1 0x0 PUSH20 0xFFFFFFFFFFFFFFFFFFFFFFFFFFFFFFFFFFFFFFFF DUP3 AND SWAP1 POP SWAP2 SWAP1 POP JUMP JUMPDEST PUSH1 0x0 DUP2 SWAP1 POP SWAP2 SWAP1 POP JUMP JUMPDEST PUSH1 0x0 PUSH1 0xFF DUP3 AND SWAP1 POP SWAP2 SWAP1 POP JUMP JUMPDEST PUSH1 0x0 JUMPDEST DUP4 DUP2 LT ISZERO PUSH2 0x19F0 JUMPI DUP1 DUP3 ADD MLOAD DUP2 DUP5 ADD MSTORE PUSH1 0x20 DUP2 ADD SWAP1 POP PUSH2 0x19D5 JUMP JUMPDEST DUP4 DUP2 GT ISZERO PUSH2 0x19FF JUMPI PUSH1 0x0 DUP5 DUP5 ADD MSTORE JUMPDEST POP POP POP POP JUMP JUMPDEST PUSH1 0x0 PUSH1 0x2 DUP3 DIV SWAP1 POP PUSH1 0x1 DUP3 AND DUP1 PUSH2 0x1A1D JUMPI PUSH1 0x7F DUP3 AND SWAP2 POP JUMPDEST PUSH1 0x20 DUP3 LT DUP2 EQ ISZERO PUSH2 0x1A31 JUMPI PUSH2 0x1A30 PUSH2 0x1A95 JUMP JUMPDEST JUMPDEST POP SWAP2 SWAP1 POP JUMP JUMPDEST PUSH32 0x4E487B7100000000000000000000000000000000000000000000000000000000 PUSH1 0x0 MSTORE PUSH1 0x11 PUSH1 0x4 MSTORE PUSH1 0x24 PUSH1 0x0 REVERT JUMPDEST PUSH32 0x4E487B7100000000000000000000000000000000000000000000000000000000 PUSH1 0x0 MSTORE PUSH1 0x12 PUSH1 0x4 MSTORE PUSH1 0x24 PUSH1 0x0 REVERT JUMPDEST PUSH32 0x4E487B7100000000000000000000000000000000000000000000000000000000 PUSH1 0x0 MSTORE PUSH1 0x22 PUSH1 0x4 MSTORE PUSH1 0x24 PUSH1 0x0 REVERT JUMPDEST PUSH1 0x0 DUP1 REVERT JUMPDEST PUSH1 0x0 PUSH1 0x1F NOT PUSH1 0x1F DUP4 ADD AND SWAP1 POP SWAP2 SWAP1 POP JUMP JUMPDEST PUSH32 0x45524332303A207472616E7366657220746F20746865207A65726F2061646472 PUSH1 0x0 DUP3 ADD MSTORE PUSH32 0x6573730000000000000000000000000000000000000000000000000000000000 PUSH1 0x20 DUP3 ADD MSTORE POP JUMP JUMPDEST PUSH32 0x4F776E61626C653A206E6577206F776E657220697320746865207A65726F2061 PUSH1 0x0 DUP3 ADD MSTORE PUSH32 0x6464726573730000000000000000000000000000000000000000000000000000 PUSH1 0x20 DUP3 ADD MSTORE POP JUMP JUMPDEST PUSH32 0x45524332303A20617070726F766520746F20746865207A65726F206164647265 PUSH1 0x0 DUP3 ADD MSTORE PUSH32 0x7373000000000000000000000000000000000000000000000000000000000000 PUSH1 0x20 DUP3 ADD MSTORE POP JUMP JUMPDEST PUSH32 0x596F75206E65656420746F2073656E64206D6F72652065746865720000000000 PUSH1 0x0 DUP3 ADD MSTORE POP JUMP JUMPDEST PUSH32 0x45524332303A20696E73756666696369656E7420616C6C6F77616E6365000000 PUSH1 0x0 DUP3 ADD MSTORE POP JUMP JUMPDEST PUSH32 0x45524332303A207472616E7366657220616D6F756E7420657863656564732062 PUSH1 0x0 DUP3 ADD MSTORE PUSH32 0x616C616E63650000000000000000000000000000000000000000000000000000 PUSH1 0x20 DUP3 ADD MSTORE POP JUMP JUMPDEST PUSH32 0x4F776E61626C653A2063616C6C6572206973206E6F7420746865206F776E6572 PUSH1 0x0 DUP3 ADD MSTORE POP JUMP JUMPDEST PUSH32 0x45524332303A207472616E736665722066726F6D20746865207A65726F206164 PUSH1 0x0 DUP3 ADD MSTORE PUSH32 0x6472657373000000000000000000000000000000000000000000000000000000 PUSH1 0x20 DUP3 ADD MSTORE POP JUMP JUMPDEST PUSH32 0x45524332303A20617070726F76652066726F6D20746865207A65726F20616464 PUSH1 0x0 DUP3 ADD MSTORE PUSH32 0x7265737300000000000000000000000000000000000000000000000000000000 PUSH1 0x20 DUP3 ADD MSTORE POP JUMP JUMPDEST PUSH32 0x45524332303A2064656372656173656420616C6C6F77616E63652062656C6F77 PUSH1 0x0 DUP3 ADD MSTORE PUSH32 0x207A65726F000000000000000000000000000000000000000000000000000000 PUSH1 0x20 DUP3 ADD MSTORE POP JUMP JUMPDEST PUSH32 0x45524332303A206D696E7420746F20746865207A65726F206164647265737300 PUSH1 0x0 DUP3 ADD MSTORE POP JUMP JUMPDEST PUSH2 0x1DB0 DUP2 PUSH2 0x197D JUMP JUMPDEST DUP2 EQ PUSH2 0x1DBB JUMPI PUSH1 0x0 DUP1 REVERT JUMPDEST POP JUMP JUMPDEST PUSH2 0x1DC7 DUP2 PUSH2 0x19BB JUMP JUMPDEST DUP2 EQ PUSH2 0x1DD2 JUMPI PUSH1 0x0 DUP1 REVERT JUMPDEST POP JUMP INVALID LOG2 PUSH5 0x6970667358 0x22 SLT KECCAK256 0xBF BALANCE RETURNDATACOPY 0x5D PUSH15 0x708F96F1AC73394EF151C567D6489D PUSH13 0x6B3541CB2816FB581EE9CE6473 PUSH16 0x6C634300080700330000000000000000 "
				},
				"gasEstimates": {
					"creation": {
						"codeDepositCost": "1538200",
						"executionCost": "infinite",
						"totalCost": "infinite"
					},
					"external": {
						"OwnerEthBalance()": "7385",
						"allowance(address,address)": "infinite",
						"approve(address,uint256)": "infinite",
						"balanceOf(address)": "2952",
						"buyToken(address)": "infinite",
						"decimals()": "388",
						"decreaseAllowance(address,uint256)": "infinite",
						"increaseAllowance(address,uint256)": "infinite",
						"mint(address,uint256)": "infinite",
						"name()": "infinite",
						"owner()": "2589",
						"rate()": "2452",
						"renounceOwnership()": "30397",
						"symbol()": "infinite",
						"totalSupply()": "2505",
						"transfer(address,uint256)": "infinite",
						"transferFrom(address,address,uint256)": "infinite",
						"transferOwnership(address)": "30833"
					}
				},
				"methodIdentifiers": {
					"OwnerEthBalance()": "afb41183",
					"allowance(address,address)": "dd62ed3e",
					"approve(address,uint256)": "095ea7b3",
					"balanceOf(address)": "70a08231",
					"buyToken(address)": "7e72fb52",
					"decimals()": "313ce567",
					"decreaseAllowance(address,uint256)": "a457c2d7",
					"increaseAllowance(address,uint256)": "39509351",
					"mint(address,uint256)": "40c10f19",
					"name()": "06fdde03",
					"owner()": "8da5cb5b",
					"rate()": "2c4e722e",
					"renounceOwnership()": "715018a6",
					"symbol()": "95d89b41",
					"totalSupply()": "18160ddd",
					"transfer(address,uint256)": "a9059cbb",
					"transferFrom(address,address,uint256)": "23b872dd",
					"transferOwnership(address)": "f2fde38b"
				}
			},
			"userdoc": {
				"kind": "user",
				"methods": {},
				"version": 1
			}
		}
	}
}