{
	"contracts/empireERC20Token.sol": {
		"EmpireERC20Token": {
			"abi": [
				{
					"inputs": [
						{
							"internalType": "address payable",
							"name": "_myWallet",
							"type": "address"
						}
					],
					"stateMutability": "nonpayable",
					"type": "constructor"
				},
				{
					"anonymous": false,
					"inputs": [
						{
							"indexed": true,
							"internalType": "address",
							"name": "owner",
							"type": "address"
						},
						{
							"indexed": true,
							"internalType": "address",
							"name": "spender",
							"type": "address"
						},
						{
							"indexed": false,
							"internalType": "uint256",
							"name": "value",
							"type": "uint256"
						}
					],
					"name": "Approval",
					"type": "event"
				},
				{
					"anonymous": false,
					"inputs": [
						{
							"indexed": true,
							"internalType": "address",
							"name": "previousOwner",
							"type": "address"
						},
						{
							"indexed": true,
							"internalType": "address",
							"name": "newOwner",
							"type": "address"
						}
					],
					"name": "OwnershipTransferred",
					"type": "event"
				},
				{
					"anonymous": false,
					"inputs": [
						{
							"indexed": true,
							"internalType": "address",
							"name": "from",
							"type": "address"
						},
						{
							"indexed": true,
							"internalType": "address",
							"name": "to",
							"type": "address"
						},
						{
							"indexed": false,
							"internalType": "uint256",
							"name": "value",
							"type": "uint256"
						}
					],
					"name": "Transfer",
					"type": "event"
				},
				{
					"anonymous": false,
					"inputs": [
						{
							"indexed": false,
							"internalType": "address",
							"name": "buyer",
							"type": "address"
						},
						{
							"indexed": false,
							"internalType": "address",
							"name": "receiver",
							"type": "address"
						},
						{
							"indexed": false,
							"internalType": "uint256",
							"name": "tokenAmount",
							"type": "uint256"
						}
					],
					"name": "boughtToken",
					"type": "event"
				},
				{
					"inputs": [],
					"name": "OwnerEthBalance",
					"outputs": [
						{
							"internalType": "uint256",
							"name": "",
							"type": "uint256"
						}
					],
					"stateMutability": "view",
					"type": "function"
				},
				{
					"inputs": [
						{
							"internalType": "address",
							"name": "owner",
							"type": "address"
						},
						{
							"internalType": "address",
							"name": "spender",
							"type": "address"
						}
					],
					"name": "allowance",
					"outputs": [
						{
							"internalType": "uint256",
							"name": "",
							"type": "uint256"
						}
					],
					"stateMutability": "view",
					"type": "function"
				},
				{
					"inputs": [
						{
							"internalType": "address",
							"name": "spender",
							"type": "address"
						},
						{
							"internalType": "uint256",
							"name": "amount",
							"type": "uint256"
						}
					],
					"name": "approve",
					"outputs": [
						{
							"internalType": "bool",
							"name": "",
							"type": "bool"
						}
					],
					"stateMutability": "nonpayable",
					"type": "function"
				},
				{
					"inputs": [
						{
							"internalType": "address",
							"name": "account",
							"type": "address"
						}
					],
					"name": "balanceOf",
					"outputs": [
						{
							"internalType": "uint256",
							"name": "",
							"type": "uint256"
						}
					],
					"stateMutability": "view",
					"type": "function"
				},
				{
					"inputs": [
						{
							"internalType": "address",
							"name": "receiver",
							"type": "address"
						}
					],
					"name": "buyToken",
					"outputs": [],
					"stateMutability": "payable",
					"type": "function"
				},
				{
					"inputs": [],
					"name": "decimals",
					"outputs": [
						{
							"internalType": "uint8",
							"name": "",
							"type": "uint8"
						}
					],
					"stateMutability": "view",
					"type": "function"
				},
				{
					"inputs": [
						{
							"internalType": "address",
							"name": "spender",
							"type": "address"
						},
						{
							"internalType": "uint256",
							"name": "subtractedValue",
							"type": "uint256"
						}
					],
					"name": "decreaseAllowance",
					"outputs": [
						{
							"internalType": "bool",
							"name": "",
							"type": "bool"
						}
					],
					"stateMutability": "nonpayable",
					"type": "function"
				},
				{
					"inputs": [
						{
							"internalType": "address",
							"name": "spender",
							"type": "address"
						},
						{
							"internalType": "uint256",
							"name": "addedValue",
							"type": "uint256"
						}
					],
					"name": "increaseAllowance",
					"outputs": [
						{
							"internalType": "bool",
							"name": "",
							"type": "bool"
						}
					],
					"stateMutability": "nonpayable",
					"type": "function"
				},
				{
					"inputs": [
						{
							"internalType": "address",
							"name": "to",
							"type": "address"
						},
						{
							"internalType": "uint256",
							"name": "amount",
							"type": "uint256"
						}
					],
					"name": "mint",
					"outputs": [],
					"stateMutability": "nonpayable",
					"type": "function"
				},
				{
					"inputs": [],
					"name": "name",
					"outputs": [
						{
							"internalType": "string",
							"name": "",
							"type": "string"
						}
					],
					"stateMutability": "view",
					"type": "function"
				},
				{
					"inputs": [],
					"name": "owner",
					"outputs": [
						{
							"internalType": "address",
							"name": "",
							"type": "address"
						}
					],
					"stateMutability": "view",
					"type": "function"
				},
				{
					"inputs": [],
					"name": "rate",
					"outputs": [
						{
							"internalType": "uint256",
							"name": "",
							"type": "uint256"
						}
					],
					"stateMutability": "view",
					"type": "function"
				},
				{
					"inputs": [],
					"name": "renounceOwnership",
					"outputs": [],
					"stateMutability": "nonpayable",
					"type": "function"
				},
				{
					"inputs": [],
					"name": "symbol",
					"outputs": [
						{
							"internalType": "string",
							"name": "",
							"type": "string"
						}
					],
					"stateMutability": "view",
					"type": "function"
				},
				{
					"inputs": [],
					"name": "totalSupply",
					"outputs": [
						{
							"internalType": "uint256",
							"name": "",
							"type": "uint256"
						}
					],
					"stateMutability": "view",
					"type": "function"
				},
				{
					"inputs": [
						{
							"internalType": "address",
							"name": "to",
							"type": "address"
						},
						{
							"internalType": "uint256",
							"name": "amount",
							"type": "uint256"
						}
					],
					"name": "transfer",
					"outputs": [
						{
							"internalType": "bool",
							"name": "",
							"type": "bool"
						}
					],
					"stateMutability": "nonpayable",
					"type": "function"
				},
				{
					"inputs": [
						{
							"internalType": "address",
							"name": "from",
							"type": "address"
						},
						{
							"internalType": "address",
							"name": "to",
							"type": "address"
						},
						{
							"internalType": "uint256",
							"name": "amount",
							"type": "uint256"
						}
					],
					"name": "transferFrom",
					"outputs": [
						{
							"internalType": "bool",
							"name": "",
							"type": "bool"
						}
					],
					"stateMutability": "nonpayable",
					"type": "function"
				},
				{
					"inputs": [
						{
							"internalType": "address",
							"name": "newOwner",
							"type": "address"
						}
					],
					"name": "transferOwnership",
					"outputs": [],
					"stateMutability": "nonpayable",
					"type": "function"
				}
			],
			"devdoc": {
				"kind": "dev",
				"methods": {
					"allowance(address,address)": {
						"details": "See {IERC20-allowance}."
					},
					"approve(address,uint256)": {
						"details": "See {IERC20-approve}. NOTE: If `amount` is the maximum `uint256`, the allowance is not updated on `transferFrom`. This is semantically equivalent to an infinite approval. Requirements: - `spender` cannot be the zero address."
					},
					"balanceOf(address)": {
						"details": "See {IERC20-balanceOf}."
					},
					"decimals()": {
						"details": "Returns the number of decimals used to get its user representation. For example, if `decimals` equals `2`, a balance of `505` tokens should be displayed to a user as `5.05` (`505 / 10 ** 2`). Tokens usually opt for a value of 18, imitating the relationship between Ether and Wei. This is the value {ERC20} uses, unless this function is overridden; NOTE: This information is only used for _display_ purposes: it in no way affects any of the arithmetic of the contract, including {IERC20-balanceOf} and {IERC20-transfer}."
					},
					"decreaseAllowance(address,uint256)": {
						"details": "Atomically decreases the allowance granted to `spender` by the caller. This is an alternative to {approve} that can be used as a mitigation for problems described in {IERC20-approve}. Emits an {Approval} event indicating the updated allowance. Requirements: - `spender` cannot be the zero address. - `spender` must have allowance for the caller of at least `subtractedValue`."
					},
					"increaseAllowance(address,uint256)": {
						"details": "Atomically increases the allowance granted to `spender` by the caller. This is an alternative to {approve} that can be used as a mitigation for problems described in {IERC20-approve}. Emits an {Approval} event indicating the updated allowance. Requirements: - `spender` cannot be the zero address."
					},
					"name()": {
						"details": "Returns the name of the token."
					},
					"owner()": {
						"details": "Returns the address of the current owner."
					},
					"renounceOwnership()": {
						"details": "Leaves the contract without owner. It will not be possible to call `onlyOwner` functions anymore. Can only be called by the current owner. NOTE: Renouncing ownership will leave the contract without an owner, thereby removing any functionality that is only available to the owner."
					},
					"symbol()": {
						"details": "Returns the symbol of the token, usually a shorter version of the name."
					},
					"totalSupply()": {
						"details": "See {IERC20-totalSupply}."
					},
					"transfer(address,uint256)": {
						"details": "See {IERC20-transfer}. Requirements: - `to` cannot be the zero address. - the caller must have a balance of at least `amount`."
					},
					"transferFrom(address,address,uint256)": {
						"details": "See {IERC20-transferFrom}. Emits an {Approval} event indicating the updated allowance. This is not required by the EIP. See the note at the beginning of {ERC20}. NOTE: Does not update the allowance if the current allowance is the maximum `uint256`. Requirements: - `from` and `to` cannot be the zero address. - `from` must have a balance of at least `amount`. - the caller must have allowance for ``from``'s tokens of at least `amount`."
					},
					"transferOwnership(address)": {
						"details": "Transfers ownership of the contract to a new account (`newOwner`). Can only be called by the current owner."
					}
				},
				"version": 1
			},
			"evm": {
				"assembly": "    /* \"contracts/empireERC20Token.sol\":173:1282  contract EmpireERC20Token is ERC20, Ownable {\r... */\n  mstore(0x40, 0x80)\n    /* \"contracts/empireERC20Token.sol\":282:289  1000000 */\n  0x0f4240\n    /* \"contracts/empireERC20Token.sol\":258:289  uint256 initialSupply = 1000000 */\n  0x07\n  sstore\n    /* \"contracts/empireERC20Token.sol\":413:423  decimals() */\n  tag_1\n    /* \"contracts/empireERC20Token.sol\":413:421  decimals */\n  shl(0x20, tag_2)\n    /* \"contracts/empireERC20Token.sol\":413:423  decimals() */\n  0x20\n  shr\n  jump\t// in\ntag_1:\n    /* \"contracts/empireERC20Token.sol\":407:409  10 */\n  0x0a\n    /* \"contracts/empireERC20Token.sol\":407:423  10 ** decimals() */\n  tag_3\n  swap2\n  swap1\n  tag_4\n  jump\t// in\ntag_3:\n    /* \"contracts/empireERC20Token.sol\":400:404  1000 */\n  0x03e8\n    /* \"contracts/empireERC20Token.sol\":400:423  1000 * 10 ** decimals() */\n  tag_5\n  swap2\n  swap1\n  tag_6\n  jump\t// in\ntag_5:\n    /* \"contracts/empireERC20Token.sol\":378:423  uint256 public rate = 1000 * 10 ** decimals() */\n  0x08\n  sstore\n    /* \"contracts/empireERC20Token.sol\":432:609  constructor(address payable _myWallet) ERC20(\"empireERC20Token\", \"EMPE\") {\r... */\n  callvalue\n  dup1\n  iszero\n  tag_7\n  jumpi\n  0x00\n  dup1\n  revert\ntag_7:\n  pop\n  mload(0x40)\n  sub(codesize, bytecodeSize)\n  dup1\n  bytecodeSize\n  dup4\n  codecopy\n  dup2\n  dup2\n  add\n  0x40\n  mstore\n  dup2\n  add\n  swap1\n  tag_8\n  swap2\n  swap1\n  tag_9\n  jump\t// in\ntag_8:\n    /* \"@openzeppelin/contracts/token/ERC20/ERC20.sol\":1978:2091  constructor(string memory name_, string memory symbol_) {... */\n  mload(0x40)\n  dup1\n  0x40\n  add\n  0x40\n  mstore\n  dup1\n  0x10\n  dup2\n  mstore\n  0x20\n  add\n  0x656d706972654552433230546f6b656e00000000000000000000000000000000\n  dup2\n  mstore\n  pop\n  mload(0x40)\n  dup1\n  0x40\n  add\n  0x40\n  mstore\n  dup1\n  0x04\n  dup2\n  mstore\n  0x20\n  add\n  0x454d504500000000000000000000000000000000000000000000000000000000\n  dup2\n  mstore\n  pop\n    /* \"@openzeppelin/contracts/token/ERC20/ERC20.sol\":2052:2057  name_ */\n  dup2\n    /* \"@openzeppelin/contracts/token/ERC20/ERC20.sol\":2044:2049  _name */\n  0x03\n    /* \"@openzeppelin/contracts/token/ERC20/ERC20.sol\":2044:2057  _name = name_ */\n  swap1\n  dup1\n  mload\n  swap1\n  0x20\n  add\n  swap1\n  tag_14\n  swap3\n  swap2\n  swap1\n  tag_15\n  jump\t// in\ntag_14:\n  pop\n    /* \"@openzeppelin/contracts/token/ERC20/ERC20.sol\":2077:2084  symbol_ */\n  dup1\n    /* \"@openzeppelin/contracts/token/ERC20/ERC20.sol\":2067:2074  _symbol */\n  0x04\n    /* \"@openzeppelin/contracts/token/ERC20/ERC20.sol\":2067:2084  _symbol = symbol_ */\n  swap1\n  dup1\n  mload\n  swap1\n  0x20\n  add\n  swap1\n  tag_16\n  swap3\n  swap2\n  swap1\n  tag_15\n  jump\t// in\ntag_16:\n  pop\n    /* \"@openzeppelin/contracts/token/ERC20/ERC20.sol\":1978:2091  constructor(string memory name_, string memory symbol_) {... */\n  pop\n  pop\n    /* \"@openzeppelin/contracts/access/Ownable.sol\":921:953  _transferOwnership(_msgSender()) */\n  tag_18\n    /* \"@openzeppelin/contracts/access/Ownable.sol\":940:952  _msgSender() */\n  tag_19\n    /* \"@openzeppelin/contracts/access/Ownable.sol\":940:950  _msgSender */\n  shl(0x20, tag_20)\n    /* \"@openzeppelin/contracts/access/Ownable.sol\":940:952  _msgSender() */\n  0x20\n  shr\n  jump\t// in\ntag_19:\n    /* \"@openzeppelin/contracts/access/Ownable.sol\":921:939  _transferOwnership */\n  shl(0x20, tag_21)\n    /* \"@openzeppelin/contracts/access/Ownable.sol\":921:953  _transferOwnership(_msgSender()) */\n  0x20\n  shr\n  jump\t// in\ntag_18:\n    /* \"contracts/empireERC20Token.sol\":530:539  _myWallet */\n  dup1\n    /* \"contracts/empireERC20Token.sol\":516:527  ownedWallet */\n  0x06\n  0x00\n    /* \"contracts/empireERC20Token.sol\":516:539  ownedWallet = _myWallet */\n  0x0100\n  exp\n  dup2\n  sload\n  dup2\n  0xffffffffffffffffffffffffffffffffffffffff\n  mul\n  not\n  and\n  swap1\n  dup4\n  0xffffffffffffffffffffffffffffffffffffffff\n  and\n  mul\n  or\n  swap1\n  sstore\n  pop\n    /* \"contracts/empireERC20Token.sol\":550:601  _mint(msg.sender, initialSupply * 10 ** decimals()) */\n  tag_23\n    /* \"contracts/empireERC20Token.sol\":556:566  msg.sender */\n  caller\n    /* \"contracts/empireERC20Token.sol\":590:600  decimals() */\n  tag_24\n    /* \"contracts/empireERC20Token.sol\":590:598  decimals */\n  shl(0x20, tag_2)\n    /* \"contracts/empireERC20Token.sol\":590:600  decimals() */\n  0x20\n  shr\n  jump\t// in\ntag_24:\n    /* \"contracts/empireERC20Token.sol\":584:586  10 */\n  0x0a\n    /* \"contracts/empireERC20Token.sol\":584:600  10 ** decimals() */\n  tag_25\n  swap2\n  swap1\n  tag_4\n  jump\t// in\ntag_25:\n    /* \"contracts/empireERC20Token.sol\":568:581  initialSupply */\n  sload(0x07)\n    /* \"contracts/empireERC20Token.sol\":568:600  initialSupply * 10 ** decimals() */\n  tag_26\n  swap2\n  swap1\n  tag_6\n  jump\t// in\ntag_26:\n    /* \"contracts/empireERC20Token.sol\":550:555  _mint */\n  shl(0x20, tag_27)\n    /* \"contracts/empireERC20Token.sol\":550:601  _mint(msg.sender, initialSupply * 10 ** decimals()) */\n  0x20\n  shr\n  jump\t// in\ntag_23:\n    /* \"contracts/empireERC20Token.sol\":432:609  constructor(address payable _myWallet) ERC20(\"empireERC20Token\", \"EMPE\") {\r... */\n  pop\n    /* \"contracts/empireERC20Token.sol\":173:1282  contract EmpireERC20Token is ERC20, Ownable {\r... */\n  jump(tag_28)\n    /* \"@openzeppelin/contracts/token/ERC20/ERC20.sol\":3093:3184  function decimals() public view virtual override returns (uint8) {... */\ntag_2:\n    /* \"@openzeppelin/contracts/token/ERC20/ERC20.sol\":3151:3156  uint8 */\n  0x00\n    /* \"@openzeppelin/contracts/token/ERC20/ERC20.sol\":3175:3177  18 */\n  0x12\n    /* \"@openzeppelin/contracts/token/ERC20/ERC20.sol\":3168:3177  return 18 */\n  swap1\n  pop\n    /* \"@openzeppelin/contracts/token/ERC20/ERC20.sol\":3093:3184  function decimals() public view virtual override returns (uint8) {... */\n  swap1\n  jump\t// out\n    /* \"@openzeppelin/contracts/utils/Context.sol\":640:736  function _msgSender() internal view virtual returns (address) {... */\ntag_20:\n    /* \"@openzeppelin/contracts/utils/Context.sol\":693:700  address */\n  0x00\n    /* \"@openzeppelin/contracts/utils/Context.sol\":719:729  msg.sender */\n  caller\n    /* \"@openzeppelin/contracts/utils/Context.sol\":712:729  return msg.sender */\n  swap1\n  pop\n    /* \"@openzeppelin/contracts/utils/Context.sol\":640:736  function _msgSender() internal view virtual returns (address) {... */\n  swap1\n  jump\t// out\n    /* \"@openzeppelin/contracts/access/Ownable.sol\":2270:2457  function _transferOwnership(address newOwner) internal virtual {... */\ntag_21:\n    /* \"@openzeppelin/contracts/access/Ownable.sol\":2343:2359  address oldOwner */\n  0x00\n    /* \"@openzeppelin/contracts/access/Ownable.sol\":2362:2368  _owner */\n  0x05\n  0x00\n  swap1\n  sload\n  swap1\n  0x0100\n  exp\n  swap1\n  div\n  0xffffffffffffffffffffffffffffffffffffffff\n  and\n    /* \"@openzeppelin/contracts/access/Ownable.sol\":2343:2368  address oldOwner = _owner */\n  swap1\n  pop\n    /* \"@openzeppelin/contracts/access/Ownable.sol\":2387:2395  newOwner */\n  dup2\n    /* \"@openzeppelin/contracts/access/Ownable.sol\":2378:2384  _owner */\n  0x05\n  0x00\n    /* \"@openzeppelin/contracts/access/Ownable.sol\":2378:2395  _owner = newOwner */\n  0x0100\n  exp\n  dup2\n  sload\n  dup2\n  0xffffffffffffffffffffffffffffffffffffffff\n  mul\n  not\n  and\n  swap1\n  dup4\n  0xffffffffffffffffffffffffffffffffffffffff\n  and\n  mul\n  or\n  swap1\n  sstore\n  pop\n    /* \"@openzeppelin/contracts/access/Ownable.sol\":2441:2449  newOwner */\n  dup2\n    /* \"@openzeppelin/contracts/access/Ownable.sol\":2410:2450  OwnershipTransferred(oldOwner, newOwner) */\n  0xffffffffffffffffffffffffffffffffffffffff\n  and\n    /* \"@openzeppelin/contracts/access/Ownable.sol\":2431:2439  oldOwner */\n  dup2\n    /* \"@openzeppelin/contracts/access/Ownable.sol\":2410:2450  OwnershipTransferred(oldOwner, newOwner) */\n  0xffffffffffffffffffffffffffffffffffffffff\n  and\n  0x8be0079c531659141344cd1fd0a4f28419497f9722a3daafe3b4186f6b6457e0\n  mload(0x40)\n  mload(0x40)\n  dup1\n  swap2\n  sub\n  swap1\n  log3\n    /* \"@openzeppelin/contracts/access/Ownable.sol\":2333:2457  {... */\n  pop\n    /* \"@openzeppelin/contracts/access/Ownable.sol\":2270:2457  function _transferOwnership(address newOwner) internal virtual {... */\n  pop\n  jump\t// out\n    /* \"@openzeppelin/contracts/token/ERC20/ERC20.sol\":8415:8804  function _mint(address account, uint256 amount) internal virtual {... */\ntag_27:\n    /* \"@openzeppelin/contracts/token/ERC20/ERC20.sol\":8517:8518  0 */\n  0x00\n    /* \"@openzeppelin/contracts/token/ERC20/ERC20.sol\":8498:8519  account != address(0) */\n  0xffffffffffffffffffffffffffffffffffffffff\n  and\n    /* \"@openzeppelin/contracts/token/ERC20/ERC20.sol\":8498:8505  account */\n  dup3\n    /* \"@openzeppelin/contracts/token/ERC20/ERC20.sol\":8498:8519  account != address(0) */\n  0xffffffffffffffffffffffffffffffffffffffff\n  and\n  eq\n  iszero\n    /* \"@openzeppelin/contracts/token/ERC20/ERC20.sol\":8490:8555  require(account != address(0), \"ERC20: mint to the zero address\") */\n  tag_33\n  jumpi\n  mload(0x40)\n  0x08c379a000000000000000000000000000000000000000000000000000000000\n  dup2\n  mstore\n  0x04\n  add\n  tag_34\n  swap1\n  tag_35\n  jump\t// in\ntag_34:\n  mload(0x40)\n  dup1\n  swap2\n  sub\n  swap1\n  revert\ntag_33:\n    /* \"@openzeppelin/contracts/token/ERC20/ERC20.sol\":8566:8615  _beforeTokenTransfer(address(0), account, amount) */\n  tag_36\n    /* \"@openzeppelin/contracts/token/ERC20/ERC20.sol\":8595:8596  0 */\n  0x00\n    /* \"@openzeppelin/contracts/token/ERC20/ERC20.sol\":8599:8606  account */\n  dup4\n    /* \"@openzeppelin/contracts/token/ERC20/ERC20.sol\":8608:8614  amount */\n  dup4\n    /* \"@openzeppelin/contracts/token/ERC20/ERC20.sol\":8566:8586  _beforeTokenTransfer */\n  shl(0x20, tag_37)\n    /* \"@openzeppelin/contracts/token/ERC20/ERC20.sol\":8566:8615  _beforeTokenTransfer(address(0), account, amount) */\n  0x20\n  shr\n  jump\t// in\ntag_36:\n    /* \"@openzeppelin/contracts/token/ERC20/ERC20.sol\":8642:8648  amount */\n  dup1\n    /* \"@openzeppelin/contracts/token/ERC20/ERC20.sol\":8626:8638  _totalSupply */\n  0x02\n  0x00\n    /* \"@openzeppelin/contracts/token/ERC20/ERC20.sol\":8626:8648  _totalSupply += amount */\n  dup3\n  dup3\n  sload\n  tag_38\n  swap2\n  swap1\n  tag_39\n  jump\t// in\ntag_38:\n  swap3\n  pop\n  pop\n  dup2\n  swap1\n  sstore\n  pop\n    /* \"@openzeppelin/contracts/token/ERC20/ERC20.sol\":8680:8686  amount */\n  dup1\n    /* \"@openzeppelin/contracts/token/ERC20/ERC20.sol\":8658:8667  _balances */\n  0x00\n    /* \"@openzeppelin/contracts/token/ERC20/ERC20.sol\":8658:8676  _balances[account] */\n  dup1\n    /* \"@openzeppelin/contracts/token/ERC20/ERC20.sol\":8668:8675  account */\n  dup5\n    /* \"@openzeppelin/contracts/token/ERC20/ERC20.sol\":8658:8676  _balances[account] */\n  0xffffffffffffffffffffffffffffffffffffffff\n  and\n  0xffffffffffffffffffffffffffffffffffffffff\n  and\n  dup2\n  mstore\n  0x20\n  add\n  swap1\n  dup2\n  mstore\n  0x20\n  add\n  0x00\n  keccak256\n  0x00\n    /* \"@openzeppelin/contracts/token/ERC20/ERC20.sol\":8658:8686  _balances[account] += amount */\n  dup3\n  dup3\n  sload\n  tag_40\n  swap2\n  swap1\n  tag_39\n  jump\t// in\ntag_40:\n  swap3\n  pop\n  pop\n  dup2\n  swap1\n  sstore\n  pop\n    /* \"@openzeppelin/contracts/token/ERC20/ERC20.sol\":8722:8729  account */\n  dup2\n    /* \"@openzeppelin/contracts/token/ERC20/ERC20.sol\":8701:8738  Transfer(address(0), account, amount) */\n  0xffffffffffffffffffffffffffffffffffffffff\n  and\n    /* \"@openzeppelin/contracts/token/ERC20/ERC20.sol\":8718:8719  0 */\n  0x00\n    /* \"@openzeppelin/contracts/token/ERC20/ERC20.sol\":8701:8738  Transfer(address(0), account, amount) */\n  0xffffffffffffffffffffffffffffffffffffffff\n  and\n  0xddf252ad1be2c89b69c2b068fc378daa952ba7f163c4a11628f55a4df523b3ef\n    /* \"@openzeppelin/contracts/token/ERC20/ERC20.sol\":8731:8737  amount */\n  dup4\n    /* \"@openzeppelin/contracts/token/ERC20/ERC20.sol\":8701:8738  Transfer(address(0), account, amount) */\n  mload(0x40)\n  tag_41\n  swap2\n  swap1\n  tag_42\n  jump\t// in\ntag_41:\n  mload(0x40)\n  dup1\n  swap2\n  sub\n  swap1\n  log3\n    /* \"@openzeppelin/contracts/token/ERC20/ERC20.sol\":8749:8797  _afterTokenTransfer(address(0), account, amount) */\n  tag_43\n    /* \"@openzeppelin/contracts/token/ERC20/ERC20.sol\":8777:8778  0 */\n  0x00\n    /* \"@openzeppelin/contracts/token/ERC20/ERC20.sol\":8781:8788  account */\n  dup4\n    /* \"@openzeppelin/contracts/token/ERC20/ERC20.sol\":8790:8796  amount */\n  dup4\n    /* \"@openzeppelin/contracts/token/ERC20/ERC20.sol\":8749:8768  _afterTokenTransfer */\n  shl(0x20, tag_44)\n    /* \"@openzeppelin/contracts/token/ERC20/ERC20.sol\":8749:8797  _afterTokenTransfer(address(0), account, amount) */\n  0x20\n  shr\n  jump\t// in\ntag_43:\n    /* \"@openzeppelin/contracts/token/ERC20/ERC20.sol\":8415:8804  function _mint(address account, uint256 amount) internal virtual {... */\n  pop\n  pop\n  jump\t// out\n    /* \"@openzeppelin/contracts/token/ERC20/ERC20.sol\":11795:11916  function _beforeTokenTransfer(... */\ntag_37:\n  pop\n  pop\n  pop\n  jump\t// out\n    /* \"@openzeppelin/contracts/token/ERC20/ERC20.sol\":12504:12624  function _afterTokenTransfer(... */\ntag_44:\n  pop\n  pop\n  pop\n  jump\t// out\n    /* \"contracts/empireERC20Token.sol\":173:1282  contract EmpireERC20Token is ERC20, Ownable {\r... */\ntag_15:\n  dup3\n  dup1\n  sload\n  tag_47\n  swap1\n  tag_48\n  jump\t// in\ntag_47:\n  swap1\n  0x00\n  mstore\n  keccak256(0x00, 0x20)\n  swap1\n  0x1f\n  add\n  0x20\n  swap1\n  div\n  dup2\n  add\n  swap3\n  dup3\n  tag_50\n  jumpi\n  0x00\n  dup6\n  sstore\n  jump(tag_49)\ntag_50:\n  dup3\n  0x1f\n  lt\n  tag_51\n  jumpi\n  dup1\n  mload\n  not(0xff)\n  and\n  dup4\n  dup1\n  add\n  or\n  dup6\n  sstore\n  jump(tag_49)\ntag_51:\n  dup3\n  dup1\n  add\n  0x01\n  add\n  dup6\n  sstore\n  dup3\n  iszero\n  tag_49\n  jumpi\n  swap2\n  dup3\n  add\ntag_52:\n  dup3\n  dup2\n  gt\n  iszero\n  tag_53\n  jumpi\n  dup3\n  mload\n  dup3\n  sstore\n  swap2\n  0x20\n  add\n  swap2\n  swap1\n  0x01\n  add\n  swap1\n  jump(tag_52)\ntag_53:\ntag_49:\n  pop\n  swap1\n  pop\n  tag_54\n  swap2\n  swap1\n  tag_55\n  jump\t// in\ntag_54:\n  pop\n  swap1\n  jump\t// out\ntag_55:\ntag_56:\n  dup1\n  dup3\n  gt\n  iszero\n  tag_57\n  jumpi\n  0x00\n  dup2\n  0x00\n  swap1\n  sstore\n  pop\n  0x01\n  add\n  jump(tag_56)\ntag_57:\n  pop\n  swap1\n  jump\t// out\n    /* \"#utility.yul\":7:166   */\ntag_59:\n    /* \"#utility.yul\":72:77   */\n  0x00\n    /* \"#utility.yul\":103:109   */\n  dup2\n    /* \"#utility.yul\":97:110   */\n  mload\n    /* \"#utility.yul\":88:110   */\n  swap1\n  pop\n    /* \"#utility.yul\":119:160   */\n  tag_61\n    /* \"#utility.yul\":154:159   */\n  dup2\n    /* \"#utility.yul\":119:160   */\n  tag_62\n  jump\t// in\ntag_61:\n    /* \"#utility.yul\":7:166   */\n  swap3\n  swap2\n  pop\n  pop\n  jump\t// out\n    /* \"#utility.yul\":172:539   */\ntag_9:\n    /* \"#utility.yul\":250:256   */\n  0x00\n    /* \"#utility.yul\":299:301   */\n  0x20\n    /* \"#utility.yul\":287:296   */\n  dup3\n    /* \"#utility.yul\":278:285   */\n  dup5\n    /* \"#utility.yul\":274:297   */\n  sub\n    /* \"#utility.yul\":270:302   */\n  slt\n    /* \"#utility.yul\":267:386   */\n  iszero\n  tag_64\n  jumpi\n    /* \"#utility.yul\":305:384   */\n  tag_65\n  tag_66\n  jump\t// in\ntag_65:\n    /* \"#utility.yul\":267:386   */\ntag_64:\n    /* \"#utility.yul\":425:426   */\n  0x00\n    /* \"#utility.yul\":450:522   */\n  tag_67\n    /* \"#utility.yul\":514:521   */\n  dup5\n    /* \"#utility.yul\":505:511   */\n  dup3\n    /* \"#utility.yul\":494:503   */\n  dup6\n    /* \"#utility.yul\":490:512   */\n  add\n    /* \"#utility.yul\":450:522   */\n  tag_59\n  jump\t// in\ntag_67:\n    /* \"#utility.yul\":440:522   */\n  swap2\n  pop\n    /* \"#utility.yul\":396:532   */\n  pop\n    /* \"#utility.yul\":172:539   */\n  swap3\n  swap2\n  pop\n  pop\n  jump\t// out\n    /* \"#utility.yul\":545:911   */\ntag_68:\n    /* \"#utility.yul\":687:690   */\n  0x00\n    /* \"#utility.yul\":708:775   */\n  tag_70\n    /* \"#utility.yul\":772:774   */\n  0x1f\n    /* \"#utility.yul\":767:770   */\n  dup4\n    /* \"#utility.yul\":708:775   */\n  tag_71\n  jump\t// in\ntag_70:\n    /* \"#utility.yul\":701:775   */\n  swap2\n  pop\n    /* \"#utility.yul\":784:877   */\n  tag_72\n    /* \"#utility.yul\":873:876   */\n  dup3\n    /* \"#utility.yul\":784:877   */\n  tag_73\n  jump\t// in\ntag_72:\n    /* \"#utility.yul\":902:904   */\n  0x20\n    /* \"#utility.yul\":897:900   */\n  dup3\n    /* \"#utility.yul\":893:905   */\n  add\n    /* \"#utility.yul\":886:905   */\n  swap1\n  pop\n    /* \"#utility.yul\":545:911   */\n  swap2\n  swap1\n  pop\n  jump\t// out\n    /* \"#utility.yul\":917:1035   */\ntag_74:\n    /* \"#utility.yul\":1004:1028   */\n  tag_76\n    /* \"#utility.yul\":1022:1027   */\n  dup2\n    /* \"#utility.yul\":1004:1028   */\n  tag_77\n  jump\t// in\ntag_76:\n    /* \"#utility.yul\":999:1002   */\n  dup3\n    /* \"#utility.yul\":992:1029   */\n  mstore\n    /* \"#utility.yul\":917:1035   */\n  pop\n  pop\n  jump\t// out\n    /* \"#utility.yul\":1041:1460   */\ntag_35:\n    /* \"#utility.yul\":1207:1211   */\n  0x00\n    /* \"#utility.yul\":1245:1247   */\n  0x20\n    /* \"#utility.yul\":1234:1243   */\n  dup3\n    /* \"#utility.yul\":1230:1248   */\n  add\n    /* \"#utility.yul\":1222:1248   */\n  swap1\n  pop\n    /* \"#utility.yul\":1294:1303   */\n  dup2\n    /* \"#utility.yul\":1288:1292   */\n  dup2\n    /* \"#utility.yul\":1284:1304   */\n  sub\n    /* \"#utility.yul\":1280:1281   */\n  0x00\n    /* \"#utility.yul\":1269:1278   */\n  dup4\n    /* \"#utility.yul\":1265:1282   */\n  add\n    /* \"#utility.yul\":1258:1305   */\n  mstore\n    /* \"#utility.yul\":1322:1453   */\n  tag_79\n    /* \"#utility.yul\":1448:1452   */\n  dup2\n    /* \"#utility.yul\":1322:1453   */\n  tag_68\n  jump\t// in\ntag_79:\n    /* \"#utility.yul\":1314:1453   */\n  swap1\n  pop\n    /* \"#utility.yul\":1041:1460   */\n  swap2\n  swap1\n  pop\n  jump\t// out\n    /* \"#utility.yul\":1466:1688   */\ntag_42:\n    /* \"#utility.yul\":1559:1563   */\n  0x00\n    /* \"#utility.yul\":1597:1599   */\n  0x20\n    /* \"#utility.yul\":1586:1595   */\n  dup3\n    /* \"#utility.yul\":1582:1600   */\n  add\n    /* \"#utility.yul\":1574:1600   */\n  swap1\n  pop\n    /* \"#utility.yul\":1610:1681   */\n  tag_81\n    /* \"#utility.yul\":1678:1679   */\n  0x00\n    /* \"#utility.yul\":1667:1676   */\n  dup4\n    /* \"#utility.yul\":1663:1680   */\n  add\n    /* \"#utility.yul\":1654:1660   */\n  dup5\n    /* \"#utility.yul\":1610:1681   */\n  tag_74\n  jump\t// in\ntag_81:\n    /* \"#utility.yul\":1466:1688   */\n  swap3\n  swap2\n  pop\n  pop\n  jump\t// out\n    /* \"#utility.yul\":1775:1944   */\ntag_71:\n    /* \"#utility.yul\":1859:1870   */\n  0x00\n    /* \"#utility.yul\":1893:1899   */\n  dup3\n    /* \"#utility.yul\":1888:1891   */\n  dup3\n    /* \"#utility.yul\":1881:1900   */\n  mstore\n    /* \"#utility.yul\":1933:1937   */\n  0x20\n    /* \"#utility.yul\":1928:1931   */\n  dup3\n    /* \"#utility.yul\":1924:1938   */\n  add\n    /* \"#utility.yul\":1909:1938   */\n  swap1\n  pop\n    /* \"#utility.yul\":1775:1944   */\n  swap3\n  swap2\n  pop\n  pop\n  jump\t// out\n    /* \"#utility.yul\":1950:2255   */\ntag_39:\n    /* \"#utility.yul\":1990:1993   */\n  0x00\n    /* \"#utility.yul\":2009:2029   */\n  tag_86\n    /* \"#utility.yul\":2027:2028   */\n  dup3\n    /* \"#utility.yul\":2009:2029   */\n  tag_77\n  jump\t// in\ntag_86:\n    /* \"#utility.yul\":2004:2029   */\n  swap2\n  pop\n    /* \"#utility.yul\":2043:2063   */\n  tag_87\n    /* \"#utility.yul\":2061:2062   */\n  dup4\n    /* \"#utility.yul\":2043:2063   */\n  tag_77\n  jump\t// in\ntag_87:\n    /* \"#utility.yul\":2038:2063   */\n  swap3\n  pop\n    /* \"#utility.yul\":2197:2198   */\n  dup3\n    /* \"#utility.yul\":2129:2195   */\n  0xffffffffffffffffffffffffffffffffffffffffffffffffffffffffffffffff\n    /* \"#utility.yul\":2125:2199   */\n  sub\n    /* \"#utility.yul\":2122:2123   */\n  dup3\n    /* \"#utility.yul\":2119:2200   */\n  gt\n    /* \"#utility.yul\":2116:2223   */\n  iszero\n  tag_88\n  jumpi\n    /* \"#utility.yul\":2203:2221   */\n  tag_89\n  tag_90\n  jump\t// in\ntag_89:\n    /* \"#utility.yul\":2116:2223   */\ntag_88:\n    /* \"#utility.yul\":2247:2248   */\n  dup3\n    /* \"#utility.yul\":2244:2245   */\n  dup3\n    /* \"#utility.yul\":2240:2249   */\n  add\n    /* \"#utility.yul\":2233:2249   */\n  swap1\n  pop\n    /* \"#utility.yul\":1950:2255   */\n  swap3\n  swap2\n  pop\n  pop\n  jump\t// out\n    /* \"#utility.yul\":2261:3109   */\ntag_91:\n    /* \"#utility.yul\":2322:2327   */\n  0x00\n    /* \"#utility.yul\":2329:2333   */\n  dup1\n    /* \"#utility.yul\":2353:2359   */\n  dup3\n    /* \"#utility.yul\":2344:2359   */\n  swap2\n  pop\n    /* \"#utility.yul\":2377:2382   */\n  dup4\n    /* \"#utility.yul\":2368:2382   */\n  swap1\n  pop\n    /* \"#utility.yul\":2391:3103   */\ntag_93:\n    /* \"#utility.yul\":2412:2413   */\n  0x01\n    /* \"#utility.yul\":2402:2410   */\n  dup6\n    /* \"#utility.yul\":2399:2414   */\n  gt\n    /* \"#utility.yul\":2391:3103   */\n  iszero\n  tag_95\n  jumpi\n    /* \"#utility.yul\":2507:2511   */\n  dup1\n    /* \"#utility.yul\":2502:2505   */\n  dup7\n    /* \"#utility.yul\":2498:2512   */\n  div\n    /* \"#utility.yul\":2492:2496   */\n  dup2\n    /* \"#utility.yul\":2489:2513   */\n  gt\n    /* \"#utility.yul\":2486:2536   */\n  iszero\n  tag_96\n  jumpi\n    /* \"#utility.yul\":2516:2534   */\n  tag_97\n  tag_90\n  jump\t// in\ntag_97:\n    /* \"#utility.yul\":2486:2536   */\ntag_96:\n    /* \"#utility.yul\":2566:2567   */\n  0x01\n    /* \"#utility.yul\":2556:2564   */\n  dup6\n    /* \"#utility.yul\":2552:2568   */\n  and\n    /* \"#utility.yul\":2549:3000   */\n  iszero\n  tag_98\n  jumpi\n    /* \"#utility.yul\":2981:2985   */\n  dup1\n    /* \"#utility.yul\":2974:2979   */\n  dup3\n    /* \"#utility.yul\":2970:2986   */\n  mul\n    /* \"#utility.yul\":2961:2986   */\n  swap2\n  pop\n    /* \"#utility.yul\":2549:3000   */\ntag_98:\n    /* \"#utility.yul\":3031:3035   */\n  dup1\n    /* \"#utility.yul\":3025:3029   */\n  dup2\n    /* \"#utility.yul\":3021:3036   */\n  mul\n    /* \"#utility.yul\":3013:3036   */\n  swap1\n  pop\n    /* \"#utility.yul\":3061:3093   */\n  tag_99\n    /* \"#utility.yul\":3084:3092   */\n  dup6\n    /* \"#utility.yul\":3061:3093   */\n  tag_100\n  jump\t// in\ntag_99:\n    /* \"#utility.yul\":3049:3093   */\n  swap5\n  pop\n    /* \"#utility.yul\":2391:3103   */\n  jump(tag_93)\ntag_95:\n    /* \"#utility.yul\":2261:3109   */\n  swap5\n  pop\n  swap5\n  swap3\n  pop\n  pop\n  pop\n  jump\t// out\n    /* \"#utility.yul\":3115:3396   */\ntag_4:\n    /* \"#utility.yul\":3173:3178   */\n  0x00\n    /* \"#utility.yul\":3197:3220   */\n  tag_102\n    /* \"#utility.yul\":3215:3219   */\n  dup3\n    /* \"#utility.yul\":3197:3220   */\n  tag_77\n  jump\t// in\ntag_102:\n    /* \"#utility.yul\":3189:3220   */\n  swap2\n  pop\n    /* \"#utility.yul\":3241:3266   */\n  tag_103\n    /* \"#utility.yul\":3257:3265   */\n  dup4\n    /* \"#utility.yul\":3241:3266   */\n  tag_104\n  jump\t// in\ntag_103:\n    /* \"#utility.yul\":3229:3266   */\n  swap3\n  pop\n    /* \"#utility.yul\":3285:3389   */\n  tag_105\n    /* \"#utility.yul\":3322:3388   */\n  0xffffffffffffffffffffffffffffffffffffffffffffffffffffffffffffffff\n    /* \"#utility.yul\":3312:3320   */\n  dup5\n    /* \"#utility.yul\":3306:3310   */\n  dup5\n    /* \"#utility.yul\":3285:3389   */\n  tag_106\n  jump\t// in\ntag_105:\n    /* \"#utility.yul\":3276:3389   */\n  swap1\n  pop\n    /* \"#utility.yul\":3115:3396   */\n  swap3\n  swap2\n  pop\n  pop\n  jump\t// out\n    /* \"#utility.yul\":3402:4475   */\ntag_106:\n    /* \"#utility.yul\":3456:3461   */\n  0x00\n    /* \"#utility.yul\":3647:3655   */\n  dup3\n    /* \"#utility.yul\":3637:3677   */\n  tag_108\n  jumpi\n    /* \"#utility.yul\":3668:3669   */\n  0x01\n    /* \"#utility.yul\":3659:3669   */\n  swap1\n  pop\n    /* \"#utility.yul\":3670:3675   */\n  jump(tag_107)\n    /* \"#utility.yul\":3637:3677   */\ntag_108:\n    /* \"#utility.yul\":3696:3700   */\n  dup2\n    /* \"#utility.yul\":3686:3722   */\n  tag_109\n  jumpi\n    /* \"#utility.yul\":3713:3714   */\n  0x00\n    /* \"#utility.yul\":3704:3714   */\n  swap1\n  pop\n    /* \"#utility.yul\":3715:3720   */\n  jump(tag_107)\n    /* \"#utility.yul\":3686:3722   */\ntag_109:\n    /* \"#utility.yul\":3782:3786   */\n  dup2\n    /* \"#utility.yul\":3830:3831   */\n  0x01\n    /* \"#utility.yul\":3825:3852   */\n  dup2\n  eq\n  tag_111\n  jumpi\n    /* \"#utility.yul\":3866:3867   */\n  0x02\n    /* \"#utility.yul\":3861:4052   */\n  dup2\n  eq\n  tag_112\n  jumpi\n    /* \"#utility.yul\":3775:4052   */\n  jump(tag_110)\n    /* \"#utility.yul\":3825:3852   */\ntag_111:\n    /* \"#utility.yul\":3843:3844   */\n  0x01\n    /* \"#utility.yul\":3834:3844   */\n  swap2\n  pop\n    /* \"#utility.yul\":3845:3850   */\n  pop\n  jump(tag_107)\n    /* \"#utility.yul\":3861:4052   */\ntag_112:\n    /* \"#utility.yul\":3906:3909   */\n  0xff\n    /* \"#utility.yul\":3896:3904   */\n  dup5\n    /* \"#utility.yul\":3893:3910   */\n  gt\n    /* \"#utility.yul\":3890:3933   */\n  iszero\n  tag_113\n  jumpi\n    /* \"#utility.yul\":3913:3931   */\n  tag_114\n  tag_90\n  jump\t// in\ntag_114:\n    /* \"#utility.yul\":3890:3933   */\ntag_113:\n    /* \"#utility.yul\":3962:3970   */\n  dup4\n    /* \"#utility.yul\":3959:3960   */\n  0x02\n    /* \"#utility.yul\":3955:3971   */\n  exp\n    /* \"#utility.yul\":3946:3971   */\n  swap2\n  pop\n    /* \"#utility.yul\":3997:4000   */\n  dup5\n    /* \"#utility.yul\":3990:3995   */\n  dup3\n    /* \"#utility.yul\":3987:4001   */\n  gt\n    /* \"#utility.yul\":3984:4024   */\n  iszero\n  tag_115\n  jumpi\n    /* \"#utility.yul\":4004:4022   */\n  tag_116\n  tag_90\n  jump\t// in\ntag_116:\n    /* \"#utility.yul\":3984:4024   */\ntag_115:\n    /* \"#utility.yul\":4037:4042   */\n  pop\n  jump(tag_107)\n    /* \"#utility.yul\":3775:4052   */\ntag_110:\n  pop\n    /* \"#utility.yul\":4161:4163   */\n  0x20\n    /* \"#utility.yul\":4151:4159   */\n  dup4\n    /* \"#utility.yul\":4148:4164   */\n  lt\n    /* \"#utility.yul\":4142:4145   */\n  0x0133\n    /* \"#utility.yul\":4136:4140   */\n  dup4\n    /* \"#utility.yul\":4133:4146   */\n  lt\n    /* \"#utility.yul\":4129:4165   */\n  and\n    /* \"#utility.yul\":4111:4113   */\n  0x4e\n    /* \"#utility.yul\":4101:4109   */\n  dup5\n    /* \"#utility.yul\":4098:4114   */\n  lt\n    /* \"#utility.yul\":4093:4095   */\n  0x0b\n    /* \"#utility.yul\":4087:4091   */\n  dup5\n    /* \"#utility.yul\":4084:4096   */\n  lt\n    /* \"#utility.yul\":4080:4115   */\n  and\n    /* \"#utility.yul\":4064:4175   */\n  or\n    /* \"#utility.yul\":4061:4307   */\n  iszero\n  tag_117\n  jumpi\n    /* \"#utility.yul\":4217:4225   */\n  dup3\n    /* \"#utility.yul\":4211:4215   */\n  dup3\n    /* \"#utility.yul\":4207:4226   */\n  exp\n    /* \"#utility.yul\":4198:4226   */\n  swap1\n  pop\n    /* \"#utility.yul\":4252:4255   */\n  dup4\n    /* \"#utility.yul\":4245:4250   */\n  dup2\n    /* \"#utility.yul\":4242:4256   */\n  gt\n    /* \"#utility.yul\":4239:4279   */\n  iszero\n  tag_118\n  jumpi\n    /* \"#utility.yul\":4259:4277   */\n  tag_119\n  tag_90\n  jump\t// in\ntag_119:\n    /* \"#utility.yul\":4239:4279   */\ntag_118:\n    /* \"#utility.yul\":4292:4297   */\n  jump(tag_107)\n    /* \"#utility.yul\":4061:4307   */\ntag_117:\n    /* \"#utility.yul\":4332:4374   */\n  tag_120\n    /* \"#utility.yul\":4370:4373   */\n  dup5\n    /* \"#utility.yul\":4360:4368   */\n  dup5\n    /* \"#utility.yul\":4354:4358   */\n  dup5\n    /* \"#utility.yul\":4351:4352   */\n  0x01\n    /* \"#utility.yul\":4332:4374   */\n  tag_91\n  jump\t// in\ntag_120:\n    /* \"#utility.yul\":4317:4374   */\n  swap3\n  pop\n  swap1\n  pop\n    /* \"#utility.yul\":4406:4410   */\n  dup2\n    /* \"#utility.yul\":4401:4404   */\n  dup5\n    /* \"#utility.yul\":4397:4411   */\n  div\n    /* \"#utility.yul\":4390:4395   */\n  dup2\n    /* \"#utility.yul\":4387:4412   */\n  gt\n    /* \"#utility.yul\":4384:4435   */\n  iszero\n  tag_121\n  jumpi\n    /* \"#utility.yul\":4415:4433   */\n  tag_122\n  tag_90\n  jump\t// in\ntag_122:\n    /* \"#utility.yul\":4384:4435   */\ntag_121:\n    /* \"#utility.yul\":4464:4468   */\n  dup2\n    /* \"#utility.yul\":4457:4462   */\n  dup2\n    /* \"#utility.yul\":4453:4469   */\n  mul\n    /* \"#utility.yul\":4444:4469   */\n  swap1\n  pop\n    /* \"#utility.yul\":3402:4475   */\ntag_107:\n  swap4\n  swap3\n  pop\n  pop\n  pop\n  jump\t// out\n    /* \"#utility.yul\":4481:4829   */\ntag_6:\n    /* \"#utility.yul\":4521:4528   */\n  0x00\n    /* \"#utility.yul\":4544:4564   */\n  tag_124\n    /* \"#utility.yul\":4562:4563   */\n  dup3\n    /* \"#utility.yul\":4544:4564   */\n  tag_77\n  jump\t// in\ntag_124:\n    /* \"#utility.yul\":4539:4564   */\n  swap2\n  pop\n    /* \"#utility.yul\":4578:4598   */\n  tag_125\n    /* \"#utility.yul\":4596:4597   */\n  dup4\n    /* \"#utility.yul\":4578:4598   */\n  tag_77\n  jump\t// in\ntag_125:\n    /* \"#utility.yul\":4573:4598   */\n  swap3\n  pop\n    /* \"#utility.yul\":4766:4767   */\n  dup2\n    /* \"#utility.yul\":4698:4764   */\n  0xffffffffffffffffffffffffffffffffffffffffffffffffffffffffffffffff\n    /* \"#utility.yul\":4694:4768   */\n  div\n    /* \"#utility.yul\":4691:4692   */\n  dup4\n    /* \"#utility.yul\":4688:4769   */\n  gt\n    /* \"#utility.yul\":4683:4684   */\n  dup3\n    /* \"#utility.yul\":4676:4685   */\n  iszero\n    /* \"#utility.yul\":4669:4686   */\n  iszero\n    /* \"#utility.yul\":4665:4770   */\n  and\n    /* \"#utility.yul\":4662:4793   */\n  iszero\n  tag_126\n  jumpi\n    /* \"#utility.yul\":4773:4791   */\n  tag_127\n  tag_90\n  jump\t// in\ntag_127:\n    /* \"#utility.yul\":4662:4793   */\ntag_126:\n    /* \"#utility.yul\":4821:4822   */\n  dup3\n    /* \"#utility.yul\":4818:4819   */\n  dup3\n    /* \"#utility.yul\":4814:4823   */\n  mul\n    /* \"#utility.yul\":4803:4823   */\n  swap1\n  pop\n    /* \"#utility.yul\":4481:4829   */\n  swap3\n  swap2\n  pop\n  pop\n  jump\t// out\n    /* \"#utility.yul\":4835:4939   */\ntag_128:\n    /* \"#utility.yul\":4880:4887   */\n  0x00\n    /* \"#utility.yul\":4909:4933   */\n  tag_130\n    /* \"#utility.yul\":4927:4932   */\n  dup3\n    /* \"#utility.yul\":4909:4933   */\n  tag_131\n  jump\t// in\ntag_130:\n    /* \"#utility.yul\":4898:4933   */\n  swap1\n  pop\n    /* \"#utility.yul\":4835:4939   */\n  swap2\n  swap1\n  pop\n  jump\t// out\n    /* \"#utility.yul\":4945:5071   */\ntag_131:\n    /* \"#utility.yul\":4982:4989   */\n  0x00\n    /* \"#utility.yul\":5022:5064   */\n  0xffffffffffffffffffffffffffffffffffffffff\n    /* \"#utility.yul\":5015:5020   */\n  dup3\n    /* \"#utility.yul\":5011:5065   */\n  and\n    /* \"#utility.yul\":5000:5065   */\n  swap1\n  pop\n    /* \"#utility.yul\":4945:5071   */\n  swap2\n  swap1\n  pop\n  jump\t// out\n    /* \"#utility.yul\":5077:5154   */\ntag_77:\n    /* \"#utility.yul\":5114:5121   */\n  0x00\n    /* \"#utility.yul\":5143:5148   */\n  dup2\n    /* \"#utility.yul\":5132:5148   */\n  swap1\n  pop\n    /* \"#utility.yul\":5077:5154   */\n  swap2\n  swap1\n  pop\n  jump\t// out\n    /* \"#utility.yul\":5160:5246   */\ntag_104:\n    /* \"#utility.yul\":5195:5202   */\n  0x00\n    /* \"#utility.yul\":5235:5239   */\n  0xff\n    /* \"#utility.yul\":5228:5233   */\n  dup3\n    /* \"#utility.yul\":5224:5240   */\n  and\n    /* \"#utility.yul\":5213:5240   */\n  swap1\n  pop\n    /* \"#utility.yul\":5160:5246   */\n  swap2\n  swap1\n  pop\n  jump\t// out\n    /* \"#utility.yul\":5252:5572   */\ntag_48:\n    /* \"#utility.yul\":5296:5302   */\n  0x00\n    /* \"#utility.yul\":5333:5334   */\n  0x02\n    /* \"#utility.yul\":5327:5331   */\n  dup3\n    /* \"#utility.yul\":5323:5335   */\n  div\n    /* \"#utility.yul\":5313:5335   */\n  swap1\n  pop\n    /* \"#utility.yul\":5380:5381   */\n  0x01\n    /* \"#utility.yul\":5374:5378   */\n  dup3\n    /* \"#utility.yul\":5370:5382   */\n  and\n    /* \"#utility.yul\":5401:5419   */\n  dup1\n    /* \"#utility.yul\":5391:5472   */\n  tag_136\n  jumpi\n    /* \"#utility.yul\":5457:5461   */\n  0x7f\n    /* \"#utility.yul\":5449:5455   */\n  dup3\n    /* \"#utility.yul\":5445:5462   */\n  and\n    /* \"#utility.yul\":5435:5462   */\n  swap2\n  pop\n    /* \"#utility.yul\":5391:5472   */\ntag_136:\n    /* \"#utility.yul\":5519:5521   */\n  0x20\n    /* \"#utility.yul\":5511:5517   */\n  dup3\n    /* \"#utility.yul\":5508:5522   */\n  lt\n    /* \"#utility.yul\":5488:5506   */\n  dup2\n    /* \"#utility.yul\":5485:5523   */\n  eq\n    /* \"#utility.yul\":5482:5566   */\n  iszero\n  tag_137\n  jumpi\n    /* \"#utility.yul\":5538:5556   */\n  tag_138\n  tag_139\n  jump\t// in\ntag_138:\n    /* \"#utility.yul\":5482:5566   */\ntag_137:\n    /* \"#utility.yul\":5303:5572   */\n  pop\n    /* \"#utility.yul\":5252:5572   */\n  swap2\n  swap1\n  pop\n  jump\t// out\n    /* \"#utility.yul\":5578:5758   */\ntag_90:\n    /* \"#utility.yul\":5626:5703   */\n  0x4e487b7100000000000000000000000000000000000000000000000000000000\n    /* \"#utility.yul\":5623:5624   */\n  0x00\n    /* \"#utility.yul\":5616:5704   */\n  mstore\n    /* \"#utility.yul\":5723:5727   */\n  0x11\n    /* \"#utility.yul\":5720:5721   */\n  0x04\n    /* \"#utility.yul\":5713:5728   */\n  mstore\n    /* \"#utility.yul\":5747:5751   */\n  0x24\n    /* \"#utility.yul\":5744:5745   */\n  0x00\n    /* \"#utility.yul\":5737:5752   */\n  revert\n    /* \"#utility.yul\":5764:5944   */\ntag_139:\n    /* \"#utility.yul\":5812:5889   */\n  0x4e487b7100000000000000000000000000000000000000000000000000000000\n    /* \"#utility.yul\":5809:5810   */\n  0x00\n    /* \"#utility.yul\":5802:5890   */\n  mstore\n    /* \"#utility.yul\":5909:5913   */\n  0x22\n    /* \"#utility.yul\":5906:5907   */\n  0x04\n    /* \"#utility.yul\":5899:5914   */\n  mstore\n    /* \"#utility.yul\":5933:5937   */\n  0x24\n    /* \"#utility.yul\":5930:5931   */\n  0x00\n    /* \"#utility.yul\":5923:5938   */\n  revert\n    /* \"#utility.yul\":6073:6190   */\ntag_66:\n    /* \"#utility.yul\":6182:6183   */\n  0x00\n    /* \"#utility.yul\":6179:6180   */\n  dup1\n    /* \"#utility.yul\":6172:6184   */\n  revert\n    /* \"#utility.yul\":6196:6298   */\ntag_100:\n    /* \"#utility.yul\":6238:6246   */\n  0x00\n    /* \"#utility.yul\":6285:6290   */\n  dup2\n    /* \"#utility.yul\":6282:6283   */\n  0x01\n    /* \"#utility.yul\":6278:6291   */\n  shr\n    /* \"#utility.yul\":6257:6291   */\n  swap1\n  pop\n    /* \"#utility.yul\":6196:6298   */\n  swap2\n  swap1\n  pop\n  jump\t// out\n    /* \"#utility.yul\":6304:6485   */\ntag_73:\n    /* \"#utility.yul\":6444:6477   */\n  0x45524332303a206d696e7420746f20746865207a65726f206164647265737300\n    /* \"#utility.yul\":6440:6441   */\n  0x00\n    /* \"#utility.yul\":6432:6438   */\n  dup3\n    /* \"#utility.yul\":6428:6442   */\n  add\n    /* \"#utility.yul\":6421:6478   */\n  mstore\n    /* \"#utility.yul\":6304:6485   */\n  pop\n  jump\t// out\n    /* \"#utility.yul\":6491:6629   */\ntag_62:\n    /* \"#utility.yul\":6572:6604   */\n  tag_148\n    /* \"#utility.yul\":6598:6603   */\n  dup2\n    /* \"#utility.yul\":6572:6604   */\n  tag_128\n  jump\t// in\ntag_148:\n    /* \"#utility.yul\":6565:6570   */\n  dup2\n    /* \"#utility.yul\":6562:6605   */\n  eq\n    /* \"#utility.yul\":6552:6623   */\n  tag_149\n  jumpi\n    /* \"#utility.yul\":6619:6620   */\n  0x00\n    /* \"#utility.yul\":6616:6617   */\n  dup1\n    /* \"#utility.yul\":6609:6621   */\n  revert\n    /* \"#utility.yul\":6552:6623   */\ntag_149:\n    /* \"#utility.yul\":6491:6629   */\n  pop\n  jump\t// out\n    /* \"contracts/empireERC20Token.sol\":173:1282  contract EmpireERC20Token is ERC20, Ownable {\r... */\ntag_28:\n  dataSize(sub_0)\n  dup1\n  dataOffset(sub_0)\n  0x00\n  codecopy\n  0x00\n  return\nstop\n\nsub_0: assembly {\n        /* \"contracts/empireERC20Token.sol\":173:1282  contract EmpireERC20Token is ERC20, Ownable {\r... */\n      mstore(0x40, 0x80)\n      jumpi(tag_1, lt(calldatasize, 0x04))\n      shr(0xe0, calldataload(0x00))\n      dup1\n      0x715018a6\n      gt\n      tag_20\n      jumpi\n      dup1\n      0xa457c2d7\n      gt\n      tag_21\n      jumpi\n      dup1\n      0xa457c2d7\n      eq\n      tag_15\n      jumpi\n      dup1\n      0xa9059cbb\n      eq\n      tag_16\n      jumpi\n      dup1\n      0xafb41183\n      eq\n      tag_17\n      jumpi\n      dup1\n      0xdd62ed3e\n      eq\n      tag_18\n      jumpi\n      dup1\n      0xf2fde38b\n      eq\n      tag_19\n      jumpi\n      jump(tag_1)\n    tag_21:\n      dup1\n      0x715018a6\n      eq\n      tag_11\n      jumpi\n      dup1\n      0x7e72fb52\n      eq\n      tag_12\n      jumpi\n      dup1\n      0x8da5cb5b\n      eq\n      tag_13\n      jumpi\n      dup1\n      0x95d89b41\n      eq\n      tag_14\n      jumpi\n      jump(tag_1)\n    tag_20:\n      dup1\n      0x2c4e722e\n      gt\n      tag_22\n      jumpi\n      dup1\n      0x2c4e722e\n      eq\n      tag_6\n      jumpi\n      dup1\n      0x313ce567\n      eq\n      tag_7\n      jumpi\n      dup1\n      0x39509351\n      eq\n      tag_8\n      jumpi\n      dup1\n      0x40c10f19\n      eq\n      tag_9\n      jumpi\n      dup1\n      0x70a08231\n      eq\n      tag_10\n      jumpi\n      jump(tag_1)\n    tag_22:\n      dup1\n      0x06fdde03\n      eq\n      tag_2\n      jumpi\n      dup1\n      0x095ea7b3\n      eq\n      tag_3\n      jumpi\n      dup1\n      0x18160ddd\n      eq\n      tag_4\n      jumpi\n      dup1\n      0x23b872dd\n      eq\n      tag_5\n      jumpi\n    tag_1:\n      0x00\n      dup1\n      revert\n        /* \"@openzeppelin/contracts/token/ERC20/ERC20.sol\":2156:2254  function name() public view virtual override returns (string memory) {... */\n    tag_2:\n      callvalue\n      dup1\n      iszero\n      tag_23\n      jumpi\n      0x00\n      dup1\n      revert\n    tag_23:\n      pop\n      tag_24\n      tag_25\n      jump\t// in\n    tag_24:\n      mload(0x40)\n      tag_26\n      swap2\n      swap1\n      tag_27\n      jump\t// in\n    tag_26:\n      mload(0x40)\n      dup1\n      swap2\n      sub\n      swap1\n      return\n        /* \"@openzeppelin/contracts/token/ERC20/ERC20.sol\":4433:4630  function approve(address spender, uint256 amount) public virtual override returns (bool) {... */\n    tag_3:\n      callvalue\n      dup1\n      iszero\n      tag_28\n      jumpi\n      0x00\n      dup1\n      revert\n    tag_28:\n      pop\n      tag_29\n      0x04\n      dup1\n      calldatasize\n      sub\n      dup2\n      add\n      swap1\n      tag_30\n      swap2\n      swap1\n      tag_31\n      jump\t// in\n    tag_30:\n      tag_32\n      jump\t// in\n    tag_29:\n      mload(0x40)\n      tag_33\n      swap2\n      swap1\n      tag_34\n      jump\t// in\n    tag_33:\n      mload(0x40)\n      dup1\n      swap2\n      sub\n      swap1\n      return\n        /* \"@openzeppelin/contracts/token/ERC20/ERC20.sol\":3244:3350  function totalSupply() public view virtual override returns (uint256) {... */\n    tag_4:\n      callvalue\n      dup1\n      iszero\n      tag_35\n      jumpi\n      0x00\n      dup1\n      revert\n    tag_35:\n      pop\n      tag_36\n      tag_37\n      jump\t// in\n    tag_36:\n      mload(0x40)\n      tag_38\n      swap2\n      swap1\n      tag_39\n      jump\t// in\n    tag_38:\n      mload(0x40)\n      dup1\n      swap2\n      sub\n      swap1\n      return\n        /* \"@openzeppelin/contracts/token/ERC20/ERC20.sol\":5192:5478  function transferFrom(... */\n    tag_5:\n      callvalue\n      dup1\n      iszero\n      tag_40\n      jumpi\n      0x00\n      dup1\n      revert\n    tag_40:\n      pop\n      tag_41\n      0x04\n      dup1\n      calldatasize\n      sub\n      dup2\n      add\n      swap1\n      tag_42\n      swap2\n      swap1\n      tag_43\n      jump\t// in\n    tag_42:\n      tag_44\n      jump\t// in\n    tag_41:\n      mload(0x40)\n      tag_45\n      swap2\n      swap1\n      tag_34\n      jump\t// in\n    tag_45:\n      mload(0x40)\n      dup1\n      swap2\n      sub\n      swap1\n      return\n        /* \"contracts/empireERC20Token.sol\":378:423  uint256 public rate = 1000 * 10 ** decimals() */\n    tag_6:\n      callvalue\n      dup1\n      iszero\n      tag_46\n      jumpi\n      0x00\n      dup1\n      revert\n    tag_46:\n      pop\n      tag_47\n      tag_48\n      jump\t// in\n    tag_47:\n      mload(0x40)\n      tag_49\n      swap2\n      swap1\n      tag_39\n      jump\t// in\n    tag_49:\n      mload(0x40)\n      dup1\n      swap2\n      sub\n      swap1\n      return\n        /* \"@openzeppelin/contracts/token/ERC20/ERC20.sol\":3093:3184  function decimals() public view virtual override returns (uint8) {... */\n    tag_7:\n      callvalue\n      dup1\n      iszero\n      tag_50\n      jumpi\n      0x00\n      dup1\n      revert\n    tag_50:\n      pop\n      tag_51\n      tag_52\n      jump\t// in\n    tag_51:\n      mload(0x40)\n      tag_53\n      swap2\n      swap1\n      tag_54\n      jump\t// in\n    tag_53:\n      mload(0x40)\n      dup1\n      swap2\n      sub\n      swap1\n      return\n        /* \"@openzeppelin/contracts/token/ERC20/ERC20.sol\":5873:6109  function increaseAllowance(address spender, uint256 addedValue) public virtual returns (bool) {... */\n    tag_8:\n      callvalue\n      dup1\n      iszero\n      tag_55\n      jumpi\n      0x00\n      dup1\n      revert\n    tag_55:\n      pop\n      tag_56\n      0x04\n      dup1\n      calldatasize\n      sub\n      dup2\n      add\n      swap1\n      tag_57\n      swap2\n      swap1\n      tag_31\n      jump\t// in\n    tag_57:\n      tag_58\n      jump\t// in\n    tag_56:\n      mload(0x40)\n      tag_59\n      swap2\n      swap1\n      tag_34\n      jump\t// in\n    tag_59:\n      mload(0x40)\n      dup1\n      swap2\n      sub\n      swap1\n      return\n        /* \"contracts/empireERC20Token.sol\":617:712  function mint(address to, uint256 amount) public onlyOwner {\r... */\n    tag_9:\n      callvalue\n      dup1\n      iszero\n      tag_60\n      jumpi\n      0x00\n      dup1\n      revert\n    tag_60:\n      pop\n      tag_61\n      0x04\n      dup1\n      calldatasize\n      sub\n      dup2\n      add\n      swap1\n      tag_62\n      swap2\n      swap1\n      tag_31\n      jump\t// in\n    tag_62:\n      tag_63\n      jump\t// in\n    tag_61:\n      stop\n        /* \"@openzeppelin/contracts/token/ERC20/ERC20.sol\":3408:3533  function balanceOf(address account) public view virtual override returns (uint256) {... */\n    tag_10:\n      callvalue\n      dup1\n      iszero\n      tag_64\n      jumpi\n      0x00\n      dup1\n      revert\n    tag_64:\n      pop\n      tag_65\n      0x04\n      dup1\n      calldatasize\n      sub\n      dup2\n      add\n      swap1\n      tag_66\n      swap2\n      swap1\n      tag_67\n      jump\t// in\n    tag_66:\n      tag_68\n      jump\t// in\n    tag_65:\n      mload(0x40)\n      tag_69\n      swap2\n      swap1\n      tag_39\n      jump\t// in\n    tag_69:\n      mload(0x40)\n      dup1\n      swap2\n      sub\n      swap1\n      return\n        /* \"@openzeppelin/contracts/access/Ownable.sol\":1668:1769  function renounceOwnership() public virtual onlyOwner {... */\n    tag_11:\n      callvalue\n      dup1\n      iszero\n      tag_70\n      jumpi\n      0x00\n      dup1\n      revert\n    tag_70:\n      pop\n      tag_71\n      tag_72\n      jump\t// in\n    tag_71:\n      stop\n        /* \"contracts/empireERC20Token.sol\":720:1101  function buyToken(address receiver) public payable {\r... */\n    tag_12:\n      tag_73\n      0x04\n      dup1\n      calldatasize\n      sub\n      dup2\n      add\n      swap1\n      tag_74\n      swap2\n      swap1\n      tag_67\n      jump\t// in\n    tag_74:\n      tag_75\n      jump\t// in\n    tag_73:\n      stop\n        /* \"@openzeppelin/contracts/access/Ownable.sol\":1036:1121  function owner() public view virtual returns (address) {... */\n    tag_13:\n      callvalue\n      dup1\n      iszero\n      tag_76\n      jumpi\n      0x00\n      dup1\n      revert\n    tag_76:\n      pop\n      tag_77\n      tag_78\n      jump\t// in\n    tag_77:\n      mload(0x40)\n      tag_79\n      swap2\n      swap1\n      tag_80\n      jump\t// in\n    tag_79:\n      mload(0x40)\n      dup1\n      swap2\n      sub\n      swap1\n      return\n        /* \"@openzeppelin/contracts/token/ERC20/ERC20.sol\":2367:2469  function symbol() public view virtual override returns (string memory) {... */\n    tag_14:\n      callvalue\n      dup1\n      iszero\n      tag_81\n      jumpi\n      0x00\n      dup1\n      revert\n    tag_81:\n      pop\n      tag_82\n      tag_83\n      jump\t// in\n    tag_82:\n      mload(0x40)\n      tag_84\n      swap2\n      swap1\n      tag_27\n      jump\t// in\n    tag_84:\n      mload(0x40)\n      dup1\n      swap2\n      sub\n      swap1\n      return\n        /* \"@openzeppelin/contracts/token/ERC20/ERC20.sol\":6596:7025  function decreaseAllowance(address spender, uint256 subtractedValue) public virtual returns (bool) {... */\n    tag_15:\n      callvalue\n      dup1\n      iszero\n      tag_85\n      jumpi\n      0x00\n      dup1\n      revert\n    tag_85:\n      pop\n      tag_86\n      0x04\n      dup1\n      calldatasize\n      sub\n      dup2\n      add\n      swap1\n      tag_87\n      swap2\n      swap1\n      tag_31\n      jump\t// in\n    tag_87:\n      tag_88\n      jump\t// in\n    tag_86:\n      mload(0x40)\n      tag_89\n      swap2\n      swap1\n      tag_34\n      jump\t// in\n    tag_89:\n      mload(0x40)\n      dup1\n      swap2\n      sub\n      swap1\n      return\n        /* \"@openzeppelin/contracts/token/ERC20/ERC20.sol\":3729:3918  function transfer(address to, uint256 amount) public virtual override returns (bool) {... */\n    tag_16:\n      callvalue\n      dup1\n      iszero\n      tag_90\n      jumpi\n      0x00\n      dup1\n      revert\n    tag_90:\n      pop\n      tag_91\n      0x04\n      dup1\n      calldatasize\n      sub\n      dup2\n      add\n      swap1\n      tag_92\n      swap2\n      swap1\n      tag_31\n      jump\t// in\n    tag_92:\n      tag_93\n      jump\t// in\n    tag_91:\n      mload(0x40)\n      tag_94\n      swap2\n      swap1\n      tag_34\n      jump\t// in\n    tag_94:\n      mload(0x40)\n      dup1\n      swap2\n      sub\n      swap1\n      return\n        /* \"contracts/empireERC20Token.sol\":1158:1277  function OwnerEthBalance() public view onlyOwner returns(uint256){\r... */\n    tag_17:\n      callvalue\n      dup1\n      iszero\n      tag_95\n      jumpi\n      0x00\n      dup1\n      revert\n    tag_95:\n      pop\n      tag_96\n      tag_97\n      jump\t// in\n    tag_96:\n      mload(0x40)\n      tag_98\n      swap2\n      swap1\n      tag_39\n      jump\t// in\n    tag_98:\n      mload(0x40)\n      dup1\n      swap2\n      sub\n      swap1\n      return\n        /* \"@openzeppelin/contracts/token/ERC20/ERC20.sol\":3976:4125  function allowance(address owner, address spender) public view virtual override returns (uint256) {... */\n    tag_18:\n      callvalue\n      dup1\n      iszero\n      tag_99\n      jumpi\n      0x00\n      dup1\n      revert\n    tag_99:\n      pop\n      tag_100\n      0x04\n      dup1\n      calldatasize\n      sub\n      dup2\n      add\n      swap1\n      tag_101\n      swap2\n      swap1\n      tag_102\n      jump\t// in\n    tag_101:\n      tag_103\n      jump\t// in\n    tag_100:\n      mload(0x40)\n      tag_104\n      swap2\n      swap1\n      tag_39\n      jump\t// in\n    tag_104:\n      mload(0x40)\n      dup1\n      swap2\n      sub\n      swap1\n      return\n        /* \"@openzeppelin/contracts/access/Ownable.sol\":1918:2116  function transferOwnership(address newOwner) public virtual onlyOwner {... */\n    tag_19:\n      callvalue\n      dup1\n      iszero\n      tag_105\n      jumpi\n      0x00\n      dup1\n      revert\n    tag_105:\n      pop\n      tag_106\n      0x04\n      dup1\n      calldatasize\n      sub\n      dup2\n      add\n      swap1\n      tag_107\n      swap2\n      swap1\n      tag_67\n      jump\t// in\n    tag_107:\n      tag_108\n      jump\t// in\n    tag_106:\n      stop\n        /* \"@openzeppelin/contracts/token/ERC20/ERC20.sol\":2156:2254  function name() public view virtual override returns (string memory) {... */\n    tag_25:\n        /* \"@openzeppelin/contracts/token/ERC20/ERC20.sol\":2210:2223  string memory */\n      0x60\n        /* \"@openzeppelin/contracts/token/ERC20/ERC20.sol\":2242:2247  _name */\n      0x03\n        /* \"@openzeppelin/contracts/token/ERC20/ERC20.sol\":2235:2247  return _name */\n      dup1\n      sload\n      tag_110\n      swap1\n      tag_111\n      jump\t// in\n    tag_110:\n      dup1\n      0x1f\n      add\n      0x20\n      dup1\n      swap2\n      div\n      mul\n      0x20\n      add\n      mload(0x40)\n      swap1\n      dup2\n      add\n      0x40\n      mstore\n      dup1\n      swap3\n      swap2\n      swap1\n      dup2\n      dup2\n      mstore\n      0x20\n      add\n      dup3\n      dup1\n      sload\n      tag_112\n      swap1\n      tag_111\n      jump\t// in\n    tag_112:\n      dup1\n      iszero\n      tag_113\n      jumpi\n      dup1\n      0x1f\n      lt\n      tag_114\n      jumpi\n      0x0100\n      dup1\n      dup4\n      sload\n      div\n      mul\n      dup4\n      mstore\n      swap2\n      0x20\n      add\n      swap2\n      jump(tag_113)\n    tag_114:\n      dup3\n      add\n      swap2\n      swap1\n      0x00\n      mstore\n      keccak256(0x00, 0x20)\n      swap1\n    tag_115:\n      dup2\n      sload\n      dup2\n      mstore\n      swap1\n      0x01\n      add\n      swap1\n      0x20\n      add\n      dup1\n      dup4\n      gt\n      tag_115\n      jumpi\n      dup3\n      swap1\n      sub\n      0x1f\n      and\n      dup3\n      add\n      swap2\n    tag_113:\n      pop\n      pop\n      pop\n      pop\n      pop\n      swap1\n      pop\n        /* \"@openzeppelin/contracts/token/ERC20/ERC20.sol\":2156:2254  function name() public view virtual override returns (string memory) {... */\n      swap1\n      jump\t// out\n        /* \"@openzeppelin/contracts/token/ERC20/ERC20.sol\":4433:4630  function approve(address spender, uint256 amount) public virtual override returns (bool) {... */\n    tag_32:\n        /* \"@openzeppelin/contracts/token/ERC20/ERC20.sol\":4516:4520  bool */\n      0x00\n        /* \"@openzeppelin/contracts/token/ERC20/ERC20.sol\":4532:4545  address owner */\n      dup1\n        /* \"@openzeppelin/contracts/token/ERC20/ERC20.sol\":4548:4560  _msgSender() */\n      tag_117\n        /* \"@openzeppelin/contracts/token/ERC20/ERC20.sol\":4548:4558  _msgSender */\n      tag_118\n        /* \"@openzeppelin/contracts/token/ERC20/ERC20.sol\":4548:4560  _msgSender() */\n      jump\t// in\n    tag_117:\n        /* \"@openzeppelin/contracts/token/ERC20/ERC20.sol\":4532:4560  address owner = _msgSender() */\n      swap1\n      pop\n        /* \"@openzeppelin/contracts/token/ERC20/ERC20.sol\":4570:4602  _approve(owner, spender, amount) */\n      tag_119\n        /* \"@openzeppelin/contracts/token/ERC20/ERC20.sol\":4579:4584  owner */\n      dup2\n        /* \"@openzeppelin/contracts/token/ERC20/ERC20.sol\":4586:4593  spender */\n      dup6\n        /* \"@openzeppelin/contracts/token/ERC20/ERC20.sol\":4595:4601  amount */\n      dup6\n        /* \"@openzeppelin/contracts/token/ERC20/ERC20.sol\":4570:4578  _approve */\n      tag_120\n        /* \"@openzeppelin/contracts/token/ERC20/ERC20.sol\":4570:4602  _approve(owner, spender, amount) */\n      jump\t// in\n    tag_119:\n        /* \"@openzeppelin/contracts/token/ERC20/ERC20.sol\":4619:4623  true */\n      0x01\n        /* \"@openzeppelin/contracts/token/ERC20/ERC20.sol\":4612:4623  return true */\n      swap2\n      pop\n      pop\n        /* \"@openzeppelin/contracts/token/ERC20/ERC20.sol\":4433:4630  function approve(address spender, uint256 amount) public virtual override returns (bool) {... */\n      swap3\n      swap2\n      pop\n      pop\n      jump\t// out\n        /* \"@openzeppelin/contracts/token/ERC20/ERC20.sol\":3244:3350  function totalSupply() public view virtual override returns (uint256) {... */\n    tag_37:\n        /* \"@openzeppelin/contracts/token/ERC20/ERC20.sol\":3305:3312  uint256 */\n      0x00\n        /* \"@openzeppelin/contracts/token/ERC20/ERC20.sol\":3331:3343  _totalSupply */\n      sload(0x02)\n        /* \"@openzeppelin/contracts/token/ERC20/ERC20.sol\":3324:3343  return _totalSupply */\n      swap1\n      pop\n        /* \"@openzeppelin/contracts/token/ERC20/ERC20.sol\":3244:3350  function totalSupply() public view virtual override returns (uint256) {... */\n      swap1\n      jump\t// out\n        /* \"@openzeppelin/contracts/token/ERC20/ERC20.sol\":5192:5478  function transferFrom(... */\n    tag_44:\n        /* \"@openzeppelin/contracts/token/ERC20/ERC20.sol\":5319:5323  bool */\n      0x00\n        /* \"@openzeppelin/contracts/token/ERC20/ERC20.sol\":5335:5350  address spender */\n      dup1\n        /* \"@openzeppelin/contracts/token/ERC20/ERC20.sol\":5353:5365  _msgSender() */\n      tag_123\n        /* \"@openzeppelin/contracts/token/ERC20/ERC20.sol\":5353:5363  _msgSender */\n      tag_118\n        /* \"@openzeppelin/contracts/token/ERC20/ERC20.sol\":5353:5365  _msgSender() */\n      jump\t// in\n    tag_123:\n        /* \"@openzeppelin/contracts/token/ERC20/ERC20.sol\":5335:5365  address spender = _msgSender() */\n      swap1\n      pop\n        /* \"@openzeppelin/contracts/token/ERC20/ERC20.sol\":5375:5413  _spendAllowance(from, spender, amount) */\n      tag_124\n        /* \"@openzeppelin/contracts/token/ERC20/ERC20.sol\":5391:5395  from */\n      dup6\n        /* \"@openzeppelin/contracts/token/ERC20/ERC20.sol\":5397:5404  spender */\n      dup3\n        /* \"@openzeppelin/contracts/token/ERC20/ERC20.sol\":5406:5412  amount */\n      dup6\n        /* \"@openzeppelin/contracts/token/ERC20/ERC20.sol\":5375:5390  _spendAllowance */\n      tag_125\n        /* \"@openzeppelin/contracts/token/ERC20/ERC20.sol\":5375:5413  _spendAllowance(from, spender, amount) */\n      jump\t// in\n    tag_124:\n        /* \"@openzeppelin/contracts/token/ERC20/ERC20.sol\":5423:5450  _transfer(from, to, amount) */\n      tag_126\n        /* \"@openzeppelin/contracts/token/ERC20/ERC20.sol\":5433:5437  from */\n      dup6\n        /* \"@openzeppelin/contracts/token/ERC20/ERC20.sol\":5439:5441  to */\n      dup6\n        /* \"@openzeppelin/contracts/token/ERC20/ERC20.sol\":5443:5449  amount */\n      dup6\n        /* \"@openzeppelin/contracts/token/ERC20/ERC20.sol\":5423:5432  _transfer */\n      tag_127\n        /* \"@openzeppelin/contracts/token/ERC20/ERC20.sol\":5423:5450  _transfer(from, to, amount) */\n      jump\t// in\n    tag_126:\n        /* \"@openzeppelin/contracts/token/ERC20/ERC20.sol\":5467:5471  true */\n      0x01\n        /* \"@openzeppelin/contracts/token/ERC20/ERC20.sol\":5460:5471  return true */\n      swap2\n      pop\n      pop\n        /* \"@openzeppelin/contracts/token/ERC20/ERC20.sol\":5192:5478  function transferFrom(... */\n      swap4\n      swap3\n      pop\n      pop\n      pop\n      jump\t// out\n        /* \"contracts/empireERC20Token.sol\":378:423  uint256 public rate = 1000 * 10 ** decimals() */\n    tag_48:\n      sload(0x08)\n      dup2\n      jump\t// out\n        /* \"@openzeppelin/contracts/token/ERC20/ERC20.sol\":3093:3184  function decimals() public view virtual override returns (uint8) {... */\n    tag_52:\n        /* \"@openzeppelin/contracts/token/ERC20/ERC20.sol\":3151:3156  uint8 */\n      0x00\n        /* \"@openzeppelin/contracts/token/ERC20/ERC20.sol\":3175:3177  18 */\n      0x12\n        /* \"@openzeppelin/contracts/token/ERC20/ERC20.sol\":3168:3177  return 18 */\n      swap1\n      pop\n        /* \"@openzeppelin/contracts/token/ERC20/ERC20.sol\":3093:3184  function decimals() public view virtual override returns (uint8) {... */\n      swap1\n      jump\t// out\n        /* \"@openzeppelin/contracts/token/ERC20/ERC20.sol\":5873:6109  function increaseAllowance(address spender, uint256 addedValue) public virtual returns (bool) {... */\n    tag_58:\n        /* \"@openzeppelin/contracts/token/ERC20/ERC20.sol\":5961:5965  bool */\n      0x00\n        /* \"@openzeppelin/contracts/token/ERC20/ERC20.sol\":5977:5990  address owner */\n      dup1\n        /* \"@openzeppelin/contracts/token/ERC20/ERC20.sol\":5993:6005  _msgSender() */\n      tag_130\n        /* \"@openzeppelin/contracts/token/ERC20/ERC20.sol\":5993:6003  _msgSender */\n      tag_118\n        /* \"@openzeppelin/contracts/token/ERC20/ERC20.sol\":5993:6005  _msgSender() */\n      jump\t// in\n    tag_130:\n        /* \"@openzeppelin/contracts/token/ERC20/ERC20.sol\":5977:6005  address owner = _msgSender() */\n      swap1\n      pop\n        /* \"@openzeppelin/contracts/token/ERC20/ERC20.sol\":6015:6081  _approve(owner, spender, _allowances[owner][spender] + addedValue) */\n      tag_131\n        /* \"@openzeppelin/contracts/token/ERC20/ERC20.sol\":6024:6029  owner */\n      dup2\n        /* \"@openzeppelin/contracts/token/ERC20/ERC20.sol\":6031:6038  spender */\n      dup6\n        /* \"@openzeppelin/contracts/token/ERC20/ERC20.sol\":6070:6080  addedValue */\n      dup6\n        /* \"@openzeppelin/contracts/token/ERC20/ERC20.sol\":6040:6051  _allowances */\n      0x01\n        /* \"@openzeppelin/contracts/token/ERC20/ERC20.sol\":6040:6058  _allowances[owner] */\n      0x00\n        /* \"@openzeppelin/contracts/token/ERC20/ERC20.sol\":6052:6057  owner */\n      dup7\n        /* \"@openzeppelin/contracts/token/ERC20/ERC20.sol\":6040:6058  _allowances[owner] */\n      0xffffffffffffffffffffffffffffffffffffffff\n      and\n      0xffffffffffffffffffffffffffffffffffffffff\n      and\n      dup2\n      mstore\n      0x20\n      add\n      swap1\n      dup2\n      mstore\n      0x20\n      add\n      0x00\n      keccak256\n        /* \"@openzeppelin/contracts/token/ERC20/ERC20.sol\":6040:6067  _allowances[owner][spender] */\n      0x00\n        /* \"@openzeppelin/contracts/token/ERC20/ERC20.sol\":6059:6066  spender */\n      dup10\n        /* \"@openzeppelin/contracts/token/ERC20/ERC20.sol\":6040:6067  _allowances[owner][spender] */\n      0xffffffffffffffffffffffffffffffffffffffff\n      and\n      0xffffffffffffffffffffffffffffffffffffffff\n      and\n      dup2\n      mstore\n      0x20\n      add\n      swap1\n      dup2\n      mstore\n      0x20\n      add\n      0x00\n      keccak256\n      sload\n        /* \"@openzeppelin/contracts/token/ERC20/ERC20.sol\":6040:6080  _allowances[owner][spender] + addedValue */\n      tag_132\n      swap2\n      swap1\n      tag_133\n      jump\t// in\n    tag_132:\n        /* \"@openzeppelin/contracts/token/ERC20/ERC20.sol\":6015:6023  _approve */\n      tag_120\n        /* \"@openzeppelin/contracts/token/ERC20/ERC20.sol\":6015:6081  _approve(owner, spender, _allowances[owner][spender] + addedValue) */\n      jump\t// in\n    tag_131:\n        /* \"@openzeppelin/contracts/token/ERC20/ERC20.sol\":6098:6102  true */\n      0x01\n        /* \"@openzeppelin/contracts/token/ERC20/ERC20.sol\":6091:6102  return true */\n      swap2\n      pop\n      pop\n        /* \"@openzeppelin/contracts/token/ERC20/ERC20.sol\":5873:6109  function increaseAllowance(address spender, uint256 addedValue) public virtual returns (bool) {... */\n      swap3\n      swap2\n      pop\n      pop\n      jump\t// out\n        /* \"contracts/empireERC20Token.sol\":617:712  function mint(address to, uint256 amount) public onlyOwner {\r... */\n    tag_63:\n        /* \"@openzeppelin/contracts/access/Ownable.sol\":1259:1271  _msgSender() */\n      tag_135\n        /* \"@openzeppelin/contracts/access/Ownable.sol\":1259:1269  _msgSender */\n      tag_118\n        /* \"@openzeppelin/contracts/access/Ownable.sol\":1259:1271  _msgSender() */\n      jump\t// in\n    tag_135:\n        /* \"@openzeppelin/contracts/access/Ownable.sol\":1248:1271  owner() == _msgSender() */\n      0xffffffffffffffffffffffffffffffffffffffff\n      and\n        /* \"@openzeppelin/contracts/access/Ownable.sol\":1248:1255  owner() */\n      tag_136\n        /* \"@openzeppelin/contracts/access/Ownable.sol\":1248:1253  owner */\n      tag_78\n        /* \"@openzeppelin/contracts/access/Ownable.sol\":1248:1255  owner() */\n      jump\t// in\n    tag_136:\n        /* \"@openzeppelin/contracts/access/Ownable.sol\":1248:1271  owner() == _msgSender() */\n      0xffffffffffffffffffffffffffffffffffffffff\n      and\n      eq\n        /* \"@openzeppelin/contracts/access/Ownable.sol\":1240:1308  require(owner() == _msgSender(), \"Ownable: caller is not the owner\") */\n      tag_137\n      jumpi\n      mload(0x40)\n      0x08c379a000000000000000000000000000000000000000000000000000000000\n      dup2\n      mstore\n      0x04\n      add\n      tag_138\n      swap1\n      tag_139\n      jump\t// in\n    tag_138:\n      mload(0x40)\n      dup1\n      swap2\n      sub\n      swap1\n      revert\n    tag_137:\n        /* \"contracts/empireERC20Token.sol\":687:704  _mint(to, amount) */\n      tag_141\n        /* \"contracts/empireERC20Token.sol\":693:695  to */\n      dup3\n        /* \"contracts/empireERC20Token.sol\":697:703  amount */\n      dup3\n        /* \"contracts/empireERC20Token.sol\":687:692  _mint */\n      tag_142\n        /* \"contracts/empireERC20Token.sol\":687:704  _mint(to, amount) */\n      jump\t// in\n    tag_141:\n        /* \"contracts/empireERC20Token.sol\":617:712  function mint(address to, uint256 amount) public onlyOwner {\r... */\n      pop\n      pop\n      jump\t// out\n        /* \"@openzeppelin/contracts/token/ERC20/ERC20.sol\":3408:3533  function balanceOf(address account) public view virtual override returns (uint256) {... */\n    tag_68:\n        /* \"@openzeppelin/contracts/token/ERC20/ERC20.sol\":3482:3489  uint256 */\n      0x00\n        /* \"@openzeppelin/contracts/token/ERC20/ERC20.sol\":3508:3517  _balances */\n      dup1\n        /* \"@openzeppelin/contracts/token/ERC20/ERC20.sol\":3508:3526  _balances[account] */\n      0x00\n        /* \"@openzeppelin/contracts/token/ERC20/ERC20.sol\":3518:3525  account */\n      dup4\n        /* \"@openzeppelin/contracts/token/ERC20/ERC20.sol\":3508:3526  _balances[account] */\n      0xffffffffffffffffffffffffffffffffffffffff\n      and\n      0xffffffffffffffffffffffffffffffffffffffff\n      and\n      dup2\n      mstore\n      0x20\n      add\n      swap1\n      dup2\n      mstore\n      0x20\n      add\n      0x00\n      keccak256\n      sload\n        /* \"@openzeppelin/contracts/token/ERC20/ERC20.sol\":3501:3526  return _balances[account] */\n      swap1\n      pop\n        /* \"@openzeppelin/contracts/token/ERC20/ERC20.sol\":3408:3533  function balanceOf(address account) public view virtual override returns (uint256) {... */\n      swap2\n      swap1\n      pop\n      jump\t// out\n        /* \"@openzeppelin/contracts/access/Ownable.sol\":1668:1769  function renounceOwnership() public virtual onlyOwner {... */\n    tag_72:\n        /* \"@openzeppelin/contracts/access/Ownable.sol\":1259:1271  _msgSender() */\n      tag_145\n        /* \"@openzeppelin/contracts/access/Ownable.sol\":1259:1269  _msgSender */\n      tag_118\n        /* \"@openzeppelin/contracts/access/Ownable.sol\":1259:1271  _msgSender() */\n      jump\t// in\n    tag_145:\n        /* \"@openzeppelin/contracts/access/Ownable.sol\":1248:1271  owner() == _msgSender() */\n      0xffffffffffffffffffffffffffffffffffffffff\n      and\n        /* \"@openzeppelin/contracts/access/Ownable.sol\":1248:1255  owner() */\n      tag_146\n        /* \"@openzeppelin/contracts/access/Ownable.sol\":1248:1253  owner */\n      tag_78\n        /* \"@openzeppelin/contracts/access/Ownable.sol\":1248:1255  owner() */\n      jump\t// in\n    tag_146:\n        /* \"@openzeppelin/contracts/access/Ownable.sol\":1248:1271  owner() == _msgSender() */\n      0xffffffffffffffffffffffffffffffffffffffff\n      and\n      eq\n        /* \"@openzeppelin/contracts/access/Ownable.sol\":1240:1308  require(owner() == _msgSender(), \"Ownable: caller is not the owner\") */\n      tag_147\n      jumpi\n      mload(0x40)\n      0x08c379a000000000000000000000000000000000000000000000000000000000\n      dup2\n      mstore\n      0x04\n      add\n      tag_148\n      swap1\n      tag_139\n      jump\t// in\n    tag_148:\n      mload(0x40)\n      dup1\n      swap2\n      sub\n      swap1\n      revert\n    tag_147:\n        /* \"@openzeppelin/contracts/access/Ownable.sol\":1732:1762  _transferOwnership(address(0)) */\n      tag_150\n        /* \"@openzeppelin/contracts/access/Ownable.sol\":1759:1760  0 */\n      0x00\n        /* \"@openzeppelin/contracts/access/Ownable.sol\":1732:1750  _transferOwnership */\n      tag_151\n        /* \"@openzeppelin/contracts/access/Ownable.sol\":1732:1762  _transferOwnership(address(0)) */\n      jump\t// in\n    tag_150:\n        /* \"@openzeppelin/contracts/access/Ownable.sol\":1668:1769  function renounceOwnership() public virtual onlyOwner {... */\n      jump\t// out\n        /* \"contracts/empireERC20Token.sol\":720:1101  function buyToken(address receiver) public payable {\r... */\n    tag_75:\n        /* \"contracts/empireERC20Token.sol\":803:813  1 * 10**18 */\n      0x0de0b6b3a7640000\n        /* \"contracts/empireERC20Token.sol\":790:799  msg.value */\n      callvalue\n        /* \"contracts/empireERC20Token.sol\":790:813  msg.value >= 1 * 10**18 */\n      lt\n      iszero\n        /* \"contracts/empireERC20Token.sol\":782:845  require(msg.value >= 1 * 10**18, \"You need to send more ether\") */\n      tag_153\n      jumpi\n      mload(0x40)\n      0x08c379a000000000000000000000000000000000000000000000000000000000\n      dup2\n      mstore\n      0x04\n      add\n      tag_154\n      swap1\n      tag_155\n      jump\t// in\n    tag_154:\n      mload(0x40)\n      dup1\n      swap2\n      sub\n      swap1\n      revert\n    tag_153:\n        /* \"contracts/empireERC20Token.sol\":856:867  ownedWallet */\n      0x06\n      0x00\n      swap1\n      sload\n      swap1\n      0x0100\n      exp\n      swap1\n      div\n      0xffffffffffffffffffffffffffffffffffffffff\n      and\n        /* \"contracts/empireERC20Token.sol\":856:876  ownedWallet.transfer */\n      0xffffffffffffffffffffffffffffffffffffffff\n      and\n        /* \"contracts/empireERC20Token.sol\":856:887  ownedWallet.transfer(msg.value) */\n      0x08fc\n        /* \"contracts/empireERC20Token.sol\":877:886  msg.value */\n      callvalue\n        /* \"contracts/empireERC20Token.sol\":856:887  ownedWallet.transfer(msg.value) */\n      swap1\n      dup2\n      iszero\n      mul\n      swap1\n      mload(0x40)\n      0x00\n      mload(0x40)\n      dup1\n      dup4\n      sub\n      dup2\n      dup6\n      dup9\n      dup9\n      call\n      swap4\n      pop\n      pop\n      pop\n      pop\n      iszero\n      dup1\n      iszero\n      tag_157\n      jumpi\n      returndatasize\n      0x00\n      dup1\n      returndatacopy\n      revert(0x00, returndatasize)\n    tag_157:\n      pop\n        /* \"contracts/empireERC20Token.sol\":899:922  uint256 totalTokenToBuy */\n      0x00\n        /* \"contracts/empireERC20Token.sol\":937:941  rate */\n      sload(0x08)\n        /* \"contracts/empireERC20Token.sol\":925:934  msg.value */\n      callvalue\n        /* \"contracts/empireERC20Token.sol\":925:941  msg.value / rate */\n      tag_158\n      swap2\n      swap1\n      tag_159\n      jump\t// in\n    tag_158:\n        /* \"contracts/empireERC20Token.sol\":899:941  uint256 totalTokenToBuy = msg.value / rate */\n      swap1\n      pop\n        /* \"contracts/empireERC20Token.sol\":995:1027  _mint(receiver, totalTokenToBuy) */\n      tag_160\n        /* \"contracts/empireERC20Token.sol\":1001:1009  receiver */\n      dup3\n        /* \"contracts/empireERC20Token.sol\":1011:1026  totalTokenToBuy */\n      dup3\n        /* \"contracts/empireERC20Token.sol\":995:1000  _mint */\n      tag_142\n        /* \"contracts/empireERC20Token.sol\":995:1027  _mint(receiver, totalTokenToBuy) */\n      jump\t// in\n    tag_160:\n        /* \"contracts/empireERC20Token.sol\":1043:1093  boughtToken(msg.sender, receiver, totalTokenToBuy) */\n      0xf7684c931f3f1274ffa9e57bfdf5d3d86bf171875cea6a11b5fa6c1c889a1d12\n        /* \"contracts/empireERC20Token.sol\":1055:1065  msg.sender */\n      caller\n        /* \"contracts/empireERC20Token.sol\":1067:1075  receiver */\n      dup4\n        /* \"contracts/empireERC20Token.sol\":1077:1092  totalTokenToBuy */\n      dup4\n        /* \"contracts/empireERC20Token.sol\":1043:1093  boughtToken(msg.sender, receiver, totalTokenToBuy) */\n      mload(0x40)\n      tag_161\n      swap4\n      swap3\n      swap2\n      swap1\n      tag_162\n      jump\t// in\n    tag_161:\n      mload(0x40)\n      dup1\n      swap2\n      sub\n      swap1\n      log1\n        /* \"contracts/empireERC20Token.sol\":771:1101  {\r... */\n      pop\n        /* \"contracts/empireERC20Token.sol\":720:1101  function buyToken(address receiver) public payable {\r... */\n      pop\n      jump\t// out\n        /* \"@openzeppelin/contracts/access/Ownable.sol\":1036:1121  function owner() public view virtual returns (address) {... */\n    tag_78:\n        /* \"@openzeppelin/contracts/access/Ownable.sol\":1082:1089  address */\n      0x00\n        /* \"@openzeppelin/contracts/access/Ownable.sol\":1108:1114  _owner */\n      0x05\n      0x00\n      swap1\n      sload\n      swap1\n      0x0100\n      exp\n      swap1\n      div\n      0xffffffffffffffffffffffffffffffffffffffff\n      and\n        /* \"@openzeppelin/contracts/access/Ownable.sol\":1101:1114  return _owner */\n      swap1\n      pop\n        /* \"@openzeppelin/contracts/access/Ownable.sol\":1036:1121  function owner() public view virtual returns (address) {... */\n      swap1\n      jump\t// out\n        /* \"@openzeppelin/contracts/token/ERC20/ERC20.sol\":2367:2469  function symbol() public view virtual override returns (string memory) {... */\n    tag_83:\n        /* \"@openzeppelin/contracts/token/ERC20/ERC20.sol\":2423:2436  string memory */\n      0x60\n        /* \"@openzeppelin/contracts/token/ERC20/ERC20.sol\":2455:2462  _symbol */\n      0x04\n        /* \"@openzeppelin/contracts/token/ERC20/ERC20.sol\":2448:2462  return _symbol */\n      dup1\n      sload\n      tag_165\n      swap1\n      tag_111\n      jump\t// in\n    tag_165:\n      dup1\n      0x1f\n      add\n      0x20\n      dup1\n      swap2\n      div\n      mul\n      0x20\n      add\n      mload(0x40)\n      swap1\n      dup2\n      add\n      0x40\n      mstore\n      dup1\n      swap3\n      swap2\n      swap1\n      dup2\n      dup2\n      mstore\n      0x20\n      add\n      dup3\n      dup1\n      sload\n      tag_166\n      swap1\n      tag_111\n      jump\t// in\n    tag_166:\n      dup1\n      iszero\n      tag_167\n      jumpi\n      dup1\n      0x1f\n      lt\n      tag_168\n      jumpi\n      0x0100\n      dup1\n      dup4\n      sload\n      div\n      mul\n      dup4\n      mstore\n      swap2\n      0x20\n      add\n      swap2\n      jump(tag_167)\n    tag_168:\n      dup3\n      add\n      swap2\n      swap1\n      0x00\n      mstore\n      keccak256(0x00, 0x20)\n      swap1\n    tag_169:\n      dup2\n      sload\n      dup2\n      mstore\n      swap1\n      0x01\n      add\n      swap1\n      0x20\n      add\n      dup1\n      dup4\n      gt\n      tag_169\n      jumpi\n      dup3\n      swap1\n      sub\n      0x1f\n      and\n      dup3\n      add\n      swap2\n    tag_167:\n      pop\n      pop\n      pop\n      pop\n      pop\n      swap1\n      pop\n        /* \"@openzeppelin/contracts/token/ERC20/ERC20.sol\":2367:2469  function symbol() public view virtual override returns (string memory) {... */\n      swap1\n      jump\t// out\n        /* \"@openzeppelin/contracts/token/ERC20/ERC20.sol\":6596:7025  function decreaseAllowance(address spender, uint256 subtractedValue) public virtual returns (bool) {... */\n    tag_88:\n        /* \"@openzeppelin/contracts/token/ERC20/ERC20.sol\":6689:6693  bool */\n      0x00\n        /* \"@openzeppelin/contracts/token/ERC20/ERC20.sol\":6705:6718  address owner */\n      dup1\n        /* \"@openzeppelin/contracts/token/ERC20/ERC20.sol\":6721:6733  _msgSender() */\n      tag_171\n        /* \"@openzeppelin/contracts/token/ERC20/ERC20.sol\":6721:6731  _msgSender */\n      tag_118\n        /* \"@openzeppelin/contracts/token/ERC20/ERC20.sol\":6721:6733  _msgSender() */\n      jump\t// in\n    tag_171:\n        /* \"@openzeppelin/contracts/token/ERC20/ERC20.sol\":6705:6733  address owner = _msgSender() */\n      swap1\n      pop\n        /* \"@openzeppelin/contracts/token/ERC20/ERC20.sol\":6743:6767  uint256 currentAllowance */\n      0x00\n        /* \"@openzeppelin/contracts/token/ERC20/ERC20.sol\":6770:6781  _allowances */\n      0x01\n        /* \"@openzeppelin/contracts/token/ERC20/ERC20.sol\":6770:6788  _allowances[owner] */\n      0x00\n        /* \"@openzeppelin/contracts/token/ERC20/ERC20.sol\":6782:6787  owner */\n      dup4\n        /* \"@openzeppelin/contracts/token/ERC20/ERC20.sol\":6770:6788  _allowances[owner] */\n      0xffffffffffffffffffffffffffffffffffffffff\n      and\n      0xffffffffffffffffffffffffffffffffffffffff\n      and\n      dup2\n      mstore\n      0x20\n      add\n      swap1\n      dup2\n      mstore\n      0x20\n      add\n      0x00\n      keccak256\n        /* \"@openzeppelin/contracts/token/ERC20/ERC20.sol\":6770:6797  _allowances[owner][spender] */\n      0x00\n        /* \"@openzeppelin/contracts/token/ERC20/ERC20.sol\":6789:6796  spender */\n      dup7\n        /* \"@openzeppelin/contracts/token/ERC20/ERC20.sol\":6770:6797  _allowances[owner][spender] */\n      0xffffffffffffffffffffffffffffffffffffffff\n      and\n      0xffffffffffffffffffffffffffffffffffffffff\n      and\n      dup2\n      mstore\n      0x20\n      add\n      swap1\n      dup2\n      mstore\n      0x20\n      add\n      0x00\n      keccak256\n      sload\n        /* \"@openzeppelin/contracts/token/ERC20/ERC20.sol\":6743:6797  uint256 currentAllowance = _allowances[owner][spender] */\n      swap1\n      pop\n        /* \"@openzeppelin/contracts/token/ERC20/ERC20.sol\":6835:6850  subtractedValue */\n      dup4\n        /* \"@openzeppelin/contracts/token/ERC20/ERC20.sol\":6815:6831  currentAllowance */\n      dup2\n        /* \"@openzeppelin/contracts/token/ERC20/ERC20.sol\":6815:6850  currentAllowance >= subtractedValue */\n      lt\n      iszero\n        /* \"@openzeppelin/contracts/token/ERC20/ERC20.sol\":6807:6892  require(currentAllowance >= subtractedValue, \"ERC20: decreased allowance below zero\") */\n      tag_172\n      jumpi\n      mload(0x40)\n      0x08c379a000000000000000000000000000000000000000000000000000000000\n      dup2\n      mstore\n      0x04\n      add\n      tag_173\n      swap1\n      tag_174\n      jump\t// in\n    tag_173:\n      mload(0x40)\n      dup1\n      swap2\n      sub\n      swap1\n      revert\n    tag_172:\n        /* \"@openzeppelin/contracts/token/ERC20/ERC20.sol\":6926:6986  _approve(owner, spender, currentAllowance - subtractedValue) */\n      tag_175\n        /* \"@openzeppelin/contracts/token/ERC20/ERC20.sol\":6935:6940  owner */\n      dup3\n        /* \"@openzeppelin/contracts/token/ERC20/ERC20.sol\":6942:6949  spender */\n      dup7\n        /* \"@openzeppelin/contracts/token/ERC20/ERC20.sol\":6970:6985  subtractedValue */\n      dup7\n        /* \"@openzeppelin/contracts/token/ERC20/ERC20.sol\":6951:6967  currentAllowance */\n      dup5\n        /* \"@openzeppelin/contracts/token/ERC20/ERC20.sol\":6951:6985  currentAllowance - subtractedValue */\n      sub\n        /* \"@openzeppelin/contracts/token/ERC20/ERC20.sol\":6926:6934  _approve */\n      tag_120\n        /* \"@openzeppelin/contracts/token/ERC20/ERC20.sol\":6926:6986  _approve(owner, spender, currentAllowance - subtractedValue) */\n      jump\t// in\n    tag_175:\n        /* \"@openzeppelin/contracts/token/ERC20/ERC20.sol\":7014:7018  true */\n      0x01\n        /* \"@openzeppelin/contracts/token/ERC20/ERC20.sol\":7007:7018  return true */\n      swap3\n      pop\n      pop\n      pop\n        /* \"@openzeppelin/contracts/token/ERC20/ERC20.sol\":6596:7025  function decreaseAllowance(address spender, uint256 subtractedValue) public virtual returns (bool) {... */\n      swap3\n      swap2\n      pop\n      pop\n      jump\t// out\n        /* \"@openzeppelin/contracts/token/ERC20/ERC20.sol\":3729:3918  function transfer(address to, uint256 amount) public virtual override returns (bool) {... */\n    tag_93:\n        /* \"@openzeppelin/contracts/token/ERC20/ERC20.sol\":3808:3812  bool */\n      0x00\n        /* \"@openzeppelin/contracts/token/ERC20/ERC20.sol\":3824:3837  address owner */\n      dup1\n        /* \"@openzeppelin/contracts/token/ERC20/ERC20.sol\":3840:3852  _msgSender() */\n      tag_177\n        /* \"@openzeppelin/contracts/token/ERC20/ERC20.sol\":3840:3850  _msgSender */\n      tag_118\n        /* \"@openzeppelin/contracts/token/ERC20/ERC20.sol\":3840:3852  _msgSender() */\n      jump\t// in\n    tag_177:\n        /* \"@openzeppelin/contracts/token/ERC20/ERC20.sol\":3824:3852  address owner = _msgSender() */\n      swap1\n      pop\n        /* \"@openzeppelin/contracts/token/ERC20/ERC20.sol\":3862:3890  _transfer(owner, to, amount) */\n      tag_178\n        /* \"@openzeppelin/contracts/token/ERC20/ERC20.sol\":3872:3877  owner */\n      dup2\n        /* \"@openzeppelin/contracts/token/ERC20/ERC20.sol\":3879:3881  to */\n      dup6\n        /* \"@openzeppelin/contracts/token/ERC20/ERC20.sol\":3883:3889  amount */\n      dup6\n        /* \"@openzeppelin/contracts/token/ERC20/ERC20.sol\":3862:3871  _transfer */\n      tag_127\n        /* \"@openzeppelin/contracts/token/ERC20/ERC20.sol\":3862:3890  _transfer(owner, to, amount) */\n      jump\t// in\n    tag_178:\n        /* \"@openzeppelin/contracts/token/ERC20/ERC20.sol\":3907:3911  true */\n      0x01\n        /* \"@openzeppelin/contracts/token/ERC20/ERC20.sol\":3900:3911  return true */\n      swap2\n      pop\n      pop\n        /* \"@openzeppelin/contracts/token/ERC20/ERC20.sol\":3729:3918  function transfer(address to, uint256 amount) public virtual override returns (bool) {... */\n      swap3\n      swap2\n      pop\n      pop\n      jump\t// out\n        /* \"contracts/empireERC20Token.sol\":1158:1277  function OwnerEthBalance() public view onlyOwner returns(uint256){\r... */\n    tag_97:\n        /* \"contracts/empireERC20Token.sol\":1215:1222  uint256 */\n      0x00\n        /* \"@openzeppelin/contracts/access/Ownable.sol\":1259:1271  _msgSender() */\n      tag_180\n        /* \"@openzeppelin/contracts/access/Ownable.sol\":1259:1269  _msgSender */\n      tag_118\n        /* \"@openzeppelin/contracts/access/Ownable.sol\":1259:1271  _msgSender() */\n      jump\t// in\n    tag_180:\n        /* \"@openzeppelin/contracts/access/Ownable.sol\":1248:1271  owner() == _msgSender() */\n      0xffffffffffffffffffffffffffffffffffffffff\n      and\n        /* \"@openzeppelin/contracts/access/Ownable.sol\":1248:1255  owner() */\n      tag_181\n        /* \"@openzeppelin/contracts/access/Ownable.sol\":1248:1253  owner */\n      tag_78\n        /* \"@openzeppelin/contracts/access/Ownable.sol\":1248:1255  owner() */\n      jump\t// in\n    tag_181:\n        /* \"@openzeppelin/contracts/access/Ownable.sol\":1248:1271  owner() == _msgSender() */\n      0xffffffffffffffffffffffffffffffffffffffff\n      and\n      eq\n        /* \"@openzeppelin/contracts/access/Ownable.sol\":1240:1308  require(owner() == _msgSender(), \"Ownable: caller is not the owner\") */\n      tag_182\n      jumpi\n      mload(0x40)\n      0x08c379a000000000000000000000000000000000000000000000000000000000\n      dup2\n      mstore\n      0x04\n      add\n      tag_183\n      swap1\n      tag_139\n      jump\t// in\n    tag_183:\n      mload(0x40)\n      dup1\n      swap2\n      sub\n      swap1\n      revert\n    tag_182:\n        /* \"contracts/empireERC20Token.sol\":1249:1260  ownedWallet */\n      0x06\n      0x00\n      swap1\n      sload\n      swap1\n      0x0100\n      exp\n      swap1\n      div\n      0xffffffffffffffffffffffffffffffffffffffff\n      and\n        /* \"contracts/empireERC20Token.sol\":1241:1269  address(ownedWallet).balance */\n      0xffffffffffffffffffffffffffffffffffffffff\n      and\n      balance\n        /* \"contracts/empireERC20Token.sol\":1234:1269  return address(ownedWallet).balance */\n      swap1\n      pop\n        /* \"contracts/empireERC20Token.sol\":1158:1277  function OwnerEthBalance() public view onlyOwner returns(uint256){\r... */\n      swap1\n      jump\t// out\n        /* \"@openzeppelin/contracts/token/ERC20/ERC20.sol\":3976:4125  function allowance(address owner, address spender) public view virtual override returns (uint256) {... */\n    tag_103:\n        /* \"@openzeppelin/contracts/token/ERC20/ERC20.sol\":4065:4072  uint256 */\n      0x00\n        /* \"@openzeppelin/contracts/token/ERC20/ERC20.sol\":4091:4102  _allowances */\n      0x01\n        /* \"@openzeppelin/contracts/token/ERC20/ERC20.sol\":4091:4109  _allowances[owner] */\n      0x00\n        /* \"@openzeppelin/contracts/token/ERC20/ERC20.sol\":4103:4108  owner */\n      dup5\n        /* \"@openzeppelin/contracts/token/ERC20/ERC20.sol\":4091:4109  _allowances[owner] */\n      0xffffffffffffffffffffffffffffffffffffffff\n      and\n      0xffffffffffffffffffffffffffffffffffffffff\n      and\n      dup2\n      mstore\n      0x20\n      add\n      swap1\n      dup2\n      mstore\n      0x20\n      add\n      0x00\n      keccak256\n        /* \"@openzeppelin/contracts/token/ERC20/ERC20.sol\":4091:4118  _allowances[owner][spender] */\n      0x00\n        /* \"@openzeppelin/contracts/token/ERC20/ERC20.sol\":4110:4117  spender */\n      dup4\n        /* \"@openzeppelin/contracts/token/ERC20/ERC20.sol\":4091:4118  _allowances[owner][spender] */\n      0xffffffffffffffffffffffffffffffffffffffff\n      and\n      0xffffffffffffffffffffffffffffffffffffffff\n      and\n      dup2\n      mstore\n      0x20\n      add\n      swap1\n      dup2\n      mstore\n      0x20\n      add\n      0x00\n      keccak256\n      sload\n        /* \"@openzeppelin/contracts/token/ERC20/ERC20.sol\":4084:4118  return _allowances[owner][spender] */\n      swap1\n      pop\n        /* \"@openzeppelin/contracts/token/ERC20/ERC20.sol\":3976:4125  function allowance(address owner, address spender) public view virtual override returns (uint256) {... */\n      swap3\n      swap2\n      pop\n      pop\n      jump\t// out\n        /* \"@openzeppelin/contracts/access/Ownable.sol\":1918:2116  function transferOwnership(address newOwner) public virtual onlyOwner {... */\n    tag_108:\n        /* \"@openzeppelin/contracts/access/Ownable.sol\":1259:1271  _msgSender() */\n      tag_187\n        /* \"@openzeppelin/contracts/access/Ownable.sol\":1259:1269  _msgSender */\n      tag_118\n        /* \"@openzeppelin/contracts/access/Ownable.sol\":1259:1271  _msgSender() */\n      jump\t// in\n    tag_187:\n        /* \"@openzeppelin/contracts/access/Ownable.sol\":1248:1271  owner() == _msgSender() */\n      0xffffffffffffffffffffffffffffffffffffffff\n      and\n        /* \"@openzeppelin/contracts/access/Ownable.sol\":1248:1255  owner() */\n      tag_188\n        /* \"@openzeppelin/contracts/access/Ownable.sol\":1248:1253  owner */\n      tag_78\n        /* \"@openzeppelin/contracts/access/Ownable.sol\":1248:1255  owner() */\n      jump\t// in\n    tag_188:\n        /* \"@openzeppelin/contracts/access/Ownable.sol\":1248:1271  owner() == _msgSender() */\n      0xffffffffffffffffffffffffffffffffffffffff\n      and\n      eq\n        /* \"@openzeppelin/contracts/access/Ownable.sol\":1240:1308  require(owner() == _msgSender(), \"Ownable: caller is not the owner\") */\n      tag_189\n      jumpi\n      mload(0x40)\n      0x08c379a000000000000000000000000000000000000000000000000000000000\n      dup2\n      mstore\n      0x04\n      add\n      tag_190\n      swap1\n      tag_139\n      jump\t// in\n    tag_190:\n      mload(0x40)\n      dup1\n      swap2\n      sub\n      swap1\n      revert\n    tag_189:\n        /* \"@openzeppelin/contracts/access/Ownable.sol\":2026:2027  0 */\n      0x00\n        /* \"@openzeppelin/contracts/access/Ownable.sol\":2006:2028  newOwner != address(0) */\n      0xffffffffffffffffffffffffffffffffffffffff\n      and\n        /* \"@openzeppelin/contracts/access/Ownable.sol\":2006:2014  newOwner */\n      dup2\n        /* \"@openzeppelin/contracts/access/Ownable.sol\":2006:2028  newOwner != address(0) */\n      0xffffffffffffffffffffffffffffffffffffffff\n      and\n      eq\n      iszero\n        /* \"@openzeppelin/contracts/access/Ownable.sol\":1998:2071  require(newOwner != address(0), \"Ownable: new owner is the zero address\") */\n      tag_192\n      jumpi\n      mload(0x40)\n      0x08c379a000000000000000000000000000000000000000000000000000000000\n      dup2\n      mstore\n      0x04\n      add\n      tag_193\n      swap1\n      tag_194\n      jump\t// in\n    tag_193:\n      mload(0x40)\n      dup1\n      swap2\n      sub\n      swap1\n      revert\n    tag_192:\n        /* \"@openzeppelin/contracts/access/Ownable.sol\":2081:2109  _transferOwnership(newOwner) */\n      tag_195\n        /* \"@openzeppelin/contracts/access/Ownable.sol\":2100:2108  newOwner */\n      dup2\n        /* \"@openzeppelin/contracts/access/Ownable.sol\":2081:2099  _transferOwnership */\n      tag_151\n        /* \"@openzeppelin/contracts/access/Ownable.sol\":2081:2109  _transferOwnership(newOwner) */\n      jump\t// in\n    tag_195:\n        /* \"@openzeppelin/contracts/access/Ownable.sol\":1918:2116  function transferOwnership(address newOwner) public virtual onlyOwner {... */\n      pop\n      jump\t// out\n        /* \"@openzeppelin/contracts/utils/Context.sol\":640:736  function _msgSender() internal view virtual returns (address) {... */\n    tag_118:\n        /* \"@openzeppelin/contracts/utils/Context.sol\":693:700  address */\n      0x00\n        /* \"@openzeppelin/contracts/utils/Context.sol\":719:729  msg.sender */\n      caller\n        /* \"@openzeppelin/contracts/utils/Context.sol\":712:729  return msg.sender */\n      swap1\n      pop\n        /* \"@openzeppelin/contracts/utils/Context.sol\":640:736  function _msgSender() internal view virtual returns (address) {... */\n      swap1\n      jump\t// out\n        /* \"@openzeppelin/contracts/token/ERC20/ERC20.sol\":10123:10493  function _approve(... */\n    tag_120:\n        /* \"@openzeppelin/contracts/token/ERC20/ERC20.sol\":10271:10272  0 */\n      0x00\n        /* \"@openzeppelin/contracts/token/ERC20/ERC20.sol\":10254:10273  owner != address(0) */\n      0xffffffffffffffffffffffffffffffffffffffff\n      and\n        /* \"@openzeppelin/contracts/token/ERC20/ERC20.sol\":10254:10259  owner */\n      dup4\n        /* \"@openzeppelin/contracts/token/ERC20/ERC20.sol\":10254:10273  owner != address(0) */\n      0xffffffffffffffffffffffffffffffffffffffff\n      and\n      eq\n      iszero\n        /* \"@openzeppelin/contracts/token/ERC20/ERC20.sol\":10246:10314  require(owner != address(0), \"ERC20: approve from the zero address\") */\n      tag_198\n      jumpi\n      mload(0x40)\n      0x08c379a000000000000000000000000000000000000000000000000000000000\n      dup2\n      mstore\n      0x04\n      add\n      tag_199\n      swap1\n      tag_200\n      jump\t// in\n    tag_199:\n      mload(0x40)\n      dup1\n      swap2\n      sub\n      swap1\n      revert\n    tag_198:\n        /* \"@openzeppelin/contracts/token/ERC20/ERC20.sol\":10351:10352  0 */\n      0x00\n        /* \"@openzeppelin/contracts/token/ERC20/ERC20.sol\":10332:10353  spender != address(0) */\n      0xffffffffffffffffffffffffffffffffffffffff\n      and\n        /* \"@openzeppelin/contracts/token/ERC20/ERC20.sol\":10332:10339  spender */\n      dup3\n        /* \"@openzeppelin/contracts/token/ERC20/ERC20.sol\":10332:10353  spender != address(0) */\n      0xffffffffffffffffffffffffffffffffffffffff\n      and\n      eq\n      iszero\n        /* \"@openzeppelin/contracts/token/ERC20/ERC20.sol\":10324:10392  require(spender != address(0), \"ERC20: approve to the zero address\") */\n      tag_201\n      jumpi\n      mload(0x40)\n      0x08c379a000000000000000000000000000000000000000000000000000000000\n      dup2\n      mstore\n      0x04\n      add\n      tag_202\n      swap1\n      tag_203\n      jump\t// in\n    tag_202:\n      mload(0x40)\n      dup1\n      swap2\n      sub\n      swap1\n      revert\n    tag_201:\n        /* \"@openzeppelin/contracts/token/ERC20/ERC20.sol\":10433:10439  amount */\n      dup1\n        /* \"@openzeppelin/contracts/token/ERC20/ERC20.sol\":10403:10414  _allowances */\n      0x01\n        /* \"@openzeppelin/contracts/token/ERC20/ERC20.sol\":10403:10421  _allowances[owner] */\n      0x00\n        /* \"@openzeppelin/contracts/token/ERC20/ERC20.sol\":10415:10420  owner */\n      dup6\n        /* \"@openzeppelin/contracts/token/ERC20/ERC20.sol\":10403:10421  _allowances[owner] */\n      0xffffffffffffffffffffffffffffffffffffffff\n      and\n      0xffffffffffffffffffffffffffffffffffffffff\n      and\n      dup2\n      mstore\n      0x20\n      add\n      swap1\n      dup2\n      mstore\n      0x20\n      add\n      0x00\n      keccak256\n        /* \"@openzeppelin/contracts/token/ERC20/ERC20.sol\":10403:10430  _allowances[owner][spender] */\n      0x00\n        /* \"@openzeppelin/contracts/token/ERC20/ERC20.sol\":10422:10429  spender */\n      dup5\n        /* \"@openzeppelin/contracts/token/ERC20/ERC20.sol\":10403:10430  _allowances[owner][spender] */\n      0xffffffffffffffffffffffffffffffffffffffff\n      and\n      0xffffffffffffffffffffffffffffffffffffffff\n      and\n      dup2\n      mstore\n      0x20\n      add\n      swap1\n      dup2\n      mstore\n      0x20\n      add\n      0x00\n      keccak256\n        /* \"@openzeppelin/contracts/token/ERC20/ERC20.sol\":10403:10439  _allowances[owner][spender] = amount */\n      dup2\n      swap1\n      sstore\n      pop\n        /* \"@openzeppelin/contracts/token/ERC20/ERC20.sol\":10470:10477  spender */\n      dup2\n        /* \"@openzeppelin/contracts/token/ERC20/ERC20.sol\":10454:10486  Approval(owner, spender, amount) */\n      0xffffffffffffffffffffffffffffffffffffffff\n      and\n        /* \"@openzeppelin/contracts/token/ERC20/ERC20.sol\":10463:10468  owner */\n      dup4\n        /* \"@openzeppelin/contracts/token/ERC20/ERC20.sol\":10454:10486  Approval(owner, spender, amount) */\n      0xffffffffffffffffffffffffffffffffffffffff\n      and\n      0x8c5be1e5ebec7d5bd14f71427d1e84f3dd0314c0f7b2291e5b200ac8c7c3b925\n        /* \"@openzeppelin/contracts/token/ERC20/ERC20.sol\":10479:10485  amount */\n      dup4\n        /* \"@openzeppelin/contracts/token/ERC20/ERC20.sol\":10454:10486  Approval(owner, spender, amount) */\n      mload(0x40)\n      tag_204\n      swap2\n      swap1\n      tag_39\n      jump\t// in\n    tag_204:\n      mload(0x40)\n      dup1\n      swap2\n      sub\n      swap1\n      log3\n        /* \"@openzeppelin/contracts/token/ERC20/ERC20.sol\":10123:10493  function _approve(... */\n      pop\n      pop\n      pop\n      jump\t// out\n        /* \"@openzeppelin/contracts/token/ERC20/ERC20.sol\":10770:11211  function _spendAllowance(... */\n    tag_125:\n        /* \"@openzeppelin/contracts/token/ERC20/ERC20.sol\":10900:10924  uint256 currentAllowance */\n      0x00\n        /* \"@openzeppelin/contracts/token/ERC20/ERC20.sol\":10927:10952  allowance(owner, spender) */\n      tag_206\n        /* \"@openzeppelin/contracts/token/ERC20/ERC20.sol\":10937:10942  owner */\n      dup5\n        /* \"@openzeppelin/contracts/token/ERC20/ERC20.sol\":10944:10951  spender */\n      dup5\n        /* \"@openzeppelin/contracts/token/ERC20/ERC20.sol\":10927:10936  allowance */\n      tag_103\n        /* \"@openzeppelin/contracts/token/ERC20/ERC20.sol\":10927:10952  allowance(owner, spender) */\n      jump\t// in\n    tag_206:\n        /* \"@openzeppelin/contracts/token/ERC20/ERC20.sol\":10900:10952  uint256 currentAllowance = allowance(owner, spender) */\n      swap1\n      pop\n        /* \"@openzeppelin/contracts/token/ERC20/ERC20.sol\":10986:11003  type(uint256).max */\n      0xffffffffffffffffffffffffffffffffffffffffffffffffffffffffffffffff\n        /* \"@openzeppelin/contracts/token/ERC20/ERC20.sol\":10966:10982  currentAllowance */\n      dup2\n        /* \"@openzeppelin/contracts/token/ERC20/ERC20.sol\":10966:11003  currentAllowance != type(uint256).max */\n      eq\n        /* \"@openzeppelin/contracts/token/ERC20/ERC20.sol\":10962:11205  if (currentAllowance != type(uint256).max) {... */\n      tag_207\n      jumpi\n        /* \"@openzeppelin/contracts/token/ERC20/ERC20.sol\":11047:11053  amount */\n      dup2\n        /* \"@openzeppelin/contracts/token/ERC20/ERC20.sol\":11027:11043  currentAllowance */\n      dup2\n        /* \"@openzeppelin/contracts/token/ERC20/ERC20.sol\":11027:11053  currentAllowance >= amount */\n      lt\n      iszero\n        /* \"@openzeppelin/contracts/token/ERC20/ERC20.sol\":11019:11087  require(currentAllowance >= amount, \"ERC20: insufficient allowance\") */\n      tag_208\n      jumpi\n      mload(0x40)\n      0x08c379a000000000000000000000000000000000000000000000000000000000\n      dup2\n      mstore\n      0x04\n      add\n      tag_209\n      swap1\n      tag_210\n      jump\t// in\n    tag_209:\n      mload(0x40)\n      dup1\n      swap2\n      sub\n      swap1\n      revert\n    tag_208:\n        /* \"@openzeppelin/contracts/token/ERC20/ERC20.sol\":11129:11180  _approve(owner, spender, currentAllowance - amount) */\n      tag_211\n        /* \"@openzeppelin/contracts/token/ERC20/ERC20.sol\":11138:11143  owner */\n      dup5\n        /* \"@openzeppelin/contracts/token/ERC20/ERC20.sol\":11145:11152  spender */\n      dup5\n        /* \"@openzeppelin/contracts/token/ERC20/ERC20.sol\":11173:11179  amount */\n      dup5\n        /* \"@openzeppelin/contracts/token/ERC20/ERC20.sol\":11154:11170  currentAllowance */\n      dup5\n        /* \"@openzeppelin/contracts/token/ERC20/ERC20.sol\":11154:11179  currentAllowance - amount */\n      sub\n        /* \"@openzeppelin/contracts/token/ERC20/ERC20.sol\":11129:11137  _approve */\n      tag_120\n        /* \"@openzeppelin/contracts/token/ERC20/ERC20.sol\":11129:11180  _approve(owner, spender, currentAllowance - amount) */\n      jump\t// in\n    tag_211:\n        /* \"@openzeppelin/contracts/token/ERC20/ERC20.sol\":10962:11205  if (currentAllowance != type(uint256).max) {... */\n    tag_207:\n        /* \"@openzeppelin/contracts/token/ERC20/ERC20.sol\":10890:11211  {... */\n      pop\n        /* \"@openzeppelin/contracts/token/ERC20/ERC20.sol\":10770:11211  function _spendAllowance(... */\n      pop\n      pop\n      pop\n      jump\t// out\n        /* \"@openzeppelin/contracts/token/ERC20/ERC20.sol\":7488:8139  function _transfer(... */\n    tag_127:\n        /* \"@openzeppelin/contracts/token/ERC20/ERC20.sol\":7630:7631  0 */\n      0x00\n        /* \"@openzeppelin/contracts/token/ERC20/ERC20.sol\":7614:7632  from != address(0) */\n      0xffffffffffffffffffffffffffffffffffffffff\n      and\n        /* \"@openzeppelin/contracts/token/ERC20/ERC20.sol\":7614:7618  from */\n      dup4\n        /* \"@openzeppelin/contracts/token/ERC20/ERC20.sol\":7614:7632  from != address(0) */\n      0xffffffffffffffffffffffffffffffffffffffff\n      and\n      eq\n      iszero\n        /* \"@openzeppelin/contracts/token/ERC20/ERC20.sol\":7606:7674  require(from != address(0), \"ERC20: transfer from the zero address\") */\n      tag_213\n      jumpi\n      mload(0x40)\n      0x08c379a000000000000000000000000000000000000000000000000000000000\n      dup2\n      mstore\n      0x04\n      add\n      tag_214\n      swap1\n      tag_215\n      jump\t// in\n    tag_214:\n      mload(0x40)\n      dup1\n      swap2\n      sub\n      swap1\n      revert\n    tag_213:\n        /* \"@openzeppelin/contracts/token/ERC20/ERC20.sol\":7706:7707  0 */\n      0x00\n        /* \"@openzeppelin/contracts/token/ERC20/ERC20.sol\":7692:7708  to != address(0) */\n      0xffffffffffffffffffffffffffffffffffffffff\n      and\n        /* \"@openzeppelin/contracts/token/ERC20/ERC20.sol\":7692:7694  to */\n      dup3\n        /* \"@openzeppelin/contracts/token/ERC20/ERC20.sol\":7692:7708  to != address(0) */\n      0xffffffffffffffffffffffffffffffffffffffff\n      and\n      eq\n      iszero\n        /* \"@openzeppelin/contracts/token/ERC20/ERC20.sol\":7684:7748  require(to != address(0), \"ERC20: transfer to the zero address\") */\n      tag_216\n      jumpi\n      mload(0x40)\n      0x08c379a000000000000000000000000000000000000000000000000000000000\n      dup2\n      mstore\n      0x04\n      add\n      tag_217\n      swap1\n      tag_218\n      jump\t// in\n    tag_217:\n      mload(0x40)\n      dup1\n      swap2\n      sub\n      swap1\n      revert\n    tag_216:\n        /* \"@openzeppelin/contracts/token/ERC20/ERC20.sol\":7759:7797  _beforeTokenTransfer(from, to, amount) */\n      tag_219\n        /* \"@openzeppelin/contracts/token/ERC20/ERC20.sol\":7780:7784  from */\n      dup4\n        /* \"@openzeppelin/contracts/token/ERC20/ERC20.sol\":7786:7788  to */\n      dup4\n        /* \"@openzeppelin/contracts/token/ERC20/ERC20.sol\":7790:7796  amount */\n      dup4\n        /* \"@openzeppelin/contracts/token/ERC20/ERC20.sol\":7759:7779  _beforeTokenTransfer */\n      tag_220\n        /* \"@openzeppelin/contracts/token/ERC20/ERC20.sol\":7759:7797  _beforeTokenTransfer(from, to, amount) */\n      jump\t// in\n    tag_219:\n        /* \"@openzeppelin/contracts/token/ERC20/ERC20.sol\":7808:7827  uint256 fromBalance */\n      0x00\n        /* \"@openzeppelin/contracts/token/ERC20/ERC20.sol\":7830:7839  _balances */\n      dup1\n        /* \"@openzeppelin/contracts/token/ERC20/ERC20.sol\":7830:7845  _balances[from] */\n      0x00\n        /* \"@openzeppelin/contracts/token/ERC20/ERC20.sol\":7840:7844  from */\n      dup6\n        /* \"@openzeppelin/contracts/token/ERC20/ERC20.sol\":7830:7845  _balances[from] */\n      0xffffffffffffffffffffffffffffffffffffffff\n      and\n      0xffffffffffffffffffffffffffffffffffffffff\n      and\n      dup2\n      mstore\n      0x20\n      add\n      swap1\n      dup2\n      mstore\n      0x20\n      add\n      0x00\n      keccak256\n      sload\n        /* \"@openzeppelin/contracts/token/ERC20/ERC20.sol\":7808:7845  uint256 fromBalance = _balances[from] */\n      swap1\n      pop\n        /* \"@openzeppelin/contracts/token/ERC20/ERC20.sol\":7878:7884  amount */\n      dup2\n        /* \"@openzeppelin/contracts/token/ERC20/ERC20.sol\":7863:7874  fromBalance */\n      dup2\n        /* \"@openzeppelin/contracts/token/ERC20/ERC20.sol\":7863:7884  fromBalance >= amount */\n      lt\n      iszero\n        /* \"@openzeppelin/contracts/token/ERC20/ERC20.sol\":7855:7927  require(fromBalance >= amount, \"ERC20: transfer amount exceeds balance\") */\n      tag_221\n      jumpi\n      mload(0x40)\n      0x08c379a000000000000000000000000000000000000000000000000000000000\n      dup2\n      mstore\n      0x04\n      add\n      tag_222\n      swap1\n      tag_223\n      jump\t// in\n    tag_222:\n      mload(0x40)\n      dup1\n      swap2\n      sub\n      swap1\n      revert\n    tag_221:\n        /* \"@openzeppelin/contracts/token/ERC20/ERC20.sol\":7993:7999  amount */\n      dup2\n        /* \"@openzeppelin/contracts/token/ERC20/ERC20.sol\":7979:7990  fromBalance */\n      dup2\n        /* \"@openzeppelin/contracts/token/ERC20/ERC20.sol\":7979:7999  fromBalance - amount */\n      sub\n        /* \"@openzeppelin/contracts/token/ERC20/ERC20.sol\":7961:7970  _balances */\n      0x00\n        /* \"@openzeppelin/contracts/token/ERC20/ERC20.sol\":7961:7976  _balances[from] */\n      dup1\n        /* \"@openzeppelin/contracts/token/ERC20/ERC20.sol\":7971:7975  from */\n      dup7\n        /* \"@openzeppelin/contracts/token/ERC20/ERC20.sol\":7961:7976  _balances[from] */\n      0xffffffffffffffffffffffffffffffffffffffff\n      and\n      0xffffffffffffffffffffffffffffffffffffffff\n      and\n      dup2\n      mstore\n      0x20\n      add\n      swap1\n      dup2\n      mstore\n      0x20\n      add\n      0x00\n      keccak256\n        /* \"@openzeppelin/contracts/token/ERC20/ERC20.sol\":7961:7999  _balances[from] = fromBalance - amount */\n      dup2\n      swap1\n      sstore\n      pop\n        /* \"@openzeppelin/contracts/token/ERC20/ERC20.sol\":8036:8042  amount */\n      dup2\n        /* \"@openzeppelin/contracts/token/ERC20/ERC20.sol\":8019:8028  _balances */\n      0x00\n        /* \"@openzeppelin/contracts/token/ERC20/ERC20.sol\":8019:8032  _balances[to] */\n      dup1\n        /* \"@openzeppelin/contracts/token/ERC20/ERC20.sol\":8029:8031  to */\n      dup6\n        /* \"@openzeppelin/contracts/token/ERC20/ERC20.sol\":8019:8032  _balances[to] */\n      0xffffffffffffffffffffffffffffffffffffffff\n      and\n      0xffffffffffffffffffffffffffffffffffffffff\n      and\n      dup2\n      mstore\n      0x20\n      add\n      swap1\n      dup2\n      mstore\n      0x20\n      add\n      0x00\n      keccak256\n      0x00\n        /* \"@openzeppelin/contracts/token/ERC20/ERC20.sol\":8019:8042  _balances[to] += amount */\n      dup3\n      dup3\n      sload\n      tag_224\n      swap2\n      swap1\n      tag_133\n      jump\t// in\n    tag_224:\n      swap3\n      pop\n      pop\n      dup2\n      swap1\n      sstore\n      pop\n        /* \"@openzeppelin/contracts/token/ERC20/ERC20.sol\":8073:8075  to */\n      dup3\n        /* \"@openzeppelin/contracts/token/ERC20/ERC20.sol\":8058:8084  Transfer(from, to, amount) */\n      0xffffffffffffffffffffffffffffffffffffffff\n      and\n        /* \"@openzeppelin/contracts/token/ERC20/ERC20.sol\":8067:8071  from */\n      dup5\n        /* \"@openzeppelin/contracts/token/ERC20/ERC20.sol\":8058:8084  Transfer(from, to, amount) */\n      0xffffffffffffffffffffffffffffffffffffffff\n      and\n      0xddf252ad1be2c89b69c2b068fc378daa952ba7f163c4a11628f55a4df523b3ef\n        /* \"@openzeppelin/contracts/token/ERC20/ERC20.sol\":8077:8083  amount */\n      dup5\n        /* \"@openzeppelin/contracts/token/ERC20/ERC20.sol\":8058:8084  Transfer(from, to, amount) */\n      mload(0x40)\n      tag_225\n      swap2\n      swap1\n      tag_39\n      jump\t// in\n    tag_225:\n      mload(0x40)\n      dup1\n      swap2\n      sub\n      swap1\n      log3\n        /* \"@openzeppelin/contracts/token/ERC20/ERC20.sol\":8095:8132  _afterTokenTransfer(from, to, amount) */\n      tag_226\n        /* \"@openzeppelin/contracts/token/ERC20/ERC20.sol\":8115:8119  from */\n      dup5\n        /* \"@openzeppelin/contracts/token/ERC20/ERC20.sol\":8121:8123  to */\n      dup5\n        /* \"@openzeppelin/contracts/token/ERC20/ERC20.sol\":8125:8131  amount */\n      dup5\n        /* \"@openzeppelin/contracts/token/ERC20/ERC20.sol\":8095:8114  _afterTokenTransfer */\n      tag_227\n        /* \"@openzeppelin/contracts/token/ERC20/ERC20.sol\":8095:8132  _afterTokenTransfer(from, to, amount) */\n      jump\t// in\n    tag_226:\n        /* \"@openzeppelin/contracts/token/ERC20/ERC20.sol\":7596:8139  {... */\n      pop\n        /* \"@openzeppelin/contracts/token/ERC20/ERC20.sol\":7488:8139  function _transfer(... */\n      pop\n      pop\n      pop\n      jump\t// out\n        /* \"@openzeppelin/contracts/token/ERC20/ERC20.sol\":8415:8804  function _mint(address account, uint256 amount) internal virtual {... */\n    tag_142:\n        /* \"@openzeppelin/contracts/token/ERC20/ERC20.sol\":8517:8518  0 */\n      0x00\n        /* \"@openzeppelin/contracts/token/ERC20/ERC20.sol\":8498:8519  account != address(0) */\n      0xffffffffffffffffffffffffffffffffffffffff\n      and\n        /* \"@openzeppelin/contracts/token/ERC20/ERC20.sol\":8498:8505  account */\n      dup3\n        /* \"@openzeppelin/contracts/token/ERC20/ERC20.sol\":8498:8519  account != address(0) */\n      0xffffffffffffffffffffffffffffffffffffffff\n      and\n      eq\n      iszero\n        /* \"@openzeppelin/contracts/token/ERC20/ERC20.sol\":8490:8555  require(account != address(0), \"ERC20: mint to the zero address\") */\n      tag_229\n      jumpi\n      mload(0x40)\n      0x08c379a000000000000000000000000000000000000000000000000000000000\n      dup2\n      mstore\n      0x04\n      add\n      tag_230\n      swap1\n      tag_231\n      jump\t// in\n    tag_230:\n      mload(0x40)\n      dup1\n      swap2\n      sub\n      swap1\n      revert\n    tag_229:\n        /* \"@openzeppelin/contracts/token/ERC20/ERC20.sol\":8566:8615  _beforeTokenTransfer(address(0), account, amount) */\n      tag_232\n        /* \"@openzeppelin/contracts/token/ERC20/ERC20.sol\":8595:8596  0 */\n      0x00\n        /* \"@openzeppelin/contracts/token/ERC20/ERC20.sol\":8599:8606  account */\n      dup4\n        /* \"@openzeppelin/contracts/token/ERC20/ERC20.sol\":8608:8614  amount */\n      dup4\n        /* \"@openzeppelin/contracts/token/ERC20/ERC20.sol\":8566:8586  _beforeTokenTransfer */\n      tag_220\n        /* \"@openzeppelin/contracts/token/ERC20/ERC20.sol\":8566:8615  _beforeTokenTransfer(address(0), account, amount) */\n      jump\t// in\n    tag_232:\n        /* \"@openzeppelin/contracts/token/ERC20/ERC20.sol\":8642:8648  amount */\n      dup1\n        /* \"@openzeppelin/contracts/token/ERC20/ERC20.sol\":8626:8638  _totalSupply */\n      0x02\n      0x00\n        /* \"@openzeppelin/contracts/token/ERC20/ERC20.sol\":8626:8648  _totalSupply += amount */\n      dup3\n      dup3\n      sload\n      tag_233\n      swap2\n      swap1\n      tag_133\n      jump\t// in\n    tag_233:\n      swap3\n      pop\n      pop\n      dup2\n      swap1\n      sstore\n      pop\n        /* \"@openzeppelin/contracts/token/ERC20/ERC20.sol\":8680:8686  amount */\n      dup1\n        /* \"@openzeppelin/contracts/token/ERC20/ERC20.sol\":8658:8667  _balances */\n      0x00\n        /* \"@openzeppelin/contracts/token/ERC20/ERC20.sol\":8658:8676  _balances[account] */\n      dup1\n        /* \"@openzeppelin/contracts/token/ERC20/ERC20.sol\":8668:8675  account */\n      dup5\n        /* \"@openzeppelin/contracts/token/ERC20/ERC20.sol\":8658:8676  _balances[account] */\n      0xffffffffffffffffffffffffffffffffffffffff\n      and\n      0xffffffffffffffffffffffffffffffffffffffff\n      and\n      dup2\n      mstore\n      0x20\n      add\n      swap1\n      dup2\n      mstore\n      0x20\n      add\n      0x00\n      keccak256\n      0x00\n        /* \"@openzeppelin/contracts/token/ERC20/ERC20.sol\":8658:8686  _balances[account] += amount */\n      dup3\n      dup3\n      sload\n      tag_234\n      swap2\n      swap1\n      tag_133\n      jump\t// in\n    tag_234:\n      swap3\n      pop\n      pop\n      dup2\n      swap1\n      sstore\n      pop\n        /* \"@openzeppelin/contracts/token/ERC20/ERC20.sol\":8722:8729  account */\n      dup2\n        /* \"@openzeppelin/contracts/token/ERC20/ERC20.sol\":8701:8738  Transfer(address(0), account, amount) */\n      0xffffffffffffffffffffffffffffffffffffffff\n      and\n        /* \"@openzeppelin/contracts/token/ERC20/ERC20.sol\":8718:8719  0 */\n      0x00\n        /* \"@openzeppelin/contracts/token/ERC20/ERC20.sol\":8701:8738  Transfer(address(0), account, amount) */\n      0xffffffffffffffffffffffffffffffffffffffff\n      and\n      0xddf252ad1be2c89b69c2b068fc378daa952ba7f163c4a11628f55a4df523b3ef\n        /* \"@openzeppelin/contracts/token/ERC20/ERC20.sol\":8731:8737  amount */\n      dup4\n        /* \"@openzeppelin/contracts/token/ERC20/ERC20.sol\":8701:8738  Transfer(address(0), account, amount) */\n      mload(0x40)\n      tag_235\n      swap2\n      swap1\n      tag_39\n      jump\t// in\n    tag_235:\n      mload(0x40)\n      dup1\n      swap2\n      sub\n      swap1\n      log3\n        /* \"@openzeppelin/contracts/token/ERC20/ERC20.sol\":8749:8797  _afterTokenTransfer(address(0), account, amount) */\n      tag_236\n        /* \"@openzeppelin/contracts/token/ERC20/ERC20.sol\":8777:8778  0 */\n      0x00\n        /* \"@openzeppelin/contracts/token/ERC20/ERC20.sol\":8781:8788  account */\n      dup4\n        /* \"@openzeppelin/contracts/token/ERC20/ERC20.sol\":8790:8796  amount */\n      dup4\n        /* \"@openzeppelin/contracts/token/ERC20/ERC20.sol\":8749:8768  _afterTokenTransfer */\n      tag_227\n        /* \"@openzeppelin/contracts/token/ERC20/ERC20.sol\":8749:8797  _afterTokenTransfer(address(0), account, amount) */\n      jump\t// in\n    tag_236:\n        /* \"@openzeppelin/contracts/token/ERC20/ERC20.sol\":8415:8804  function _mint(address account, uint256 amount) internal virtual {... */\n      pop\n      pop\n      jump\t// out\n        /* \"@openzeppelin/contracts/access/Ownable.sol\":2270:2457  function _transferOwnership(address newOwner) internal virtual {... */\n    tag_151:\n        /* \"@openzeppelin/contracts/access/Ownable.sol\":2343:2359  address oldOwner */\n      0x00\n        /* \"@openzeppelin/contracts/access/Ownable.sol\":2362:2368  _owner */\n      0x05\n      0x00\n      swap1\n      sload\n      swap1\n      0x0100\n      exp\n      swap1\n      div\n      0xffffffffffffffffffffffffffffffffffffffff\n      and\n        /* \"@openzeppelin/contracts/access/Ownable.sol\":2343:2368  address oldOwner = _owner */\n      swap1\n      pop\n        /* \"@openzeppelin/contracts/access/Ownable.sol\":2387:2395  newOwner */\n      dup2\n        /* \"@openzeppelin/contracts/access/Ownable.sol\":2378:2384  _owner */\n      0x05\n      0x00\n        /* \"@openzeppelin/contracts/access/Ownable.sol\":2378:2395  _owner = newOwner */\n      0x0100\n      exp\n      dup2\n      sload\n      dup2\n      0xffffffffffffffffffffffffffffffffffffffff\n      mul\n      not\n      and\n      swap1\n      dup4\n      0xffffffffffffffffffffffffffffffffffffffff\n      and\n      mul\n      or\n      swap1\n      sstore\n      pop\n        /* \"@openzeppelin/contracts/access/Ownable.sol\":2441:2449  newOwner */\n      dup2\n        /* \"@openzeppelin/contracts/access/Ownable.sol\":2410:2450  OwnershipTransferred(oldOwner, newOwner) */\n      0xffffffffffffffffffffffffffffffffffffffff\n      and\n        /* \"@openzeppelin/contracts/access/Ownable.sol\":2431:2439  oldOwner */\n      dup2\n        /* \"@openzeppelin/contracts/access/Ownable.sol\":2410:2450  OwnershipTransferred(oldOwner, newOwner) */\n      0xffffffffffffffffffffffffffffffffffffffff\n      and\n      0x8be0079c531659141344cd1fd0a4f28419497f9722a3daafe3b4186f6b6457e0\n      mload(0x40)\n      mload(0x40)\n      dup1\n      swap2\n      sub\n      swap1\n      log3\n        /* \"@openzeppelin/contracts/access/Ownable.sol\":2333:2457  {... */\n      pop\n        /* \"@openzeppelin/contracts/access/Ownable.sol\":2270:2457  function _transferOwnership(address newOwner) internal virtual {... */\n      pop\n      jump\t// out\n        /* \"@openzeppelin/contracts/token/ERC20/ERC20.sol\":11795:11916  function _beforeTokenTransfer(... */\n    tag_220:\n      pop\n      pop\n      pop\n      jump\t// out\n        /* \"@openzeppelin/contracts/token/ERC20/ERC20.sol\":12504:12624  function _afterTokenTransfer(... */\n    tag_227:\n      pop\n      pop\n      pop\n      jump\t// out\n        /* \"#utility.yul\":7:146   */\n    tag_241:\n        /* \"#utility.yul\":53:58   */\n      0x00\n        /* \"#utility.yul\":91:97   */\n      dup2\n        /* \"#utility.yul\":78:98   */\n      calldataload\n        /* \"#utility.yul\":69:98   */\n      swap1\n      pop\n        /* \"#utility.yul\":107:140   */\n      tag_243\n        /* \"#utility.yul\":134:139   */\n      dup2\n        /* \"#utility.yul\":107:140   */\n      tag_244\n      jump\t// in\n    tag_243:\n        /* \"#utility.yul\":7:146   */\n      swap3\n      swap2\n      pop\n      pop\n      jump\t// out\n        /* \"#utility.yul\":152:291   */\n    tag_245:\n        /* \"#utility.yul\":198:203   */\n      0x00\n        /* \"#utility.yul\":236:242   */\n      dup2\n        /* \"#utility.yul\":223:243   */\n      calldataload\n        /* \"#utility.yul\":214:243   */\n      swap1\n      pop\n        /* \"#utility.yul\":252:285   */\n      tag_247\n        /* \"#utility.yul\":279:284   */\n      dup2\n        /* \"#utility.yul\":252:285   */\n      tag_248\n      jump\t// in\n    tag_247:\n        /* \"#utility.yul\":152:291   */\n      swap3\n      swap2\n      pop\n      pop\n      jump\t// out\n        /* \"#utility.yul\":297:626   */\n    tag_67:\n        /* \"#utility.yul\":356:362   */\n      0x00\n        /* \"#utility.yul\":405:407   */\n      0x20\n        /* \"#utility.yul\":393:402   */\n      dup3\n        /* \"#utility.yul\":384:391   */\n      dup5\n        /* \"#utility.yul\":380:403   */\n      sub\n        /* \"#utility.yul\":376:408   */\n      slt\n        /* \"#utility.yul\":373:492   */\n      iszero\n      tag_250\n      jumpi\n        /* \"#utility.yul\":411:490   */\n      tag_251\n      tag_252\n      jump\t// in\n    tag_251:\n        /* \"#utility.yul\":373:492   */\n    tag_250:\n        /* \"#utility.yul\":531:532   */\n      0x00\n        /* \"#utility.yul\":556:609   */\n      tag_253\n        /* \"#utility.yul\":601:608   */\n      dup5\n        /* \"#utility.yul\":592:598   */\n      dup3\n        /* \"#utility.yul\":581:590   */\n      dup6\n        /* \"#utility.yul\":577:599   */\n      add\n        /* \"#utility.yul\":556:609   */\n      tag_241\n      jump\t// in\n    tag_253:\n        /* \"#utility.yul\":546:609   */\n      swap2\n      pop\n        /* \"#utility.yul\":502:619   */\n      pop\n        /* \"#utility.yul\":297:626   */\n      swap3\n      swap2\n      pop\n      pop\n      jump\t// out\n        /* \"#utility.yul\":632:1106   */\n    tag_102:\n        /* \"#utility.yul\":700:706   */\n      0x00\n        /* \"#utility.yul\":708:714   */\n      dup1\n        /* \"#utility.yul\":757:759   */\n      0x40\n        /* \"#utility.yul\":745:754   */\n      dup4\n        /* \"#utility.yul\":736:743   */\n      dup6\n        /* \"#utility.yul\":732:755   */\n      sub\n        /* \"#utility.yul\":728:760   */\n      slt\n        /* \"#utility.yul\":725:844   */\n      iszero\n      tag_255\n      jumpi\n        /* \"#utility.yul\":763:842   */\n      tag_256\n      tag_252\n      jump\t// in\n    tag_256:\n        /* \"#utility.yul\":725:844   */\n    tag_255:\n        /* \"#utility.yul\":883:884   */\n      0x00\n        /* \"#utility.yul\":908:961   */\n      tag_257\n        /* \"#utility.yul\":953:960   */\n      dup6\n        /* \"#utility.yul\":944:950   */\n      dup3\n        /* \"#utility.yul\":933:942   */\n      dup7\n        /* \"#utility.yul\":929:951   */\n      add\n        /* \"#utility.yul\":908:961   */\n      tag_241\n      jump\t// in\n    tag_257:\n        /* \"#utility.yul\":898:961   */\n      swap3\n      pop\n        /* \"#utility.yul\":854:971   */\n      pop\n        /* \"#utility.yul\":1010:1012   */\n      0x20\n        /* \"#utility.yul\":1036:1089   */\n      tag_258\n        /* \"#utility.yul\":1081:1088   */\n      dup6\n        /* \"#utility.yul\":1072:1078   */\n      dup3\n        /* \"#utility.yul\":1061:1070   */\n      dup7\n        /* \"#utility.yul\":1057:1079   */\n      add\n        /* \"#utility.yul\":1036:1089   */\n      tag_241\n      jump\t// in\n    tag_258:\n        /* \"#utility.yul\":1026:1089   */\n      swap2\n      pop\n        /* \"#utility.yul\":981:1099   */\n      pop\n        /* \"#utility.yul\":632:1106   */\n      swap3\n      pop\n      swap3\n      swap1\n      pop\n      jump\t// out\n        /* \"#utility.yul\":1112:1731   */\n    tag_43:\n        /* \"#utility.yul\":1189:1195   */\n      0x00\n        /* \"#utility.yul\":1197:1203   */\n      dup1\n        /* \"#utility.yul\":1205:1211   */\n      0x00\n        /* \"#utility.yul\":1254:1256   */\n      0x60\n        /* \"#utility.yul\":1242:1251   */\n      dup5\n        /* \"#utility.yul\":1233:1240   */\n      dup7\n        /* \"#utility.yul\":1229:1252   */\n      sub\n        /* \"#utility.yul\":1225:1257   */\n      slt\n        /* \"#utility.yul\":1222:1341   */\n      iszero\n      tag_260\n      jumpi\n        /* \"#utility.yul\":1260:1339   */\n      tag_261\n      tag_252\n      jump\t// in\n    tag_261:\n        /* \"#utility.yul\":1222:1341   */\n    tag_260:\n        /* \"#utility.yul\":1380:1381   */\n      0x00\n        /* \"#utility.yul\":1405:1458   */\n      tag_262\n        /* \"#utility.yul\":1450:1457   */\n      dup7\n        /* \"#utility.yul\":1441:1447   */\n      dup3\n        /* \"#utility.yul\":1430:1439   */\n      dup8\n        /* \"#utility.yul\":1426:1448   */\n      add\n        /* \"#utility.yul\":1405:1458   */\n      tag_241\n      jump\t// in\n    tag_262:\n        /* \"#utility.yul\":1395:1458   */\n      swap4\n      pop\n        /* \"#utility.yul\":1351:1468   */\n      pop\n        /* \"#utility.yul\":1507:1509   */\n      0x20\n        /* \"#utility.yul\":1533:1586   */\n      tag_263\n        /* \"#utility.yul\":1578:1585   */\n      dup7\n        /* \"#utility.yul\":1569:1575   */\n      dup3\n        /* \"#utility.yul\":1558:1567   */\n      dup8\n        /* \"#utility.yul\":1554:1576   */\n      add\n        /* \"#utility.yul\":1533:1586   */\n      tag_241\n      jump\t// in\n    tag_263:\n        /* \"#utility.yul\":1523:1586   */\n      swap3\n      pop\n        /* \"#utility.yul\":1478:1596   */\n      pop\n        /* \"#utility.yul\":1635:1637   */\n      0x40\n        /* \"#utility.yul\":1661:1714   */\n      tag_264\n        /* \"#utility.yul\":1706:1713   */\n      dup7\n        /* \"#utility.yul\":1697:1703   */\n      dup3\n        /* \"#utility.yul\":1686:1695   */\n      dup8\n        /* \"#utility.yul\":1682:1704   */\n      add\n        /* \"#utility.yul\":1661:1714   */\n      tag_245\n      jump\t// in\n    tag_264:\n        /* \"#utility.yul\":1651:1714   */\n      swap2\n      pop\n        /* \"#utility.yul\":1606:1724   */\n      pop\n        /* \"#utility.yul\":1112:1731   */\n      swap3\n      pop\n      swap3\n      pop\n      swap3\n      jump\t// out\n        /* \"#utility.yul\":1737:2211   */\n    tag_31:\n        /* \"#utility.yul\":1805:1811   */\n      0x00\n        /* \"#utility.yul\":1813:1819   */\n      dup1\n        /* \"#utility.yul\":1862:1864   */\n      0x40\n        /* \"#utility.yul\":1850:1859   */\n      dup4\n        /* \"#utility.yul\":1841:1848   */\n      dup6\n        /* \"#utility.yul\":1837:1860   */\n      sub\n        /* \"#utility.yul\":1833:1865   */\n      slt\n        /* \"#utility.yul\":1830:1949   */\n      iszero\n      tag_266\n      jumpi\n        /* \"#utility.yul\":1868:1947   */\n      tag_267\n      tag_252\n      jump\t// in\n    tag_267:\n        /* \"#utility.yul\":1830:1949   */\n    tag_266:\n        /* \"#utility.yul\":1988:1989   */\n      0x00\n        /* \"#utility.yul\":2013:2066   */\n      tag_268\n        /* \"#utility.yul\":2058:2065   */\n      dup6\n        /* \"#utility.yul\":2049:2055   */\n      dup3\n        /* \"#utility.yul\":2038:2047   */\n      dup7\n        /* \"#utility.yul\":2034:2056   */\n      add\n        /* \"#utility.yul\":2013:2066   */\n      tag_241\n      jump\t// in\n    tag_268:\n        /* \"#utility.yul\":2003:2066   */\n      swap3\n      pop\n        /* \"#utility.yul\":1959:2076   */\n      pop\n        /* \"#utility.yul\":2115:2117   */\n      0x20\n        /* \"#utility.yul\":2141:2194   */\n      tag_269\n        /* \"#utility.yul\":2186:2193   */\n      dup6\n        /* \"#utility.yul\":2177:2183   */\n      dup3\n        /* \"#utility.yul\":2166:2175   */\n      dup7\n        /* \"#utility.yul\":2162:2184   */\n      add\n        /* \"#utility.yul\":2141:2194   */\n      tag_245\n      jump\t// in\n    tag_269:\n        /* \"#utility.yul\":2131:2194   */\n      swap2\n      pop\n        /* \"#utility.yul\":2086:2204   */\n      pop\n        /* \"#utility.yul\":1737:2211   */\n      swap3\n      pop\n      swap3\n      swap1\n      pop\n      jump\t// out\n        /* \"#utility.yul\":2217:2335   */\n    tag_270:\n        /* \"#utility.yul\":2304:2328   */\n      tag_272\n        /* \"#utility.yul\":2322:2327   */\n      dup2\n        /* \"#utility.yul\":2304:2328   */\n      tag_273\n      jump\t// in\n    tag_272:\n        /* \"#utility.yul\":2299:2302   */\n      dup3\n        /* \"#utility.yul\":2292:2329   */\n      mstore\n        /* \"#utility.yul\":2217:2335   */\n      pop\n      pop\n      jump\t// out\n        /* \"#utility.yul\":2341:2450   */\n    tag_274:\n        /* \"#utility.yul\":2422:2443   */\n      tag_276\n        /* \"#utility.yul\":2437:2442   */\n      dup2\n        /* \"#utility.yul\":2422:2443   */\n      tag_277\n      jump\t// in\n    tag_276:\n        /* \"#utility.yul\":2417:2420   */\n      dup3\n        /* \"#utility.yul\":2410:2444   */\n      mstore\n        /* \"#utility.yul\":2341:2450   */\n      pop\n      pop\n      jump\t// out\n        /* \"#utility.yul\":2456:2820   */\n    tag_278:\n        /* \"#utility.yul\":2544:2547   */\n      0x00\n        /* \"#utility.yul\":2572:2611   */\n      tag_280\n        /* \"#utility.yul\":2605:2610   */\n      dup3\n        /* \"#utility.yul\":2572:2611   */\n      tag_281\n      jump\t// in\n    tag_280:\n        /* \"#utility.yul\":2627:2698   */\n      tag_282\n        /* \"#utility.yul\":2691:2697   */\n      dup2\n        /* \"#utility.yul\":2686:2689   */\n      dup6\n        /* \"#utility.yul\":2627:2698   */\n      tag_283\n      jump\t// in\n    tag_282:\n        /* \"#utility.yul\":2620:2698   */\n      swap4\n      pop\n        /* \"#utility.yul\":2707:2759   */\n      tag_284\n        /* \"#utility.yul\":2752:2758   */\n      dup2\n        /* \"#utility.yul\":2747:2750   */\n      dup6\n        /* \"#utility.yul\":2740:2744   */\n      0x20\n        /* \"#utility.yul\":2733:2738   */\n      dup7\n        /* \"#utility.yul\":2729:2745   */\n      add\n        /* \"#utility.yul\":2707:2759   */\n      tag_285\n      jump\t// in\n    tag_284:\n        /* \"#utility.yul\":2784:2813   */\n      tag_286\n        /* \"#utility.yul\":2806:2812   */\n      dup2\n        /* \"#utility.yul\":2784:2813   */\n      tag_287\n      jump\t// in\n    tag_286:\n        /* \"#utility.yul\":2779:2782   */\n      dup5\n        /* \"#utility.yul\":2775:2814   */\n      add\n        /* \"#utility.yul\":2768:2814   */\n      swap2\n      pop\n        /* \"#utility.yul\":2548:2820   */\n      pop\n        /* \"#utility.yul\":2456:2820   */\n      swap3\n      swap2\n      pop\n      pop\n      jump\t// out\n        /* \"#utility.yul\":2826:3192   */\n    tag_288:\n        /* \"#utility.yul\":2968:2971   */\n      0x00\n        /* \"#utility.yul\":2989:3056   */\n      tag_290\n        /* \"#utility.yul\":3053:3055   */\n      0x23\n        /* \"#utility.yul\":3048:3051   */\n      dup4\n        /* \"#utility.yul\":2989:3056   */\n      tag_283\n      jump\t// in\n    tag_290:\n        /* \"#utility.yul\":2982:3056   */\n      swap2\n      pop\n        /* \"#utility.yul\":3065:3158   */\n      tag_291\n        /* \"#utility.yul\":3154:3157   */\n      dup3\n        /* \"#utility.yul\":3065:3158   */\n      tag_292\n      jump\t// in\n    tag_291:\n        /* \"#utility.yul\":3183:3185   */\n      0x40\n        /* \"#utility.yul\":3178:3181   */\n      dup3\n        /* \"#utility.yul\":3174:3186   */\n      add\n        /* \"#utility.yul\":3167:3186   */\n      swap1\n      pop\n        /* \"#utility.yul\":2826:3192   */\n      swap2\n      swap1\n      pop\n      jump\t// out\n        /* \"#utility.yul\":3198:3564   */\n    tag_293:\n        /* \"#utility.yul\":3340:3343   */\n      0x00\n        /* \"#utility.yul\":3361:3428   */\n      tag_295\n        /* \"#utility.yul\":3425:3427   */\n      0x26\n        /* \"#utility.yul\":3420:3423   */\n      dup4\n        /* \"#utility.yul\":3361:3428   */\n      tag_283\n      jump\t// in\n    tag_295:\n        /* \"#utility.yul\":3354:3428   */\n      swap2\n      pop\n        /* \"#utility.yul\":3437:3530   */\n      tag_296\n        /* \"#utility.yul\":3526:3529   */\n      dup3\n        /* \"#utility.yul\":3437:3530   */\n      tag_297\n      jump\t// in\n    tag_296:\n        /* \"#utility.yul\":3555:3557   */\n      0x40\n        /* \"#utility.yul\":3550:3553   */\n      dup3\n        /* \"#utility.yul\":3546:3558   */\n      add\n        /* \"#utility.yul\":3539:3558   */\n      swap1\n      pop\n        /* \"#utility.yul\":3198:3564   */\n      swap2\n      swap1\n      pop\n      jump\t// out\n        /* \"#utility.yul\":3570:3936   */\n    tag_298:\n        /* \"#utility.yul\":3712:3715   */\n      0x00\n        /* \"#utility.yul\":3733:3800   */\n      tag_300\n        /* \"#utility.yul\":3797:3799   */\n      0x22\n        /* \"#utility.yul\":3792:3795   */\n      dup4\n        /* \"#utility.yul\":3733:3800   */\n      tag_283\n      jump\t// in\n    tag_300:\n        /* \"#utility.yul\":3726:3800   */\n      swap2\n      pop\n        /* \"#utility.yul\":3809:3902   */\n      tag_301\n        /* \"#utility.yul\":3898:3901   */\n      dup3\n        /* \"#utility.yul\":3809:3902   */\n      tag_302\n      jump\t// in\n    tag_301:\n        /* \"#utility.yul\":3927:3929   */\n      0x40\n        /* \"#utility.yul\":3922:3925   */\n      dup3\n        /* \"#utility.yul\":3918:3930   */\n      add\n        /* \"#utility.yul\":3911:3930   */\n      swap1\n      pop\n        /* \"#utility.yul\":3570:3936   */\n      swap2\n      swap1\n      pop\n      jump\t// out\n        /* \"#utility.yul\":3942:4308   */\n    tag_303:\n        /* \"#utility.yul\":4084:4087   */\n      0x00\n        /* \"#utility.yul\":4105:4172   */\n      tag_305\n        /* \"#utility.yul\":4169:4171   */\n      0x1b\n        /* \"#utility.yul\":4164:4167   */\n      dup4\n        /* \"#utility.yul\":4105:4172   */\n      tag_283\n      jump\t// in\n    tag_305:\n        /* \"#utility.yul\":4098:4172   */\n      swap2\n      pop\n        /* \"#utility.yul\":4181:4274   */\n      tag_306\n        /* \"#utility.yul\":4270:4273   */\n      dup3\n        /* \"#utility.yul\":4181:4274   */\n      tag_307\n      jump\t// in\n    tag_306:\n        /* \"#utility.yul\":4299:4301   */\n      0x20\n        /* \"#utility.yul\":4294:4297   */\n      dup3\n        /* \"#utility.yul\":4290:4302   */\n      add\n        /* \"#utility.yul\":4283:4302   */\n      swap1\n      pop\n        /* \"#utility.yul\":3942:4308   */\n      swap2\n      swap1\n      pop\n      jump\t// out\n        /* \"#utility.yul\":4314:4680   */\n    tag_308:\n        /* \"#utility.yul\":4456:4459   */\n      0x00\n        /* \"#utility.yul\":4477:4544   */\n      tag_310\n        /* \"#utility.yul\":4541:4543   */\n      0x1d\n        /* \"#utility.yul\":4536:4539   */\n      dup4\n        /* \"#utility.yul\":4477:4544   */\n      tag_283\n      jump\t// in\n    tag_310:\n        /* \"#utility.yul\":4470:4544   */\n      swap2\n      pop\n        /* \"#utility.yul\":4553:4646   */\n      tag_311\n        /* \"#utility.yul\":4642:4645   */\n      dup3\n        /* \"#utility.yul\":4553:4646   */\n      tag_312\n      jump\t// in\n    tag_311:\n        /* \"#utility.yul\":4671:4673   */\n      0x20\n        /* \"#utility.yul\":4666:4669   */\n      dup3\n        /* \"#utility.yul\":4662:4674   */\n      add\n        /* \"#utility.yul\":4655:4674   */\n      swap1\n      pop\n        /* \"#utility.yul\":4314:4680   */\n      swap2\n      swap1\n      pop\n      jump\t// out\n        /* \"#utility.yul\":4686:5052   */\n    tag_313:\n        /* \"#utility.yul\":4828:4831   */\n      0x00\n        /* \"#utility.yul\":4849:4916   */\n      tag_315\n        /* \"#utility.yul\":4913:4915   */\n      0x26\n        /* \"#utility.yul\":4908:4911   */\n      dup4\n        /* \"#utility.yul\":4849:4916   */\n      tag_283\n      jump\t// in\n    tag_315:\n        /* \"#utility.yul\":4842:4916   */\n      swap2\n      pop\n        /* \"#utility.yul\":4925:5018   */\n      tag_316\n        /* \"#utility.yul\":5014:5017   */\n      dup3\n        /* \"#utility.yul\":4925:5018   */\n      tag_317\n      jump\t// in\n    tag_316:\n        /* \"#utility.yul\":5043:5045   */\n      0x40\n        /* \"#utility.yul\":5038:5041   */\n      dup3\n        /* \"#utility.yul\":5034:5046   */\n      add\n        /* \"#utility.yul\":5027:5046   */\n      swap1\n      pop\n        /* \"#utility.yul\":4686:5052   */\n      swap2\n      swap1\n      pop\n      jump\t// out\n        /* \"#utility.yul\":5058:5424   */\n    tag_318:\n        /* \"#utility.yul\":5200:5203   */\n      0x00\n        /* \"#utility.yul\":5221:5288   */\n      tag_320\n        /* \"#utility.yul\":5285:5287   */\n      0x20\n        /* \"#utility.yul\":5280:5283   */\n      dup4\n        /* \"#utility.yul\":5221:5288   */\n      tag_283\n      jump\t// in\n    tag_320:\n        /* \"#utility.yul\":5214:5288   */\n      swap2\n      pop\n        /* \"#utility.yul\":5297:5390   */\n      tag_321\n        /* \"#utility.yul\":5386:5389   */\n      dup3\n        /* \"#utility.yul\":5297:5390   */\n      tag_322\n      jump\t// in\n    tag_321:\n        /* \"#utility.yul\":5415:5417   */\n      0x20\n        /* \"#utility.yul\":5410:5413   */\n      dup3\n        /* \"#utility.yul\":5406:5418   */\n      add\n        /* \"#utility.yul\":5399:5418   */\n      swap1\n      pop\n        /* \"#utility.yul\":5058:5424   */\n      swap2\n      swap1\n      pop\n      jump\t// out\n        /* \"#utility.yul\":5430:5796   */\n    tag_323:\n        /* \"#utility.yul\":5572:5575   */\n      0x00\n        /* \"#utility.yul\":5593:5660   */\n      tag_325\n        /* \"#utility.yul\":5657:5659   */\n      0x25\n        /* \"#utility.yul\":5652:5655   */\n      dup4\n        /* \"#utility.yul\":5593:5660   */\n      tag_283\n      jump\t// in\n    tag_325:\n        /* \"#utility.yul\":5586:5660   */\n      swap2\n      pop\n        /* \"#utility.yul\":5669:5762   */\n      tag_326\n        /* \"#utility.yul\":5758:5761   */\n      dup3\n        /* \"#utility.yul\":5669:5762   */\n      tag_327\n      jump\t// in\n    tag_326:\n        /* \"#utility.yul\":5787:5789   */\n      0x40\n        /* \"#utility.yul\":5782:5785   */\n      dup3\n        /* \"#utility.yul\":5778:5790   */\n      add\n        /* \"#utility.yul\":5771:5790   */\n      swap1\n      pop\n        /* \"#utility.yul\":5430:5796   */\n      swap2\n      swap1\n      pop\n      jump\t// out\n        /* \"#utility.yul\":5802:6168   */\n    tag_328:\n        /* \"#utility.yul\":5944:5947   */\n      0x00\n        /* \"#utility.yul\":5965:6032   */\n      tag_330\n        /* \"#utility.yul\":6029:6031   */\n      0x24\n        /* \"#utility.yul\":6024:6027   */\n      dup4\n        /* \"#utility.yul\":5965:6032   */\n      tag_283\n      jump\t// in\n    tag_330:\n        /* \"#utility.yul\":5958:6032   */\n      swap2\n      pop\n        /* \"#utility.yul\":6041:6134   */\n      tag_331\n        /* \"#utility.yul\":6130:6133   */\n      dup3\n        /* \"#utility.yul\":6041:6134   */\n      tag_332\n      jump\t// in\n    tag_331:\n        /* \"#utility.yul\":6159:6161   */\n      0x40\n        /* \"#utility.yul\":6154:6157   */\n      dup3\n        /* \"#utility.yul\":6150:6162   */\n      add\n        /* \"#utility.yul\":6143:6162   */\n      swap1\n      pop\n        /* \"#utility.yul\":5802:6168   */\n      swap2\n      swap1\n      pop\n      jump\t// out\n        /* \"#utility.yul\":6174:6540   */\n    tag_333:\n        /* \"#utility.yul\":6316:6319   */\n      0x00\n        /* \"#utility.yul\":6337:6404   */\n      tag_335\n        /* \"#utility.yul\":6401:6403   */\n      0x25\n        /* \"#utility.yul\":6396:6399   */\n      dup4\n        /* \"#utility.yul\":6337:6404   */\n      tag_283\n      jump\t// in\n    tag_335:\n        /* \"#utility.yul\":6330:6404   */\n      swap2\n      pop\n        /* \"#utility.yul\":6413:6506   */\n      tag_336\n        /* \"#utility.yul\":6502:6505   */\n      dup3\n        /* \"#utility.yul\":6413:6506   */\n      tag_337\n      jump\t// in\n    tag_336:\n        /* \"#utility.yul\":6531:6533   */\n      0x40\n        /* \"#utility.yul\":6526:6529   */\n      dup3\n        /* \"#utility.yul\":6522:6534   */\n      add\n        /* \"#utility.yul\":6515:6534   */\n      swap1\n      pop\n        /* \"#utility.yul\":6174:6540   */\n      swap2\n      swap1\n      pop\n      jump\t// out\n        /* \"#utility.yul\":6546:6912   */\n    tag_338:\n        /* \"#utility.yul\":6688:6691   */\n      0x00\n        /* \"#utility.yul\":6709:6776   */\n      tag_340\n        /* \"#utility.yul\":6773:6775   */\n      0x1f\n        /* \"#utility.yul\":6768:6771   */\n      dup4\n        /* \"#utility.yul\":6709:6776   */\n      tag_283\n      jump\t// in\n    tag_340:\n        /* \"#utility.yul\":6702:6776   */\n      swap2\n      pop\n        /* \"#utility.yul\":6785:6878   */\n      tag_341\n        /* \"#utility.yul\":6874:6877   */\n      dup3\n        /* \"#utility.yul\":6785:6878   */\n      tag_342\n      jump\t// in\n    tag_341:\n        /* \"#utility.yul\":6903:6905   */\n      0x20\n        /* \"#utility.yul\":6898:6901   */\n      dup3\n        /* \"#utility.yul\":6894:6906   */\n      add\n        /* \"#utility.yul\":6887:6906   */\n      swap1\n      pop\n        /* \"#utility.yul\":6546:6912   */\n      swap2\n      swap1\n      pop\n      jump\t// out\n        /* \"#utility.yul\":6918:7036   */\n    tag_343:\n        /* \"#utility.yul\":7005:7029   */\n      tag_345\n        /* \"#utility.yul\":7023:7028   */\n      dup2\n        /* \"#utility.yul\":7005:7029   */\n      tag_346\n      jump\t// in\n    tag_345:\n        /* \"#utility.yul\":7000:7003   */\n      dup3\n        /* \"#utility.yul\":6993:7030   */\n      mstore\n        /* \"#utility.yul\":6918:7036   */\n      pop\n      pop\n      jump\t// out\n        /* \"#utility.yul\":7042:7154   */\n    tag_347:\n        /* \"#utility.yul\":7125:7147   */\n      tag_349\n        /* \"#utility.yul\":7141:7146   */\n      dup2\n        /* \"#utility.yul\":7125:7147   */\n      tag_350\n      jump\t// in\n    tag_349:\n        /* \"#utility.yul\":7120:7123   */\n      dup3\n        /* \"#utility.yul\":7113:7148   */\n      mstore\n        /* \"#utility.yul\":7042:7154   */\n      pop\n      pop\n      jump\t// out\n        /* \"#utility.yul\":7160:7382   */\n    tag_80:\n        /* \"#utility.yul\":7253:7257   */\n      0x00\n        /* \"#utility.yul\":7291:7293   */\n      0x20\n        /* \"#utility.yul\":7280:7289   */\n      dup3\n        /* \"#utility.yul\":7276:7294   */\n      add\n        /* \"#utility.yul\":7268:7294   */\n      swap1\n      pop\n        /* \"#utility.yul\":7304:7375   */\n      tag_352\n        /* \"#utility.yul\":7372:7373   */\n      0x00\n        /* \"#utility.yul\":7361:7370   */\n      dup4\n        /* \"#utility.yul\":7357:7374   */\n      add\n        /* \"#utility.yul\":7348:7354   */\n      dup5\n        /* \"#utility.yul\":7304:7375   */\n      tag_270\n      jump\t// in\n    tag_352:\n        /* \"#utility.yul\":7160:7382   */\n      swap3\n      swap2\n      pop\n      pop\n      jump\t// out\n        /* \"#utility.yul\":7388:7830   */\n    tag_162:\n        /* \"#utility.yul\":7537:7541   */\n      0x00\n        /* \"#utility.yul\":7575:7577   */\n      0x60\n        /* \"#utility.yul\":7564:7573   */\n      dup3\n        /* \"#utility.yul\":7560:7578   */\n      add\n        /* \"#utility.yul\":7552:7578   */\n      swap1\n      pop\n        /* \"#utility.yul\":7588:7659   */\n      tag_354\n        /* \"#utility.yul\":7656:7657   */\n      0x00\n        /* \"#utility.yul\":7645:7654   */\n      dup4\n        /* \"#utility.yul\":7641:7658   */\n      add\n        /* \"#utility.yul\":7632:7638   */\n      dup7\n        /* \"#utility.yul\":7588:7659   */\n      tag_270\n      jump\t// in\n    tag_354:\n        /* \"#utility.yul\":7669:7741   */\n      tag_355\n        /* \"#utility.yul\":7737:7739   */\n      0x20\n        /* \"#utility.yul\":7726:7735   */\n      dup4\n        /* \"#utility.yul\":7722:7740   */\n      add\n        /* \"#utility.yul\":7713:7719   */\n      dup6\n        /* \"#utility.yul\":7669:7741   */\n      tag_270\n      jump\t// in\n    tag_355:\n        /* \"#utility.yul\":7751:7823   */\n      tag_356\n        /* \"#utility.yul\":7819:7821   */\n      0x40\n        /* \"#utility.yul\":7808:7817   */\n      dup4\n        /* \"#utility.yul\":7804:7822   */\n      add\n        /* \"#utility.yul\":7795:7801   */\n      dup5\n        /* \"#utility.yul\":7751:7823   */\n      tag_343\n      jump\t// in\n    tag_356:\n        /* \"#utility.yul\":7388:7830   */\n      swap5\n      swap4\n      pop\n      pop\n      pop\n      pop\n      jump\t// out\n        /* \"#utility.yul\":7836:8046   */\n    tag_34:\n        /* \"#utility.yul\":7923:7927   */\n      0x00\n        /* \"#utility.yul\":7961:7963   */\n      0x20\n        /* \"#utility.yul\":7950:7959   */\n      dup3\n        /* \"#utility.yul\":7946:7964   */\n      add\n        /* \"#utility.yul\":7938:7964   */\n      swap1\n      pop\n        /* \"#utility.yul\":7974:8039   */\n      tag_358\n        /* \"#utility.yul\":8036:8037   */\n      0x00\n        /* \"#utility.yul\":8025:8034   */\n      dup4\n        /* \"#utility.yul\":8021:8038   */\n      add\n        /* \"#utility.yul\":8012:8018   */\n      dup5\n        /* \"#utility.yul\":7974:8039   */\n      tag_274\n      jump\t// in\n    tag_358:\n        /* \"#utility.yul\":7836:8046   */\n      swap3\n      swap2\n      pop\n      pop\n      jump\t// out\n        /* \"#utility.yul\":8052:8365   */\n    tag_27:\n        /* \"#utility.yul\":8165:8169   */\n      0x00\n        /* \"#utility.yul\":8203:8205   */\n      0x20\n        /* \"#utility.yul\":8192:8201   */\n      dup3\n        /* \"#utility.yul\":8188:8206   */\n      add\n        /* \"#utility.yul\":8180:8206   */\n      swap1\n      pop\n        /* \"#utility.yul\":8252:8261   */\n      dup2\n        /* \"#utility.yul\":8246:8250   */\n      dup2\n        /* \"#utility.yul\":8242:8262   */\n      sub\n        /* \"#utility.yul\":8238:8239   */\n      0x00\n        /* \"#utility.yul\":8227:8236   */\n      dup4\n        /* \"#utility.yul\":8223:8240   */\n      add\n        /* \"#utility.yul\":8216:8263   */\n      mstore\n        /* \"#utility.yul\":8280:8358   */\n      tag_360\n        /* \"#utility.yul\":8353:8357   */\n      dup2\n        /* \"#utility.yul\":8344:8350   */\n      dup5\n        /* \"#utility.yul\":8280:8358   */\n      tag_278\n      jump\t// in\n    tag_360:\n        /* \"#utility.yul\":8272:8358   */\n      swap1\n      pop\n        /* \"#utility.yul\":8052:8365   */\n      swap3\n      swap2\n      pop\n      pop\n      jump\t// out\n        /* \"#utility.yul\":8371:8790   */\n    tag_218:\n        /* \"#utility.yul\":8537:8541   */\n      0x00\n        /* \"#utility.yul\":8575:8577   */\n      0x20\n        /* \"#utility.yul\":8564:8573   */\n      dup3\n        /* \"#utility.yul\":8560:8578   */\n      add\n        /* \"#utility.yul\":8552:8578   */\n      swap1\n      pop\n        /* \"#utility.yul\":8624:8633   */\n      dup2\n        /* \"#utility.yul\":8618:8622   */\n      dup2\n        /* \"#utility.yul\":8614:8634   */\n      sub\n        /* \"#utility.yul\":8610:8611   */\n      0x00\n        /* \"#utility.yul\":8599:8608   */\n      dup4\n        /* \"#utility.yul\":8595:8612   */\n      add\n        /* \"#utility.yul\":8588:8635   */\n      mstore\n        /* \"#utility.yul\":8652:8783   */\n      tag_362\n        /* \"#utility.yul\":8778:8782   */\n      dup2\n        /* \"#utility.yul\":8652:8783   */\n      tag_288\n      jump\t// in\n    tag_362:\n        /* \"#utility.yul\":8644:8783   */\n      swap1\n      pop\n        /* \"#utility.yul\":8371:8790   */\n      swap2\n      swap1\n      pop\n      jump\t// out\n        /* \"#utility.yul\":8796:9215   */\n    tag_194:\n        /* \"#utility.yul\":8962:8966   */\n      0x00\n        /* \"#utility.yul\":9000:9002   */\n      0x20\n        /* \"#utility.yul\":8989:8998   */\n      dup3\n        /* \"#utility.yul\":8985:9003   */\n      add\n        /* \"#utility.yul\":8977:9003   */\n      swap1\n      pop\n        /* \"#utility.yul\":9049:9058   */\n      dup2\n        /* \"#utility.yul\":9043:9047   */\n      dup2\n        /* \"#utility.yul\":9039:9059   */\n      sub\n        /* \"#utility.yul\":9035:9036   */\n      0x00\n        /* \"#utility.yul\":9024:9033   */\n      dup4\n        /* \"#utility.yul\":9020:9037   */\n      add\n        /* \"#utility.yul\":9013:9060   */\n      mstore\n        /* \"#utility.yul\":9077:9208   */\n      tag_364\n        /* \"#utility.yul\":9203:9207   */\n      dup2\n        /* \"#utility.yul\":9077:9208   */\n      tag_293\n      jump\t// in\n    tag_364:\n        /* \"#utility.yul\":9069:9208   */\n      swap1\n      pop\n        /* \"#utility.yul\":8796:9215   */\n      swap2\n      swap1\n      pop\n      jump\t// out\n        /* \"#utility.yul\":9221:9640   */\n    tag_203:\n        /* \"#utility.yul\":9387:9391   */\n      0x00\n        /* \"#utility.yul\":9425:9427   */\n      0x20\n        /* \"#utility.yul\":9414:9423   */\n      dup3\n        /* \"#utility.yul\":9410:9428   */\n      add\n        /* \"#utility.yul\":9402:9428   */\n      swap1\n      pop\n        /* \"#utility.yul\":9474:9483   */\n      dup2\n        /* \"#utility.yul\":9468:9472   */\n      dup2\n        /* \"#utility.yul\":9464:9484   */\n      sub\n        /* \"#utility.yul\":9460:9461   */\n      0x00\n        /* \"#utility.yul\":9449:9458   */\n      dup4\n        /* \"#utility.yul\":9445:9462   */\n      add\n        /* \"#utility.yul\":9438:9485   */\n      mstore\n        /* \"#utility.yul\":9502:9633   */\n      tag_366\n        /* \"#utility.yul\":9628:9632   */\n      dup2\n        /* \"#utility.yul\":9502:9633   */\n      tag_298\n      jump\t// in\n    tag_366:\n        /* \"#utility.yul\":9494:9633   */\n      swap1\n      pop\n        /* \"#utility.yul\":9221:9640   */\n      swap2\n      swap1\n      pop\n      jump\t// out\n        /* \"#utility.yul\":9646:10065   */\n    tag_155:\n        /* \"#utility.yul\":9812:9816   */\n      0x00\n        /* \"#utility.yul\":9850:9852   */\n      0x20\n        /* \"#utility.yul\":9839:9848   */\n      dup3\n        /* \"#utility.yul\":9835:9853   */\n      add\n        /* \"#utility.yul\":9827:9853   */\n      swap1\n      pop\n        /* \"#utility.yul\":9899:9908   */\n      dup2\n        /* \"#utility.yul\":9893:9897   */\n      dup2\n        /* \"#utility.yul\":9889:9909   */\n      sub\n        /* \"#utility.yul\":9885:9886   */\n      0x00\n        /* \"#utility.yul\":9874:9883   */\n      dup4\n        /* \"#utility.yul\":9870:9887   */\n      add\n        /* \"#utility.yul\":9863:9910   */\n      mstore\n        /* \"#utility.yul\":9927:10058   */\n      tag_368\n        /* \"#utility.yul\":10053:10057   */\n      dup2\n        /* \"#utility.yul\":9927:10058   */\n      tag_303\n      jump\t// in\n    tag_368:\n        /* \"#utility.yul\":9919:10058   */\n      swap1\n      pop\n        /* \"#utility.yul\":9646:10065   */\n      swap2\n      swap1\n      pop\n      jump\t// out\n        /* \"#utility.yul\":10071:10490   */\n    tag_210:\n        /* \"#utility.yul\":10237:10241   */\n      0x00\n        /* \"#utility.yul\":10275:10277   */\n      0x20\n        /* \"#utility.yul\":10264:10273   */\n      dup3\n        /* \"#utility.yul\":10260:10278   */\n      add\n        /* \"#utility.yul\":10252:10278   */\n      swap1\n      pop\n        /* \"#utility.yul\":10324:10333   */\n      dup2\n        /* \"#utility.yul\":10318:10322   */\n      dup2\n        /* \"#utility.yul\":10314:10334   */\n      sub\n        /* \"#utility.yul\":10310:10311   */\n      0x00\n        /* \"#utility.yul\":10299:10308   */\n      dup4\n        /* \"#utility.yul\":10295:10312   */\n      add\n        /* \"#utility.yul\":10288:10335   */\n      mstore\n        /* \"#utility.yul\":10352:10483   */\n      tag_370\n        /* \"#utility.yul\":10478:10482   */\n      dup2\n        /* \"#utility.yul\":10352:10483   */\n      tag_308\n      jump\t// in\n    tag_370:\n        /* \"#utility.yul\":10344:10483   */\n      swap1\n      pop\n        /* \"#utility.yul\":10071:10490   */\n      swap2\n      swap1\n      pop\n      jump\t// out\n        /* \"#utility.yul\":10496:10915   */\n    tag_223:\n        /* \"#utility.yul\":10662:10666   */\n      0x00\n        /* \"#utility.yul\":10700:10702   */\n      0x20\n        /* \"#utility.yul\":10689:10698   */\n      dup3\n        /* \"#utility.yul\":10685:10703   */\n      add\n        /* \"#utility.yul\":10677:10703   */\n      swap1\n      pop\n        /* \"#utility.yul\":10749:10758   */\n      dup2\n        /* \"#utility.yul\":10743:10747   */\n      dup2\n        /* \"#utility.yul\":10739:10759   */\n      sub\n        /* \"#utility.yul\":10735:10736   */\n      0x00\n        /* \"#utility.yul\":10724:10733   */\n      dup4\n        /* \"#utility.yul\":10720:10737   */\n      add\n        /* \"#utility.yul\":10713:10760   */\n      mstore\n        /* \"#utility.yul\":10777:10908   */\n      tag_372\n        /* \"#utility.yul\":10903:10907   */\n      dup2\n        /* \"#utility.yul\":10777:10908   */\n      tag_313\n      jump\t// in\n    tag_372:\n        /* \"#utility.yul\":10769:10908   */\n      swap1\n      pop\n        /* \"#utility.yul\":10496:10915   */\n      swap2\n      swap1\n      pop\n      jump\t// out\n        /* \"#utility.yul\":10921:11340   */\n    tag_139:\n        /* \"#utility.yul\":11087:11091   */\n      0x00\n        /* \"#utility.yul\":11125:11127   */\n      0x20\n        /* \"#utility.yul\":11114:11123   */\n      dup3\n        /* \"#utility.yul\":11110:11128   */\n      add\n        /* \"#utility.yul\":11102:11128   */\n      swap1\n      pop\n        /* \"#utility.yul\":11174:11183   */\n      dup2\n        /* \"#utility.yul\":11168:11172   */\n      dup2\n        /* \"#utility.yul\":11164:11184   */\n      sub\n        /* \"#utility.yul\":11160:11161   */\n      0x00\n        /* \"#utility.yul\":11149:11158   */\n      dup4\n        /* \"#utility.yul\":11145:11162   */\n      add\n        /* \"#utility.yul\":11138:11185   */\n      mstore\n        /* \"#utility.yul\":11202:11333   */\n      tag_374\n        /* \"#utility.yul\":11328:11332   */\n      dup2\n        /* \"#utility.yul\":11202:11333   */\n      tag_318\n      jump\t// in\n    tag_374:\n        /* \"#utility.yul\":11194:11333   */\n      swap1\n      pop\n        /* \"#utility.yul\":10921:11340   */\n      swap2\n      swap1\n      pop\n      jump\t// out\n        /* \"#utility.yul\":11346:11765   */\n    tag_215:\n        /* \"#utility.yul\":11512:11516   */\n      0x00\n        /* \"#utility.yul\":11550:11552   */\n      0x20\n        /* \"#utility.yul\":11539:11548   */\n      dup3\n        /* \"#utility.yul\":11535:11553   */\n      add\n        /* \"#utility.yul\":11527:11553   */\n      swap1\n      pop\n        /* \"#utility.yul\":11599:11608   */\n      dup2\n        /* \"#utility.yul\":11593:11597   */\n      dup2\n        /* \"#utility.yul\":11589:11609   */\n      sub\n        /* \"#utility.yul\":11585:11586   */\n      0x00\n        /* \"#utility.yul\":11574:11583   */\n      dup4\n        /* \"#utility.yul\":11570:11587   */\n      add\n        /* \"#utility.yul\":11563:11610   */\n      mstore\n        /* \"#utility.yul\":11627:11758   */\n      tag_376\n        /* \"#utility.yul\":11753:11757   */\n      dup2\n        /* \"#utility.yul\":11627:11758   */\n      tag_323\n      jump\t// in\n    tag_376:\n        /* \"#utility.yul\":11619:11758   */\n      swap1\n      pop\n        /* \"#utility.yul\":11346:11765   */\n      swap2\n      swap1\n      pop\n      jump\t// out\n        /* \"#utility.yul\":11771:12190   */\n    tag_200:\n        /* \"#utility.yul\":11937:11941   */\n      0x00\n        /* \"#utility.yul\":11975:11977   */\n      0x20\n        /* \"#utility.yul\":11964:11973   */\n      dup3\n        /* \"#utility.yul\":11960:11978   */\n      add\n        /* \"#utility.yul\":11952:11978   */\n      swap1\n      pop\n        /* \"#utility.yul\":12024:12033   */\n      dup2\n        /* \"#utility.yul\":12018:12022   */\n      dup2\n        /* \"#utility.yul\":12014:12034   */\n      sub\n        /* \"#utility.yul\":12010:12011   */\n      0x00\n        /* \"#utility.yul\":11999:12008   */\n      dup4\n        /* \"#utility.yul\":11995:12012   */\n      add\n        /* \"#utility.yul\":11988:12035   */\n      mstore\n        /* \"#utility.yul\":12052:12183   */\n      tag_378\n        /* \"#utility.yul\":12178:12182   */\n      dup2\n        /* \"#utility.yul\":12052:12183   */\n      tag_328\n      jump\t// in\n    tag_378:\n        /* \"#utility.yul\":12044:12183   */\n      swap1\n      pop\n        /* \"#utility.yul\":11771:12190   */\n      swap2\n      swap1\n      pop\n      jump\t// out\n        /* \"#utility.yul\":12196:12615   */\n    tag_174:\n        /* \"#utility.yul\":12362:12366   */\n      0x00\n        /* \"#utility.yul\":12400:12402   */\n      0x20\n        /* \"#utility.yul\":12389:12398   */\n      dup3\n        /* \"#utility.yul\":12385:12403   */\n      add\n        /* \"#utility.yul\":12377:12403   */\n      swap1\n      pop\n        /* \"#utility.yul\":12449:12458   */\n      dup2\n        /* \"#utility.yul\":12443:12447   */\n      dup2\n        /* \"#utility.yul\":12439:12459   */\n      sub\n        /* \"#utility.yul\":12435:12436   */\n      0x00\n        /* \"#utility.yul\":12424:12433   */\n      dup4\n        /* \"#utility.yul\":12420:12437   */\n      add\n        /* \"#utility.yul\":12413:12460   */\n      mstore\n        /* \"#utility.yul\":12477:12608   */\n      tag_380\n        /* \"#utility.yul\":12603:12607   */\n      dup2\n        /* \"#utility.yul\":12477:12608   */\n      tag_333\n      jump\t// in\n    tag_380:\n        /* \"#utility.yul\":12469:12608   */\n      swap1\n      pop\n        /* \"#utility.yul\":12196:12615   */\n      swap2\n      swap1\n      pop\n      jump\t// out\n        /* \"#utility.yul\":12621:13040   */\n    tag_231:\n        /* \"#utility.yul\":12787:12791   */\n      0x00\n        /* \"#utility.yul\":12825:12827   */\n      0x20\n        /* \"#utility.yul\":12814:12823   */\n      dup3\n        /* \"#utility.yul\":12810:12828   */\n      add\n        /* \"#utility.yul\":12802:12828   */\n      swap1\n      pop\n        /* \"#utility.yul\":12874:12883   */\n      dup2\n        /* \"#utility.yul\":12868:12872   */\n      dup2\n        /* \"#utility.yul\":12864:12884   */\n      sub\n        /* \"#utility.yul\":12860:12861   */\n      0x00\n        /* \"#utility.yul\":12849:12858   */\n      dup4\n        /* \"#utility.yul\":12845:12862   */\n      add\n        /* \"#utility.yul\":12838:12885   */\n      mstore\n        /* \"#utility.yul\":12902:13033   */\n      tag_382\n        /* \"#utility.yul\":13028:13032   */\n      dup2\n        /* \"#utility.yul\":12902:13033   */\n      tag_338\n      jump\t// in\n    tag_382:\n        /* \"#utility.yul\":12894:13033   */\n      swap1\n      pop\n        /* \"#utility.yul\":12621:13040   */\n      swap2\n      swap1\n      pop\n      jump\t// out\n        /* \"#utility.yul\":13046:13268   */\n    tag_39:\n        /* \"#utility.yul\":13139:13143   */\n      0x00\n        /* \"#utility.yul\":13177:13179   */\n      0x20\n        /* \"#utility.yul\":13166:13175   */\n      dup3\n        /* \"#utility.yul\":13162:13180   */\n      add\n        /* \"#utility.yul\":13154:13180   */\n      swap1\n      pop\n        /* \"#utility.yul\":13190:13261   */\n      tag_384\n        /* \"#utility.yul\":13258:13259   */\n      0x00\n        /* \"#utility.yul\":13247:13256   */\n      dup4\n        /* \"#utility.yul\":13243:13260   */\n      add\n        /* \"#utility.yul\":13234:13240   */\n      dup5\n        /* \"#utility.yul\":13190:13261   */\n      tag_343\n      jump\t// in\n    tag_384:\n        /* \"#utility.yul\":13046:13268   */\n      swap3\n      swap2\n      pop\n      pop\n      jump\t// out\n        /* \"#utility.yul\":13274:13488   */\n    tag_54:\n        /* \"#utility.yul\":13363:13367   */\n      0x00\n        /* \"#utility.yul\":13401:13403   */\n      0x20\n        /* \"#utility.yul\":13390:13399   */\n      dup3\n        /* \"#utility.yul\":13386:13404   */\n      add\n        /* \"#utility.yul\":13378:13404   */\n      swap1\n      pop\n        /* \"#utility.yul\":13414:13481   */\n      tag_386\n        /* \"#utility.yul\":13478:13479   */\n      0x00\n        /* \"#utility.yul\":13467:13476   */\n      dup4\n        /* \"#utility.yul\":13463:13480   */\n      add\n        /* \"#utility.yul\":13454:13460   */\n      dup5\n        /* \"#utility.yul\":13414:13481   */\n      tag_347\n      jump\t// in\n    tag_386:\n        /* \"#utility.yul\":13274:13488   */\n      swap3\n      swap2\n      pop\n      pop\n      jump\t// out\n        /* \"#utility.yul\":13575:13674   */\n    tag_281:\n        /* \"#utility.yul\":13627:13633   */\n      0x00\n        /* \"#utility.yul\":13661:13666   */\n      dup2\n        /* \"#utility.yul\":13655:13667   */\n      mload\n        /* \"#utility.yul\":13645:13667   */\n      swap1\n      pop\n        /* \"#utility.yul\":13575:13674   */\n      swap2\n      swap1\n      pop\n      jump\t// out\n        /* \"#utility.yul\":13680:13849   */\n    tag_283:\n        /* \"#utility.yul\":13764:13775   */\n      0x00\n        /* \"#utility.yul\":13798:13804   */\n      dup3\n        /* \"#utility.yul\":13793:13796   */\n      dup3\n        /* \"#utility.yul\":13786:13805   */\n      mstore\n        /* \"#utility.yul\":13838:13842   */\n      0x20\n        /* \"#utility.yul\":13833:13836   */\n      dup3\n        /* \"#utility.yul\":13829:13843   */\n      add\n        /* \"#utility.yul\":13814:13843   */\n      swap1\n      pop\n        /* \"#utility.yul\":13680:13849   */\n      swap3\n      swap2\n      pop\n      pop\n      jump\t// out\n        /* \"#utility.yul\":13855:14160   */\n    tag_133:\n        /* \"#utility.yul\":13895:13898   */\n      0x00\n        /* \"#utility.yul\":13914:13934   */\n      tag_392\n        /* \"#utility.yul\":13932:13933   */\n      dup3\n        /* \"#utility.yul\":13914:13934   */\n      tag_346\n      jump\t// in\n    tag_392:\n        /* \"#utility.yul\":13909:13934   */\n      swap2\n      pop\n        /* \"#utility.yul\":13948:13968   */\n      tag_393\n        /* \"#utility.yul\":13966:13967   */\n      dup4\n        /* \"#utility.yul\":13948:13968   */\n      tag_346\n      jump\t// in\n    tag_393:\n        /* \"#utility.yul\":13943:13968   */\n      swap3\n      pop\n        /* \"#utility.yul\":14102:14103   */\n      dup3\n        /* \"#utility.yul\":14034:14100   */\n      0xffffffffffffffffffffffffffffffffffffffffffffffffffffffffffffffff\n        /* \"#utility.yul\":14030:14104   */\n      sub\n        /* \"#utility.yul\":14027:14028   */\n      dup3\n        /* \"#utility.yul\":14024:14105   */\n      gt\n        /* \"#utility.yul\":14021:14128   */\n      iszero\n      tag_394\n      jumpi\n        /* \"#utility.yul\":14108:14126   */\n      tag_395\n      tag_396\n      jump\t// in\n    tag_395:\n        /* \"#utility.yul\":14021:14128   */\n    tag_394:\n        /* \"#utility.yul\":14152:14153   */\n      dup3\n        /* \"#utility.yul\":14149:14150   */\n      dup3\n        /* \"#utility.yul\":14145:14154   */\n      add\n        /* \"#utility.yul\":14138:14154   */\n      swap1\n      pop\n        /* \"#utility.yul\":13855:14160   */\n      swap3\n      swap2\n      pop\n      pop\n      jump\t// out\n        /* \"#utility.yul\":14166:14351   */\n    tag_159:\n        /* \"#utility.yul\":14206:14207   */\n      0x00\n        /* \"#utility.yul\":14223:14243   */\n      tag_398\n        /* \"#utility.yul\":14241:14242   */\n      dup3\n        /* \"#utility.yul\":14223:14243   */\n      tag_346\n      jump\t// in\n    tag_398:\n        /* \"#utility.yul\":14218:14243   */\n      swap2\n      pop\n        /* \"#utility.yul\":14257:14277   */\n      tag_399\n        /* \"#utility.yul\":14275:14276   */\n      dup4\n        /* \"#utility.yul\":14257:14277   */\n      tag_346\n      jump\t// in\n    tag_399:\n        /* \"#utility.yul\":14252:14277   */\n      swap3\n      pop\n        /* \"#utility.yul\":14296:14297   */\n      dup3\n        /* \"#utility.yul\":14286:14321   */\n      tag_400\n      jumpi\n        /* \"#utility.yul\":14301:14319   */\n      tag_401\n      tag_402\n      jump\t// in\n    tag_401:\n        /* \"#utility.yul\":14286:14321   */\n    tag_400:\n        /* \"#utility.yul\":14343:14344   */\n      dup3\n        /* \"#utility.yul\":14340:14341   */\n      dup3\n        /* \"#utility.yul\":14336:14345   */\n      div\n        /* \"#utility.yul\":14331:14345   */\n      swap1\n      pop\n        /* \"#utility.yul\":14166:14351   */\n      swap3\n      swap2\n      pop\n      pop\n      jump\t// out\n        /* \"#utility.yul\":14357:14453   */\n    tag_273:\n        /* \"#utility.yul\":14394:14401   */\n      0x00\n        /* \"#utility.yul\":14423:14447   */\n      tag_404\n        /* \"#utility.yul\":14441:14446   */\n      dup3\n        /* \"#utility.yul\":14423:14447   */\n      tag_405\n      jump\t// in\n    tag_404:\n        /* \"#utility.yul\":14412:14447   */\n      swap1\n      pop\n        /* \"#utility.yul\":14357:14453   */\n      swap2\n      swap1\n      pop\n      jump\t// out\n        /* \"#utility.yul\":14459:14549   */\n    tag_277:\n        /* \"#utility.yul\":14493:14500   */\n      0x00\n        /* \"#utility.yul\":14536:14541   */\n      dup2\n        /* \"#utility.yul\":14529:14542   */\n      iszero\n        /* \"#utility.yul\":14522:14543   */\n      iszero\n        /* \"#utility.yul\":14511:14543   */\n      swap1\n      pop\n        /* \"#utility.yul\":14459:14549   */\n      swap2\n      swap1\n      pop\n      jump\t// out\n        /* \"#utility.yul\":14555:14681   */\n    tag_405:\n        /* \"#utility.yul\":14592:14599   */\n      0x00\n        /* \"#utility.yul\":14632:14674   */\n      0xffffffffffffffffffffffffffffffffffffffff\n        /* \"#utility.yul\":14625:14630   */\n      dup3\n        /* \"#utility.yul\":14621:14675   */\n      and\n        /* \"#utility.yul\":14610:14675   */\n      swap1\n      pop\n        /* \"#utility.yul\":14555:14681   */\n      swap2\n      swap1\n      pop\n      jump\t// out\n        /* \"#utility.yul\":14687:14764   */\n    tag_346:\n        /* \"#utility.yul\":14724:14731   */\n      0x00\n        /* \"#utility.yul\":14753:14758   */\n      dup2\n        /* \"#utility.yul\":14742:14758   */\n      swap1\n      pop\n        /* \"#utility.yul\":14687:14764   */\n      swap2\n      swap1\n      pop\n      jump\t// out\n        /* \"#utility.yul\":14770:14856   */\n    tag_350:\n        /* \"#utility.yul\":14805:14812   */\n      0x00\n        /* \"#utility.yul\":14845:14849   */\n      0xff\n        /* \"#utility.yul\":14838:14843   */\n      dup3\n        /* \"#utility.yul\":14834:14850   */\n      and\n        /* \"#utility.yul\":14823:14850   */\n      swap1\n      pop\n        /* \"#utility.yul\":14770:14856   */\n      swap2\n      swap1\n      pop\n      jump\t// out\n        /* \"#utility.yul\":14862:15169   */\n    tag_285:\n        /* \"#utility.yul\":14930:14931   */\n      0x00\n        /* \"#utility.yul\":14940:15053   */\n    tag_411:\n        /* \"#utility.yul\":14954:14960   */\n      dup4\n        /* \"#utility.yul\":14951:14952   */\n      dup2\n        /* \"#utility.yul\":14948:14961   */\n      lt\n        /* \"#utility.yul\":14940:15053   */\n      iszero\n      tag_413\n      jumpi\n        /* \"#utility.yul\":15039:15040   */\n      dup1\n        /* \"#utility.yul\":15034:15037   */\n      dup3\n        /* \"#utility.yul\":15030:15041   */\n      add\n        /* \"#utility.yul\":15024:15042   */\n      mload\n        /* \"#utility.yul\":15020:15021   */\n      dup2\n        /* \"#utility.yul\":15015:15018   */\n      dup5\n        /* \"#utility.yul\":15011:15022   */\n      add\n        /* \"#utility.yul\":15004:15043   */\n      mstore\n        /* \"#utility.yul\":14976:14978   */\n      0x20\n        /* \"#utility.yul\":14973:14974   */\n      dup2\n        /* \"#utility.yul\":14969:14979   */\n      add\n        /* \"#utility.yul\":14964:14979   */\n      swap1\n      pop\n        /* \"#utility.yul\":14940:15053   */\n      jump(tag_411)\n    tag_413:\n        /* \"#utility.yul\":15071:15077   */\n      dup4\n        /* \"#utility.yul\":15068:15069   */\n      dup2\n        /* \"#utility.yul\":15065:15078   */\n      gt\n        /* \"#utility.yul\":15062:15163   */\n      iszero\n      tag_414\n      jumpi\n        /* \"#utility.yul\":15151:15152   */\n      0x00\n        /* \"#utility.yul\":15142:15148   */\n      dup5\n        /* \"#utility.yul\":15137:15140   */\n      dup5\n        /* \"#utility.yul\":15133:15149   */\n      add\n        /* \"#utility.yul\":15126:15153   */\n      mstore\n        /* \"#utility.yul\":15062:15163   */\n    tag_414:\n        /* \"#utility.yul\":14911:15169   */\n      pop\n        /* \"#utility.yul\":14862:15169   */\n      pop\n      pop\n      pop\n      jump\t// out\n        /* \"#utility.yul\":15175:15495   */\n    tag_111:\n        /* \"#utility.yul\":15219:15225   */\n      0x00\n        /* \"#utility.yul\":15256:15257   */\n      0x02\n        /* \"#utility.yul\":15250:15254   */\n      dup3\n        /* \"#utility.yul\":15246:15258   */\n      div\n        /* \"#utility.yul\":15236:15258   */\n      swap1\n      pop\n        /* \"#utility.yul\":15303:15304   */\n      0x01\n        /* \"#utility.yul\":15297:15301   */\n      dup3\n        /* \"#utility.yul\":15293:15305   */\n      and\n        /* \"#utility.yul\":15324:15342   */\n      dup1\n        /* \"#utility.yul\":15314:15395   */\n      tag_416\n      jumpi\n        /* \"#utility.yul\":15380:15384   */\n      0x7f\n        /* \"#utility.yul\":15372:15378   */\n      dup3\n        /* \"#utility.yul\":15368:15385   */\n      and\n        /* \"#utility.yul\":15358:15385   */\n      swap2\n      pop\n        /* \"#utility.yul\":15314:15395   */\n    tag_416:\n        /* \"#utility.yul\":15442:15444   */\n      0x20\n        /* \"#utility.yul\":15434:15440   */\n      dup3\n        /* \"#utility.yul\":15431:15445   */\n      lt\n        /* \"#utility.yul\":15411:15429   */\n      dup2\n        /* \"#utility.yul\":15408:15446   */\n      eq\n        /* \"#utility.yul\":15405:15489   */\n      iszero\n      tag_417\n      jumpi\n        /* \"#utility.yul\":15461:15479   */\n      tag_418\n      tag_419\n      jump\t// in\n    tag_418:\n        /* \"#utility.yul\":15405:15489   */\n    tag_417:\n        /* \"#utility.yul\":15226:15495   */\n      pop\n        /* \"#utility.yul\":15175:15495   */\n      swap2\n      swap1\n      pop\n      jump\t// out\n        /* \"#utility.yul\":15501:15681   */\n    tag_396:\n        /* \"#utility.yul\":15549:15626   */\n      0x4e487b7100000000000000000000000000000000000000000000000000000000\n        /* \"#utility.yul\":15546:15547   */\n      0x00\n        /* \"#utility.yul\":15539:15627   */\n      mstore\n        /* \"#utility.yul\":15646:15650   */\n      0x11\n        /* \"#utility.yul\":15643:15644   */\n      0x04\n        /* \"#utility.yul\":15636:15651   */\n      mstore\n        /* \"#utility.yul\":15670:15674   */\n      0x24\n        /* \"#utility.yul\":15667:15668   */\n      0x00\n        /* \"#utility.yul\":15660:15675   */\n      revert\n        /* \"#utility.yul\":15687:15867   */\n    tag_402:\n        /* \"#utility.yul\":15735:15812   */\n      0x4e487b7100000000000000000000000000000000000000000000000000000000\n        /* \"#utility.yul\":15732:15733   */\n      0x00\n        /* \"#utility.yul\":15725:15813   */\n      mstore\n        /* \"#utility.yul\":15832:15836   */\n      0x12\n        /* \"#utility.yul\":15829:15830   */\n      0x04\n        /* \"#utility.yul\":15822:15837   */\n      mstore\n        /* \"#utility.yul\":15856:15860   */\n      0x24\n        /* \"#utility.yul\":15853:15854   */\n      0x00\n        /* \"#utility.yul\":15846:15861   */\n      revert\n        /* \"#utility.yul\":15873:16053   */\n    tag_419:\n        /* \"#utility.yul\":15921:15998   */\n      0x4e487b7100000000000000000000000000000000000000000000000000000000\n        /* \"#utility.yul\":15918:15919   */\n      0x00\n        /* \"#utility.yul\":15911:15999   */\n      mstore\n        /* \"#utility.yul\":16018:16022   */\n      0x22\n        /* \"#utility.yul\":16015:16016   */\n      0x04\n        /* \"#utility.yul\":16008:16023   */\n      mstore\n        /* \"#utility.yul\":16042:16046   */\n      0x24\n        /* \"#utility.yul\":16039:16040   */\n      0x00\n        /* \"#utility.yul\":16032:16047   */\n      revert\n        /* \"#utility.yul\":16182:16299   */\n    tag_252:\n        /* \"#utility.yul\":16291:16292   */\n      0x00\n        /* \"#utility.yul\":16288:16289   */\n      dup1\n        /* \"#utility.yul\":16281:16293   */\n      revert\n        /* \"#utility.yul\":16305:16407   */\n    tag_287:\n        /* \"#utility.yul\":16346:16352   */\n      0x00\n        /* \"#utility.yul\":16397:16399   */\n      0x1f\n        /* \"#utility.yul\":16393:16400   */\n      not\n        /* \"#utility.yul\":16388:16390   */\n      0x1f\n        /* \"#utility.yul\":16381:16386   */\n      dup4\n        /* \"#utility.yul\":16377:16391   */\n      add\n        /* \"#utility.yul\":16373:16401   */\n      and\n        /* \"#utility.yul\":16363:16401   */\n      swap1\n      pop\n        /* \"#utility.yul\":16305:16407   */\n      swap2\n      swap1\n      pop\n      jump\t// out\n        /* \"#utility.yul\":16413:16635   */\n    tag_292:\n        /* \"#utility.yul\":16553:16587   */\n      0x45524332303a207472616e7366657220746f20746865207a65726f2061646472\n        /* \"#utility.yul\":16549:16550   */\n      0x00\n        /* \"#utility.yul\":16541:16547   */\n      dup3\n        /* \"#utility.yul\":16537:16551   */\n      add\n        /* \"#utility.yul\":16530:16588   */\n      mstore\n        /* \"#utility.yul\":16622:16627   */\n      0x6573730000000000000000000000000000000000000000000000000000000000\n        /* \"#utility.yul\":16617:16619   */\n      0x20\n        /* \"#utility.yul\":16609:16615   */\n      dup3\n        /* \"#utility.yul\":16605:16620   */\n      add\n        /* \"#utility.yul\":16598:16628   */\n      mstore\n        /* \"#utility.yul\":16413:16635   */\n      pop\n      jump\t// out\n        /* \"#utility.yul\":16641:16866   */\n    tag_297:\n        /* \"#utility.yul\":16781:16815   */\n      0x4f776e61626c653a206e6577206f776e657220697320746865207a65726f2061\n        /* \"#utility.yul\":16777:16778   */\n      0x00\n        /* \"#utility.yul\":16769:16775   */\n      dup3\n        /* \"#utility.yul\":16765:16779   */\n      add\n        /* \"#utility.yul\":16758:16816   */\n      mstore\n        /* \"#utility.yul\":16850:16858   */\n      0x6464726573730000000000000000000000000000000000000000000000000000\n        /* \"#utility.yul\":16845:16847   */\n      0x20\n        /* \"#utility.yul\":16837:16843   */\n      dup3\n        /* \"#utility.yul\":16833:16848   */\n      add\n        /* \"#utility.yul\":16826:16859   */\n      mstore\n        /* \"#utility.yul\":16641:16866   */\n      pop\n      jump\t// out\n        /* \"#utility.yul\":16872:17093   */\n    tag_302:\n        /* \"#utility.yul\":17012:17046   */\n      0x45524332303a20617070726f766520746f20746865207a65726f206164647265\n        /* \"#utility.yul\":17008:17009   */\n      0x00\n        /* \"#utility.yul\":17000:17006   */\n      dup3\n        /* \"#utility.yul\":16996:17010   */\n      add\n        /* \"#utility.yul\":16989:17047   */\n      mstore\n        /* \"#utility.yul\":17081:17085   */\n      0x7373000000000000000000000000000000000000000000000000000000000000\n        /* \"#utility.yul\":17076:17078   */\n      0x20\n        /* \"#utility.yul\":17068:17074   */\n      dup3\n        /* \"#utility.yul\":17064:17079   */\n      add\n        /* \"#utility.yul\":17057:17086   */\n      mstore\n        /* \"#utility.yul\":16872:17093   */\n      pop\n      jump\t// out\n        /* \"#utility.yul\":17099:17276   */\n    tag_307:\n        /* \"#utility.yul\":17239:17268   */\n      0x596f75206e65656420746f2073656e64206d6f72652065746865720000000000\n        /* \"#utility.yul\":17235:17236   */\n      0x00\n        /* \"#utility.yul\":17227:17233   */\n      dup3\n        /* \"#utility.yul\":17223:17237   */\n      add\n        /* \"#utility.yul\":17216:17269   */\n      mstore\n        /* \"#utility.yul\":17099:17276   */\n      pop\n      jump\t// out\n        /* \"#utility.yul\":17282:17461   */\n    tag_312:\n        /* \"#utility.yul\":17422:17453   */\n      0x45524332303a20696e73756666696369656e7420616c6c6f77616e6365000000\n        /* \"#utility.yul\":17418:17419   */\n      0x00\n        /* \"#utility.yul\":17410:17416   */\n      dup3\n        /* \"#utility.yul\":17406:17420   */\n      add\n        /* \"#utility.yul\":17399:17454   */\n      mstore\n        /* \"#utility.yul\":17282:17461   */\n      pop\n      jump\t// out\n        /* \"#utility.yul\":17467:17692   */\n    tag_317:\n        /* \"#utility.yul\":17607:17641   */\n      0x45524332303a207472616e7366657220616d6f756e7420657863656564732062\n        /* \"#utility.yul\":17603:17604   */\n      0x00\n        /* \"#utility.yul\":17595:17601   */\n      dup3\n        /* \"#utility.yul\":17591:17605   */\n      add\n        /* \"#utility.yul\":17584:17642   */\n      mstore\n        /* \"#utility.yul\":17676:17684   */\n      0x616c616e63650000000000000000000000000000000000000000000000000000\n        /* \"#utility.yul\":17671:17673   */\n      0x20\n        /* \"#utility.yul\":17663:17669   */\n      dup3\n        /* \"#utility.yul\":17659:17674   */\n      add\n        /* \"#utility.yul\":17652:17685   */\n      mstore\n        /* \"#utility.yul\":17467:17692   */\n      pop\n      jump\t// out\n        /* \"#utility.yul\":17698:17880   */\n    tag_322:\n        /* \"#utility.yul\":17838:17872   */\n      0x4f776e61626c653a2063616c6c6572206973206e6f7420746865206f776e6572\n        /* \"#utility.yul\":17834:17835   */\n      0x00\n        /* \"#utility.yul\":17826:17832   */\n      dup3\n        /* \"#utility.yul\":17822:17836   */\n      add\n        /* \"#utility.yul\":17815:17873   */\n      mstore\n        /* \"#utility.yul\":17698:17880   */\n      pop\n      jump\t// out\n        /* \"#utility.yul\":17886:18110   */\n    tag_327:\n        /* \"#utility.yul\":18026:18060   */\n      0x45524332303a207472616e736665722066726f6d20746865207a65726f206164\n        /* \"#utility.yul\":18022:18023   */\n      0x00\n        /* \"#utility.yul\":18014:18020   */\n      dup3\n        /* \"#utility.yul\":18010:18024   */\n      add\n        /* \"#utility.yul\":18003:18061   */\n      mstore\n        /* \"#utility.yul\":18095:18102   */\n      0x6472657373000000000000000000000000000000000000000000000000000000\n        /* \"#utility.yul\":18090:18092   */\n      0x20\n        /* \"#utility.yul\":18082:18088   */\n      dup3\n        /* \"#utility.yul\":18078:18093   */\n      add\n        /* \"#utility.yul\":18071:18103   */\n      mstore\n        /* \"#utility.yul\":17886:18110   */\n      pop\n      jump\t// out\n        /* \"#utility.yul\":18116:18339   */\n    tag_332:\n        /* \"#utility.yul\":18256:18290   */\n      0x45524332303a20617070726f76652066726f6d20746865207a65726f20616464\n        /* \"#utility.yul\":18252:18253   */\n      0x00\n        /* \"#utility.yul\":18244:18250   */\n      dup3\n        /* \"#utility.yul\":18240:18254   */\n      add\n        /* \"#utility.yul\":18233:18291   */\n      mstore\n        /* \"#utility.yul\":18325:18331   */\n      0x7265737300000000000000000000000000000000000000000000000000000000\n        /* \"#utility.yul\":18320:18322   */\n      0x20\n        /* \"#utility.yul\":18312:18318   */\n      dup3\n        /* \"#utility.yul\":18308:18323   */\n      add\n        /* \"#utility.yul\":18301:18332   */\n      mstore\n        /* \"#utility.yul\":18116:18339   */\n      pop\n      jump\t// out\n        /* \"#utility.yul\":18345:18569   */\n    tag_337:\n        /* \"#utility.yul\":18485:18519   */\n      0x45524332303a2064656372656173656420616c6c6f77616e63652062656c6f77\n        /* \"#utility.yul\":18481:18482   */\n      0x00\n        /* \"#utility.yul\":18473:18479   */\n      dup3\n        /* \"#utility.yul\":18469:18483   */\n      add\n        /* \"#utility.yul\":18462:18520   */\n      mstore\n        /* \"#utility.yul\":18554:18561   */\n      0x207a65726f000000000000000000000000000000000000000000000000000000\n        /* \"#utility.yul\":18549:18551   */\n      0x20\n        /* \"#utility.yul\":18541:18547   */\n      dup3\n        /* \"#utility.yul\":18537:18552   */\n      add\n        /* \"#utility.yul\":18530:18562   */\n      mstore\n        /* \"#utility.yul\":18345:18569   */\n      pop\n      jump\t// out\n        /* \"#utility.yul\":18575:18756   */\n    tag_342:\n        /* \"#utility.yul\":18715:18748   */\n      0x45524332303a206d696e7420746f20746865207a65726f206164647265737300\n        /* \"#utility.yul\":18711:18712   */\n      0x00\n        /* \"#utility.yul\":18703:18709   */\n      dup3\n        /* \"#utility.yul\":18699:18713   */\n      add\n        /* \"#utility.yul\":18692:18749   */\n      mstore\n        /* \"#utility.yul\":18575:18756   */\n      pop\n      jump\t// out\n        /* \"#utility.yul\":18762:18884   */\n    tag_244:\n        /* \"#utility.yul\":18835:18859   */\n      tag_439\n        /* \"#utility.yul\":18853:18858   */\n      dup2\n        /* \"#utility.yul\":18835:18859   */\n      tag_273\n      jump\t// in\n    tag_439:\n        /* \"#utility.yul\":18828:18833   */\n      dup2\n        /* \"#utility.yul\":18825:18860   */\n      eq\n        /* \"#utility.yul\":18815:18878   */\n      tag_440\n      jumpi\n        /* \"#utility.yul\":18874:18875   */\n      0x00\n        /* \"#utility.yul\":18871:18872   */\n      dup1\n        /* \"#utility.yul\":18864:18876   */\n      revert\n        /* \"#utility.yul\":18815:18878   */\n    tag_440:\n        /* \"#utility.yul\":18762:18884   */\n      pop\n      jump\t// out\n        /* \"#utility.yul\":18890:19012   */\n    tag_248:\n        /* \"#utility.yul\":18963:18987   */\n      tag_442\n        /* \"#utility.yul\":18981:18986   */\n      dup2\n        /* \"#utility.yul\":18963:18987   */\n      tag_346\n      jump\t// in\n    tag_442:\n        /* \"#utility.yul\":18956:18961   */\n      dup2\n        /* \"#utility.yul\":18953:18988   */\n      eq\n        /* \"#utility.yul\":18943:19006   */\n      tag_443\n      jumpi\n        /* \"#utility.yul\":19002:19003   */\n      0x00\n        /* \"#utility.yul\":18999:19000   */\n      dup1\n        /* \"#utility.yul\":18992:19004   */\n      revert\n        /* \"#utility.yul\":18943:19006   */\n    tag_443:\n        /* \"#utility.yul\":18890:19012   */\n      pop\n      jump\t// out\n\n    auxdata: 0xa2646970667358221220b87cdeaa168a78512cb6499b44297ab061c2560b7f5c3429a5ff6a5a3607a40664736f6c63430008070033\n}\n",
				"bytecode": {
					"linkReferences": {},
					"object": "6080604052620f42406007556200001b620001b460201b60201c565b600a62000029919062000647565b6103e862000038919062000784565b6008553480156200004857600080fd5b506040516200272f3803806200272f83398181016040528101906200006e9190620004d5565b6040518060400160405280601081526020017f656d706972654552433230546f6b656e000000000000000000000000000000008152506040518060400160405280600481526020017f454d5045000000000000000000000000000000000000000000000000000000008152508160039080519060200190620000f29291906200040e565b5080600490805190602001906200010b9291906200040e565b5050506200012e62000122620001bd60201b60201c565b620001c560201b60201c565b80600660006101000a81548173ffffffffffffffffffffffffffffffffffffffff021916908373ffffffffffffffffffffffffffffffffffffffff160217905550620001ad3362000184620001b460201b60201c565b600a62000192919062000647565b600754620001a1919062000784565b6200028b60201b60201c565b5062000919565b60006012905090565b600033905090565b6000600560009054906101000a900473ffffffffffffffffffffffffffffffffffffffff16905081600560006101000a81548173ffffffffffffffffffffffffffffffffffffffff021916908373ffffffffffffffffffffffffffffffffffffffff1602179055508173ffffffffffffffffffffffffffffffffffffffff168173ffffffffffffffffffffffffffffffffffffffff167f8be0079c531659141344cd1fd0a4f28419497f9722a3daafe3b4186f6b6457e060405160405180910390a35050565b600073ffffffffffffffffffffffffffffffffffffffff168273ffffffffffffffffffffffffffffffffffffffff161415620002fe576040517f08c379a0000000000000000000000000000000000000000000000000000000008152600401620002f5906200053f565b60405180910390fd5b62000312600083836200040460201b60201c565b80600260008282546200032691906200058f565b92505081905550806000808473ffffffffffffffffffffffffffffffffffffffff1673ffffffffffffffffffffffffffffffffffffffff16815260200190815260200160002060008282546200037d91906200058f565b925050819055508173ffffffffffffffffffffffffffffffffffffffff16600073ffffffffffffffffffffffffffffffffffffffff167fddf252ad1be2c89b69c2b068fc378daa952ba7f163c4a11628f55a4df523b3ef83604051620003e4919062000561565b60405180910390a362000400600083836200040960201b60201c565b5050565b505050565b505050565b8280546200041c9062000830565b90600052602060002090601f0160209004810192826200044057600085556200048c565b82601f106200045b57805160ff19168380011785556200048c565b828001600101855582156200048c579182015b828111156200048b5782518255916020019190600101906200046e565b5b5090506200049b91906200049f565b5090565b5b80821115620004ba576000816000905550600101620004a0565b5090565b600081519050620004cf81620008ff565b92915050565b600060208284031215620004ee57620004ed620008c4565b5b6000620004fe84828501620004be565b91505092915050565b600062000516601f836200057e565b91506200052382620008d6565b602082019050919050565b620005398162000819565b82525050565b600060208201905081810360008301526200055a8162000507565b9050919050565b60006020820190506200057860008301846200052e565b92915050565b600082825260208201905092915050565b60006200059c8262000819565b9150620005a98362000819565b9250827fffffffffffffffffffffffffffffffffffffffffffffffffffffffffffffffff03821115620005e157620005e062000866565b5b828201905092915050565b6000808291508390505b60018511156200063e5780860481111562000616576200061562000866565b5b6001851615620006265780820291505b80810290506200063685620008c9565b9450620005f6565b94509492505050565b6000620006548262000819565b9150620006618362000823565b9250620006907fffffffffffffffffffffffffffffffffffffffffffffffffffffffffffffffff848462000698565b905092915050565b600082620006aa57600190506200077d565b81620006ba57600090506200077d565b8160018114620006d35760028114620006de5762000714565b60019150506200077d565b60ff841115620006f357620006f262000866565b5b8360020a9150848211156200070d576200070c62000866565b5b506200077d565b5060208310610133831016604e8410600b84101617156200074e5782820a90508381111562000748576200074762000866565b5b6200077d565b6200075d8484846001620005ec565b9250905081840481111562000777576200077662000866565b5b81810290505b9392505050565b6000620007918262000819565b91506200079e8362000819565b9250817fffffffffffffffffffffffffffffffffffffffffffffffffffffffffffffffff0483118215151615620007da57620007d962000866565b5b828202905092915050565b6000620007f282620007f9565b9050919050565b600073ffffffffffffffffffffffffffffffffffffffff82169050919050565b6000819050919050565b600060ff82169050919050565b600060028204905060018216806200084957607f821691505b6020821081141562000860576200085f62000895565b5b50919050565b7f4e487b7100000000000000000000000000000000000000000000000000000000600052601160045260246000fd5b7f4e487b7100000000000000000000000000000000000000000000000000000000600052602260045260246000fd5b600080fd5b60008160011c9050919050565b7f45524332303a206d696e7420746f20746865207a65726f206164647265737300600082015250565b6200090a81620007e5565b81146200091657600080fd5b50565b611e0680620009296000396000f3fe6080604052600436106101095760003560e01c8063715018a611610095578063a457c2d711610064578063a457c2d714610360578063a9059cbb1461039d578063afb41183146103da578063dd62ed3e14610405578063f2fde38b1461044257610109565b8063715018a6146102d75780637e72fb52146102ee5780638da5cb5b1461030a57806395d89b411461033557610109565b80632c4e722e116100dc5780632c4e722e146101de578063313ce56714610209578063395093511461023457806340c10f191461027157806370a082311461029a57610109565b806306fdde031461010e578063095ea7b31461013957806318160ddd1461017657806323b872dd146101a1575b600080fd5b34801561011a57600080fd5b5061012361046b565b604051610130919061171d565b60405180910390f35b34801561014557600080fd5b50610160600480360381019061015b919061147a565b6104fd565b60405161016d9190611702565b60405180910390f35b34801561018257600080fd5b5061018b610520565b604051610198919061189f565b60405180910390f35b3480156101ad57600080fd5b506101c860048036038101906101c39190611427565b61052a565b6040516101d59190611702565b60405180910390f35b3480156101ea57600080fd5b506101f3610559565b604051610200919061189f565b60405180910390f35b34801561021557600080fd5b5061021e61055f565b60405161022b91906118ba565b60405180910390f35b34801561024057600080fd5b5061025b6004803603810190610256919061147a565b610568565b6040516102689190611702565b60405180910390f35b34801561027d57600080fd5b506102986004803603810190610293919061147a565b610612565b005b3480156102a657600080fd5b506102c160048036038101906102bc91906113ba565b61069c565b6040516102ce919061189f565b60405180910390f35b3480156102e357600080fd5b506102ec6106e4565b005b610308600480360381019061030391906113ba565b61076c565b005b34801561031657600080fd5b5061031f61087b565b60405161032c91906116b0565b60405180910390f35b34801561034157600080fd5b5061034a6108a5565b604051610357919061171d565b60405180910390f35b34801561036c57600080fd5b506103876004803603810190610382919061147a565b610937565b6040516103949190611702565b60405180910390f35b3480156103a957600080fd5b506103c460048036038101906103bf919061147a565b610a21565b6040516103d19190611702565b60405180910390f35b3480156103e657600080fd5b506103ef610a44565b6040516103fc919061189f565b60405180910390f35b34801561041157600080fd5b5061042c600480360381019061042791906113e7565b610b01565b604051610439919061189f565b60405180910390f35b34801561044e57600080fd5b50610469600480360381019061046491906113ba565b610b88565b005b60606003805461047a90611a00565b80601f01602080910402602001604051908101604052809291908181526020018280546104a690611a00565b80156104f35780601f106104c8576101008083540402835291602001916104f3565b820191906000526020600020905b8154815290600101906020018083116104d657829003601f168201915b5050505050905090565b600080610508610c80565b9050610515818585610c88565b600191505092915050565b6000600254905090565b600080610535610c80565b9050610542858285610e53565b61054d858585610edf565b60019150509392505050565b60085481565b60006012905090565b600080610573610c80565b9050610607818585600160008673ffffffffffffffffffffffffffffffffffffffff1673ffffffffffffffffffffffffffffffffffffffff16815260200190815260200160002060008973ffffffffffffffffffffffffffffffffffffffff1673ffffffffffffffffffffffffffffffffffffffff1681526020019081526020016000205461060291906118f1565b610c88565b600191505092915050565b61061a610c80565b73ffffffffffffffffffffffffffffffffffffffff1661063861087b565b73ffffffffffffffffffffffffffffffffffffffff161461068e576040517f08c379a0000000000000000000000000000000000000000000000000000000008152600401610685906117ff565b60405180910390fd5b6106988282611160565b5050565b60008060008373ffffffffffffffffffffffffffffffffffffffff1673ffffffffffffffffffffffffffffffffffffffff168152602001908152602001600020549050919050565b6106ec610c80565b73ffffffffffffffffffffffffffffffffffffffff1661070a61087b565b73ffffffffffffffffffffffffffffffffffffffff1614610760576040517f08c379a0000000000000000000000000000000000000000000000000000000008152600401610757906117ff565b60405180910390fd5b61076a60006112c0565b565b670de0b6b3a76400003410156107b7576040517f08c379a00000000000000000000000000000000000000000000000000000000081526004016107ae9061179f565b60405180910390fd5b600660009054906101000a900473ffffffffffffffffffffffffffffffffffffffff1673ffffffffffffffffffffffffffffffffffffffff166108fc349081150290604051600060405180830381858888f1935050505015801561081f573d6000803e3d6000fd5b506000600854346108309190611947565b905061083c8282611160565b7ff7684c931f3f1274ffa9e57bfdf5d3d86bf171875cea6a11b5fa6c1c889a1d1233838360405161086f939291906116cb565b60405180910390a15050565b6000600560009054906101000a900473ffffffffffffffffffffffffffffffffffffffff16905090565b6060600480546108b490611a00565b80601f01602080910402602001604051908101604052809291908181526020018280546108e090611a00565b801561092d5780601f106109025761010080835404028352916020019161092d565b820191906000526020600020905b81548152906001019060200180831161091057829003601f168201915b5050505050905090565b600080610942610c80565b90506000600160008373ffffffffffffffffffffffffffffffffffffffff1673ffffffffffffffffffffffffffffffffffffffff16815260200190815260200160002060008673ffffffffffffffffffffffffffffffffffffffff1673ffffffffffffffffffffffffffffffffffffffff16815260200190815260200160002054905083811015610a08576040517f08c379a00000000000000000000000000000000000000000000000000000000081526004016109ff9061185f565b60405180910390fd5b610a158286868403610c88565b60019250505092915050565b600080610a2c610c80565b9050610a39818585610edf565b600191505092915050565b6000610a4e610c80565b73ffffffffffffffffffffffffffffffffffffffff16610a6c61087b565b73ffffffffffffffffffffffffffffffffffffffff1614610ac2576040517f08c379a0000000000000000000000000000000000000000000000000000000008152600401610ab9906117ff565b60405180910390fd5b600660009054906101000a900473ffffffffffffffffffffffffffffffffffffffff1673ffffffffffffffffffffffffffffffffffffffff1631905090565b6000600160008473ffffffffffffffffffffffffffffffffffffffff1673ffffffffffffffffffffffffffffffffffffffff16815260200190815260200160002060008373ffffffffffffffffffffffffffffffffffffffff1673ffffffffffffffffffffffffffffffffffffffff16815260200190815260200160002054905092915050565b610b90610c80565b73ffffffffffffffffffffffffffffffffffffffff16610bae61087b565b73ffffffffffffffffffffffffffffffffffffffff1614610c04576040517f08c379a0000000000000000000000000000000000000000000000000000000008152600401610bfb906117ff565b60405180910390fd5b600073ffffffffffffffffffffffffffffffffffffffff168173ffffffffffffffffffffffffffffffffffffffff161415610c74576040517f08c379a0000000000000000000000000000000000000000000000000000000008152600401610c6b9061175f565b60405180910390fd5b610c7d816112c0565b50565b600033905090565b600073ffffffffffffffffffffffffffffffffffffffff168373ffffffffffffffffffffffffffffffffffffffff161415610cf8576040517f08c379a0000000000000000000000000000000000000000000000000000000008152600401610cef9061183f565b60405180910390fd5b600073ffffffffffffffffffffffffffffffffffffffff168273ffffffffffffffffffffffffffffffffffffffff161415610d68576040517f08c379a0000000000000000000000000000000000000000000000000000000008152600401610d5f9061177f565b60405180910390fd5b80600160008573ffffffffffffffffffffffffffffffffffffffff1673ffffffffffffffffffffffffffffffffffffffff16815260200190815260200160002060008473ffffffffffffffffffffffffffffffffffffffff1673ffffffffffffffffffffffffffffffffffffffff168152602001908152602001600020819055508173ffffffffffffffffffffffffffffffffffffffff168373ffffffffffffffffffffffffffffffffffffffff167f8c5be1e5ebec7d5bd14f71427d1e84f3dd0314c0f7b2291e5b200ac8c7c3b92583604051610e46919061189f565b60405180910390a3505050565b6000610e5f8484610b01565b90507fffffffffffffffffffffffffffffffffffffffffffffffffffffffffffffffff8114610ed95781811015610ecb576040517f08c379a0000000000000000000000000000000000000000000000000000000008152600401610ec2906117bf565b60405180910390fd5b610ed88484848403610c88565b5b50505050565b600073ffffffffffffffffffffffffffffffffffffffff168373ffffffffffffffffffffffffffffffffffffffff161415610f4f576040517f08c379a0000000000000000000000000000000000000000000000000000000008152600401610f469061181f565b60405180910390fd5b600073ffffffffffffffffffffffffffffffffffffffff168273ffffffffffffffffffffffffffffffffffffffff161415610fbf576040517f08c379a0000000000000000000000000000000000000000000000000000000008152600401610fb69061173f565b60405180910390fd5b610fca838383611386565b60008060008573ffffffffffffffffffffffffffffffffffffffff1673ffffffffffffffffffffffffffffffffffffffff16815260200190815260200160002054905081811015611050576040517f08c379a0000000000000000000000000000000000000000000000000000000008152600401611047906117df565b60405180910390fd5b8181036000808673ffffffffffffffffffffffffffffffffffffffff1673ffffffffffffffffffffffffffffffffffffffff16815260200190815260200160002081905550816000808573ffffffffffffffffffffffffffffffffffffffff1673ffffffffffffffffffffffffffffffffffffffff16815260200190815260200160002060008282546110e391906118f1565b925050819055508273ffffffffffffffffffffffffffffffffffffffff168473ffffffffffffffffffffffffffffffffffffffff167fddf252ad1be2c89b69c2b068fc378daa952ba7f163c4a11628f55a4df523b3ef84604051611147919061189f565b60405180910390a361115a84848461138b565b50505050565b600073ffffffffffffffffffffffffffffffffffffffff168273ffffffffffffffffffffffffffffffffffffffff1614156111d0576040517f08c379a00000000000000000000000000000000000000000000000000000000081526004016111c79061187f565b60405180910390fd5b6111dc60008383611386565b80600260008282546111ee91906118f1565b92505081905550806000808473ffffffffffffffffffffffffffffffffffffffff1673ffffffffffffffffffffffffffffffffffffffff168152602001908152602001600020600082825461124391906118f1565b925050819055508173ffffffffffffffffffffffffffffffffffffffff16600073ffffffffffffffffffffffffffffffffffffffff167fddf252ad1be2c89b69c2b068fc378daa952ba7f163c4a11628f55a4df523b3ef836040516112a8919061189f565b60405180910390a36112bc6000838361138b565b5050565b6000600560009054906101000a900473ffffffffffffffffffffffffffffffffffffffff16905081600560006101000a81548173ffffffffffffffffffffffffffffffffffffffff021916908373ffffffffffffffffffffffffffffffffffffffff1602179055508173ffffffffffffffffffffffffffffffffffffffff168173ffffffffffffffffffffffffffffffffffffffff167f8be0079c531659141344cd1fd0a4f28419497f9722a3daafe3b4186f6b6457e060405160405180910390a35050565b505050565b505050565b60008135905061139f81611da2565b92915050565b6000813590506113b481611db9565b92915050565b6000602082840312156113d0576113cf611abf565b5b60006113de84828501611390565b91505092915050565b600080604083850312156113fe576113fd611abf565b5b600061140c85828601611390565b925050602061141d85828601611390565b9150509250929050565b6000806000606084860312156114405761143f611abf565b5b600061144e86828701611390565b935050602061145f86828701611390565b9250506040611470868287016113a5565b9150509250925092565b6000806040838503121561149157611490611abf565b5b600061149f85828601611390565b92505060206114b0858286016113a5565b9150509250929050565b6114c381611978565b82525050565b6114d28161198a565b82525050565b60006114e3826118d5565b6114ed81856118e0565b93506114fd8185602086016119cd565b61150681611ac4565b840191505092915050565b600061151e6023836118e0565b915061152982611ad5565b604082019050919050565b60006115416026836118e0565b915061154c82611b24565b604082019050919050565b60006115646022836118e0565b915061156f82611b73565b604082019050919050565b6000611587601b836118e0565b915061159282611bc2565b602082019050919050565b60006115aa601d836118e0565b91506115b582611beb565b602082019050919050565b60006115cd6026836118e0565b91506115d882611c14565b604082019050919050565b60006115f06020836118e0565b91506115fb82611c63565b602082019050919050565b60006116136025836118e0565b915061161e82611c8c565b604082019050919050565b60006116366024836118e0565b915061164182611cdb565b604082019050919050565b60006116596025836118e0565b915061166482611d2a565b604082019050919050565b600061167c601f836118e0565b915061168782611d79565b602082019050919050565b61169b816119b6565b82525050565b6116aa816119c0565b82525050565b60006020820190506116c560008301846114ba565b92915050565b60006060820190506116e060008301866114ba565b6116ed60208301856114ba565b6116fa6040830184611692565b949350505050565b600060208201905061171760008301846114c9565b92915050565b6000602082019050818103600083015261173781846114d8565b905092915050565b6000602082019050818103600083015261175881611511565b9050919050565b6000602082019050818103600083015261177881611534565b9050919050565b6000602082019050818103600083015261179881611557565b9050919050565b600060208201905081810360008301526117b88161157a565b9050919050565b600060208201905081810360008301526117d88161159d565b9050919050565b600060208201905081810360008301526117f8816115c0565b9050919050565b60006020820190508181036000830152611818816115e3565b9050919050565b6000602082019050818103600083015261183881611606565b9050919050565b6000602082019050818103600083015261185881611629565b9050919050565b600060208201905081810360008301526118788161164c565b9050919050565b600060208201905081810360008301526118988161166f565b9050919050565b60006020820190506118b46000830184611692565b92915050565b60006020820190506118cf60008301846116a1565b92915050565b600081519050919050565b600082825260208201905092915050565b60006118fc826119b6565b9150611907836119b6565b9250827fffffffffffffffffffffffffffffffffffffffffffffffffffffffffffffffff0382111561193c5761193b611a32565b5b828201905092915050565b6000611952826119b6565b915061195d836119b6565b92508261196d5761196c611a61565b5b828204905092915050565b600061198382611996565b9050919050565b60008115159050919050565b600073ffffffffffffffffffffffffffffffffffffffff82169050919050565b6000819050919050565b600060ff82169050919050565b60005b838110156119eb5780820151818401526020810190506119d0565b838111156119fa576000848401525b50505050565b60006002820490506001821680611a1857607f821691505b60208210811415611a2c57611a2b611a90565b5b50919050565b7f4e487b7100000000000000000000000000000000000000000000000000000000600052601160045260246000fd5b7f4e487b7100000000000000000000000000000000000000000000000000000000600052601260045260246000fd5b7f4e487b7100000000000000000000000000000000000000000000000000000000600052602260045260246000fd5b600080fd5b6000601f19601f8301169050919050565b7f45524332303a207472616e7366657220746f20746865207a65726f206164647260008201527f6573730000000000000000000000000000000000000000000000000000000000602082015250565b7f4f776e61626c653a206e6577206f776e657220697320746865207a65726f206160008201527f6464726573730000000000000000000000000000000000000000000000000000602082015250565b7f45524332303a20617070726f766520746f20746865207a65726f20616464726560008201527f7373000000000000000000000000000000000000000000000000000000000000602082015250565b7f596f75206e65656420746f2073656e64206d6f72652065746865720000000000600082015250565b7f45524332303a20696e73756666696369656e7420616c6c6f77616e6365000000600082015250565b7f45524332303a207472616e7366657220616d6f756e742065786365656473206260008201527f616c616e63650000000000000000000000000000000000000000000000000000602082015250565b7f4f776e61626c653a2063616c6c6572206973206e6f7420746865206f776e6572600082015250565b7f45524332303a207472616e736665722066726f6d20746865207a65726f20616460008201527f6472657373000000000000000000000000000000000000000000000000000000602082015250565b7f45524332303a20617070726f76652066726f6d20746865207a65726f2061646460008201527f7265737300000000000000000000000000000000000000000000000000000000602082015250565b7f45524332303a2064656372656173656420616c6c6f77616e63652062656c6f7760008201527f207a65726f000000000000000000000000000000000000000000000000000000602082015250565b7f45524332303a206d696e7420746f20746865207a65726f206164647265737300600082015250565b611dab81611978565b8114611db657600080fd5b50565b611dc2816119b6565b8114611dcd57600080fd5b5056fea2646970667358221220b87cdeaa168a78512cb6499b44297ab061c2560b7f5c3429a5ff6a5a3607a40664736f6c63430008070033",
					"opcodes": "PUSH1 0x80 PUSH1 0x40 MSTORE PUSH3 0xF4240 PUSH1 0x7 SSTORE PUSH3 0x1B PUSH3 0x1B4 PUSH1 0x20 SHL PUSH1 0x20 SHR JUMP JUMPDEST PUSH1 0xA PUSH3 0x29 SWAP2 SWAP1 PUSH3 0x647 JUMP JUMPDEST PUSH2 0x3E8 PUSH3 0x38 SWAP2 SWAP1 PUSH3 0x784 JUMP JUMPDEST PUSH1 0x8 SSTORE CALLVALUE DUP1 ISZERO PUSH3 0x48 JUMPI PUSH1 0x0 DUP1 REVERT JUMPDEST POP PUSH1 0x40 MLOAD PUSH3 0x272F CODESIZE SUB DUP1 PUSH3 0x272F DUP4 CODECOPY DUP2 DUP2 ADD PUSH1 0x40 MSTORE DUP2 ADD SWAP1 PUSH3 0x6E SWAP2 SWAP1 PUSH3 0x4D5 JUMP JUMPDEST PUSH1 0x40 MLOAD DUP1 PUSH1 0x40 ADD PUSH1 0x40 MSTORE DUP1 PUSH1 0x10 DUP2 MSTORE PUSH1 0x20 ADD PUSH32 0x656D706972654552433230546F6B656E00000000000000000000000000000000 DUP2 MSTORE POP PUSH1 0x40 MLOAD DUP1 PUSH1 0x40 ADD PUSH1 0x40 MSTORE DUP1 PUSH1 0x4 DUP2 MSTORE PUSH1 0x20 ADD PUSH32 0x454D504500000000000000000000000000000000000000000000000000000000 DUP2 MSTORE POP DUP2 PUSH1 0x3 SWAP1 DUP1 MLOAD SWAP1 PUSH1 0x20 ADD SWAP1 PUSH3 0xF2 SWAP3 SWAP2 SWAP1 PUSH3 0x40E JUMP JUMPDEST POP DUP1 PUSH1 0x4 SWAP1 DUP1 MLOAD SWAP1 PUSH1 0x20 ADD SWAP1 PUSH3 0x10B SWAP3 SWAP2 SWAP1 PUSH3 0x40E JUMP JUMPDEST POP POP POP PUSH3 0x12E PUSH3 0x122 PUSH3 0x1BD PUSH1 0x20 SHL PUSH1 0x20 SHR JUMP JUMPDEST PUSH3 0x1C5 PUSH1 0x20 SHL PUSH1 0x20 SHR JUMP JUMPDEST DUP1 PUSH1 0x6 PUSH1 0x0 PUSH2 0x100 EXP DUP2 SLOAD DUP2 PUSH20 0xFFFFFFFFFFFFFFFFFFFFFFFFFFFFFFFFFFFFFFFF MUL NOT AND SWAP1 DUP4 PUSH20 0xFFFFFFFFFFFFFFFFFFFFFFFFFFFFFFFFFFFFFFFF AND MUL OR SWAP1 SSTORE POP PUSH3 0x1AD CALLER PUSH3 0x184 PUSH3 0x1B4 PUSH1 0x20 SHL PUSH1 0x20 SHR JUMP JUMPDEST PUSH1 0xA PUSH3 0x192 SWAP2 SWAP1 PUSH3 0x647 JUMP JUMPDEST PUSH1 0x7 SLOAD PUSH3 0x1A1 SWAP2 SWAP1 PUSH3 0x784 JUMP JUMPDEST PUSH3 0x28B PUSH1 0x20 SHL PUSH1 0x20 SHR JUMP JUMPDEST POP PUSH3 0x919 JUMP JUMPDEST PUSH1 0x0 PUSH1 0x12 SWAP1 POP SWAP1 JUMP JUMPDEST PUSH1 0x0 CALLER SWAP1 POP SWAP1 JUMP JUMPDEST PUSH1 0x0 PUSH1 0x5 PUSH1 0x0 SWAP1 SLOAD SWAP1 PUSH2 0x100 EXP SWAP1 DIV PUSH20 0xFFFFFFFFFFFFFFFFFFFFFFFFFFFFFFFFFFFFFFFF AND SWAP1 POP DUP2 PUSH1 0x5 PUSH1 0x0 PUSH2 0x100 EXP DUP2 SLOAD DUP2 PUSH20 0xFFFFFFFFFFFFFFFFFFFFFFFFFFFFFFFFFFFFFFFF MUL NOT AND SWAP1 DUP4 PUSH20 0xFFFFFFFFFFFFFFFFFFFFFFFFFFFFFFFFFFFFFFFF AND MUL OR SWAP1 SSTORE POP DUP2 PUSH20 0xFFFFFFFFFFFFFFFFFFFFFFFFFFFFFFFFFFFFFFFF AND DUP2 PUSH20 0xFFFFFFFFFFFFFFFFFFFFFFFFFFFFFFFFFFFFFFFF AND PUSH32 0x8BE0079C531659141344CD1FD0A4F28419497F9722A3DAAFE3B4186F6B6457E0 PUSH1 0x40 MLOAD PUSH1 0x40 MLOAD DUP1 SWAP2 SUB SWAP1 LOG3 POP POP JUMP JUMPDEST PUSH1 0x0 PUSH20 0xFFFFFFFFFFFFFFFFFFFFFFFFFFFFFFFFFFFFFFFF AND DUP3 PUSH20 0xFFFFFFFFFFFFFFFFFFFFFFFFFFFFFFFFFFFFFFFF AND EQ ISZERO PUSH3 0x2FE JUMPI PUSH1 0x40 MLOAD PUSH32 0x8C379A000000000000000000000000000000000000000000000000000000000 DUP2 MSTORE PUSH1 0x4 ADD PUSH3 0x2F5 SWAP1 PUSH3 0x53F JUMP JUMPDEST PUSH1 0x40 MLOAD DUP1 SWAP2 SUB SWAP1 REVERT JUMPDEST PUSH3 0x312 PUSH1 0x0 DUP4 DUP4 PUSH3 0x404 PUSH1 0x20 SHL PUSH1 0x20 SHR JUMP JUMPDEST DUP1 PUSH1 0x2 PUSH1 0x0 DUP3 DUP3 SLOAD PUSH3 0x326 SWAP2 SWAP1 PUSH3 0x58F JUMP JUMPDEST SWAP3 POP POP DUP2 SWAP1 SSTORE POP DUP1 PUSH1 0x0 DUP1 DUP5 PUSH20 0xFFFFFFFFFFFFFFFFFFFFFFFFFFFFFFFFFFFFFFFF AND PUSH20 0xFFFFFFFFFFFFFFFFFFFFFFFFFFFFFFFFFFFFFFFF AND DUP2 MSTORE PUSH1 0x20 ADD SWAP1 DUP2 MSTORE PUSH1 0x20 ADD PUSH1 0x0 KECCAK256 PUSH1 0x0 DUP3 DUP3 SLOAD PUSH3 0x37D SWAP2 SWAP1 PUSH3 0x58F JUMP JUMPDEST SWAP3 POP POP DUP2 SWAP1 SSTORE POP DUP2 PUSH20 0xFFFFFFFFFFFFFFFFFFFFFFFFFFFFFFFFFFFFFFFF AND PUSH1 0x0 PUSH20 0xFFFFFFFFFFFFFFFFFFFFFFFFFFFFFFFFFFFFFFFF AND PUSH32 0xDDF252AD1BE2C89B69C2B068FC378DAA952BA7F163C4A11628F55A4DF523B3EF DUP4 PUSH1 0x40 MLOAD PUSH3 0x3E4 SWAP2 SWAP1 PUSH3 0x561 JUMP JUMPDEST PUSH1 0x40 MLOAD DUP1 SWAP2 SUB SWAP1 LOG3 PUSH3 0x400 PUSH1 0x0 DUP4 DUP4 PUSH3 0x409 PUSH1 0x20 SHL PUSH1 0x20 SHR JUMP JUMPDEST POP POP JUMP JUMPDEST POP POP POP JUMP JUMPDEST POP POP POP JUMP JUMPDEST DUP3 DUP1 SLOAD PUSH3 0x41C SWAP1 PUSH3 0x830 JUMP JUMPDEST SWAP1 PUSH1 0x0 MSTORE PUSH1 0x20 PUSH1 0x0 KECCAK256 SWAP1 PUSH1 0x1F ADD PUSH1 0x20 SWAP1 DIV DUP2 ADD SWAP3 DUP3 PUSH3 0x440 JUMPI PUSH1 0x0 DUP6 SSTORE PUSH3 0x48C JUMP JUMPDEST DUP3 PUSH1 0x1F LT PUSH3 0x45B JUMPI DUP1 MLOAD PUSH1 0xFF NOT AND DUP4 DUP1 ADD OR DUP6 SSTORE PUSH3 0x48C JUMP JUMPDEST DUP3 DUP1 ADD PUSH1 0x1 ADD DUP6 SSTORE DUP3 ISZERO PUSH3 0x48C JUMPI SWAP2 DUP3 ADD JUMPDEST DUP3 DUP2 GT ISZERO PUSH3 0x48B JUMPI DUP3 MLOAD DUP3 SSTORE SWAP2 PUSH1 0x20 ADD SWAP2 SWAP1 PUSH1 0x1 ADD SWAP1 PUSH3 0x46E JUMP JUMPDEST JUMPDEST POP SWAP1 POP PUSH3 0x49B SWAP2 SWAP1 PUSH3 0x49F JUMP JUMPDEST POP SWAP1 JUMP JUMPDEST JUMPDEST DUP1 DUP3 GT ISZERO PUSH3 0x4BA JUMPI PUSH1 0x0 DUP2 PUSH1 0x0 SWAP1 SSTORE POP PUSH1 0x1 ADD PUSH3 0x4A0 JUMP JUMPDEST POP SWAP1 JUMP JUMPDEST PUSH1 0x0 DUP2 MLOAD SWAP1 POP PUSH3 0x4CF DUP2 PUSH3 0x8FF JUMP JUMPDEST SWAP3 SWAP2 POP POP JUMP JUMPDEST PUSH1 0x0 PUSH1 0x20 DUP3 DUP5 SUB SLT ISZERO PUSH3 0x4EE JUMPI PUSH3 0x4ED PUSH3 0x8C4 JUMP JUMPDEST JUMPDEST PUSH1 0x0 PUSH3 0x4FE DUP5 DUP3 DUP6 ADD PUSH3 0x4BE JUMP JUMPDEST SWAP2 POP POP SWAP3 SWAP2 POP POP JUMP JUMPDEST PUSH1 0x0 PUSH3 0x516 PUSH1 0x1F DUP4 PUSH3 0x57E JUMP JUMPDEST SWAP2 POP PUSH3 0x523 DUP3 PUSH3 0x8D6 JUMP JUMPDEST PUSH1 0x20 DUP3 ADD SWAP1 POP SWAP2 SWAP1 POP JUMP JUMPDEST PUSH3 0x539 DUP2 PUSH3 0x819 JUMP JUMPDEST DUP3 MSTORE POP POP JUMP JUMPDEST PUSH1 0x0 PUSH1 0x20 DUP3 ADD SWAP1 POP DUP2 DUP2 SUB PUSH1 0x0 DUP4 ADD MSTORE PUSH3 0x55A DUP2 PUSH3 0x507 JUMP JUMPDEST SWAP1 POP SWAP2 SWAP1 POP JUMP JUMPDEST PUSH1 0x0 PUSH1 0x20 DUP3 ADD SWAP1 POP PUSH3 0x578 PUSH1 0x0 DUP4 ADD DUP5 PUSH3 0x52E JUMP JUMPDEST SWAP3 SWAP2 POP POP JUMP JUMPDEST PUSH1 0x0 DUP3 DUP3 MSTORE PUSH1 0x20 DUP3 ADD SWAP1 POP SWAP3 SWAP2 POP POP JUMP JUMPDEST PUSH1 0x0 PUSH3 0x59C DUP3 PUSH3 0x819 JUMP JUMPDEST SWAP2 POP PUSH3 0x5A9 DUP4 PUSH3 0x819 JUMP JUMPDEST SWAP3 POP DUP3 PUSH32 0xFFFFFFFFFFFFFFFFFFFFFFFFFFFFFFFFFFFFFFFFFFFFFFFFFFFFFFFFFFFFFFFF SUB DUP3 GT ISZERO PUSH3 0x5E1 JUMPI PUSH3 0x5E0 PUSH3 0x866 JUMP JUMPDEST JUMPDEST DUP3 DUP3 ADD SWAP1 POP SWAP3 SWAP2 POP POP JUMP JUMPDEST PUSH1 0x0 DUP1 DUP3 SWAP2 POP DUP4 SWAP1 POP JUMPDEST PUSH1 0x1 DUP6 GT ISZERO PUSH3 0x63E JUMPI DUP1 DUP7 DIV DUP2 GT ISZERO PUSH3 0x616 JUMPI PUSH3 0x615 PUSH3 0x866 JUMP JUMPDEST JUMPDEST PUSH1 0x1 DUP6 AND ISZERO PUSH3 0x626 JUMPI DUP1 DUP3 MUL SWAP2 POP JUMPDEST DUP1 DUP2 MUL SWAP1 POP PUSH3 0x636 DUP6 PUSH3 0x8C9 JUMP JUMPDEST SWAP5 POP PUSH3 0x5F6 JUMP JUMPDEST SWAP5 POP SWAP5 SWAP3 POP POP POP JUMP JUMPDEST PUSH1 0x0 PUSH3 0x654 DUP3 PUSH3 0x819 JUMP JUMPDEST SWAP2 POP PUSH3 0x661 DUP4 PUSH3 0x823 JUMP JUMPDEST SWAP3 POP PUSH3 0x690 PUSH32 0xFFFFFFFFFFFFFFFFFFFFFFFFFFFFFFFFFFFFFFFFFFFFFFFFFFFFFFFFFFFFFFFF DUP5 DUP5 PUSH3 0x698 JUMP JUMPDEST SWAP1 POP SWAP3 SWAP2 POP POP JUMP JUMPDEST PUSH1 0x0 DUP3 PUSH3 0x6AA JUMPI PUSH1 0x1 SWAP1 POP PUSH3 0x77D JUMP JUMPDEST DUP2 PUSH3 0x6BA JUMPI PUSH1 0x0 SWAP1 POP PUSH3 0x77D JUMP JUMPDEST DUP2 PUSH1 0x1 DUP2 EQ PUSH3 0x6D3 JUMPI PUSH1 0x2 DUP2 EQ PUSH3 0x6DE JUMPI PUSH3 0x714 JUMP JUMPDEST PUSH1 0x1 SWAP2 POP POP PUSH3 0x77D JUMP JUMPDEST PUSH1 0xFF DUP5 GT ISZERO PUSH3 0x6F3 JUMPI PUSH3 0x6F2 PUSH3 0x866 JUMP JUMPDEST JUMPDEST DUP4 PUSH1 0x2 EXP SWAP2 POP DUP5 DUP3 GT ISZERO PUSH3 0x70D JUMPI PUSH3 0x70C PUSH3 0x866 JUMP JUMPDEST JUMPDEST POP PUSH3 0x77D JUMP JUMPDEST POP PUSH1 0x20 DUP4 LT PUSH2 0x133 DUP4 LT AND PUSH1 0x4E DUP5 LT PUSH1 0xB DUP5 LT AND OR ISZERO PUSH3 0x74E JUMPI DUP3 DUP3 EXP SWAP1 POP DUP4 DUP2 GT ISZERO PUSH3 0x748 JUMPI PUSH3 0x747 PUSH3 0x866 JUMP JUMPDEST JUMPDEST PUSH3 0x77D JUMP JUMPDEST PUSH3 0x75D DUP5 DUP5 DUP5 PUSH1 0x1 PUSH3 0x5EC JUMP JUMPDEST SWAP3 POP SWAP1 POP DUP2 DUP5 DIV DUP2 GT ISZERO PUSH3 0x777 JUMPI PUSH3 0x776 PUSH3 0x866 JUMP JUMPDEST JUMPDEST DUP2 DUP2 MUL SWAP1 POP JUMPDEST SWAP4 SWAP3 POP POP POP JUMP JUMPDEST PUSH1 0x0 PUSH3 0x791 DUP3 PUSH3 0x819 JUMP JUMPDEST SWAP2 POP PUSH3 0x79E DUP4 PUSH3 0x819 JUMP JUMPDEST SWAP3 POP DUP2 PUSH32 0xFFFFFFFFFFFFFFFFFFFFFFFFFFFFFFFFFFFFFFFFFFFFFFFFFFFFFFFFFFFFFFFF DIV DUP4 GT DUP3 ISZERO ISZERO AND ISZERO PUSH3 0x7DA JUMPI PUSH3 0x7D9 PUSH3 0x866 JUMP JUMPDEST JUMPDEST DUP3 DUP3 MUL SWAP1 POP SWAP3 SWAP2 POP POP JUMP JUMPDEST PUSH1 0x0 PUSH3 0x7F2 DUP3 PUSH3 0x7F9 JUMP JUMPDEST SWAP1 POP SWAP2 SWAP1 POP JUMP JUMPDEST PUSH1 0x0 PUSH20 0xFFFFFFFFFFFFFFFFFFFFFFFFFFFFFFFFFFFFFFFF DUP3 AND SWAP1 POP SWAP2 SWAP1 POP JUMP JUMPDEST PUSH1 0x0 DUP2 SWAP1 POP SWAP2 SWAP1 POP JUMP JUMPDEST PUSH1 0x0 PUSH1 0xFF DUP3 AND SWAP1 POP SWAP2 SWAP1 POP JUMP JUMPDEST PUSH1 0x0 PUSH1 0x2 DUP3 DIV SWAP1 POP PUSH1 0x1 DUP3 AND DUP1 PUSH3 0x849 JUMPI PUSH1 0x7F DUP3 AND SWAP2 POP JUMPDEST PUSH1 0x20 DUP3 LT DUP2 EQ ISZERO PUSH3 0x860 JUMPI PUSH3 0x85F PUSH3 0x895 JUMP JUMPDEST JUMPDEST POP SWAP2 SWAP1 POP JUMP JUMPDEST PUSH32 0x4E487B7100000000000000000000000000000000000000000000000000000000 PUSH1 0x0 MSTORE PUSH1 0x11 PUSH1 0x4 MSTORE PUSH1 0x24 PUSH1 0x0 REVERT JUMPDEST PUSH32 0x4E487B7100000000000000000000000000000000000000000000000000000000 PUSH1 0x0 MSTORE PUSH1 0x22 PUSH1 0x4 MSTORE PUSH1 0x24 PUSH1 0x0 REVERT JUMPDEST PUSH1 0x0 DUP1 REVERT JUMPDEST PUSH1 0x0 DUP2 PUSH1 0x1 SHR SWAP1 POP SWAP2 SWAP1 POP JUMP JUMPDEST PUSH32 0x45524332303A206D696E7420746F20746865207A65726F206164647265737300 PUSH1 0x0 DUP3 ADD MSTORE POP JUMP JUMPDEST PUSH3 0x90A DUP2 PUSH3 0x7E5 JUMP JUMPDEST DUP2 EQ PUSH3 0x916 JUMPI PUSH1 0x0 DUP1 REVERT JUMPDEST POP JUMP JUMPDEST PUSH2 0x1E06 DUP1 PUSH3 0x929 PUSH1 0x0 CODECOPY PUSH1 0x0 RETURN INVALID PUSH1 0x80 PUSH1 0x40 MSTORE PUSH1 0x4 CALLDATASIZE LT PUSH2 0x109 JUMPI PUSH1 0x0 CALLDATALOAD PUSH1 0xE0 SHR DUP1 PUSH4 0x715018A6 GT PUSH2 0x95 JUMPI DUP1 PUSH4 0xA457C2D7 GT PUSH2 0x64 JUMPI DUP1 PUSH4 0xA457C2D7 EQ PUSH2 0x360 JUMPI DUP1 PUSH4 0xA9059CBB EQ PUSH2 0x39D JUMPI DUP1 PUSH4 0xAFB41183 EQ PUSH2 0x3DA JUMPI DUP1 PUSH4 0xDD62ED3E EQ PUSH2 0x405 JUMPI DUP1 PUSH4 0xF2FDE38B EQ PUSH2 0x442 JUMPI PUSH2 0x109 JUMP JUMPDEST DUP1 PUSH4 0x715018A6 EQ PUSH2 0x2D7 JUMPI DUP1 PUSH4 0x7E72FB52 EQ PUSH2 0x2EE JUMPI DUP1 PUSH4 0x8DA5CB5B EQ PUSH2 0x30A JUMPI DUP1 PUSH4 0x95D89B41 EQ PUSH2 0x335 JUMPI PUSH2 0x109 JUMP JUMPDEST DUP1 PUSH4 0x2C4E722E GT PUSH2 0xDC JUMPI DUP1 PUSH4 0x2C4E722E EQ PUSH2 0x1DE JUMPI DUP1 PUSH4 0x313CE567 EQ PUSH2 0x209 JUMPI DUP1 PUSH4 0x39509351 EQ PUSH2 0x234 JUMPI DUP1 PUSH4 0x40C10F19 EQ PUSH2 0x271 JUMPI DUP1 PUSH4 0x70A08231 EQ PUSH2 0x29A JUMPI PUSH2 0x109 JUMP JUMPDEST DUP1 PUSH4 0x6FDDE03 EQ PUSH2 0x10E JUMPI DUP1 PUSH4 0x95EA7B3 EQ PUSH2 0x139 JUMPI DUP1 PUSH4 0x18160DDD EQ PUSH2 0x176 JUMPI DUP1 PUSH4 0x23B872DD EQ PUSH2 0x1A1 JUMPI JUMPDEST PUSH1 0x0 DUP1 REVERT JUMPDEST CALLVALUE DUP1 ISZERO PUSH2 0x11A JUMPI PUSH1 0x0 DUP1 REVERT JUMPDEST POP PUSH2 0x123 PUSH2 0x46B JUMP JUMPDEST PUSH1 0x40 MLOAD PUSH2 0x130 SWAP2 SWAP1 PUSH2 0x171D JUMP JUMPDEST PUSH1 0x40 MLOAD DUP1 SWAP2 SUB SWAP1 RETURN JUMPDEST CALLVALUE DUP1 ISZERO PUSH2 0x145 JUMPI PUSH1 0x0 DUP1 REVERT JUMPDEST POP PUSH2 0x160 PUSH1 0x4 DUP1 CALLDATASIZE SUB DUP2 ADD SWAP1 PUSH2 0x15B SWAP2 SWAP1 PUSH2 0x147A JUMP JUMPDEST PUSH2 0x4FD JUMP JUMPDEST PUSH1 0x40 MLOAD PUSH2 0x16D SWAP2 SWAP1 PUSH2 0x1702 JUMP JUMPDEST PUSH1 0x40 MLOAD DUP1 SWAP2 SUB SWAP1 RETURN JUMPDEST CALLVALUE DUP1 ISZERO PUSH2 0x182 JUMPI PUSH1 0x0 DUP1 REVERT JUMPDEST POP PUSH2 0x18B PUSH2 0x520 JUMP JUMPDEST PUSH1 0x40 MLOAD PUSH2 0x198 SWAP2 SWAP1 PUSH2 0x189F JUMP JUMPDEST PUSH1 0x40 MLOAD DUP1 SWAP2 SUB SWAP1 RETURN JUMPDEST CALLVALUE DUP1 ISZERO PUSH2 0x1AD JUMPI PUSH1 0x0 DUP1 REVERT JUMPDEST POP PUSH2 0x1C8 PUSH1 0x4 DUP1 CALLDATASIZE SUB DUP2 ADD SWAP1 PUSH2 0x1C3 SWAP2 SWAP1 PUSH2 0x1427 JUMP JUMPDEST PUSH2 0x52A JUMP JUMPDEST PUSH1 0x40 MLOAD PUSH2 0x1D5 SWAP2 SWAP1 PUSH2 0x1702 JUMP JUMPDEST PUSH1 0x40 MLOAD DUP1 SWAP2 SUB SWAP1 RETURN JUMPDEST CALLVALUE DUP1 ISZERO PUSH2 0x1EA JUMPI PUSH1 0x0 DUP1 REVERT JUMPDEST POP PUSH2 0x1F3 PUSH2 0x559 JUMP JUMPDEST PUSH1 0x40 MLOAD PUSH2 0x200 SWAP2 SWAP1 PUSH2 0x189F JUMP JUMPDEST PUSH1 0x40 MLOAD DUP1 SWAP2 SUB SWAP1 RETURN JUMPDEST CALLVALUE DUP1 ISZERO PUSH2 0x215 JUMPI PUSH1 0x0 DUP1 REVERT JUMPDEST POP PUSH2 0x21E PUSH2 0x55F JUMP JUMPDEST PUSH1 0x40 MLOAD PUSH2 0x22B SWAP2 SWAP1 PUSH2 0x18BA JUMP JUMPDEST PUSH1 0x40 MLOAD DUP1 SWAP2 SUB SWAP1 RETURN JUMPDEST CALLVALUE DUP1 ISZERO PUSH2 0x240 JUMPI PUSH1 0x0 DUP1 REVERT JUMPDEST POP PUSH2 0x25B PUSH1 0x4 DUP1 CALLDATASIZE SUB DUP2 ADD SWAP1 PUSH2 0x256 SWAP2 SWAP1 PUSH2 0x147A JUMP JUMPDEST PUSH2 0x568 JUMP JUMPDEST PUSH1 0x40 MLOAD PUSH2 0x268 SWAP2 SWAP1 PUSH2 0x1702 JUMP JUMPDEST PUSH1 0x40 MLOAD DUP1 SWAP2 SUB SWAP1 RETURN JUMPDEST CALLVALUE DUP1 ISZERO PUSH2 0x27D JUMPI PUSH1 0x0 DUP1 REVERT JUMPDEST POP PUSH2 0x298 PUSH1 0x4 DUP1 CALLDATASIZE SUB DUP2 ADD SWAP1 PUSH2 0x293 SWAP2 SWAP1 PUSH2 0x147A JUMP JUMPDEST PUSH2 0x612 JUMP JUMPDEST STOP JUMPDEST CALLVALUE DUP1 ISZERO PUSH2 0x2A6 JUMPI PUSH1 0x0 DUP1 REVERT JUMPDEST POP PUSH2 0x2C1 PUSH1 0x4 DUP1 CALLDATASIZE SUB DUP2 ADD SWAP1 PUSH2 0x2BC SWAP2 SWAP1 PUSH2 0x13BA JUMP JUMPDEST PUSH2 0x69C JUMP JUMPDEST PUSH1 0x40 MLOAD PUSH2 0x2CE SWAP2 SWAP1 PUSH2 0x189F JUMP JUMPDEST PUSH1 0x40 MLOAD DUP1 SWAP2 SUB SWAP1 RETURN JUMPDEST CALLVALUE DUP1 ISZERO PUSH2 0x2E3 JUMPI PUSH1 0x0 DUP1 REVERT JUMPDEST POP PUSH2 0x2EC PUSH2 0x6E4 JUMP JUMPDEST STOP JUMPDEST PUSH2 0x308 PUSH1 0x4 DUP1 CALLDATASIZE SUB DUP2 ADD SWAP1 PUSH2 0x303 SWAP2 SWAP1 PUSH2 0x13BA JUMP JUMPDEST PUSH2 0x76C JUMP JUMPDEST STOP JUMPDEST CALLVALUE DUP1 ISZERO PUSH2 0x316 JUMPI PUSH1 0x0 DUP1 REVERT JUMPDEST POP PUSH2 0x31F PUSH2 0x87B JUMP JUMPDEST PUSH1 0x40 MLOAD PUSH2 0x32C SWAP2 SWAP1 PUSH2 0x16B0 JUMP JUMPDEST PUSH1 0x40 MLOAD DUP1 SWAP2 SUB SWAP1 RETURN JUMPDEST CALLVALUE DUP1 ISZERO PUSH2 0x341 JUMPI PUSH1 0x0 DUP1 REVERT JUMPDEST POP PUSH2 0x34A PUSH2 0x8A5 JUMP JUMPDEST PUSH1 0x40 MLOAD PUSH2 0x357 SWAP2 SWAP1 PUSH2 0x171D JUMP JUMPDEST PUSH1 0x40 MLOAD DUP1 SWAP2 SUB SWAP1 RETURN JUMPDEST CALLVALUE DUP1 ISZERO PUSH2 0x36C JUMPI PUSH1 0x0 DUP1 REVERT JUMPDEST POP PUSH2 0x387 PUSH1 0x4 DUP1 CALLDATASIZE SUB DUP2 ADD SWAP1 PUSH2 0x382 SWAP2 SWAP1 PUSH2 0x147A JUMP JUMPDEST PUSH2 0x937 JUMP JUMPDEST PUSH1 0x40 MLOAD PUSH2 0x394 SWAP2 SWAP1 PUSH2 0x1702 JUMP JUMPDEST PUSH1 0x40 MLOAD DUP1 SWAP2 SUB SWAP1 RETURN JUMPDEST CALLVALUE DUP1 ISZERO PUSH2 0x3A9 JUMPI PUSH1 0x0 DUP1 REVERT JUMPDEST POP PUSH2 0x3C4 PUSH1 0x4 DUP1 CALLDATASIZE SUB DUP2 ADD SWAP1 PUSH2 0x3BF SWAP2 SWAP1 PUSH2 0x147A JUMP JUMPDEST PUSH2 0xA21 JUMP JUMPDEST PUSH1 0x40 MLOAD PUSH2 0x3D1 SWAP2 SWAP1 PUSH2 0x1702 JUMP JUMPDEST PUSH1 0x40 MLOAD DUP1 SWAP2 SUB SWAP1 RETURN JUMPDEST CALLVALUE DUP1 ISZERO PUSH2 0x3E6 JUMPI PUSH1 0x0 DUP1 REVERT JUMPDEST POP PUSH2 0x3EF PUSH2 0xA44 JUMP JUMPDEST PUSH1 0x40 MLOAD PUSH2 0x3FC SWAP2 SWAP1 PUSH2 0x189F JUMP JUMPDEST PUSH1 0x40 MLOAD DUP1 SWAP2 SUB SWAP1 RETURN JUMPDEST CALLVALUE DUP1 ISZERO PUSH2 0x411 JUMPI PUSH1 0x0 DUP1 REVERT JUMPDEST POP PUSH2 0x42C PUSH1 0x4 DUP1 CALLDATASIZE SUB DUP2 ADD SWAP1 PUSH2 0x427 SWAP2 SWAP1 PUSH2 0x13E7 JUMP JUMPDEST PUSH2 0xB01 JUMP JUMPDEST PUSH1 0x40 MLOAD PUSH2 0x439 SWAP2 SWAP1 PUSH2 0x189F JUMP JUMPDEST PUSH1 0x40 MLOAD DUP1 SWAP2 SUB SWAP1 RETURN JUMPDEST CALLVALUE DUP1 ISZERO PUSH2 0x44E JUMPI PUSH1 0x0 DUP1 REVERT JUMPDEST POP PUSH2 0x469 PUSH1 0x4 DUP1 CALLDATASIZE SUB DUP2 ADD SWAP1 PUSH2 0x464 SWAP2 SWAP1 PUSH2 0x13BA JUMP JUMPDEST PUSH2 0xB88 JUMP JUMPDEST STOP JUMPDEST PUSH1 0x60 PUSH1 0x3 DUP1 SLOAD PUSH2 0x47A SWAP1 PUSH2 0x1A00 JUMP JUMPDEST DUP1 PUSH1 0x1F ADD PUSH1 0x20 DUP1 SWAP2 DIV MUL PUSH1 0x20 ADD PUSH1 0x40 MLOAD SWAP1 DUP2 ADD PUSH1 0x40 MSTORE DUP1 SWAP3 SWAP2 SWAP1 DUP2 DUP2 MSTORE PUSH1 0x20 ADD DUP3 DUP1 SLOAD PUSH2 0x4A6 SWAP1 PUSH2 0x1A00 JUMP JUMPDEST DUP1 ISZERO PUSH2 0x4F3 JUMPI DUP1 PUSH1 0x1F LT PUSH2 0x4C8 JUMPI PUSH2 0x100 DUP1 DUP4 SLOAD DIV MUL DUP4 MSTORE SWAP2 PUSH1 0x20 ADD SWAP2 PUSH2 0x4F3 JUMP JUMPDEST DUP3 ADD SWAP2 SWAP1 PUSH1 0x0 MSTORE PUSH1 0x20 PUSH1 0x0 KECCAK256 SWAP1 JUMPDEST DUP2 SLOAD DUP2 MSTORE SWAP1 PUSH1 0x1 ADD SWAP1 PUSH1 0x20 ADD DUP1 DUP4 GT PUSH2 0x4D6 JUMPI DUP3 SWAP1 SUB PUSH1 0x1F AND DUP3 ADD SWAP2 JUMPDEST POP POP POP POP POP SWAP1 POP SWAP1 JUMP JUMPDEST PUSH1 0x0 DUP1 PUSH2 0x508 PUSH2 0xC80 JUMP JUMPDEST SWAP1 POP PUSH2 0x515 DUP2 DUP6 DUP6 PUSH2 0xC88 JUMP JUMPDEST PUSH1 0x1 SWAP2 POP POP SWAP3 SWAP2 POP POP JUMP JUMPDEST PUSH1 0x0 PUSH1 0x2 SLOAD SWAP1 POP SWAP1 JUMP JUMPDEST PUSH1 0x0 DUP1 PUSH2 0x535 PUSH2 0xC80 JUMP JUMPDEST SWAP1 POP PUSH2 0x542 DUP6 DUP3 DUP6 PUSH2 0xE53 JUMP JUMPDEST PUSH2 0x54D DUP6 DUP6 DUP6 PUSH2 0xEDF JUMP JUMPDEST PUSH1 0x1 SWAP2 POP POP SWAP4 SWAP3 POP POP POP JUMP JUMPDEST PUSH1 0x8 SLOAD DUP2 JUMP JUMPDEST PUSH1 0x0 PUSH1 0x12 SWAP1 POP SWAP1 JUMP JUMPDEST PUSH1 0x0 DUP1 PUSH2 0x573 PUSH2 0xC80 JUMP JUMPDEST SWAP1 POP PUSH2 0x607 DUP2 DUP6 DUP6 PUSH1 0x1 PUSH1 0x0 DUP7 PUSH20 0xFFFFFFFFFFFFFFFFFFFFFFFFFFFFFFFFFFFFFFFF AND PUSH20 0xFFFFFFFFFFFFFFFFFFFFFFFFFFFFFFFFFFFFFFFF AND DUP2 MSTORE PUSH1 0x20 ADD SWAP1 DUP2 MSTORE PUSH1 0x20 ADD PUSH1 0x0 KECCAK256 PUSH1 0x0 DUP10 PUSH20 0xFFFFFFFFFFFFFFFFFFFFFFFFFFFFFFFFFFFFFFFF AND PUSH20 0xFFFFFFFFFFFFFFFFFFFFFFFFFFFFFFFFFFFFFFFF AND DUP2 MSTORE PUSH1 0x20 ADD SWAP1 DUP2 MSTORE PUSH1 0x20 ADD PUSH1 0x0 KECCAK256 SLOAD PUSH2 0x602 SWAP2 SWAP1 PUSH2 0x18F1 JUMP JUMPDEST PUSH2 0xC88 JUMP JUMPDEST PUSH1 0x1 SWAP2 POP POP SWAP3 SWAP2 POP POP JUMP JUMPDEST PUSH2 0x61A PUSH2 0xC80 JUMP JUMPDEST PUSH20 0xFFFFFFFFFFFFFFFFFFFFFFFFFFFFFFFFFFFFFFFF AND PUSH2 0x638 PUSH2 0x87B JUMP JUMPDEST PUSH20 0xFFFFFFFFFFFFFFFFFFFFFFFFFFFFFFFFFFFFFFFF AND EQ PUSH2 0x68E JUMPI PUSH1 0x40 MLOAD PUSH32 0x8C379A000000000000000000000000000000000000000000000000000000000 DUP2 MSTORE PUSH1 0x4 ADD PUSH2 0x685 SWAP1 PUSH2 0x17FF JUMP JUMPDEST PUSH1 0x40 MLOAD DUP1 SWAP2 SUB SWAP1 REVERT JUMPDEST PUSH2 0x698 DUP3 DUP3 PUSH2 0x1160 JUMP JUMPDEST POP POP JUMP JUMPDEST PUSH1 0x0 DUP1 PUSH1 0x0 DUP4 PUSH20 0xFFFFFFFFFFFFFFFFFFFFFFFFFFFFFFFFFFFFFFFF AND PUSH20 0xFFFFFFFFFFFFFFFFFFFFFFFFFFFFFFFFFFFFFFFF AND DUP2 MSTORE PUSH1 0x20 ADD SWAP1 DUP2 MSTORE PUSH1 0x20 ADD PUSH1 0x0 KECCAK256 SLOAD SWAP1 POP SWAP2 SWAP1 POP JUMP JUMPDEST PUSH2 0x6EC PUSH2 0xC80 JUMP JUMPDEST PUSH20 0xFFFFFFFFFFFFFFFFFFFFFFFFFFFFFFFFFFFFFFFF AND PUSH2 0x70A PUSH2 0x87B JUMP JUMPDEST PUSH20 0xFFFFFFFFFFFFFFFFFFFFFFFFFFFFFFFFFFFFFFFF AND EQ PUSH2 0x760 JUMPI PUSH1 0x40 MLOAD PUSH32 0x8C379A000000000000000000000000000000000000000000000000000000000 DUP2 MSTORE PUSH1 0x4 ADD PUSH2 0x757 SWAP1 PUSH2 0x17FF JUMP JUMPDEST PUSH1 0x40 MLOAD DUP1 SWAP2 SUB SWAP1 REVERT JUMPDEST PUSH2 0x76A PUSH1 0x0 PUSH2 0x12C0 JUMP JUMPDEST JUMP JUMPDEST PUSH8 0xDE0B6B3A7640000 CALLVALUE LT ISZERO PUSH2 0x7B7 JUMPI PUSH1 0x40 MLOAD PUSH32 0x8C379A000000000000000000000000000000000000000000000000000000000 DUP2 MSTORE PUSH1 0x4 ADD PUSH2 0x7AE SWAP1 PUSH2 0x179F JUMP JUMPDEST PUSH1 0x40 MLOAD DUP1 SWAP2 SUB SWAP1 REVERT JUMPDEST PUSH1 0x6 PUSH1 0x0 SWAP1 SLOAD SWAP1 PUSH2 0x100 EXP SWAP1 DIV PUSH20 0xFFFFFFFFFFFFFFFFFFFFFFFFFFFFFFFFFFFFFFFF AND PUSH20 0xFFFFFFFFFFFFFFFFFFFFFFFFFFFFFFFFFFFFFFFF AND PUSH2 0x8FC CALLVALUE SWAP1 DUP2 ISZERO MUL SWAP1 PUSH1 0x40 MLOAD PUSH1 0x0 PUSH1 0x40 MLOAD DUP1 DUP4 SUB DUP2 DUP6 DUP9 DUP9 CALL SWAP4 POP POP POP POP ISZERO DUP1 ISZERO PUSH2 0x81F JUMPI RETURNDATASIZE PUSH1 0x0 DUP1 RETURNDATACOPY RETURNDATASIZE PUSH1 0x0 REVERT JUMPDEST POP PUSH1 0x0 PUSH1 0x8 SLOAD CALLVALUE PUSH2 0x830 SWAP2 SWAP1 PUSH2 0x1947 JUMP JUMPDEST SWAP1 POP PUSH2 0x83C DUP3 DUP3 PUSH2 0x1160 JUMP JUMPDEST PUSH32 0xF7684C931F3F1274FFA9E57BFDF5D3D86BF171875CEA6A11B5FA6C1C889A1D12 CALLER DUP4 DUP4 PUSH1 0x40 MLOAD PUSH2 0x86F SWAP4 SWAP3 SWAP2 SWAP1 PUSH2 0x16CB JUMP JUMPDEST PUSH1 0x40 MLOAD DUP1 SWAP2 SUB SWAP1 LOG1 POP POP JUMP JUMPDEST PUSH1 0x0 PUSH1 0x5 PUSH1 0x0 SWAP1 SLOAD SWAP1 PUSH2 0x100 EXP SWAP1 DIV PUSH20 0xFFFFFFFFFFFFFFFFFFFFFFFFFFFFFFFFFFFFFFFF AND SWAP1 POP SWAP1 JUMP JUMPDEST PUSH1 0x60 PUSH1 0x4 DUP1 SLOAD PUSH2 0x8B4 SWAP1 PUSH2 0x1A00 JUMP JUMPDEST DUP1 PUSH1 0x1F ADD PUSH1 0x20 DUP1 SWAP2 DIV MUL PUSH1 0x20 ADD PUSH1 0x40 MLOAD SWAP1 DUP2 ADD PUSH1 0x40 MSTORE DUP1 SWAP3 SWAP2 SWAP1 DUP2 DUP2 MSTORE PUSH1 0x20 ADD DUP3 DUP1 SLOAD PUSH2 0x8E0 SWAP1 PUSH2 0x1A00 JUMP JUMPDEST DUP1 ISZERO PUSH2 0x92D JUMPI DUP1 PUSH1 0x1F LT PUSH2 0x902 JUMPI PUSH2 0x100 DUP1 DUP4 SLOAD DIV MUL DUP4 MSTORE SWAP2 PUSH1 0x20 ADD SWAP2 PUSH2 0x92D JUMP JUMPDEST DUP3 ADD SWAP2 SWAP1 PUSH1 0x0 MSTORE PUSH1 0x20 PUSH1 0x0 KECCAK256 SWAP1 JUMPDEST DUP2 SLOAD DUP2 MSTORE SWAP1 PUSH1 0x1 ADD SWAP1 PUSH1 0x20 ADD DUP1 DUP4 GT PUSH2 0x910 JUMPI DUP3 SWAP1 SUB PUSH1 0x1F AND DUP3 ADD SWAP2 JUMPDEST POP POP POP POP POP SWAP1 POP SWAP1 JUMP JUMPDEST PUSH1 0x0 DUP1 PUSH2 0x942 PUSH2 0xC80 JUMP JUMPDEST SWAP1 POP PUSH1 0x0 PUSH1 0x1 PUSH1 0x0 DUP4 PUSH20 0xFFFFFFFFFFFFFFFFFFFFFFFFFFFFFFFFFFFFFFFF AND PUSH20 0xFFFFFFFFFFFFFFFFFFFFFFFFFFFFFFFFFFFFFFFF AND DUP2 MSTORE PUSH1 0x20 ADD SWAP1 DUP2 MSTORE PUSH1 0x20 ADD PUSH1 0x0 KECCAK256 PUSH1 0x0 DUP7 PUSH20 0xFFFFFFFFFFFFFFFFFFFFFFFFFFFFFFFFFFFFFFFF AND PUSH20 0xFFFFFFFFFFFFFFFFFFFFFFFFFFFFFFFFFFFFFFFF AND DUP2 MSTORE PUSH1 0x20 ADD SWAP1 DUP2 MSTORE PUSH1 0x20 ADD PUSH1 0x0 KECCAK256 SLOAD SWAP1 POP DUP4 DUP2 LT ISZERO PUSH2 0xA08 JUMPI PUSH1 0x40 MLOAD PUSH32 0x8C379A000000000000000000000000000000000000000000000000000000000 DUP2 MSTORE PUSH1 0x4 ADD PUSH2 0x9FF SWAP1 PUSH2 0x185F JUMP JUMPDEST PUSH1 0x40 MLOAD DUP1 SWAP2 SUB SWAP1 REVERT JUMPDEST PUSH2 0xA15 DUP3 DUP7 DUP7 DUP5 SUB PUSH2 0xC88 JUMP JUMPDEST PUSH1 0x1 SWAP3 POP POP POP SWAP3 SWAP2 POP POP JUMP JUMPDEST PUSH1 0x0 DUP1 PUSH2 0xA2C PUSH2 0xC80 JUMP JUMPDEST SWAP1 POP PUSH2 0xA39 DUP2 DUP6 DUP6 PUSH2 0xEDF JUMP JUMPDEST PUSH1 0x1 SWAP2 POP POP SWAP3 SWAP2 POP POP JUMP JUMPDEST PUSH1 0x0 PUSH2 0xA4E PUSH2 0xC80 JUMP JUMPDEST PUSH20 0xFFFFFFFFFFFFFFFFFFFFFFFFFFFFFFFFFFFFFFFF AND PUSH2 0xA6C PUSH2 0x87B JUMP JUMPDEST PUSH20 0xFFFFFFFFFFFFFFFFFFFFFFFFFFFFFFFFFFFFFFFF AND EQ PUSH2 0xAC2 JUMPI PUSH1 0x40 MLOAD PUSH32 0x8C379A000000000000000000000000000000000000000000000000000000000 DUP2 MSTORE PUSH1 0x4 ADD PUSH2 0xAB9 SWAP1 PUSH2 0x17FF JUMP JUMPDEST PUSH1 0x40 MLOAD DUP1 SWAP2 SUB SWAP1 REVERT JUMPDEST PUSH1 0x6 PUSH1 0x0 SWAP1 SLOAD SWAP1 PUSH2 0x100 EXP SWAP1 DIV PUSH20 0xFFFFFFFFFFFFFFFFFFFFFFFFFFFFFFFFFFFFFFFF AND PUSH20 0xFFFFFFFFFFFFFFFFFFFFFFFFFFFFFFFFFFFFFFFF AND BALANCE SWAP1 POP SWAP1 JUMP JUMPDEST PUSH1 0x0 PUSH1 0x1 PUSH1 0x0 DUP5 PUSH20 0xFFFFFFFFFFFFFFFFFFFFFFFFFFFFFFFFFFFFFFFF AND PUSH20 0xFFFFFFFFFFFFFFFFFFFFFFFFFFFFFFFFFFFFFFFF AND DUP2 MSTORE PUSH1 0x20 ADD SWAP1 DUP2 MSTORE PUSH1 0x20 ADD PUSH1 0x0 KECCAK256 PUSH1 0x0 DUP4 PUSH20 0xFFFFFFFFFFFFFFFFFFFFFFFFFFFFFFFFFFFFFFFF AND PUSH20 0xFFFFFFFFFFFFFFFFFFFFFFFFFFFFFFFFFFFFFFFF AND DUP2 MSTORE PUSH1 0x20 ADD SWAP1 DUP2 MSTORE PUSH1 0x20 ADD PUSH1 0x0 KECCAK256 SLOAD SWAP1 POP SWAP3 SWAP2 POP POP JUMP JUMPDEST PUSH2 0xB90 PUSH2 0xC80 JUMP JUMPDEST PUSH20 0xFFFFFFFFFFFFFFFFFFFFFFFFFFFFFFFFFFFFFFFF AND PUSH2 0xBAE PUSH2 0x87B JUMP JUMPDEST PUSH20 0xFFFFFFFFFFFFFFFFFFFFFFFFFFFFFFFFFFFFFFFF AND EQ PUSH2 0xC04 JUMPI PUSH1 0x40 MLOAD PUSH32 0x8C379A000000000000000000000000000000000000000000000000000000000 DUP2 MSTORE PUSH1 0x4 ADD PUSH2 0xBFB SWAP1 PUSH2 0x17FF JUMP JUMPDEST PUSH1 0x40 MLOAD DUP1 SWAP2 SUB SWAP1 REVERT JUMPDEST PUSH1 0x0 PUSH20 0xFFFFFFFFFFFFFFFFFFFFFFFFFFFFFFFFFFFFFFFF AND DUP2 PUSH20 0xFFFFFFFFFFFFFFFFFFFFFFFFFFFFFFFFFFFFFFFF AND EQ ISZERO PUSH2 0xC74 JUMPI PUSH1 0x40 MLOAD PUSH32 0x8C379A000000000000000000000000000000000000000000000000000000000 DUP2 MSTORE PUSH1 0x4 ADD PUSH2 0xC6B SWAP1 PUSH2 0x175F JUMP JUMPDEST PUSH1 0x40 MLOAD DUP1 SWAP2 SUB SWAP1 REVERT JUMPDEST PUSH2 0xC7D DUP2 PUSH2 0x12C0 JUMP JUMPDEST POP JUMP JUMPDEST PUSH1 0x0 CALLER SWAP1 POP SWAP1 JUMP JUMPDEST PUSH1 0x0 PUSH20 0xFFFFFFFFFFFFFFFFFFFFFFFFFFFFFFFFFFFFFFFF AND DUP4 PUSH20 0xFFFFFFFFFFFFFFFFFFFFFFFFFFFFFFFFFFFFFFFF AND EQ ISZERO PUSH2 0xCF8 JUMPI PUSH1 0x40 MLOAD PUSH32 0x8C379A000000000000000000000000000000000000000000000000000000000 DUP2 MSTORE PUSH1 0x4 ADD PUSH2 0xCEF SWAP1 PUSH2 0x183F JUMP JUMPDEST PUSH1 0x40 MLOAD DUP1 SWAP2 SUB SWAP1 REVERT JUMPDEST PUSH1 0x0 PUSH20 0xFFFFFFFFFFFFFFFFFFFFFFFFFFFFFFFFFFFFFFFF AND DUP3 PUSH20 0xFFFFFFFFFFFFFFFFFFFFFFFFFFFFFFFFFFFFFFFF AND EQ ISZERO PUSH2 0xD68 JUMPI PUSH1 0x40 MLOAD PUSH32 0x8C379A000000000000000000000000000000000000000000000000000000000 DUP2 MSTORE PUSH1 0x4 ADD PUSH2 0xD5F SWAP1 PUSH2 0x177F JUMP JUMPDEST PUSH1 0x40 MLOAD DUP1 SWAP2 SUB SWAP1 REVERT JUMPDEST DUP1 PUSH1 0x1 PUSH1 0x0 DUP6 PUSH20 0xFFFFFFFFFFFFFFFFFFFFFFFFFFFFFFFFFFFFFFFF AND PUSH20 0xFFFFFFFFFFFFFFFFFFFFFFFFFFFFFFFFFFFFFFFF AND DUP2 MSTORE PUSH1 0x20 ADD SWAP1 DUP2 MSTORE PUSH1 0x20 ADD PUSH1 0x0 KECCAK256 PUSH1 0x0 DUP5 PUSH20 0xFFFFFFFFFFFFFFFFFFFFFFFFFFFFFFFFFFFFFFFF AND PUSH20 0xFFFFFFFFFFFFFFFFFFFFFFFFFFFFFFFFFFFFFFFF AND DUP2 MSTORE PUSH1 0x20 ADD SWAP1 DUP2 MSTORE PUSH1 0x20 ADD PUSH1 0x0 KECCAK256 DUP2 SWAP1 SSTORE POP DUP2 PUSH20 0xFFFFFFFFFFFFFFFFFFFFFFFFFFFFFFFFFFFFFFFF AND DUP4 PUSH20 0xFFFFFFFFFFFFFFFFFFFFFFFFFFFFFFFFFFFFFFFF AND PUSH32 0x8C5BE1E5EBEC7D5BD14F71427D1E84F3DD0314C0F7B2291E5B200AC8C7C3B925 DUP4 PUSH1 0x40 MLOAD PUSH2 0xE46 SWAP2 SWAP1 PUSH2 0x189F JUMP JUMPDEST PUSH1 0x40 MLOAD DUP1 SWAP2 SUB SWAP1 LOG3 POP POP POP JUMP JUMPDEST PUSH1 0x0 PUSH2 0xE5F DUP5 DUP5 PUSH2 0xB01 JUMP JUMPDEST SWAP1 POP PUSH32 0xFFFFFFFFFFFFFFFFFFFFFFFFFFFFFFFFFFFFFFFFFFFFFFFFFFFFFFFFFFFFFFFF DUP2 EQ PUSH2 0xED9 JUMPI DUP2 DUP2 LT ISZERO PUSH2 0xECB JUMPI PUSH1 0x40 MLOAD PUSH32 0x8C379A000000000000000000000000000000000000000000000000000000000 DUP2 MSTORE PUSH1 0x4 ADD PUSH2 0xEC2 SWAP1 PUSH2 0x17BF JUMP JUMPDEST PUSH1 0x40 MLOAD DUP1 SWAP2 SUB SWAP1 REVERT JUMPDEST PUSH2 0xED8 DUP5 DUP5 DUP5 DUP5 SUB PUSH2 0xC88 JUMP JUMPDEST JUMPDEST POP POP POP POP JUMP JUMPDEST PUSH1 0x0 PUSH20 0xFFFFFFFFFFFFFFFFFFFFFFFFFFFFFFFFFFFFFFFF AND DUP4 PUSH20 0xFFFFFFFFFFFFFFFFFFFFFFFFFFFFFFFFFFFFFFFF AND EQ ISZERO PUSH2 0xF4F JUMPI PUSH1 0x40 MLOAD PUSH32 0x8C379A000000000000000000000000000000000000000000000000000000000 DUP2 MSTORE PUSH1 0x4 ADD PUSH2 0xF46 SWAP1 PUSH2 0x181F JUMP JUMPDEST PUSH1 0x40 MLOAD DUP1 SWAP2 SUB SWAP1 REVERT JUMPDEST PUSH1 0x0 PUSH20 0xFFFFFFFFFFFFFFFFFFFFFFFFFFFFFFFFFFFFFFFF AND DUP3 PUSH20 0xFFFFFFFFFFFFFFFFFFFFFFFFFFFFFFFFFFFFFFFF AND EQ ISZERO PUSH2 0xFBF JUMPI PUSH1 0x40 MLOAD PUSH32 0x8C379A000000000000000000000000000000000000000000000000000000000 DUP2 MSTORE PUSH1 0x4 ADD PUSH2 0xFB6 SWAP1 PUSH2 0x173F JUMP JUMPDEST PUSH1 0x40 MLOAD DUP1 SWAP2 SUB SWAP1 REVERT JUMPDEST PUSH2 0xFCA DUP4 DUP4 DUP4 PUSH2 0x1386 JUMP JUMPDEST PUSH1 0x0 DUP1 PUSH1 0x0 DUP6 PUSH20 0xFFFFFFFFFFFFFFFFFFFFFFFFFFFFFFFFFFFFFFFF AND PUSH20 0xFFFFFFFFFFFFFFFFFFFFFFFFFFFFFFFFFFFFFFFF AND DUP2 MSTORE PUSH1 0x20 ADD SWAP1 DUP2 MSTORE PUSH1 0x20 ADD PUSH1 0x0 KECCAK256 SLOAD SWAP1 POP DUP2 DUP2 LT ISZERO PUSH2 0x1050 JUMPI PUSH1 0x40 MLOAD PUSH32 0x8C379A000000000000000000000000000000000000000000000000000000000 DUP2 MSTORE PUSH1 0x4 ADD PUSH2 0x1047 SWAP1 PUSH2 0x17DF JUMP JUMPDEST PUSH1 0x40 MLOAD DUP1 SWAP2 SUB SWAP1 REVERT JUMPDEST DUP2 DUP2 SUB PUSH1 0x0 DUP1 DUP7 PUSH20 0xFFFFFFFFFFFFFFFFFFFFFFFFFFFFFFFFFFFFFFFF AND PUSH20 0xFFFFFFFFFFFFFFFFFFFFFFFFFFFFFFFFFFFFFFFF AND DUP2 MSTORE PUSH1 0x20 ADD SWAP1 DUP2 MSTORE PUSH1 0x20 ADD PUSH1 0x0 KECCAK256 DUP2 SWAP1 SSTORE POP DUP2 PUSH1 0x0 DUP1 DUP6 PUSH20 0xFFFFFFFFFFFFFFFFFFFFFFFFFFFFFFFFFFFFFFFF AND PUSH20 0xFFFFFFFFFFFFFFFFFFFFFFFFFFFFFFFFFFFFFFFF AND DUP2 MSTORE PUSH1 0x20 ADD SWAP1 DUP2 MSTORE PUSH1 0x20 ADD PUSH1 0x0 KECCAK256 PUSH1 0x0 DUP3 DUP3 SLOAD PUSH2 0x10E3 SWAP2 SWAP1 PUSH2 0x18F1 JUMP JUMPDEST SWAP3 POP POP DUP2 SWAP1 SSTORE POP DUP3 PUSH20 0xFFFFFFFFFFFFFFFFFFFFFFFFFFFFFFFFFFFFFFFF AND DUP5 PUSH20 0xFFFFFFFFFFFFFFFFFFFFFFFFFFFFFFFFFFFFFFFF AND PUSH32 0xDDF252AD1BE2C89B69C2B068FC378DAA952BA7F163C4A11628F55A4DF523B3EF DUP5 PUSH1 0x40 MLOAD PUSH2 0x1147 SWAP2 SWAP1 PUSH2 0x189F JUMP JUMPDEST PUSH1 0x40 MLOAD DUP1 SWAP2 SUB SWAP1 LOG3 PUSH2 0x115A DUP5 DUP5 DUP5 PUSH2 0x138B JUMP JUMPDEST POP POP POP POP JUMP JUMPDEST PUSH1 0x0 PUSH20 0xFFFFFFFFFFFFFFFFFFFFFFFFFFFFFFFFFFFFFFFF AND DUP3 PUSH20 0xFFFFFFFFFFFFFFFFFFFFFFFFFFFFFFFFFFFFFFFF AND EQ ISZERO PUSH2 0x11D0 JUMPI PUSH1 0x40 MLOAD PUSH32 0x8C379A000000000000000000000000000000000000000000000000000000000 DUP2 MSTORE PUSH1 0x4 ADD PUSH2 0x11C7 SWAP1 PUSH2 0x187F JUMP JUMPDEST PUSH1 0x40 MLOAD DUP1 SWAP2 SUB SWAP1 REVERT JUMPDEST PUSH2 0x11DC PUSH1 0x0 DUP4 DUP4 PUSH2 0x1386 JUMP JUMPDEST DUP1 PUSH1 0x2 PUSH1 0x0 DUP3 DUP3 SLOAD PUSH2 0x11EE SWAP2 SWAP1 PUSH2 0x18F1 JUMP JUMPDEST SWAP3 POP POP DUP2 SWAP1 SSTORE POP DUP1 PUSH1 0x0 DUP1 DUP5 PUSH20 0xFFFFFFFFFFFFFFFFFFFFFFFFFFFFFFFFFFFFFFFF AND PUSH20 0xFFFFFFFFFFFFFFFFFFFFFFFFFFFFFFFFFFFFFFFF AND DUP2 MSTORE PUSH1 0x20 ADD SWAP1 DUP2 MSTORE PUSH1 0x20 ADD PUSH1 0x0 KECCAK256 PUSH1 0x0 DUP3 DUP3 SLOAD PUSH2 0x1243 SWAP2 SWAP1 PUSH2 0x18F1 JUMP JUMPDEST SWAP3 POP POP DUP2 SWAP1 SSTORE POP DUP2 PUSH20 0xFFFFFFFFFFFFFFFFFFFFFFFFFFFFFFFFFFFFFFFF AND PUSH1 0x0 PUSH20 0xFFFFFFFFFFFFFFFFFFFFFFFFFFFFFFFFFFFFFFFF AND PUSH32 0xDDF252AD1BE2C89B69C2B068FC378DAA952BA7F163C4A11628F55A4DF523B3EF DUP4 PUSH1 0x40 MLOAD PUSH2 0x12A8 SWAP2 SWAP1 PUSH2 0x189F JUMP JUMPDEST PUSH1 0x40 MLOAD DUP1 SWAP2 SUB SWAP1 LOG3 PUSH2 0x12BC PUSH1 0x0 DUP4 DUP4 PUSH2 0x138B JUMP JUMPDEST POP POP JUMP JUMPDEST PUSH1 0x0 PUSH1 0x5 PUSH1 0x0 SWAP1 SLOAD SWAP1 PUSH2 0x100 EXP SWAP1 DIV PUSH20 0xFFFFFFFFFFFFFFFFFFFFFFFFFFFFFFFFFFFFFFFF AND SWAP1 POP DUP2 PUSH1 0x5 PUSH1 0x0 PUSH2 0x100 EXP DUP2 SLOAD DUP2 PUSH20 0xFFFFFFFFFFFFFFFFFFFFFFFFFFFFFFFFFFFFFFFF MUL NOT AND SWAP1 DUP4 PUSH20 0xFFFFFFFFFFFFFFFFFFFFFFFFFFFFFFFFFFFFFFFF AND MUL OR SWAP1 SSTORE POP DUP2 PUSH20 0xFFFFFFFFFFFFFFFFFFFFFFFFFFFFFFFFFFFFFFFF AND DUP2 PUSH20 0xFFFFFFFFFFFFFFFFFFFFFFFFFFFFFFFFFFFFFFFF AND PUSH32 0x8BE0079C531659141344CD1FD0A4F28419497F9722A3DAAFE3B4186F6B6457E0 PUSH1 0x40 MLOAD PUSH1 0x40 MLOAD DUP1 SWAP2 SUB SWAP1 LOG3 POP POP JUMP JUMPDEST POP POP POP JUMP JUMPDEST POP POP POP JUMP JUMPDEST PUSH1 0x0 DUP2 CALLDATALOAD SWAP1 POP PUSH2 0x139F DUP2 PUSH2 0x1DA2 JUMP JUMPDEST SWAP3 SWAP2 POP POP JUMP JUMPDEST PUSH1 0x0 DUP2 CALLDATALOAD SWAP1 POP PUSH2 0x13B4 DUP2 PUSH2 0x1DB9 JUMP JUMPDEST SWAP3 SWAP2 POP POP JUMP JUMPDEST PUSH1 0x0 PUSH1 0x20 DUP3 DUP5 SUB SLT ISZERO PUSH2 0x13D0 JUMPI PUSH2 0x13CF PUSH2 0x1ABF JUMP JUMPDEST JUMPDEST PUSH1 0x0 PUSH2 0x13DE DUP5 DUP3 DUP6 ADD PUSH2 0x1390 JUMP JUMPDEST SWAP2 POP POP SWAP3 SWAP2 POP POP JUMP JUMPDEST PUSH1 0x0 DUP1 PUSH1 0x40 DUP4 DUP6 SUB SLT ISZERO PUSH2 0x13FE JUMPI PUSH2 0x13FD PUSH2 0x1ABF JUMP JUMPDEST JUMPDEST PUSH1 0x0 PUSH2 0x140C DUP6 DUP3 DUP7 ADD PUSH2 0x1390 JUMP JUMPDEST SWAP3 POP POP PUSH1 0x20 PUSH2 0x141D DUP6 DUP3 DUP7 ADD PUSH2 0x1390 JUMP JUMPDEST SWAP2 POP POP SWAP3 POP SWAP3 SWAP1 POP JUMP JUMPDEST PUSH1 0x0 DUP1 PUSH1 0x0 PUSH1 0x60 DUP5 DUP7 SUB SLT ISZERO PUSH2 0x1440 JUMPI PUSH2 0x143F PUSH2 0x1ABF JUMP JUMPDEST JUMPDEST PUSH1 0x0 PUSH2 0x144E DUP7 DUP3 DUP8 ADD PUSH2 0x1390 JUMP JUMPDEST SWAP4 POP POP PUSH1 0x20 PUSH2 0x145F DUP7 DUP3 DUP8 ADD PUSH2 0x1390 JUMP JUMPDEST SWAP3 POP POP PUSH1 0x40 PUSH2 0x1470 DUP7 DUP3 DUP8 ADD PUSH2 0x13A5 JUMP JUMPDEST SWAP2 POP POP SWAP3 POP SWAP3 POP SWAP3 JUMP JUMPDEST PUSH1 0x0 DUP1 PUSH1 0x40 DUP4 DUP6 SUB SLT ISZERO PUSH2 0x1491 JUMPI PUSH2 0x1490 PUSH2 0x1ABF JUMP JUMPDEST JUMPDEST PUSH1 0x0 PUSH2 0x149F DUP6 DUP3 DUP7 ADD PUSH2 0x1390 JUMP JUMPDEST SWAP3 POP POP PUSH1 0x20 PUSH2 0x14B0 DUP6 DUP3 DUP7 ADD PUSH2 0x13A5 JUMP JUMPDEST SWAP2 POP POP SWAP3 POP SWAP3 SWAP1 POP JUMP JUMPDEST PUSH2 0x14C3 DUP2 PUSH2 0x1978 JUMP JUMPDEST DUP3 MSTORE POP POP JUMP JUMPDEST PUSH2 0x14D2 DUP2 PUSH2 0x198A JUMP JUMPDEST DUP3 MSTORE POP POP JUMP JUMPDEST PUSH1 0x0 PUSH2 0x14E3 DUP3 PUSH2 0x18D5 JUMP JUMPDEST PUSH2 0x14ED DUP2 DUP6 PUSH2 0x18E0 JUMP JUMPDEST SWAP4 POP PUSH2 0x14FD DUP2 DUP6 PUSH1 0x20 DUP7 ADD PUSH2 0x19CD JUMP JUMPDEST PUSH2 0x1506 DUP2 PUSH2 0x1AC4 JUMP JUMPDEST DUP5 ADD SWAP2 POP POP SWAP3 SWAP2 POP POP JUMP JUMPDEST PUSH1 0x0 PUSH2 0x151E PUSH1 0x23 DUP4 PUSH2 0x18E0 JUMP JUMPDEST SWAP2 POP PUSH2 0x1529 DUP3 PUSH2 0x1AD5 JUMP JUMPDEST PUSH1 0x40 DUP3 ADD SWAP1 POP SWAP2 SWAP1 POP JUMP JUMPDEST PUSH1 0x0 PUSH2 0x1541 PUSH1 0x26 DUP4 PUSH2 0x18E0 JUMP JUMPDEST SWAP2 POP PUSH2 0x154C DUP3 PUSH2 0x1B24 JUMP JUMPDEST PUSH1 0x40 DUP3 ADD SWAP1 POP SWAP2 SWAP1 POP JUMP JUMPDEST PUSH1 0x0 PUSH2 0x1564 PUSH1 0x22 DUP4 PUSH2 0x18E0 JUMP JUMPDEST SWAP2 POP PUSH2 0x156F DUP3 PUSH2 0x1B73 JUMP JUMPDEST PUSH1 0x40 DUP3 ADD SWAP1 POP SWAP2 SWAP1 POP JUMP JUMPDEST PUSH1 0x0 PUSH2 0x1587 PUSH1 0x1B DUP4 PUSH2 0x18E0 JUMP JUMPDEST SWAP2 POP PUSH2 0x1592 DUP3 PUSH2 0x1BC2 JUMP JUMPDEST PUSH1 0x20 DUP3 ADD SWAP1 POP SWAP2 SWAP1 POP JUMP JUMPDEST PUSH1 0x0 PUSH2 0x15AA PUSH1 0x1D DUP4 PUSH2 0x18E0 JUMP JUMPDEST SWAP2 POP PUSH2 0x15B5 DUP3 PUSH2 0x1BEB JUMP JUMPDEST PUSH1 0x20 DUP3 ADD SWAP1 POP SWAP2 SWAP1 POP JUMP JUMPDEST PUSH1 0x0 PUSH2 0x15CD PUSH1 0x26 DUP4 PUSH2 0x18E0 JUMP JUMPDEST SWAP2 POP PUSH2 0x15D8 DUP3 PUSH2 0x1C14 JUMP JUMPDEST PUSH1 0x40 DUP3 ADD SWAP1 POP SWAP2 SWAP1 POP JUMP JUMPDEST PUSH1 0x0 PUSH2 0x15F0 PUSH1 0x20 DUP4 PUSH2 0x18E0 JUMP JUMPDEST SWAP2 POP PUSH2 0x15FB DUP3 PUSH2 0x1C63 JUMP JUMPDEST PUSH1 0x20 DUP3 ADD SWAP1 POP SWAP2 SWAP1 POP JUMP JUMPDEST PUSH1 0x0 PUSH2 0x1613 PUSH1 0x25 DUP4 PUSH2 0x18E0 JUMP JUMPDEST SWAP2 POP PUSH2 0x161E DUP3 PUSH2 0x1C8C JUMP JUMPDEST PUSH1 0x40 DUP3 ADD SWAP1 POP SWAP2 SWAP1 POP JUMP JUMPDEST PUSH1 0x0 PUSH2 0x1636 PUSH1 0x24 DUP4 PUSH2 0x18E0 JUMP JUMPDEST SWAP2 POP PUSH2 0x1641 DUP3 PUSH2 0x1CDB JUMP JUMPDEST PUSH1 0x40 DUP3 ADD SWAP1 POP SWAP2 SWAP1 POP JUMP JUMPDEST PUSH1 0x0 PUSH2 0x1659 PUSH1 0x25 DUP4 PUSH2 0x18E0 JUMP JUMPDEST SWAP2 POP PUSH2 0x1664 DUP3 PUSH2 0x1D2A JUMP JUMPDEST PUSH1 0x40 DUP3 ADD SWAP1 POP SWAP2 SWAP1 POP JUMP JUMPDEST PUSH1 0x0 PUSH2 0x167C PUSH1 0x1F DUP4 PUSH2 0x18E0 JUMP JUMPDEST SWAP2 POP PUSH2 0x1687 DUP3 PUSH2 0x1D79 JUMP JUMPDEST PUSH1 0x20 DUP3 ADD SWAP1 POP SWAP2 SWAP1 POP JUMP JUMPDEST PUSH2 0x169B DUP2 PUSH2 0x19B6 JUMP JUMPDEST DUP3 MSTORE POP POP JUMP JUMPDEST PUSH2 0x16AA DUP2 PUSH2 0x19C0 JUMP JUMPDEST DUP3 MSTORE POP POP JUMP JUMPDEST PUSH1 0x0 PUSH1 0x20 DUP3 ADD SWAP1 POP PUSH2 0x16C5 PUSH1 0x0 DUP4 ADD DUP5 PUSH2 0x14BA JUMP JUMPDEST SWAP3 SWAP2 POP POP JUMP JUMPDEST PUSH1 0x0 PUSH1 0x60 DUP3 ADD SWAP1 POP PUSH2 0x16E0 PUSH1 0x0 DUP4 ADD DUP7 PUSH2 0x14BA JUMP JUMPDEST PUSH2 0x16ED PUSH1 0x20 DUP4 ADD DUP6 PUSH2 0x14BA JUMP JUMPDEST PUSH2 0x16FA PUSH1 0x40 DUP4 ADD DUP5 PUSH2 0x1692 JUMP JUMPDEST SWAP5 SWAP4 POP POP POP POP JUMP JUMPDEST PUSH1 0x0 PUSH1 0x20 DUP3 ADD SWAP1 POP PUSH2 0x1717 PUSH1 0x0 DUP4 ADD DUP5 PUSH2 0x14C9 JUMP JUMPDEST SWAP3 SWAP2 POP POP JUMP JUMPDEST PUSH1 0x0 PUSH1 0x20 DUP3 ADD SWAP1 POP DUP2 DUP2 SUB PUSH1 0x0 DUP4 ADD MSTORE PUSH2 0x1737 DUP2 DUP5 PUSH2 0x14D8 JUMP JUMPDEST SWAP1 POP SWAP3 SWAP2 POP POP JUMP JUMPDEST PUSH1 0x0 PUSH1 0x20 DUP3 ADD SWAP1 POP DUP2 DUP2 SUB PUSH1 0x0 DUP4 ADD MSTORE PUSH2 0x1758 DUP2 PUSH2 0x1511 JUMP JUMPDEST SWAP1 POP SWAP2 SWAP1 POP JUMP JUMPDEST PUSH1 0x0 PUSH1 0x20 DUP3 ADD SWAP1 POP DUP2 DUP2 SUB PUSH1 0x0 DUP4 ADD MSTORE PUSH2 0x1778 DUP2 PUSH2 0x1534 JUMP JUMPDEST SWAP1 POP SWAP2 SWAP1 POP JUMP JUMPDEST PUSH1 0x0 PUSH1 0x20 DUP3 ADD SWAP1 POP DUP2 DUP2 SUB PUSH1 0x0 DUP4 ADD MSTORE PUSH2 0x1798 DUP2 PUSH2 0x1557 JUMP JUMPDEST SWAP1 POP SWAP2 SWAP1 POP JUMP JUMPDEST PUSH1 0x0 PUSH1 0x20 DUP3 ADD SWAP1 POP DUP2 DUP2 SUB PUSH1 0x0 DUP4 ADD MSTORE PUSH2 0x17B8 DUP2 PUSH2 0x157A JUMP JUMPDEST SWAP1 POP SWAP2 SWAP1 POP JUMP JUMPDEST PUSH1 0x0 PUSH1 0x20 DUP3 ADD SWAP1 POP DUP2 DUP2 SUB PUSH1 0x0 DUP4 ADD MSTORE PUSH2 0x17D8 DUP2 PUSH2 0x159D JUMP JUMPDEST SWAP1 POP SWAP2 SWAP1 POP JUMP JUMPDEST PUSH1 0x0 PUSH1 0x20 DUP3 ADD SWAP1 POP DUP2 DUP2 SUB PUSH1 0x0 DUP4 ADD MSTORE PUSH2 0x17F8 DUP2 PUSH2 0x15C0 JUMP JUMPDEST SWAP1 POP SWAP2 SWAP1 POP JUMP JUMPDEST PUSH1 0x0 PUSH1 0x20 DUP3 ADD SWAP1 POP DUP2 DUP2 SUB PUSH1 0x0 DUP4 ADD MSTORE PUSH2 0x1818 DUP2 PUSH2 0x15E3 JUMP JUMPDEST SWAP1 POP SWAP2 SWAP1 POP JUMP JUMPDEST PUSH1 0x0 PUSH1 0x20 DUP3 ADD SWAP1 POP DUP2 DUP2 SUB PUSH1 0x0 DUP4 ADD MSTORE PUSH2 0x1838 DUP2 PUSH2 0x1606 JUMP JUMPDEST SWAP1 POP SWAP2 SWAP1 POP JUMP JUMPDEST PUSH1 0x0 PUSH1 0x20 DUP3 ADD SWAP1 POP DUP2 DUP2 SUB PUSH1 0x0 DUP4 ADD MSTORE PUSH2 0x1858 DUP2 PUSH2 0x1629 JUMP JUMPDEST SWAP1 POP SWAP2 SWAP1 POP JUMP JUMPDEST PUSH1 0x0 PUSH1 0x20 DUP3 ADD SWAP1 POP DUP2 DUP2 SUB PUSH1 0x0 DUP4 ADD MSTORE PUSH2 0x1878 DUP2 PUSH2 0x164C JUMP JUMPDEST SWAP1 POP SWAP2 SWAP1 POP JUMP JUMPDEST PUSH1 0x0 PUSH1 0x20 DUP3 ADD SWAP1 POP DUP2 DUP2 SUB PUSH1 0x0 DUP4 ADD MSTORE PUSH2 0x1898 DUP2 PUSH2 0x166F JUMP JUMPDEST SWAP1 POP SWAP2 SWAP1 POP JUMP JUMPDEST PUSH1 0x0 PUSH1 0x20 DUP3 ADD SWAP1 POP PUSH2 0x18B4 PUSH1 0x0 DUP4 ADD DUP5 PUSH2 0x1692 JUMP JUMPDEST SWAP3 SWAP2 POP POP JUMP JUMPDEST PUSH1 0x0 PUSH1 0x20 DUP3 ADD SWAP1 POP PUSH2 0x18CF PUSH1 0x0 DUP4 ADD DUP5 PUSH2 0x16A1 JUMP JUMPDEST SWAP3 SWAP2 POP POP JUMP JUMPDEST PUSH1 0x0 DUP2 MLOAD SWAP1 POP SWAP2 SWAP1 POP JUMP JUMPDEST PUSH1 0x0 DUP3 DUP3 MSTORE PUSH1 0x20 DUP3 ADD SWAP1 POP SWAP3 SWAP2 POP POP JUMP JUMPDEST PUSH1 0x0 PUSH2 0x18FC DUP3 PUSH2 0x19B6 JUMP JUMPDEST SWAP2 POP PUSH2 0x1907 DUP4 PUSH2 0x19B6 JUMP JUMPDEST SWAP3 POP DUP3 PUSH32 0xFFFFFFFFFFFFFFFFFFFFFFFFFFFFFFFFFFFFFFFFFFFFFFFFFFFFFFFFFFFFFFFF SUB DUP3 GT ISZERO PUSH2 0x193C JUMPI PUSH2 0x193B PUSH2 0x1A32 JUMP JUMPDEST JUMPDEST DUP3 DUP3 ADD SWAP1 POP SWAP3 SWAP2 POP POP JUMP JUMPDEST PUSH1 0x0 PUSH2 0x1952 DUP3 PUSH2 0x19B6 JUMP JUMPDEST SWAP2 POP PUSH2 0x195D DUP4 PUSH2 0x19B6 JUMP JUMPDEST SWAP3 POP DUP3 PUSH2 0x196D JUMPI PUSH2 0x196C PUSH2 0x1A61 JUMP JUMPDEST JUMPDEST DUP3 DUP3 DIV SWAP1 POP SWAP3 SWAP2 POP POP JUMP JUMPDEST PUSH1 0x0 PUSH2 0x1983 DUP3 PUSH2 0x1996 JUMP JUMPDEST SWAP1 POP SWAP2 SWAP1 POP JUMP JUMPDEST PUSH1 0x0 DUP2 ISZERO ISZERO SWAP1 POP SWAP2 SWAP1 POP JUMP JUMPDEST PUSH1 0x0 PUSH20 0xFFFFFFFFFFFFFFFFFFFFFFFFFFFFFFFFFFFFFFFF DUP3 AND SWAP1 POP SWAP2 SWAP1 POP JUMP JUMPDEST PUSH1 0x0 DUP2 SWAP1 POP SWAP2 SWAP1 POP JUMP JUMPDEST PUSH1 0x0 PUSH1 0xFF DUP3 AND SWAP1 POP SWAP2 SWAP1 POP JUMP JUMPDEST PUSH1 0x0 JUMPDEST DUP4 DUP2 LT ISZERO PUSH2 0x19EB JUMPI DUP1 DUP3 ADD MLOAD DUP2 DUP5 ADD MSTORE PUSH1 0x20 DUP2 ADD SWAP1 POP PUSH2 0x19D0 JUMP JUMPDEST DUP4 DUP2 GT ISZERO PUSH2 0x19FA JUMPI PUSH1 0x0 DUP5 DUP5 ADD MSTORE JUMPDEST POP POP POP POP JUMP JUMPDEST PUSH1 0x0 PUSH1 0x2 DUP3 DIV SWAP1 POP PUSH1 0x1 DUP3 AND DUP1 PUSH2 0x1A18 JUMPI PUSH1 0x7F DUP3 AND SWAP2 POP JUMPDEST PUSH1 0x20 DUP3 LT DUP2 EQ ISZERO PUSH2 0x1A2C JUMPI PUSH2 0x1A2B PUSH2 0x1A90 JUMP JUMPDEST JUMPDEST POP SWAP2 SWAP1 POP JUMP JUMPDEST PUSH32 0x4E487B7100000000000000000000000000000000000000000000000000000000 PUSH1 0x0 MSTORE PUSH1 0x11 PUSH1 0x4 MSTORE PUSH1 0x24 PUSH1 0x0 REVERT JUMPDEST PUSH32 0x4E487B7100000000000000000000000000000000000000000000000000000000 PUSH1 0x0 MSTORE PUSH1 0x12 PUSH1 0x4 MSTORE PUSH1 0x24 PUSH1 0x0 REVERT JUMPDEST PUSH32 0x4E487B7100000000000000000000000000000000000000000000000000000000 PUSH1 0x0 MSTORE PUSH1 0x22 PUSH1 0x4 MSTORE PUSH1 0x24 PUSH1 0x0 REVERT JUMPDEST PUSH1 0x0 DUP1 REVERT JUMPDEST PUSH1 0x0 PUSH1 0x1F NOT PUSH1 0x1F DUP4 ADD AND SWAP1 POP SWAP2 SWAP1 POP JUMP JUMPDEST PUSH32 0x45524332303A207472616E7366657220746F20746865207A65726F2061646472 PUSH1 0x0 DUP3 ADD MSTORE PUSH32 0x6573730000000000000000000000000000000000000000000000000000000000 PUSH1 0x20 DUP3 ADD MSTORE POP JUMP JUMPDEST PUSH32 0x4F776E61626C653A206E6577206F776E657220697320746865207A65726F2061 PUSH1 0x0 DUP3 ADD MSTORE PUSH32 0x6464726573730000000000000000000000000000000000000000000000000000 PUSH1 0x20 DUP3 ADD MSTORE POP JUMP JUMPDEST PUSH32 0x45524332303A20617070726F766520746F20746865207A65726F206164647265 PUSH1 0x0 DUP3 ADD MSTORE PUSH32 0x7373000000000000000000000000000000000000000000000000000000000000 PUSH1 0x20 DUP3 ADD MSTORE POP JUMP JUMPDEST PUSH32 0x596F75206E65656420746F2073656E64206D6F72652065746865720000000000 PUSH1 0x0 DUP3 ADD MSTORE POP JUMP JUMPDEST PUSH32 0x45524332303A20696E73756666696369656E7420616C6C6F77616E6365000000 PUSH1 0x0 DUP3 ADD MSTORE POP JUMP JUMPDEST PUSH32 0x45524332303A207472616E7366657220616D6F756E7420657863656564732062 PUSH1 0x0 DUP3 ADD MSTORE PUSH32 0x616C616E63650000000000000000000000000000000000000000000000000000 PUSH1 0x20 DUP3 ADD MSTORE POP JUMP JUMPDEST PUSH32 0x4F776E61626C653A2063616C6C6572206973206E6F7420746865206F776E6572 PUSH1 0x0 DUP3 ADD MSTORE POP JUMP JUMPDEST PUSH32 0x45524332303A207472616E736665722066726F6D20746865207A65726F206164 PUSH1 0x0 DUP3 ADD MSTORE PUSH32 0x6472657373000000000000000000000000000000000000000000000000000000 PUSH1 0x20 DUP3 ADD MSTORE POP JUMP JUMPDEST PUSH32 0x45524332303A20617070726F76652066726F6D20746865207A65726F20616464 PUSH1 0x0 DUP3 ADD MSTORE PUSH32 0x7265737300000000000000000000000000000000000000000000000000000000 PUSH1 0x20 DUP3 ADD MSTORE POP JUMP JUMPDEST PUSH32 0x45524332303A2064656372656173656420616C6C6F77616E63652062656C6F77 PUSH1 0x0 DUP3 ADD MSTORE PUSH32 0x207A65726F000000000000000000000000000000000000000000000000000000 PUSH1 0x20 DUP3 ADD MSTORE POP JUMP JUMPDEST PUSH32 0x45524332303A206D696E7420746F20746865207A65726F206164647265737300 PUSH1 0x0 DUP3 ADD MSTORE POP JUMP JUMPDEST PUSH2 0x1DAB DUP2 PUSH2 0x1978 JUMP JUMPDEST DUP2 EQ PUSH2 0x1DB6 JUMPI PUSH1 0x0 DUP1 REVERT JUMPDEST POP JUMP JUMPDEST PUSH2 0x1DC2 DUP2 PUSH2 0x19B6 JUMP JUMPDEST DUP2 EQ PUSH2 0x1DCD JUMPI PUSH1 0x0 DUP1 REVERT JUMPDEST POP JUMP INVALID LOG2 PUSH5 0x6970667358 0x22 SLT KECCAK256 0xB8 PUSH29 0xDEAA168A78512CB6499B44297AB061C2560B7F5C3429A5FF6A5A3607A4 MOD PUSH5 0x736F6C6343 STOP ADDMOD SMOD STOP CALLER "
				},
				"gasEstimates": {
					"creation": {
						"codeDepositCost": "1537200",
						"executionCost": "infinite",
						"totalCost": "infinite"
					},
					"external": {
						"OwnerEthBalance()": "7385",
						"allowance(address,address)": "infinite",
						"approve(address,uint256)": "infinite",
						"balanceOf(address)": "2952",
						"buyToken(address)": "infinite",
						"decimals()": "388",
						"decreaseAllowance(address,uint256)": "infinite",
						"increaseAllowance(address,uint256)": "infinite",
						"mint(address,uint256)": "infinite",
						"name()": "infinite",
						"owner()": "2589",
						"rate()": "2452",
						"renounceOwnership()": "30397",
						"symbol()": "infinite",
						"totalSupply()": "2505",
						"transfer(address,uint256)": "infinite",
						"transferFrom(address,address,uint256)": "infinite",
						"transferOwnership(address)": "30833"
					}
				},
				"methodIdentifiers": {
					"OwnerEthBalance()": "afb41183",
					"allowance(address,address)": "dd62ed3e",
					"approve(address,uint256)": "095ea7b3",
					"balanceOf(address)": "70a08231",
					"buyToken(address)": "7e72fb52",
					"decimals()": "313ce567",
					"decreaseAllowance(address,uint256)": "a457c2d7",
					"increaseAllowance(address,uint256)": "39509351",
					"mint(address,uint256)": "40c10f19",
					"name()": "06fdde03",
					"owner()": "8da5cb5b",
					"rate()": "2c4e722e",
					"renounceOwnership()": "715018a6",
					"symbol()": "95d89b41",
					"totalSupply()": "18160ddd",
					"transfer(address,uint256)": "a9059cbb",
					"transferFrom(address,address,uint256)": "23b872dd",
					"transferOwnership(address)": "f2fde38b"
				}
			},
			"userdoc": {
				"kind": "user",
				"methods": {},
				"version": 1
			}
		}
	}
}